{
  "contractName": "BaseContact",
  "abi": [
    {
      "anonymous": false,
      "inputs": [
        {
          "indexed": true,
          "internalType": "address",
          "name": "old_admin",
          "type": "address"
        },
        {
          "indexed": true,
          "internalType": "address",
          "name": "new_admin",
          "type": "address"
        }
      ],
      "name": "AdminTransferred",
      "type": "event"
    },
    {
      "inputs": [],
      "name": "admin",
      "outputs": [
        {
          "internalType": "address",
          "name": "",
          "type": "address"
        }
      ],
      "stateMutability": "view",
      "type": "function"
    },
    {
      "inputs": [],
      "name": "renounceAdmin",
      "outputs": [],
      "stateMutability": "nonpayable",
      "type": "function"
    },
    {
      "inputs": [
        {
          "internalType": "address",
          "name": "new_admin",
          "type": "address"
        }
      ],
      "name": "transferAdmin",
      "outputs": [],
      "stateMutability": "nonpayable",
      "type": "function"
    }
  ],
  "bytecode": "0x608060405234801561001057600080fd5b506104ee806100206000396000f3fe608060405234801561001057600080fd5b50600436106100415760003560e01c806375829def146100465780638bad0c0a14610062578063f851a4401461006c575b600080fd5b610060600480360381019061005b9190610378565b61008a565b005b61006a610193565b005b61007461022d565b60405161008191906103b4565b60405180910390f35b3373ffffffffffffffffffffffffffffffffffffffff1660008054906101000a900473ffffffffffffffffffffffffffffffffffffffff1673ffffffffffffffffffffffffffffffffffffffff1614610118576040517f08c379a000000000000000000000000000000000000000000000000000000000815260040161010f9061042c565b60405180910390fd5b600073ffffffffffffffffffffffffffffffffffffffff168173ffffffffffffffffffffffffffffffffffffffff1603610187576040517f08c379a000000000000000000000000000000000000000000000000000000000815260040161017e90610498565b60405180910390fd5b61019081610251565b50565b3373ffffffffffffffffffffffffffffffffffffffff1660008054906101000a900473ffffffffffffffffffffffffffffffffffffffff1673ffffffffffffffffffffffffffffffffffffffff1614610221576040517f08c379a00000000000000000000000000000000000000000000000000000000081526004016102189061042c565b60405180910390fd5b61022b6000610251565b565b60008054906101000a900473ffffffffffffffffffffffffffffffffffffffff1681565b60008060009054906101000a900473ffffffffffffffffffffffffffffffffffffffff169050816000806101000a81548173ffffffffffffffffffffffffffffffffffffffff021916908373ffffffffffffffffffffffffffffffffffffffff1602179055508173ffffffffffffffffffffffffffffffffffffffff168173ffffffffffffffffffffffffffffffffffffffff167ff8ccb027dfcd135e000e9d45e6cc2d662578a8825d4c45b5e32e0adf67e79ec660405160405180910390a35050565b600080fd5b600073ffffffffffffffffffffffffffffffffffffffff82169050919050565b60006103458261031a565b9050919050565b6103558161033a565b811461036057600080fd5b50565b6000813590506103728161034c565b92915050565b60006020828403121561038e5761038d610315565b5b600061039c84828501610363565b91505092915050565b6103ae8161033a565b82525050565b60006020820190506103c960008301846103a5565b92915050565b600082825260208201905092915050565b7f41646d696e436f6e74726163743e5f6f6e6c7941646d696e5f00000000000000600082015250565b60006104166019836103cf565b9150610421826103e0565b602082019050919050565b6000602082019050818103600083015261044581610409565b9050919050565b7f41646d696e436f6e74726163743e7472616e7366657241646d696e0000000000600082015250565b6000610482601b836103cf565b915061048d8261044c565b602082019050919050565b600060208201905081810360008301526104b181610475565b905091905056fea2646970667358221220f27d3974cd1c0b4cbd62c9400d77bbc7e7225ad35e7a81fcf203187ea84cb1d064736f6c63430008110033",
  "immutableReferences": {},
  "source": "//SPDX-License-Identifier: GPL-3.0\r\npragma solidity ^0.8.17;\r\n\r\nimport \"./Admin.sol\";\r\nimport \"./Store.sol\";\r\nimport \"./Review.sol\";\r\n\r\ncontract BaseContact is AdminContract, ReviewContact, StoreContact {\r\n    using AddressLinkedList for AddressLinkedList.T;\r\n    using AddressOrderedMap for AddressOrderedMap.T;\r\n\r\n    function _registered_(address user_address)\r\n    internal view {\r\n        require(users.user_info[user_address].login_timestamp != 0, \"E0: User.sol>UserContract>_registered_\");\r\n    }\r\n\r\n    function _notRegistered_(address user_address)\r\n    internal view {\r\n        require(users.user_info[user_address].login_timestamp == 0, \"E1: User.sol>UserContract>_notRegistered_\");\r\n    }\r\n\r\n    function _validCategory_(address category_address)\r\n    internal view {\r\n        require(categories.category_index.isContain(category_address), \"BaseContact>_validCategory_\");\r\n    }\r\n\r\n    function _uintRange_(uint data, uint min, uint max)\r\n    internal pure {\r\n        require(min == 0 || data >= min, \"BaseContact>_range_>1\");\r\n        require(max == 0 || data <= max, \"BaseContact>_range_>2\");\r\n    }\r\n\r\n    function _stringRange_(string memory data, uint min, uint max)\r\n    internal pure {\r\n        uint length = bytes(data).length / 3;\r\n        require(min == 0 || length >= min, \"BaseContact>_range_>1\");\r\n        require(max == 0 || length <= max, \"BaseContact>_range_>2\");\r\n    }\r\n\r\n    function toAddress(bytes32 input)\r\n    internal pure returns (address output){\r\n        output = address(uint160(uint256(input)));\r\n    }\r\n}\r\n",
  "sourcePath": "F:\\OurChain\\OurShare\\src\\assets\\eth\\contracts\\implementations\\base\\Base.sol",
  "compiler": {
    "name": "solc",
    "version": "0.8.17+commit.8df45f5f.Emscripten.clang"
  },
  "schemaVersion": "3.4.13",
  "updatedAt": "2023-05-25T05:46:13.362Z",
  "devdoc": {
    "kind": "dev",
    "methods": {},
    "version": 1
  },
  "userdoc": {
    "kind": "user",
    "methods": {},
    "version": 1
  }
}