{
  "contractName": "ImplementationContact",
  "abi": [
    {
      "anonymous": false,
      "inputs": [
        {
          "indexed": true,
          "internalType": "address",
          "name": "old_admin",
          "type": "address"
        },
        {
          "indexed": true,
          "internalType": "address",
          "name": "new_admin",
          "type": "address"
        }
      ],
      "name": "AdminTransferred",
      "type": "event"
    },
    {
      "inputs": [],
      "name": "RewardContract_init",
      "outputs": [],
      "stateMutability": "nonpayable",
      "type": "function"
    },
    {
      "inputs": [
        {
          "internalType": "string",
          "name": "name",
          "type": "string"
        }
      ],
      "name": "addCategory",
      "outputs": [],
      "stateMutability": "nonpayable",
      "type": "function"
    },
    {
      "inputs": [],
      "name": "admin",
      "outputs": [
        {
          "internalType": "address",
          "name": "",
          "type": "address"
        }
      ],
      "stateMutability": "view",
      "type": "function",
      "constant": true
    },
    {
      "inputs": [
        {
          "internalType": "address",
          "name": "cursor",
          "type": "address"
        }
      ],
      "name": "getCategorySlice",
      "outputs": [
        {
          "components": [
            {
              "internalType": "address",
              "name": "category_address",
              "type": "address"
            },
            {
              "internalType": "string",
              "name": "name",
              "type": "string"
            },
            {
              "internalType": "uint256",
              "name": "num",
              "type": "uint256"
            }
          ],
          "internalType": "struct StoreContact.Category[10]",
          "name": "category_slice",
          "type": "tuple[10]"
        },
        {
          "internalType": "address",
          "name": "next",
          "type": "address"
        }
      ],
      "stateMutability": "view",
      "type": "function",
      "constant": true
    },
    {
      "inputs": [
        {
          "internalType": "address",
          "name": "cursor",
          "type": "address"
        },
        {
          "internalType": "address",
          "name": "category",
          "type": "address"
        },
        {
          "internalType": "uint256",
          "name": "order",
          "type": "uint256"
        },
        {
          "internalType": "bool",
          "name": "reverse",
          "type": "bool"
        }
      ],
      "name": "getFileBriefInfos",
      "outputs": [
        {
          "components": [
            {
              "internalType": "address",
              "name": "category",
              "type": "address"
            },
            {
              "internalType": "address",
              "name": "file_address",
              "type": "address"
            },
            {
              "internalType": "bool",
              "name": "is_buy",
              "type": "bool"
            },
            {
              "internalType": "string",
              "name": "name",
              "type": "string"
            },
            {
              "internalType": "string",
              "name": "title",
              "type": "string"
            },
            {
              "internalType": "string",
              "name": "owner",
              "type": "string"
            },
            {
              "internalType": "string",
              "name": "description",
              "type": "string"
            },
            {
              "internalType": "string",
              "name": "cover",
              "type": "string"
            },
            {
              "internalType": "uint256",
              "name": "price",
              "type": "uint256"
            },
            {
              "internalType": "uint256",
              "name": "up_num",
              "type": "uint256"
            },
            {
              "internalType": "uint256",
              "name": "down_num",
              "type": "uint256"
            },
            {
              "internalType": "uint256",
              "name": "buyer_num",
              "type": "uint256"
            },
            {
              "internalType": "uint256",
              "name": "comment_num",
              "type": "uint256"
            },
            {
              "internalType": "uint256",
              "name": "up_and_down",
              "type": "uint256"
            },
            {
              "internalType": "uint256",
              "name": "upload_timestamp",
              "type": "uint256"
            }
          ],
          "internalType": "struct StoreContact.FileBriefInfo[10]",
          "name": "file_infos",
          "type": "tuple[10]"
        },
        {
          "internalType": "address",
          "name": "next",
          "type": "address"
        },
        {
          "internalType": "bool",
          "name": "finished",
          "type": "bool"
        }
      ],
      "stateMutability": "view",
      "type": "function",
      "constant": true
    },
    {
      "inputs": [
        {
          "internalType": "address",
          "name": "file_address",
          "type": "address"
        }
      ],
      "name": "getFileDetailInfo",
      "outputs": [
        {
          "components": [
            {
              "internalType": "address",
              "name": "owner",
              "type": "address"
            },
            {
              "internalType": "address",
              "name": "category",
              "type": "address"
            },
            {
              "internalType": "address",
              "name": "file_address",
              "type": "address"
            },
            {
              "internalType": "bool",
              "name": "is_buy",
              "type": "bool"
            },
            {
              "internalType": "string",
              "name": "name",
              "type": "string"
            },
            {
              "internalType": "string",
              "name": "title",
              "type": "string"
            },
            {
              "internalType": "string",
              "name": "description",
              "type": "string"
            },
            {
              "internalType": "string",
              "name": "ipfs_address",
              "type": "string"
            },
            {
              "internalType": "string[3]",
              "name": "images",
              "type": "string[3]"
            },
            {
              "internalType": "uint256",
              "name": "price",
              "type": "uint256"
            },
            {
              "internalType": "uint256",
              "name": "up_num",
              "type": "uint256"
            },
            {
              "internalType": "uint256",
              "name": "down_num",
              "type": "uint256"
            },
            {
              "internalType": "uint256",
              "name": "buyer_num",
              "type": "uint256"
            },
            {
              "internalType": "uint256",
              "name": "comment_num",
              "type": "uint256"
            },
            {
              "internalType": "uint256",
              "name": "up_and_down",
              "type": "uint256"
            },
            {
              "internalType": "uint256",
              "name": "upload_timestamp",
              "type": "uint256"
            }
          ],
          "internalType": "struct StoreContact.FileDetailInfo",
          "name": "detail_info",
          "type": "tuple"
        }
      ],
      "stateMutability": "view",
      "type": "function",
      "constant": true
    },
    {
      "inputs": [
        {
          "internalType": "address",
          "name": "user_address",
          "type": "address"
        }
      ],
      "name": "getOtherSimpleInfo",
      "outputs": [
        {
          "components": [
            {
              "internalType": "string",
              "name": "major",
              "type": "string"
            },
            {
              "internalType": "string",
              "name": "avatar",
              "type": "string"
            },
            {
              "internalType": "string",
              "name": "nickname",
              "type": "string"
            },
            {
              "internalType": "string",
              "name": "signature",
              "type": "string"
            },
            {
              "internalType": "uint256",
              "name": "heart",
              "type": "uint256"
            },
            {
              "internalType": "uint256",
              "name": "experience",
              "type": "uint256"
            },
            {
              "internalType": "uint256",
              "name": "follower_num",
              "type": "uint256"
            },
            {
              "internalType": "uint256",
              "name": "uploaded_file_num",
              "type": "uint256"
            }
          ],
          "internalType": "struct StoreContact.UserSimpleInfo",
          "name": "simple_info",
          "type": "tuple"
        }
      ],
      "stateMutability": "view",
      "type": "function",
      "constant": true
    },
    {
      "inputs": [
        {
          "internalType": "address",
          "name": "cursor",
          "type": "address"
        },
        {
          "internalType": "bool",
          "name": "reverse",
          "type": "bool"
        }
      ],
      "name": "getSelfFileBriefInfos",
      "outputs": [
        {
          "components": [
            {
              "internalType": "address",
              "name": "category",
              "type": "address"
            },
            {
              "internalType": "address",
              "name": "file_address",
              "type": "address"
            },
            {
              "internalType": "bool",
              "name": "is_buy",
              "type": "bool"
            },
            {
              "internalType": "string",
              "name": "name",
              "type": "string"
            },
            {
              "internalType": "string",
              "name": "title",
              "type": "string"
            },
            {
              "internalType": "string",
              "name": "owner",
              "type": "string"
            },
            {
              "internalType": "string",
              "name": "description",
              "type": "string"
            },
            {
              "internalType": "string",
              "name": "cover",
              "type": "string"
            },
            {
              "internalType": "uint256",
              "name": "price",
              "type": "uint256"
            },
            {
              "internalType": "uint256",
              "name": "up_num",
              "type": "uint256"
            },
            {
              "internalType": "uint256",
              "name": "down_num",
              "type": "uint256"
            },
            {
              "internalType": "uint256",
              "name": "buyer_num",
              "type": "uint256"
            },
            {
              "internalType": "uint256",
              "name": "comment_num",
              "type": "uint256"
            },
            {
              "internalType": "uint256",
              "name": "up_and_down",
              "type": "uint256"
            },
            {
              "internalType": "uint256",
              "name": "upload_timestamp",
              "type": "uint256"
            }
          ],
          "internalType": "struct StoreContact.FileBriefInfo[10]",
          "name": "file_infos",
          "type": "tuple[10]"
        },
        {
          "internalType": "address",
          "name": "next",
          "type": "address"
        }
      ],
      "stateMutability": "view",
      "type": "function",
      "constant": true
    },
    {
      "inputs": [],
      "name": "getSelfInfo",
      "outputs": [
        {
          "components": [
            {
              "internalType": "string",
              "name": "major",
              "type": "string"
            },
            {
              "internalType": "string",
              "name": "avatar",
              "type": "string"
            },
            {
              "internalType": "string",
              "name": "nickname",
              "type": "string"
            },
            {
              "internalType": "string",
              "name": "signature",
              "type": "string"
            },
            {
              "internalType": "uint256",
              "name": "ID",
              "type": "uint256"
            },
            {
              "internalType": "uint256",
              "name": "coins",
              "type": "uint256"
            },
            {
              "internalType": "uint256",
              "name": "heart",
              "type": "uint256"
            },
            {
              "internalType": "uint256",
              "name": "experience",
              "type": "uint256"
            },
            {
              "internalType": "uint256",
              "name": "follower_num",
              "type": "uint256"
            },
            {
              "internalType": "uint256",
              "name": "following_num",
              "type": "uint256"
            },
            {
              "internalType": "uint256",
              "name": "login_timestamp",
              "type": "uint256"
            },
            {
              "internalType": "uint256",
              "name": "uploaded_file_num",
              "type": "uint256"
            }
          ],
          "internalType": "struct StoreContact.UserSelfInfo",
          "name": "self_info",
          "type": "tuple"
        }
      ],
      "stateMutability": "view",
      "type": "function",
      "constant": true
    },
    {
      "inputs": [
        {
          "internalType": "address",
          "name": "user_address",
          "type": "address"
        }
      ],
      "name": "isRegistered",
      "outputs": [
        {
          "internalType": "bool",
          "name": "is_registered",
          "type": "bool"
        }
      ],
      "stateMutability": "view",
      "type": "function",
      "constant": true
    },
    {
      "inputs": [
        {
          "internalType": "string",
          "name": "nickname",
          "type": "string"
        }
      ],
      "name": "register",
      "outputs": [],
      "stateMutability": "nonpayable",
      "type": "function"
    },
    {
      "inputs": [],
      "name": "renounceAdmin",
      "outputs": [],
      "stateMutability": "nonpayable",
      "type": "function"
    },
    {
      "inputs": [
        {
          "internalType": "address",
          "name": "new_admin",
          "type": "address"
        }
      ],
      "name": "transferAdmin",
      "outputs": [],
      "stateMutability": "nonpayable",
      "type": "function"
    },
    {
      "inputs": [
        {
          "internalType": "string",
          "name": "avatar",
          "type": "string"
        }
      ],
      "name": "updateAvatar",
      "outputs": [],
      "stateMutability": "nonpayable",
      "type": "function"
    },
    {
      "inputs": [
        {
          "internalType": "string",
          "name": "nickname",
          "type": "string"
        }
      ],
      "name": "updateNickname",
      "outputs": [],
      "stateMutability": "nonpayable",
      "type": "function"
    },
    {
      "inputs": [
        {
          "internalType": "string",
          "name": "signature",
          "type": "string"
        }
      ],
      "name": "updateSignature",
      "outputs": [],
      "stateMutability": "nonpayable",
      "type": "function"
    },
    {
      "inputs": [
        {
          "internalType": "string",
          "name": "ipfs_address",
          "type": "string"
        },
        {
          "internalType": "string",
          "name": "name",
          "type": "string"
        },
        {
          "internalType": "string",
          "name": "title",
          "type": "string"
        },
        {
          "internalType": "string",
          "name": "description",
          "type": "string"
        },
        {
          "internalType": "address",
          "name": "category",
          "type": "address"
        },
        {
          "internalType": "string[3]",
          "name": "images",
          "type": "string[3]"
        },
        {
          "internalType": "uint256",
          "name": "price",
          "type": "uint256"
        }
      ],
      "name": "uploadFile",
      "outputs": [],
      "stateMutability": "nonpayable",
      "type": "function"
    },
    {
      "inputs": [],
      "name": "init",
      "outputs": [],
      "stateMutability": "nonpayable",
      "type": "function"
    }
  ],
  "bytecode": "0x608060405234801561001057600080fd5b5061583480620000216000396000f3fe608060405234801561001057600080fd5b50600436106101165760003560e01c8063bd2e3b17116100a2578063db12e04111610071578063db12e041146102f3578063e1c7392a146102fd578063f2c298be14610307578063f2e9c78314610323578063f851a4401461033f57610116565b8063bd2e3b1714610246578063c3c5a54714610262578063c8ef7dd614610292578063cffa6442146102c257610116565b806375829def116100e957806375829def146101ca5780637e8e7733146101e65780638bad0c0a146102045780639fe958b91461020e578063a389559f1461022a57610116565b806320c16dd51461011b57806324c432e21461014d5780632e0dcbf71461017e5780636020c0041461019a575b600080fd5b61013560048036038101906101309190613f57565b61035d565b604051610144939291906142ae565b60405180910390f35b610167600480360381019061016291906142ec565b610840565b60405161017592919061432c565b60405180910390f35b61019860048036038101906101939190614491565b6109f6565b005b6101b460048036038101906101af91906144da565b610bc6565b6040516101c191906145cc565b60405180910390f35b6101e460048036038101906101df91906144da565b610eb5565b005b6101ee610fbe565b6040516101fb9190614707565b60405180910390f35b61020c6112bd565b005b61022860048036038101906102239190614491565b611357565b005b610244600480360381019061023f9190614491565b6113c9565b005b610260600480360381019061025b9190614491565b61143b565b005b61027c600480360381019061027791906144da565b6114ad565b6040516102899190614729565b60405180910390f35b6102ac60048036038101906102a791906144da565b6114ff565b6040516102b9919061496e565b60405180910390f35b6102dc60048036038101906102d791906144da565b611afa565b6040516102ea929190614a96565b60405180910390f35b6102fb611d5a565b005b610305611d5c565b005b610321600480360381019061031c9190614491565b611e45565b005b61033d60048036038101906103389190614b9a565b61265a565b005b610347612dbf565b6040516103549190614cc8565b60405180910390f35b610365613adf565b600080610370613b0d565b60005b600a81101561083457851561056657600173ffffffffffffffffffffffffffffffffffffffff168973ffffffffffffffffffffffffffffffffffffffff16036103bf5760019250610834565b6001870361044e57601b60050173__AddressOrderedMap_____________________63f8e3ec5690918b6040518363ffffffff1660e01b8152600401610406929190614cf9565b602060405180830381865af4158015610423573d6000803e3d6000fd5b505050506040513d601f19601f820116820180604052508101906104479190614d37565b9850610561565b600287036104dd57601b600a0173__AddressOrderedMap_____________________63f8e3ec5690918b6040518363ffffffff1660e01b8152600401610495929190614cf9565b602060405180830381865af41580156104b2573d6000803e3d6000fd5b505050506040513d601f19601f820116820180604052508101906104d69190614d37565b9850610560565b601b60010173__AddressLinkedList_____________________635008f58590918b6040518363ffffffff1660e01b815260040161051c929190614d6b565b602060405180830381865af4158015610539573d6000803e3d6000fd5b505050506040513d601f19601f8201168201806040525081019061055d9190614d37565b98505b5b610746565b600273ffffffffffffffffffffffffffffffffffffffff168973ffffffffffffffffffffffffffffffffffffffff16036105a35760019250610834565b6001870361063257601b60050173__AddressOrderedMap_____________________63da35ee4b90918b6040518363ffffffff1660e01b81526004016105ea929190614cf9565b602060405180830381865af4158015610607573d6000803e3d6000fd5b505050506040513d601f19601f8201168201806040525081019061062b9190614d37565b9850610745565b600287036106c157601b600a0173__AddressOrderedMap_____________________63da35ee4b90918b6040518363ffffffff1660e01b8152600401610679929190614cf9565b602060405180830381865af4158015610696573d6000803e3d6000fd5b505050506040513d601f19601f820116820180604052508101906106ba9190614d37565b9850610744565b601b60010173__AddressLinkedList_____________________635cb1e46590918b6040518363ffffffff1660e01b8152600401610700929190614d6b565b602060405180830381865af415801561071d573d6000803e3d6000fd5b505050506040513d601f19601f820116820180604052508101906107419190614d37565b98505b5b5b610790601b60000160008b73ffffffffffffffffffffffffffffffffffffffff1673ffffffffffffffffffffffffffffffffffffffff168152602001908152602001600020612de3565b91508773ffffffffffffffffffffffffffffffffffffffff16826000015173ffffffffffffffffffffffffffffffffffffffff1614806107fc5750600073ffffffffffffffffffffffffffffffffffffffff168873ffffffffffffffffffffffffffffffffffffffff16145b1561082c57818582600a811061081557610814614d94565b5b6020020181905250808061082890614df2565b9150505b889350610373565b50509450945094915050565b610848613adf565b600061085333613373565b6000600260000160003373ffffffffffffffffffffffffffffffffffffffff1673ffffffffffffffffffffffffffffffffffffffff16815260200190815260200160002060280173__AddressLinkedList_____________________637ea94909909187876040518463ffffffff1660e01b81526004016108d693929190614e49565b61014060405180830381865af41580156108f4573d6000803e3d6000fd5b505050506040513d601f19601f820116820180604052508101906109189190614f31565b905060005b600a8110156109ed578181600a811061093957610938614d94565b5b60200201519250600073ffffffffffffffffffffffffffffffffffffffff168373ffffffffffffffffffffffffffffffffffffffff1603156109ed576109bf601b60000160008573ffffffffffffffffffffffffffffffffffffffff1673ffffffffffffffffffffffffffffffffffffffff168152602001908152602001600020612de3565b8482600a81106109d2576109d1614d94565b5b602002018190525080806109e590614df2565b91505061091d565b50509250929050565b3373ffffffffffffffffffffffffffffffffffffffff1660008054906101000a900473ffffffffffffffffffffffffffffffffffffffff1673ffffffffffffffffffffffffffffffffffffffff1614610a84576040517f08c379a0000000000000000000000000000000000000000000000000000000008152600401610a7b90614fbc565b60405180910390fd5b6000610ab582604051602001610a9a9190615018565b604051602081830303815290604052805190602001206133fe565b90506000601660000160008373ffffffffffffffffffffffffffffffffffffffff1673ffffffffffffffffffffffffffffffffffffffff1681526020019081526020016000209050818160000160006101000a81548173ffffffffffffffffffffffffffffffffffffffff021916908373ffffffffffffffffffffffffffffffffffffffff16021790555082816001019081610b51919061523b565b50601660010173__AddressLinkedList_____________________63dbd4df179091846040518363ffffffff1660e01b8152600401610b91929190614d6b565b60006040518083038186803b158015610ba957600080fd5b505af4158015610bbd573d6000803e3d6000fd5b50505050505050565b610bce613bb1565b610bd782613373565b6000600260000160003373ffffffffffffffffffffffffffffffffffffffff1673ffffffffffffffffffffffffffffffffffffffff1681526020019081526020016000209050806001018054610c2c9061505e565b80601f0160208091040260200160405190810160405280929190818152602001828054610c589061505e565b8015610ca55780601f10610c7a57610100808354040283529160200191610ca5565b820191906000526020600020905b815481529060010190602001808311610c8857829003601f168201915b50505050508260000181905250806002018054610cc19061505e565b80601f0160208091040260200160405190810160405280929190818152602001828054610ced9061505e565b8015610d3a5780601f10610d0f57610100808354040283529160200191610d3a565b820191906000526020600020905b815481529060010190602001808311610d1d57829003601f168201915b50505050508260200181905250806003018054610d569061505e565b80601f0160208091040260200160405190810160405280929190818152602001828054610d829061505e565b8015610dcf5780601f10610da457610100808354040283529160200191610dcf565b820191906000526020600020905b815481529060010190602001808311610db257829003601f168201915b50505050508260400181905250806004018054610deb9061505e565b80601f0160208091040260200160405190810160405280929190818152602001828054610e179061505e565b8015610e645780601f10610e3957610100808354040283529160200191610e64565b820191906000526020600020905b815481529060010190602001808311610e4757829003601f168201915b50505050508260600181905250806008015482608001818152505080600901548260a001818152505080601701600301548260c001818152505080602801600301548260e001818152505050919050565b3373ffffffffffffffffffffffffffffffffffffffff1660008054906101000a900473ffffffffffffffffffffffffffffffffffffffff1673ffffffffffffffffffffffffffffffffffffffff1614610f43576040517f08c379a0000000000000000000000000000000000000000000000000000000008152600401610f3a90614fbc565b60405180910390fd5b600073ffffffffffffffffffffffffffffffffffffffff168173ffffffffffffffffffffffffffffffffffffffff1603610fb2576040517f08c379a0000000000000000000000000000000000000000000000000000000008152600401610fa990615359565b60405180910390fd5b610fbb8161340b565b50565b610fc6613bf6565b6000600260000160003373ffffffffffffffffffffffffffffffffffffffff1673ffffffffffffffffffffffffffffffffffffffff16815260200190815260200160002090506040518061018001604052808260010180546110279061505e565b80601f01602080910402602001604051908101604052809291908181526020018280546110539061505e565b80156110a05780601f10611075576101008083540402835291602001916110a0565b820191906000526020600020905b81548152906001019060200180831161108357829003601f168201915b505050505081526020018260020180546110b99061505e565b80601f01602080910402602001604051908101604052809291908181526020018280546110e59061505e565b80156111325780601f1061110757610100808354040283529160200191611132565b820191906000526020600020905b81548152906001019060200180831161111557829003601f168201915b5050505050815260200182600301805461114b9061505e565b80601f01602080910402602001604051908101604052809291908181526020018280546111779061505e565b80156111c45780601f10611199576101008083540402835291602001916111c4565b820191906000526020600020905b8154815290600101906020018083116111a757829003601f168201915b505050505081526020018260040180546111dd9061505e565b80601f01602080910402602001604051908101604052809291908181526020018280546112099061505e565b80156112565780601f1061122b57610100808354040283529160200191611256565b820191906000526020600020905b81548152906001019060200180831161123957829003601f168201915b50505050508152602001826005015481526020018260070154815260200182600801548152602001826009015481526020018260170160030154815260200182601b0160030154815260200182600a01548152602001826028016003015481525091505090565b3373ffffffffffffffffffffffffffffffffffffffff1660008054906101000a900473ffffffffffffffffffffffffffffffffffffffff1673ffffffffffffffffffffffffffffffffffffffff161461134b576040517f08c379a000000000000000000000000000000000000000000000000000000000815260040161134290614fbc565b60405180910390fd5b611355600061340b565b565b61136033613373565b61136d816001600a6134cf565b6000600260000160003373ffffffffffffffffffffffffffffffffffffffff1673ffffffffffffffffffffffffffffffffffffffff1681526020019081526020016000209050818160020190816113c4919061523b565b505050565b6113d233613373565b6113df81600160206134cf565b6000600260000160003373ffffffffffffffffffffffffffffffffffffffff1673ffffffffffffffffffffffffffffffffffffffff168152602001908152602001600020905081816004019081611436919061523b565b505050565b61144433613373565b611451816001600a6134cf565b6000600260000160003373ffffffffffffffffffffffffffffffffffffffff1673ffffffffffffffffffffffffffffffffffffffff1681526020019081526020016000209050818160030190816114a8919061523b565b505050565b600080600260000160008473ffffffffffffffffffffffffffffffffffffffff1673ffffffffffffffffffffffffffffffffffffffff168152602001908152602001600020600a015414159050919050565b611507613c57565b6000601b60000160008473ffffffffffffffffffffffffffffffffffffffff1673ffffffffffffffffffffffffffffffffffffffff16815260200190815260200160002090508060000160009054906101000a900473ffffffffffffffffffffffffffffffffffffffff16826000019073ffffffffffffffffffffffffffffffffffffffff16908173ffffffffffffffffffffffffffffffffffffffff16815250508060010160009054906101000a900473ffffffffffffffffffffffffffffffffffffffff16826020019073ffffffffffffffffffffffffffffffffffffffff16908173ffffffffffffffffffffffffffffffffffffffff16815250508060020160009054906101000a900473ffffffffffffffffffffffffffffffffffffffff16826040019073ffffffffffffffffffffffffffffffffffffffff16908173ffffffffffffffffffffffffffffffffffffffff168152505080600f0160003373ffffffffffffffffffffffffffffffffffffffff1673ffffffffffffffffffffffffffffffffffffffff16815260200190815260200160002060009054906101000a900460ff168260600190151590811515815250508060030180546116ce9061505e565b80601f01602080910402602001604051908101604052809291908181526020018280546116fa9061505e565b80156117475780601f1061171c57610100808354040283529160200191611747565b820191906000526020600020905b81548152906001019060200180831161172a57829003601f168201915b505050505082608001819052508060040180546117639061505e565b80601f016020809104026020016040519081016040528092919081815260200182805461178f9061505e565b80156117dc5780601f106117b1576101008083540402835291602001916117dc565b820191906000526020600020905b8154815290600101906020018083116117bf57829003601f168201915b50505050508260a001819052508060050180546117f89061505e565b80601f01602080910402602001604051908101604052809291908181526020018280546118249061505e565b80156118715780601f1061184657610100808354040283529160200191611871565b820191906000526020600020905b81548152906001019060200180831161185457829003601f168201915b50505050508260c0018190525080600701600380602002604051908101604052809291906000905b8282101561193c5783820180546118af9061505e565b80601f01602080910402602001604051908101604052809291908181526020018280546118db9061505e565b80156119285780601f106118fd57610100808354040283529160200191611928565b820191906000526020600020905b81548152906001019060200180831161190b57829003601f168201915b505050505081526020019060010190611899565b505050508261010001819052508160600151156119e9578060060180546119629061505e565b80601f016020809104026020016040519081016040528092919081815260200182805461198e9061505e565b80156119db5780601f106119b0576101008083540402835291602001916119db565b820191906000526020600020905b8154815290600101906020018083116119be57829003601f168201915b50505050508260e001819052505b80600a01548261012001818152505080600b01548261014001818152505080600c01548261016001818152505080600d015482610180018181525050600160008260020160009054906101000a900473ffffffffffffffffffffffffffffffffffffffff1673ffffffffffffffffffffffffffffffffffffffff1673ffffffffffffffffffffffffffffffffffffffff16815260200190815260200160002060010160030154826101a00181815250508060100160003373ffffffffffffffffffffffffffffffffffffffff1673ffffffffffffffffffffffffffffffffffffffff16815260200190815260200160002054826101c001818152505080600e0154826101e001818152505050919050565b611b02613d1e565b600080601660010173__AddressLinkedList_____________________637ea9490990918660006040518463ffffffff1660e01b8152600401611b4793929190614e49565b61014060405180830381865af4158015611b65573d6000803e3d6000fd5b505050506040513d601f19601f82011682018060405250810190611b899190614f31565b905060005b600a811015611d53578181600a8110611baa57611ba9614d94565b5b60200201519250600073ffffffffffffffffffffffffffffffffffffffff168373ffffffffffffffffffffffffffffffffffffffff160315611d5357601660000160008473ffffffffffffffffffffffffffffffffffffffff1673ffffffffffffffffffffffffffffffffffffffff1681526020019081526020016000206040518060600160405290816000820160009054906101000a900473ffffffffffffffffffffffffffffffffffffffff1673ffffffffffffffffffffffffffffffffffffffff1673ffffffffffffffffffffffffffffffffffffffff168152602001600182018054611c999061505e565b80601f0160208091040260200160405190810160405280929190818152602001828054611cc59061505e565b8015611d125780601f10611ce757610100808354040283529160200191611d12565b820191906000526020600020905b815481529060010190602001808311611cf557829003601f168201915b505050505081526020016002820154815250508482600a8110611d3857611d37614d94565b5b60200201819052508080611d4b90614df2565b915050611b8e565b5050915091565b565b600073ffffffffffffffffffffffffffffffffffffffff1660008054906101000a900473ffffffffffffffffffffffffffffffffffffffff1673ffffffffffffffffffffffffffffffffffffffff1603611deb576040517f08c379a0000000000000000000000000000000000000000000000000000000008152600401611de2906153c5565b60405180910390fd5b336000806101000a81548173ffffffffffffffffffffffffffffffffffffffff021916908373ffffffffffffffffffffffffffffffffffffffff160217905550611e33613583565b611e3b613739565b611e436138ef565b565b611e4e336138f1565b611e5b816001600a6134cf565b6000600260000160003373ffffffffffffffffffffffffffffffffffffffff1673ffffffffffffffffffffffffffffffffffffffff1681526020019081526020016000209050600281600601819055504281600a018190555081816003019081611ec5919061523b565b50338160000160006101000a81548173ffffffffffffffffffffffffffffffffffffffff021916908373ffffffffffffffffffffffffffffffffffffffff16021790555080600b0173__AddressLinkedList_____________________637fc06cef90916040518263ffffffff1660e01b8152600401611f4591906153e5565b60006040518083038186803b158015611f5d57600080fd5b505af4158015611f71573d6000803e3d6000fd5b5050505080600f0173__AddressLinkedList_____________________637fc06cef90916040518263ffffffff1660e01b8152600401611fb191906153e5565b60006040518083038186803b158015611fc957600080fd5b505af4158015611fdd573d6000803e3d6000fd5b505050508060130173__AddressLinkedList_____________________637fc06cef90916040518263ffffffff1660e01b815260040161201d91906153e5565b60006040518083038186803b15801561203557600080fd5b505af4158015612049573d6000803e3d6000fd5b505050508060170173__AddressLinkedList_____________________637fc06cef90916040518263ffffffff1660e01b815260040161208991906153e5565b60006040518083038186803b1580156120a157600080fd5b505af41580156120b5573d6000803e3d6000fd5b5050505080601b0173__AddressLinkedList_____________________637fc06cef90916040518263ffffffff1660e01b81526004016120f591906153e5565b60006040518083038186803b15801561210d57600080fd5b505af4158015612121573d6000803e3d6000fd5b5050505080601f0173__AddressOrderedMap_____________________63abc7dfcc90916040518263ffffffff1660e01b81526004016121619190615400565b60006040518083038186803b15801561217957600080fd5b505af415801561218d573d6000803e3d6000fd5b505050508060240173__AddressLinkedList_____________________637fc06cef90916040518263ffffffff1660e01b81526004016121cd91906153e5565b60006040518083038186803b1580156121e557600080fd5b505af41580156121f9573d6000803e3d6000fd5b505050508060280173__AddressLinkedList_____________________637fc06cef90916040518263ffffffff1660e01b815260040161223991906153e5565b60006040518083038186803b15801561225157600080fd5b505af4158015612265573d6000803e3d6000fd5b5050505080602c0173__AddressOrderedMap_____________________63abc7dfcc90916040518263ffffffff1660e01b81526004016122a59190615400565b60006040518083038186803b1580156122bd57600080fd5b505af41580156122d1573d6000803e3d6000fd5b505050508060310173__AddressLinkedList_____________________637fc06cef90916040518263ffffffff1660e01b815260040161231191906153e5565b60006040518083038186803b15801561232957600080fd5b505af415801561233d573d6000803e3d6000fd5b505050508060350173__AddressOrderedMap_____________________63abc7dfcc90916040518263ffffffff1660e01b815260040161237d9190615400565b60006040518083038186803b15801561239557600080fd5b505af41580156123a9573d6000803e3d6000fd5b5050505080603a0173__AddressOrderedMap_____________________63abc7dfcc90916040518263ffffffff1660e01b81526004016123e99190615400565b60006040518083038186803b15801561240157600080fd5b505af4158015612415573d6000803e3d6000fd5b50505050600260010173__AddressLinkedList_____________________63dbd4df179091336040518363ffffffff1660e01b8152600401612458929190614d6b565b60006040518083038186803b15801561247057600080fd5b505af4158015612484573d6000803e3d6000fd5b50505050600260050173__AddressOrderedMap_____________________633fc68a5f909160405180604001604052803373ffffffffffffffffffffffffffffffffffffffff16815260200160008152506040518363ffffffff1660e01b81526004016124f2929190615468565b60006040518083038186803b15801561250a57600080fd5b505af415801561251e573d6000803e3d6000fd5b505050506002600f0173__AddressOrderedMap_____________________633fc68a5f909160405180604001604052803373ffffffffffffffffffffffffffffffffffffffff16815260200160008152506040518363ffffffff1660e01b815260040161258c929190615468565b60006040518083038186803b1580156125a457600080fd5b505af41580156125b8573d6000803e3d6000fd5b505050506002600a0173__AddressOrderedMap_____________________633fc68a5f909160405180604001604052803373ffffffffffffffffffffffffffffffffffffffff16815260200160008152506040518363ffffffff1660e01b8152600401612626929190615468565b60006040518083038186803b15801561263e57600080fd5b505af4158015612652573d6000803e3d6000fd5b505050505050565b61266333613373565b61267085600160406134cf565b61267e8460016102006134cf565b61268b816001601461397c565b61269483613a1d565b60006126c5866040516020016126aa9190615018565b604051602081830303815290604052805190602001206133fe565b90506000601b60000160008373ffffffffffffffffffffffffffffffffffffffff1673ffffffffffffffffffffffffffffffffffffffff1681526020019081526020016000209050338160000160006101000a81548173ffffffffffffffffffffffffffffffffffffffff021916908373ffffffffffffffffffffffffffffffffffffffff160217905550848160010160006101000a81548173ffffffffffffffffffffffffffffffffffffffff021916908373ffffffffffffffffffffffffffffffffffffffff160217905550818160020160006101000a81548173ffffffffffffffffffffffffffffffffffffffff021916908373ffffffffffffffffffffffffffffffffffffffff160217905550878160030190816127e7919061523b565b50868160040190816127f9919061523b565b508581600501908161280b919061523b565b508881600601908161281d919061523b565b508381600701906003612831929190613d4c565b508281600a01819055504281600e0181905550600181600f0160003373ffffffffffffffffffffffffffffffffffffffff1673ffffffffffffffffffffffffffffffffffffffff16815260200190815260200160002060006101000a81548160ff021916908315150217905550601b60010173__AddressLinkedList_____________________63dbd4df179091846040518363ffffffff1660e01b81526004016128dd929190614d6b565b60006040518083038186803b1580156128f557600080fd5b505af4158015612909573d6000803e3d6000fd5b50505050601b60050173__AddressOrderedMap_____________________633fc68a5f909160405180604001604052808673ffffffffffffffffffffffffffffffffffffffff168152602001878152506040518363ffffffff1660e01b8152600401612976929190615468565b60006040518083038186803b15801561298e57600080fd5b505af41580156129a2573d6000803e3d6000fd5b50505050601b600a0173__AddressOrderedMap_____________________633fc68a5f909160405180604001604052808673ffffffffffffffffffffffffffffffffffffffff16815260200160008152506040518363ffffffff1660e01b8152600401612a10929190615468565b60006040518083038186803b158015612a2857600080fd5b505af4158015612a3c573d6000803e3d6000fd5b50505050601660000160008673ffffffffffffffffffffffffffffffffffffffff1673ffffffffffffffffffffffffffffffffffffffff1681526020019081526020016000206002016000815480929190612a9690614df2565b91905055506000612acc83604051602001612ab191906154d9565b604051602081830303815290604052805190602001206133fe565b90506000604360020160008373ffffffffffffffffffffffffffffffffffffffff1673ffffffffffffffffffffffffffffffffffffffff1681526020019081526020016000209050338160000160006101000a81548173ffffffffffffffffffffffffffffffffffffffff021916908373ffffffffffffffffffffffffffffffffffffffff160217905550838160010160006101000a81548173ffffffffffffffffffffffffffffffffffffffff021916908373ffffffffffffffffffffffffffffffffffffffff1602179055506000600190506000600260000160003373ffffffffffffffffffffffffffffffffffffffff1673ffffffffffffffffffffffffffffffffffffffff16815260200190815260200160002090505b600115612d42578060170173__AddressLinkedList_____________________635cb1e4659091846040518363ffffffff1660e01b8152600401612c2c929190614d6b565b602060405180830381865af4158015612c49573d6000803e3d6000fd5b505050506040513d601f19601f82011682018060405250810190612c6d9190614d37565b9150600273ffffffffffffffffffffffffffffffffffffffff168273ffffffffffffffffffffffffffffffffffffffff160315612d42578060350173__AddressOrderedMap_____________________633fc68a5f909160405180604001604052808873ffffffffffffffffffffffffffffffffffffffff16815260200160018152506040518363ffffffff1660e01b8152600401612d0d929190615468565b60006040518083038186803b158015612d2557600080fd5b505af4158015612d39573d6000803e3d6000fd5b50505050612be7565b8060280173__AddressLinkedList_____________________63dbd4df179091886040518363ffffffff1660e01b8152600401612d80929190614d6b565b60006040518083038186803b158015612d9857600080fd5b505af4158015612dac573d6000803e3d6000fd5b5050505050505050505050505050505050565b60008054906101000a900473ffffffffffffffffffffffffffffffffffffffff1681565b612deb613b0d565b8160010160009054906101000a900473ffffffffffffffffffffffffffffffffffffffff16816000019073ffffffffffffffffffffffffffffffffffffffff16908173ffffffffffffffffffffffffffffffffffffffff16815250508160020160009054906101000a900473ffffffffffffffffffffffffffffffffffffffff16816020019073ffffffffffffffffffffffffffffffffffffffff16908173ffffffffffffffffffffffffffffffffffffffff168152505081600f0160003373ffffffffffffffffffffffffffffffffffffffff1673ffffffffffffffffffffffffffffffffffffffff16815260200190815260200160002060009054906101000a900460ff16816040019015159081151581525050816003018054612f109061505e565b80601f0160208091040260200160405190810160405280929190818152602001828054612f3c9061505e565b8015612f895780601f10612f5e57610100808354040283529160200191612f89565b820191906000526020600020905b815481529060010190602001808311612f6c57829003601f168201915b50505050508160600181905250816004018054612fa59061505e565b80601f0160208091040260200160405190810160405280929190818152602001828054612fd19061505e565b801561301e5780601f10612ff35761010080835404028352916020019161301e565b820191906000526020600020905b81548152906001019060200180831161300157829003601f168201915b50505050508160800181905250600260000160008360000160009054906101000a900473ffffffffffffffffffffffffffffffffffffffff1673ffffffffffffffffffffffffffffffffffffffff1673ffffffffffffffffffffffffffffffffffffffff168152602001908152602001600020600301805461309f9061505e565b80601f01602080910402602001604051908101604052809291908181526020018280546130cb9061505e565b80156131185780601f106130ed57610100808354040283529160200191613118565b820191906000526020600020905b8154815290600101906020018083116130fb57829003601f168201915b50505050508160a001819052508160050180546131349061505e565b80601f01602080910402602001604051908101604052809291908181526020018280546131609061505e565b80156131ad5780601f10613182576101008083540402835291602001916131ad565b820191906000526020600020905b81548152906001019060200180831161319057829003601f168201915b50505050508160c00181905250816007016000600381106131d1576131d0614d94565b5b0180546131dd9061505e565b80601f01602080910402602001604051908101604052809291908181526020018280546132099061505e565b80156132565780601f1061322b57610100808354040283529160200191613256565b820191906000526020600020905b81548152906001019060200180831161323957829003601f168201915b50505050508160e0018190525081600a01548161010001818152505081600b01548161012001818152505081600c01548161014001818152505081600d015481610160018181525050600160008360020160009054906101000a900473ffffffffffffffffffffffffffffffffffffffff1673ffffffffffffffffffffffffffffffffffffffff1673ffffffffffffffffffffffffffffffffffffffff16815260200190815260200160002060010160030154816101800181815250508160100160003373ffffffffffffffffffffffffffffffffffffffff1673ffffffffffffffffffffffffffffffffffffffff16815260200190815260200160002054816101a001818152505081600e0154816101c0018181525050919050565b6000600260000160008373ffffffffffffffffffffffffffffffffffffffff1673ffffffffffffffffffffffffffffffffffffffff168152602001908152602001600020600a0154036133fb576040517f08c379a00000000000000000000000000000000000000000000000000000000081526004016133f290615566565b60405180910390fd5b50565b60008160001c9050919050565b60008060009054906101000a900473ffffffffffffffffffffffffffffffffffffffff169050816000806101000a81548173ffffffffffffffffffffffffffffffffffffffff021916908373ffffffffffffffffffffffffffffffffffffffff1602179055508173ffffffffffffffffffffffffffffffffffffffff168173ffffffffffffffffffffffffffffffffffffffff167ff8ccb027dfcd135e000e9d45e6cc2d662578a8825d4c45b5e32e0adf67e79ec660405160405180910390a35050565b6000600384516134df91906155b5565b905060008314806134f05750828110155b61352f576040517f08c379a000000000000000000000000000000000000000000000000000000000815260040161352690615632565b60405180910390fd5b600082148061353e5750818111155b61357d576040517f08c379a00000000000000000000000000000000000000000000000000000000081526004016135749061569e565b60405180910390fd5b50505050565b600260010173__AddressLinkedList_____________________637fc06cef90916040518263ffffffff1660e01b81526004016135c091906153e5565b60006040518083038186803b1580156135d857600080fd5b505af41580156135ec573d6000803e3d6000fd5b50505050600260050173__AddressOrderedMap_____________________63abc7dfcc90916040518263ffffffff1660e01b815260040161362d9190615400565b60006040518083038186803b15801561364557600080fd5b505af4158015613659573d6000803e3d6000fd5b505050506002600f0173__AddressOrderedMap_____________________63abc7dfcc90916040518263ffffffff1660e01b815260040161369a9190615400565b60006040518083038186803b1580156136b257600080fd5b505af41580156136c6573d6000803e3d6000fd5b505050506002600a0173__AddressOrderedMap_____________________63abc7dfcc90916040518263ffffffff1660e01b81526004016137079190615400565b60006040518083038186803b15801561371f57600080fd5b505af4158015613733573d6000803e3d6000fd5b50505050565b601660010173__AddressLinkedList_____________________637fc06cef90916040518263ffffffff1660e01b815260040161377691906153e5565b60006040518083038186803b15801561378e57600080fd5b505af41580156137a2573d6000803e3d6000fd5b50505050601b60010173__AddressLinkedList_____________________637fc06cef90916040518263ffffffff1660e01b81526004016137e391906153e5565b60006040518083038186803b1580156137fb57600080fd5b505af415801561380f573d6000803e3d6000fd5b50505050601b60050173__AddressOrderedMap_____________________63abc7dfcc90916040518263ffffffff1660e01b81526004016138509190615400565b60006040518083038186803b15801561386857600080fd5b505af415801561387c573d6000803e3d6000fd5b50505050601b600a0173__AddressOrderedMap_____________________63abc7dfcc90916040518263ffffffff1660e01b81526004016138bd9190615400565b60006040518083038186803b1580156138d557600080fd5b505af41580156138e9573d6000803e3d6000fd5b50505050565b565b6000600260000160008373ffffffffffffffffffffffffffffffffffffffff1673ffffffffffffffffffffffffffffffffffffffff168152602001908152602001600020600a015414613979576040517f08c379a000000000000000000000000000000000000000000000000000000000815260040161397090615730565b60405180910390fd5b50565b600082148061398b5750818310155b6139ca576040517f08c379a00000000000000000000000000000000000000000000000000000000081526004016139c190615632565b60405180910390fd5b60008114806139d95750808311155b613a18576040517f08c379a0000000000000000000000000000000000000000000000000000000008152600401613a0f9061569e565b60405180910390fd5b505050565b601660010173__AddressLinkedList_____________________63c40b47ad9091836040518363ffffffff1660e01b8152600401613a5c929190614d6b565b602060405180830381865af4158015613a79573d6000803e3d6000fd5b505050506040513d601f19601f82011682018060405250810190613a9d9190615765565b613adc576040517f08c379a0000000000000000000000000000000000000000000000000000000008152600401613ad3906157de565b60405180910390fd5b50565b604051806101400160405280600a905b613af7613b0d565b815260200190600190039081613aef5790505090565b604051806101e00160405280600073ffffffffffffffffffffffffffffffffffffffff168152602001600073ffffffffffffffffffffffffffffffffffffffff1681526020016000151581526020016060815260200160608152602001606081526020016060815260200160608152602001600081526020016000815260200160008152602001600081526020016000815260200160008152602001600081525090565b60405180610100016040528060608152602001606081526020016060815260200160608152602001600081526020016000815260200160008152602001600081525090565b6040518061018001604052806060815260200160608152602001606081526020016060815260200160008152602001600081526020016000815260200160008152602001600081526020016000815260200160008152602001600081525090565b604051806102000160405280600073ffffffffffffffffffffffffffffffffffffffff168152602001600073ffffffffffffffffffffffffffffffffffffffff168152602001600073ffffffffffffffffffffffffffffffffffffffff16815260200160001515815260200160608152602001606081526020016060815260200160608152602001613ce7613d98565b8152602001600081526020016000815260200160008152602001600081526020016000815260200160008152602001600081525090565b604051806101400160405280600a905b613d36613dbf565b815260200190600190039081613d2e5790505090565b8260038101928215613d87579160200282015b82811115613d86578251829081613d76919061523b565b5091602001919060010190613d5f565b5b509050613d949190613df6565b5090565b60405180606001604052806003905b6060815260200190600190039081613da75790505090565b6040518060600160405280600073ffffffffffffffffffffffffffffffffffffffff16815260200160608152602001600081525090565b5b80821115613e165760008181613e0d9190613e1a565b50600101613df7565b5090565b508054613e269061505e565b6000825580601f10613e385750613e57565b601f016020900490600052602060002090810190613e569190613e5a565b5b50565b5b80821115613e73576000816000905550600101613e5b565b5090565b6000604051905090565b600080fd5b600080fd5b600073ffffffffffffffffffffffffffffffffffffffff82169050919050565b6000613eb682613e8b565b9050919050565b613ec681613eab565b8114613ed157600080fd5b50565b600081359050613ee381613ebd565b92915050565b6000819050919050565b613efc81613ee9565b8114613f0757600080fd5b50565b600081359050613f1981613ef3565b92915050565b60008115159050919050565b613f3481613f1f565b8114613f3f57600080fd5b50565b600081359050613f5181613f2b565b92915050565b60008060008060808587031215613f7157613f70613e81565b5b6000613f7f87828801613ed4565b9450506020613f9087828801613ed4565b9350506040613fa187828801613f0a565b9250506060613fb287828801613f42565b91505092959194509250565b6000600a9050919050565b600081905092915050565b6000819050919050565b613fe781613eab565b82525050565b613ff681613f1f565b82525050565b600081519050919050565b600082825260208201905092915050565b60005b8381101561403657808201518184015260208101905061401b565b60008484015250505050565b6000601f19601f8301169050919050565b600061405e82613ffc565b6140688185614007565b9350614078818560208601614018565b61408181614042565b840191505092915050565b61409581613ee9565b82525050565b60006101e0830160008301516140b46000860182613fde565b5060208301516140c76020860182613fde565b5060408301516140da6040860182613fed565b50606083015184820360608601526140f28282614053565b9150506080830151848203608086015261410c8282614053565b91505060a083015184820360a08601526141268282614053565b91505060c083015184820360c08601526141408282614053565b91505060e083015184820360e086015261415a8282614053565b91505061010083015161417161010086018261408c565b5061012083015161418661012086018261408c565b5061014083015161419b61014086018261408c565b506101608301516141b061016086018261408c565b506101808301516141c561018086018261408c565b506101a08301516141da6101a086018261408c565b506101c08301516141ef6101c086018261408c565b508091505092915050565b6000614206838361409b565b905092915050565b6000602082019050919050565b600061422682613fbe565b6142308185613fc9565b93508360208202850161424285613fd4565b8060005b8581101561427e578484038952815161425f85826141fa565b945061426a8361420e565b925060208a01995050600181019050614246565b50829750879550505050505092915050565b61429981613eab565b82525050565b6142a881613f1f565b82525050565b600060608201905081810360008301526142c8818661421b565b90506142d76020830185614290565b6142e4604083018461429f565b949350505050565b6000806040838503121561430357614302613e81565b5b600061431185828601613ed4565b925050602061432285828601613f42565b9150509250929050565b60006040820190508181036000830152614346818561421b565b90506143556020830184614290565b9392505050565b600080fd5b600080fd5b7f4e487b7100000000000000000000000000000000000000000000000000000000600052604160045260246000fd5b61439e82614042565b810181811067ffffffffffffffff821117156143bd576143bc614366565b5b80604052505050565b60006143d0613e77565b90506143dc8282614395565b919050565b600067ffffffffffffffff8211156143fc576143fb614366565b5b61440582614042565b9050602081019050919050565b82818337600083830152505050565b600061443461442f846143e1565b6143c6565b9050828152602081018484840111156144505761444f614361565b5b61445b848285614412565b509392505050565b600082601f8301126144785761447761435c565b5b8135614488848260208601614421565b91505092915050565b6000602082840312156144a7576144a6613e81565b5b600082013567ffffffffffffffff8111156144c5576144c4613e86565b5b6144d184828501614463565b91505092915050565b6000602082840312156144f0576144ef613e81565b5b60006144fe84828501613ed4565b91505092915050565b60006101008301600083015184820360008601526145258282614053565b9150506020830151848203602086015261453f8282614053565b915050604083015184820360408601526145598282614053565b915050606083015184820360608601526145738282614053565b9150506080830151614588608086018261408c565b5060a083015161459b60a086018261408c565b5060c08301516145ae60c086018261408c565b5060e08301516145c160e086018261408c565b508091505092915050565b600060208201905081810360008301526145e68184614507565b905092915050565b600061018083016000830151848203600086015261460c8282614053565b915050602083015184820360208601526146268282614053565b915050604083015184820360408601526146408282614053565b9150506060830151848203606086015261465a8282614053565b915050608083015161466f608086018261408c565b5060a083015161468260a086018261408c565b5060c083015161469560c086018261408c565b5060e08301516146a860e086018261408c565b506101008301516146bd61010086018261408c565b506101208301516146d261012086018261408c565b506101408301516146e761014086018261408c565b506101608301516146fc61016086018261408c565b508091505092915050565b6000602082019050818103600083015261472181846145ee565b905092915050565b600060208201905061473e600083018461429f565b92915050565b600060039050919050565b600081905092915050565b6000819050919050565b60006147708383614053565b905092915050565b6000602082019050919050565b600061479082614744565b61479a818561474f565b9350836020820285016147ac8561475a565b8060005b858110156147e857848403895281516147c98582614764565b94506147d483614778565b925060208a019950506001810190506147b0565b50829750879550505050505092915050565b6000610200830160008301516148136000860182613fde565b5060208301516148266020860182613fde565b5060408301516148396040860182613fde565b50606083015161484c6060860182613fed565b50608083015184820360808601526148648282614053565b91505060a083015184820360a086015261487e8282614053565b91505060c083015184820360c08601526148988282614053565b91505060e083015184820360e08601526148b28282614053565b9150506101008301518482036101008601526148ce8282614785565b9150506101208301516148e561012086018261408c565b506101408301516148fa61014086018261408c565b5061016083015161490f61016086018261408c565b5061018083015161492461018086018261408c565b506101a08301516149396101a086018261408c565b506101c083015161494e6101c086018261408c565b506101e08301516149636101e086018261408c565b508091505092915050565b6000602082019050818103600083015261498881846147fa565b905092915050565b6000600a9050919050565b600081905092915050565b6000819050919050565b60006060830160008301516149c86000860182613fde565b50602083015184820360208601526149e08282614053565b91505060408301516149f5604086018261408c565b508091505092915050565b6000614a0c83836149b0565b905092915050565b6000602082019050919050565b6000614a2c82614990565b614a36818561499b565b935083602082028501614a48856149a6565b8060005b85811015614a845784840389528151614a658582614a00565b9450614a7083614a14565b925060208a01995050600181019050614a4c565b50829750879550505050505092915050565b60006040820190508181036000830152614ab08185614a21565b9050614abf6020830184614290565b9392505050565b600067ffffffffffffffff821115614ae157614ae0614366565b5b602082029050919050565b600080fd5b6000614b04614aff84614ac6565b6143c6565b90508060208402830185811115614b1e57614b1d614aec565b5b835b81811015614b6557803567ffffffffffffffff811115614b4357614b4261435c565b5b808601614b508982614463565b85526020850194505050602081019050614b20565b5050509392505050565b600082601f830112614b8457614b8361435c565b5b6003614b91848285614af1565b91505092915050565b600080600080600080600060e0888a031215614bb957614bb8613e81565b5b600088013567ffffffffffffffff811115614bd757614bd6613e86565b5b614be38a828b01614463565b975050602088013567ffffffffffffffff811115614c0457614c03613e86565b5b614c108a828b01614463565b965050604088013567ffffffffffffffff811115614c3157614c30613e86565b5b614c3d8a828b01614463565b955050606088013567ffffffffffffffff811115614c5e57614c5d613e86565b5b614c6a8a828b01614463565b9450506080614c7b8a828b01613ed4565b93505060a088013567ffffffffffffffff811115614c9c57614c9b613e86565b5b614ca88a828b01614b6f565b92505060c0614cb98a828b01613f0a565b91505092959891949750929550565b6000602082019050614cdd6000830184614290565b92915050565b8082525050565b614cf381613eab565b82525050565b6000604082019050614d0e6000830185614ce3565b614d1b6020830184614cea565b9392505050565b600081519050614d3181613ebd565b92915050565b600060208284031215614d4d57614d4c613e81565b5b6000614d5b84828501614d22565b91505092915050565b8082525050565b6000604082019050614d806000830185614d64565b614d8d6020830184614cea565b9392505050565b7f4e487b7100000000000000000000000000000000000000000000000000000000600052603260045260246000fd5b7f4e487b7100000000000000000000000000000000000000000000000000000000600052601160045260246000fd5b6000614dfd82613ee9565b91507fffffffffffffffffffffffffffffffffffffffffffffffffffffffffffffffff8203614e2f57614e2e614dc3565b5b600182019050919050565b614e4381613f1f565b82525050565b6000606082019050614e5e6000830186614d64565b614e6b6020830185614cea565b614e786040830184614e3a565b949350505050565b600067ffffffffffffffff821115614e9b57614e9a614366565b5b602082029050919050565b6000614eb9614eb484614e80565b6143c6565b90508060208402830185811115614ed357614ed2614aec565b5b835b81811015614efc5780614ee88882614d22565b845260208401935050602081019050614ed5565b5050509392505050565b600082601f830112614f1b57614f1a61435c565b5b600a614f28848285614ea6565b91505092915050565b60006101408284031215614f4857614f47613e81565b5b6000614f5684828501614f06565b91505092915050565b600082825260208201905092915050565b7f41646d696e436f6e74726163743e5f6f6e6c7941646d696e5f00000000000000600082015250565b6000614fa6601983614f5f565b9150614fb182614f70565b602082019050919050565b60006020820190508181036000830152614fd581614f99565b9050919050565b600081905092915050565b6000614ff282613ffc565b614ffc8185614fdc565b935061500c818560208601614018565b80840191505092915050565b60006150248284614fe7565b915081905092915050565b7f4e487b7100000000000000000000000000000000000000000000000000000000600052602260045260246000fd5b6000600282049050600182168061507657607f821691505b6020821081036150895761508861502f565b5b50919050565b60008190508160005260206000209050919050565b60006020601f8301049050919050565b600082821b905092915050565b6000600883026150f17fffffffffffffffffffffffffffffffffffffffffffffffffffffffffffffffff826150b4565b6150fb86836150b4565b95508019841693508086168417925050509392505050565b6000819050919050565b600061513861513361512e84613ee9565b615113565b613ee9565b9050919050565b6000819050919050565b6151528361511d565b61516661515e8261513f565b8484546150c1565b825550505050565b600090565b61517b61516e565b615186818484615149565b505050565b5b818110156151aa5761519f600082615173565b60018101905061518c565b5050565b601f8211156151ef576151c08161508f565b6151c9846150a4565b810160208510156151d8578190505b6151ec6151e4856150a4565b83018261518b565b50505b505050565b600082821c905092915050565b6000615212600019846008026151f4565b1980831691505092915050565b600061522b8383615201565b9150826002028217905092915050565b61524482613ffc565b67ffffffffffffffff81111561525d5761525c614366565b5b615267825461505e565b6152728282856151ae565b600060209050601f8311600181146152a55760008415615293578287015190505b61529d858261521f565b865550615305565b601f1984166152b38661508f565b60005b828110156152db578489015182556001820191506020850194506020810190506152b6565b868310156152f857848901516152f4601f891682615201565b8355505b6001600288020188555050505b505050505050565b7f41646d696e436f6e74726163743e7472616e7366657241646d696e0000000000600082015250565b6000615343601b83614f5f565b915061534e8261530d565b602082019050919050565b6000602082019050818103600083015261537281615336565b9050919050565b7f696e697469616c697a6564000000000000000000000000000000000000000000600082015250565b60006153af600b83614f5f565b91506153ba82615379565b602082019050919050565b600060208201905081810360008301526153de816153a2565b9050919050565b60006020820190506153fa6000830184614d64565b92915050565b60006020820190506154156000830184614ce3565b92915050565b61542481613eab565b82525050565b61543381613ee9565b82525050565b60408201600082015161544f600085018261541b565b506020820151615462602085018261542a565b50505050565b600060608201905061547d6000830185614ce3565b61548a6020830184615439565b9392505050565b60008160601b9050919050565b60006154a982615491565b9050919050565b60006154bb8261549e565b9050919050565b6154d36154ce82613eab565b6154b0565b82525050565b60006154e582846154c2565b60148201915081905092915050565b7f45303a20557365722e736f6c3e55736572436f6e74726163743e5f726567697360008201527f74657265645f0000000000000000000000000000000000000000000000000000602082015250565b6000615550602683614f5f565b915061555b826154f4565b604082019050919050565b6000602082019050818103600083015261557f81615543565b9050919050565b7f4e487b7100000000000000000000000000000000000000000000000000000000600052601260045260246000fd5b60006155c082613ee9565b91506155cb83613ee9565b9250826155db576155da615586565b5b828204905092915050565b7f42617365436f6e746163743e5f72616e67655f3e310000000000000000000000600082015250565b600061561c601583614f5f565b9150615627826155e6565b602082019050919050565b6000602082019050818103600083015261564b8161560f565b9050919050565b7f42617365436f6e746163743e5f72616e67655f3e320000000000000000000000600082015250565b6000615688601583614f5f565b915061569382615652565b602082019050919050565b600060208201905081810360008301526156b78161567b565b9050919050565b7f45313a20557365722e736f6c3e55736572436f6e74726163743e5f6e6f74526560008201527f67697374657265645f0000000000000000000000000000000000000000000000602082015250565b600061571a602983614f5f565b9150615725826156be565b604082019050919050565b600060208201905081810360008301526157498161570d565b9050919050565b60008151905061575f81613f2b565b92915050565b60006020828403121561577b5761577a613e81565b5b600061578984828501615750565b91505092915050565b7f42617365436f6e746163743e5f76616c696443617465676f72795f0000000000600082015250565b60006157c8601b83614f5f565b91506157d382615792565b602082019050919050565b600060208201905081810360008301526157f7816157bb565b905091905056fea2646970667358221220925f8ff0dac55b06c1a54c97bc92a7470cd752b7fdd4e6550250b3c3c33ec01064736f6c63430008110033",
  "immutableReferences": {},
  "source": "// SPDX-License-Identifier: GPL-3.0\r\npragma solidity ^0.8.17;\r\n\r\nimport \"./implementations/base/Base.sol\";\r\nimport \"./implementations/User.sol\";\r\nimport \"./implementations/File.sol\";\r\nimport \"./implementations/Reward.sol\";\r\nimport \"./implementations/Message.sol\";\r\n\r\ninterface ImplementationInterface is AdminInterface, UserInterface, FileInterface, RewardInterface, MessageInterface {\r\n    function init() external;\r\n}\r\n\r\ncontract ImplementationContact is UserContract, FileContact, RewardContact, MessageContact {\r\n    function init()\r\n    public {\r\n        require(admin != address(0), \"initialized\");\r\n        admin = msg.sender;\r\n        UserContract_init();\r\n        FileContract_init();\r\n//        RewardContract_init();\r\n        MessageContract_init();\r\n    }\r\n}\r\n\r\ncontract OurShare is AdminContract {\r\n    bytes32 private constant implementation_position = keccak256(\"OurShare\");\r\n\r\n    constructor(){\r\n        admin = msg.sender;\r\n    }\r\n\r\n    function getImplementation() public view returns (address implementation) {\r\n        bytes32 position = implementation_position;\r\n        assembly {\r\n            implementation := sload(position)\r\n        }\r\n    }\r\n\r\n    function setImplementation(address implementation) public _onlyAdmin_ {\r\n        bytes32 position = implementation_position;\r\n        assembly {\r\n            sstore(position, implementation)\r\n        }\r\n    }\r\n\r\n    function _delegate(address implementation) internal {\r\n        assembly {\r\n            calldatacopy(0, 0, calldatasize())\r\n            let result := delegatecall(gas(), implementation, 0, calldatasize(), 0, 0)\r\n            returndatacopy(0, 0, returndatasize())\r\n            switch result\r\n            case 0 {\r\n                revert(0, returndatasize())\r\n            }\r\n            default {\r\n                return (0, returndatasize())\r\n            }\r\n        }\r\n    }\r\n\r\n    fallback() external payable {\r\n        _delegate(getImplementation());\r\n    }\r\n\r\n    receive() external payable {\r\n        _delegate(getImplementation());\r\n    }\r\n}\r\n",
  "sourcePath": "F:\\OurChain\\OurShare\\src\\assets\\eth\\contracts\\OurShare.sol",
  "compiler": {
    "name": "solc",
    "version": "0.8.17+commit.8df45f5f.Emscripten.clang"
  },
  "schemaVersion": "3.4.13",
  "updatedAt": "2023-05-25T05:46:20.013Z",
  "networkType": "ethereum",
  "devdoc": {
    "kind": "dev",
    "methods": {},
    "version": 1
  },
  "userdoc": {
    "kind": "user",
    "methods": {},
    "version": 1
  }
}