{
  "contractName": "ImplementationContact",
  "abi": [
    {
      "anonymous": false,
      "inputs": [
        {
          "indexed": true,
          "internalType": "address",
          "name": "old_admin",
          "type": "address"
        },
        {
          "indexed": true,
          "internalType": "address",
          "name": "new_admin",
          "type": "address"
        }
      ],
      "name": "AdminTransferred",
      "type": "event"
    },
    {
      "inputs": [],
      "name": "RewardContact_init",
      "outputs": [],
      "stateMutability": "nonpayable",
      "type": "function"
    },
    {
      "inputs": [
        {
          "internalType": "string",
          "name": "name",
          "type": "string"
        }
      ],
      "name": "addCategory",
      "outputs": [],
      "stateMutability": "nonpayable",
      "type": "function"
    },
    {
      "inputs": [],
      "name": "admin",
      "outputs": [
        {
          "internalType": "address",
          "name": "",
          "type": "address"
        }
      ],
      "stateMutability": "view",
      "type": "function",
      "constant": true
    },
    {
      "inputs": [
        {
          "internalType": "address",
          "name": "cursor",
          "type": "address"
        }
      ],
      "name": "getCategorySlice",
      "outputs": [
        {
          "components": [
            {
              "internalType": "address",
              "name": "category_address",
              "type": "address"
            },
            {
              "internalType": "string",
              "name": "name",
              "type": "string"
            },
            {
              "internalType": "uint256",
              "name": "num",
              "type": "uint256"
            }
          ],
          "internalType": "struct StoreContact.Category[10]",
          "name": "category_slice",
          "type": "tuple[10]"
        },
        {
          "internalType": "address",
          "name": "next",
          "type": "address"
        }
      ],
      "stateMutability": "view",
      "type": "function",
      "constant": true
    },
    {
      "inputs": [
        {
          "internalType": "address",
          "name": "cursor",
          "type": "address"
        },
        {
          "internalType": "bool",
          "name": "reverse",
          "type": "bool"
        }
      ],
      "name": "getSelfFileInfos",
      "outputs": [
        {
          "components": [
            {
              "internalType": "address",
              "name": "file_address",
              "type": "address"
            },
            {
              "internalType": "string",
              "name": "ipfs_address",
              "type": "string"
            },
            {
              "internalType": "address",
              "name": "owner",
              "type": "address"
            },
            {
              "internalType": "string",
              "name": "title",
              "type": "string"
            },
            {
              "internalType": "string",
              "name": "description",
              "type": "string"
            },
            {
              "internalType": "address",
              "name": "category",
              "type": "address"
            },
            {
              "internalType": "string[3]",
              "name": "images",
              "type": "string[3]"
            },
            {
              "internalType": "uint256",
              "name": "upload_timestamp",
              "type": "uint256"
            },
            {
              "internalType": "uint256",
              "name": "price",
              "type": "uint256"
            },
            {
              "internalType": "uint256",
              "name": "buyer_num",
              "type": "uint256"
            }
          ],
          "internalType": "struct StoreContact.FileInfo[10]",
          "name": "file_infos",
          "type": "tuple[10]"
        },
        {
          "internalType": "address",
          "name": "next",
          "type": "address"
        }
      ],
      "stateMutability": "view",
      "type": "function",
      "constant": true
    },
    {
      "inputs": [],
      "name": "getSelfInfo",
      "outputs": [
        {
          "components": [
            {
              "internalType": "uint256",
              "name": "ID",
              "type": "uint256"
            },
            {
              "internalType": "uint256",
              "name": "coins",
              "type": "uint256"
            },
            {
              "internalType": "uint256",
              "name": "heart",
              "type": "uint256"
            },
            {
              "internalType": "uint256",
              "name": "experience",
              "type": "uint256"
            },
            {
              "internalType": "uint256",
              "name": "follower_num",
              "type": "uint256"
            },
            {
              "internalType": "uint256",
              "name": "following_num",
              "type": "uint256"
            },
            {
              "internalType": "uint256",
              "name": "login_timestamp",
              "type": "uint256"
            },
            {
              "internalType": "uint256",
              "name": "uploaded_file_num",
              "type": "uint256"
            },
            {
              "internalType": "string",
              "name": "major",
              "type": "string"
            },
            {
              "internalType": "string",
              "name": "avatar",
              "type": "string"
            },
            {
              "internalType": "string",
              "name": "nickname",
              "type": "string"
            },
            {
              "internalType": "string",
              "name": "signature",
              "type": "string"
            }
          ],
          "internalType": "struct StoreContact.UserSelfInfo",
          "name": "self_info",
          "type": "tuple"
        }
      ],
      "stateMutability": "view",
      "type": "function",
      "constant": true
    },
    {
      "inputs": [
        {
          "internalType": "address",
          "name": "user_address",
          "type": "address"
        }
      ],
      "name": "isRegistered",
      "outputs": [
        {
          "internalType": "bool",
          "name": "is_registered",
          "type": "bool"
        }
      ],
      "stateMutability": "view",
      "type": "function",
      "constant": true
    },
    {
      "inputs": [
        {
          "internalType": "string",
          "name": "nickname",
          "type": "string"
        }
      ],
      "name": "register",
      "outputs": [],
      "stateMutability": "nonpayable",
      "type": "function"
    },
    {
      "inputs": [],
      "name": "renounceAdmin",
      "outputs": [],
      "stateMutability": "nonpayable",
      "type": "function"
    },
    {
      "inputs": [
        {
          "internalType": "address",
          "name": "new_admin",
          "type": "address"
        }
      ],
      "name": "transferAdmin",
      "outputs": [],
      "stateMutability": "nonpayable",
      "type": "function"
    },
    {
      "inputs": [
        {
          "internalType": "string",
          "name": "avatar",
          "type": "string"
        }
      ],
      "name": "updateAvatar",
      "outputs": [],
      "stateMutability": "nonpayable",
      "type": "function"
    },
    {
      "inputs": [
        {
          "internalType": "string",
          "name": "nickname",
          "type": "string"
        }
      ],
      "name": "updateNickname",
      "outputs": [],
      "stateMutability": "nonpayable",
      "type": "function"
    },
    {
      "inputs": [
        {
          "internalType": "string",
          "name": "signature",
          "type": "string"
        }
      ],
      "name": "updateSignature",
      "outputs": [],
      "stateMutability": "nonpayable",
      "type": "function"
    },
    {
      "inputs": [
        {
          "internalType": "string",
          "name": "ipfs_address",
          "type": "string"
        },
        {
          "internalType": "string",
          "name": "title",
          "type": "string"
        },
        {
          "internalType": "string",
          "name": "description",
          "type": "string"
        },
        {
          "internalType": "address",
          "name": "category",
          "type": "address"
        },
        {
          "internalType": "string[3]",
          "name": "images",
          "type": "string[3]"
        },
        {
          "internalType": "uint256",
          "name": "price",
          "type": "uint256"
        }
      ],
      "name": "uploadFile",
      "outputs": [],
      "stateMutability": "nonpayable",
      "type": "function"
    },
    {
      "inputs": [],
      "name": "init",
      "outputs": [],
      "stateMutability": "nonpayable",
      "type": "function"
    }
  ],
  "bytecode": "0x608060405234801561001057600080fd5b506141b7806100206000396000f3fe608060405234801561001057600080fd5b50600436106100f55760003560e01c8063bd2e3b1711610097578063cffa644211610066578063cffa644214610235578063e1c7392a14610266578063f2c298be14610270578063f851a4401461028c576100f5565b8063bd2e3b17146101ae578063c3c5a547146101ca578063c40eb869146101fa578063c63e3e8b1461022b576100f5565b80638358bfb5116100d35780638358bfb5146101505780638bad0c0a1461016c5780639fe958b914610176578063a389559f14610192576100f5565b80632e0dcbf7146100fa57806375829def146101165780637e8e773314610132575b600080fd5b610114600480360381019061010f9190612d4f565b6102aa565b005b610130600480360381019061012b9190612df6565b61047a565b005b61013a610583565b6040516101479190612fd4565b60405180910390f35b61016a600480360381019061016591906130f6565b610882565b005b610174610f29565b005b610190600480360381019061018b9190612d4f565b610fc3565b005b6101ac60048036038101906101a79190612d4f565b611035565b005b6101c860048036038101906101c39190612d4f565b6110a7565b005b6101e460048036038101906101df9190612df6565b611119565b6040516101f1919061320e565b60405180910390f35b610214600480360381019061020f9190613255565b61116b565b60405161022292919061350e565b60405180910390f35b610233611321565b005b61024f600480360381019061024a9190612df6565b611323565b60405161025d929190613644565b60405180910390f35b61026e611583565b005b61028a60048036038101906102859190612d4f565b611664565b005b610294611e79565b6040516102a19190613674565b60405180910390f35b3373ffffffffffffffffffffffffffffffffffffffff1660008054906101000a900473ffffffffffffffffffffffffffffffffffffffff1673ffffffffffffffffffffffffffffffffffffffff1614610338576040517f08c379a000000000000000000000000000000000000000000000000000000000815260040161032f906136ec565b60405180910390fd5b60006103698260405160200161034e9190613748565b60405160208183030381529060405280519060200120611e9d565b90506000601560040160008373ffffffffffffffffffffffffffffffffffffffff1673ffffffffffffffffffffffffffffffffffffffff1681526020019081526020016000209050818160000160006101000a81548173ffffffffffffffffffffffffffffffffffffffff021916908373ffffffffffffffffffffffffffffffffffffffff16021790555082816001019081610405919061396b565b50601560000173__AddressLinkedList_____________________63dbd4df179091846040518363ffffffff1660e01b8152600401610445929190613a53565b60006040518083038186803b15801561045d57600080fd5b505af4158015610471573d6000803e3d6000fd5b50505050505050565b3373ffffffffffffffffffffffffffffffffffffffff1660008054906101000a900473ffffffffffffffffffffffffffffffffffffffff1673ffffffffffffffffffffffffffffffffffffffff1614610508576040517f08c379a00000000000000000000000000000000000000000000000000000000081526004016104ff906136ec565b60405180910390fd5b600073ffffffffffffffffffffffffffffffffffffffff168173ffffffffffffffffffffffffffffffffffffffff1603610577576040517f08c379a000000000000000000000000000000000000000000000000000000000815260040161056e90613ac8565b60405180910390fd5b61058081611eaa565b50565b61058b612972565b6000600160040160003373ffffffffffffffffffffffffffffffffffffffff1673ffffffffffffffffffffffffffffffffffffffff1681526020019081526020016000209050604051806101800160405280826001015481526020018260030154815260200182600401548152602001826005015481526020018260170160030154815260200182601b0160030154815260200182600601548152602001826028016003015481526020018260070180546106459061378e565b80601f01602080910402602001604051908101604052809291908181526020018280546106719061378e565b80156106be5780601f10610693576101008083540402835291602001916106be565b820191906000526020600020905b8154815290600101906020018083116106a157829003601f168201915b505050505081526020018260080180546106d79061378e565b80601f01602080910402602001604051908101604052809291908181526020018280546107039061378e565b80156107505780601f1061072557610100808354040283529160200191610750565b820191906000526020600020905b81548152906001019060200180831161073357829003601f168201915b505050505081526020018260090180546107699061378e565b80601f01602080910402602001604051908101604052809291908181526020018280546107959061378e565b80156107e25780601f106107b7576101008083540402835291602001916107e2565b820191906000526020600020905b8154815290600101906020018083116107c557829003601f168201915b5050505050815260200182600a0180546107fb9061378e565b80601f01602080910402602001604051908101604052809291908181526020018280546108279061378e565b80156108745780601f1061084957610100808354040283529160200191610874565b820191906000526020600020905b81548152906001019060200180831161085757829003601f168201915b505050505081525091505090565b61088b33611f6e565b6108988560016040611ff9565b6108a6846001610200611ff9565b6108b381600160146120ad565b6108bc8361214e565b60006108ed866040516020016108d29190613748565b60405160208183030381529060405280519060200120611e9d565b90506000601a60040160008373ffffffffffffffffffffffffffffffffffffffff1673ffffffffffffffffffffffffffffffffffffffff1681526020019081526020016000209050818160000160006101000a81548173ffffffffffffffffffffffffffffffffffffffff021916908373ffffffffffffffffffffffffffffffffffffffff16021790555087816001019081610989919061396b565b50338160020160006101000a81548173ffffffffffffffffffffffffffffffffffffffff021916908373ffffffffffffffffffffffffffffffffffffffff160217905550868160030190816109de919061396b565b50858160040190816109f0919061396b565b50848160050160006101000a81548173ffffffffffffffffffffffffffffffffffffffff021916908373ffffffffffffffffffffffffffffffffffffffff1602179055508381600601906003610a479291906129d3565b504281600901819055508281600a0181905550600081600c0181905550601a60000173__AddressLinkedList_____________________63dbd4df179091846040518363ffffffff1660e01b8152600401610aa3929190613a53565b60006040518083038186803b158015610abb57600080fd5b505af4158015610acf573d6000803e3d6000fd5b50505050601a60050173__AddressOrderedMap_____________________633fc68a5f909160405180604001604052808673ffffffffffffffffffffffffffffffffffffffff168152602001878152506040518363ffffffff1660e01b8152600401610b3c929190613b3c565b60006040518083038186803b158015610b5457600080fd5b505af4158015610b68573d6000803e3d6000fd5b50505050601a600a0173__AddressOrderedMap_____________________633fc68a5f909160405180604001604052808673ffffffffffffffffffffffffffffffffffffffff16815260200160008152506040518363ffffffff1660e01b8152600401610bd6929190613b3c565b60006040518083038186803b158015610bee57600080fd5b505af4158015610c02573d6000803e3d6000fd5b505050506000610c3783604051602001610c1c9190613bad565b60405160208183030381529060405280519060200120611e9d565b90506000604260000160008373ffffffffffffffffffffffffffffffffffffffff1673ffffffffffffffffffffffffffffffffffffffff1681526020019081526020016000209050338160000160006101000a81548173ffffffffffffffffffffffffffffffffffffffff021916908373ffffffffffffffffffffffffffffffffffffffff160217905550838160010160006101000a81548173ffffffffffffffffffffffffffffffffffffffff021916908373ffffffffffffffffffffffffffffffffffffffff1602179055506000600190506000600160040160003373ffffffffffffffffffffffffffffffffffffffff1673ffffffffffffffffffffffffffffffffffffffff16815260200190815260200160002090505b600115610ead578060170173__AddressLinkedList_____________________635cb1e4659091846040518363ffffffff1660e01b8152600401610d97929190613a53565b602060405180830381865af4158015610db4573d6000803e3d6000fd5b505050506040513d601f19601f82011682018060405250810190610dd89190613bdd565b9150600273ffffffffffffffffffffffffffffffffffffffff168273ffffffffffffffffffffffffffffffffffffffff160315610ead578060350173__AddressOrderedMap_____________________633fc68a5f909160405180604001604052808873ffffffffffffffffffffffffffffffffffffffff16815260200160018152506040518363ffffffff1660e01b8152600401610e78929190613b3c565b60006040518083038186803b158015610e9057600080fd5b505af4158015610ea4573d6000803e3d6000fd5b50505050610d52565b8060280173__AddressLinkedList_____________________63dbd4df179091886040518363ffffffff1660e01b8152600401610eeb929190613a53565b60006040518083038186803b158015610f0357600080fd5b505af4158015610f17573d6000803e3d6000fd5b50505050505050505050505050505050565b3373ffffffffffffffffffffffffffffffffffffffff1660008054906101000a900473ffffffffffffffffffffffffffffffffffffffff1673ffffffffffffffffffffffffffffffffffffffff1614610fb7576040517f08c379a0000000000000000000000000000000000000000000000000000000008152600401610fae906136ec565b60405180910390fd5b610fc16000611eaa565b565b610fcc33611f6e565b610fd9816001600a611ff9565b6000600160040160003373ffffffffffffffffffffffffffffffffffffffff1673ffffffffffffffffffffffffffffffffffffffff168152602001908152602001600020905081816008019081611030919061396b565b505050565b61103e33611f6e565b61104b8160016020611ff9565b6000600160040160003373ffffffffffffffffffffffffffffffffffffffff1673ffffffffffffffffffffffffffffffffffffffff16815260200190815260200160002090508181600a0190816110a2919061396b565b505050565b6110b033611f6e565b6110bd816001600a611ff9565b6000600160040160003373ffffffffffffffffffffffffffffffffffffffff1673ffffffffffffffffffffffffffffffffffffffff168152602001908152602001600020905081816009019081611114919061396b565b505050565b600080600160040160008473ffffffffffffffffffffffffffffffffffffffff1673ffffffffffffffffffffffffffffffffffffffff1681526020019081526020016000206006015414159050919050565b611173612a1f565b600061117e33611f6e565b6000600160040160003373ffffffffffffffffffffffffffffffffffffffff1673ffffffffffffffffffffffffffffffffffffffff16815260200190815260200160002060280173__AddressLinkedList_____________________637ea94909909187876040518463ffffffff1660e01b815260040161120193929190613c19565b61014060405180830381865af415801561121f573d6000803e3d6000fd5b505050506040513d601f19601f820116820180604052508101906112439190613d01565b905060005b600a811015611318578181600a811061126457611263613d2f565b5b60200201519250600073ffffffffffffffffffffffffffffffffffffffff168373ffffffffffffffffffffffffffffffffffffffff160315611318576112ea601a60040160008573ffffffffffffffffffffffffffffffffffffffff1673ffffffffffffffffffffffffffffffffffffffff168152602001908152602001600020612210565b8482600a81106112fd576112fc613d2f565b5b6020020181905250808061131090613d8d565b915050611248565b50509250929050565b565b61132b612a4d565b600080601560000173__AddressLinkedList_____________________637ea9490990918660006040518463ffffffff1660e01b815260040161137093929190613c19565b61014060405180830381865af415801561138e573d6000803e3d6000fd5b505050506040513d601f19601f820116820180604052508101906113b29190613d01565b905060005b600a81101561157c578181600a81106113d3576113d2613d2f565b5b60200201519250600073ffffffffffffffffffffffffffffffffffffffff168373ffffffffffffffffffffffffffffffffffffffff16031561157c57601560040160008473ffffffffffffffffffffffffffffffffffffffff1673ffffffffffffffffffffffffffffffffffffffff1681526020019081526020016000206040518060600160405290816000820160009054906101000a900473ffffffffffffffffffffffffffffffffffffffff1673ffffffffffffffffffffffffffffffffffffffff1673ffffffffffffffffffffffffffffffffffffffff1681526020016001820180546114c29061378e565b80601f01602080910402602001604051908101604052809291908181526020018280546114ee9061378e565b801561153b5780601f106115105761010080835404028352916020019161153b565b820191906000526020600020905b81548152906001019060200180831161151e57829003601f168201915b505050505081526020016002820154815250508482600a811061156157611560613d2f565b5b6020020181905250808061157490613d8d565b9150506113b7565b5050915091565b600073ffffffffffffffffffffffffffffffffffffffff1660008054906101000a900473ffffffffffffffffffffffffffffffffffffffff1673ffffffffffffffffffffffffffffffffffffffff1603611612576040517f08c379a000000000000000000000000000000000000000000000000000000000815260040161160990613e21565b60405180910390fd5b336000806101000a81548173ffffffffffffffffffffffffffffffffffffffff021916908373ffffffffffffffffffffffffffffffffffffffff16021790555061165a61257b565b611662612731565b565b61166d336128e7565b61167a816001600a611ff9565b6000600160040160003373ffffffffffffffffffffffffffffffffffffffff1673ffffffffffffffffffffffffffffffffffffffff168152602001908152602001600020905060028160020181905550428160060181905550818160090190816116e4919061396b565b50338160000160006101000a81548173ffffffffffffffffffffffffffffffffffffffff021916908373ffffffffffffffffffffffffffffffffffffffff16021790555080600b0173__AddressLinkedList_____________________637fc06cef90916040518263ffffffff1660e01b81526004016117649190613e41565b60006040518083038186803b15801561177c57600080fd5b505af4158015611790573d6000803e3d6000fd5b5050505080600f0173__AddressLinkedList_____________________637fc06cef90916040518263ffffffff1660e01b81526004016117d09190613e41565b60006040518083038186803b1580156117e857600080fd5b505af41580156117fc573d6000803e3d6000fd5b505050508060130173__AddressLinkedList_____________________637fc06cef90916040518263ffffffff1660e01b815260040161183c9190613e41565b60006040518083038186803b15801561185457600080fd5b505af4158015611868573d6000803e3d6000fd5b505050508060170173__AddressLinkedList_____________________637fc06cef90916040518263ffffffff1660e01b81526004016118a89190613e41565b60006040518083038186803b1580156118c057600080fd5b505af41580156118d4573d6000803e3d6000fd5b5050505080601b0173__AddressLinkedList_____________________637fc06cef90916040518263ffffffff1660e01b81526004016119149190613e41565b60006040518083038186803b15801561192c57600080fd5b505af4158015611940573d6000803e3d6000fd5b5050505080601f0173__AddressOrderedMap_____________________63abc7dfcc90916040518263ffffffff1660e01b81526004016119809190613e5c565b60006040518083038186803b15801561199857600080fd5b505af41580156119ac573d6000803e3d6000fd5b505050508060240173__AddressLinkedList_____________________637fc06cef90916040518263ffffffff1660e01b81526004016119ec9190613e41565b60006040518083038186803b158015611a0457600080fd5b505af4158015611a18573d6000803e3d6000fd5b505050508060280173__AddressLinkedList_____________________637fc06cef90916040518263ffffffff1660e01b8152600401611a589190613e41565b60006040518083038186803b158015611a7057600080fd5b505af4158015611a84573d6000803e3d6000fd5b5050505080602c0173__AddressOrderedMap_____________________63abc7dfcc90916040518263ffffffff1660e01b8152600401611ac49190613e5c565b60006040518083038186803b158015611adc57600080fd5b505af4158015611af0573d6000803e3d6000fd5b505050508060310173__AddressLinkedList_____________________637fc06cef90916040518263ffffffff1660e01b8152600401611b309190613e41565b60006040518083038186803b158015611b4857600080fd5b505af4158015611b5c573d6000803e3d6000fd5b505050508060350173__AddressOrderedMap_____________________63abc7dfcc90916040518263ffffffff1660e01b8152600401611b9c9190613e5c565b60006040518083038186803b158015611bb457600080fd5b505af4158015611bc8573d6000803e3d6000fd5b5050505080603a0173__AddressOrderedMap_____________________63abc7dfcc90916040518263ffffffff1660e01b8152600401611c089190613e5c565b60006040518083038186803b158015611c2057600080fd5b505af4158015611c34573d6000803e3d6000fd5b50505050600160000173__AddressLinkedList_____________________63dbd4df179091336040518363ffffffff1660e01b8152600401611c77929190613a53565b60006040518083038186803b158015611c8f57600080fd5b505af4158015611ca3573d6000803e3d6000fd5b50505050600160050173__AddressOrderedMap_____________________633fc68a5f909160405180604001604052803373ffffffffffffffffffffffffffffffffffffffff16815260200160008152506040518363ffffffff1660e01b8152600401611d11929190613b3c565b60006040518083038186803b158015611d2957600080fd5b505af4158015611d3d573d6000803e3d6000fd5b505050506001600a0173__AddressOrderedMap_____________________633fc68a5f909160405180604001604052803373ffffffffffffffffffffffffffffffffffffffff16815260200160008152506040518363ffffffff1660e01b8152600401611dab929190613b3c565b60006040518083038186803b158015611dc357600080fd5b505af4158015611dd7573d6000803e3d6000fd5b505050506001600f0173__AddressOrderedMap_____________________633fc68a5f909160405180604001604052803373ffffffffffffffffffffffffffffffffffffffff16815260200160008152506040518363ffffffff1660e01b8152600401611e45929190613b3c565b60006040518083038186803b158015611e5d57600080fd5b505af4158015611e71573d6000803e3d6000fd5b505050505050565b60008054906101000a900473ffffffffffffffffffffffffffffffffffffffff1681565b60008160001c9050919050565b60008060009054906101000a900473ffffffffffffffffffffffffffffffffffffffff169050816000806101000a81548173ffffffffffffffffffffffffffffffffffffffff021916908373ffffffffffffffffffffffffffffffffffffffff1602179055508173ffffffffffffffffffffffffffffffffffffffff168173ffffffffffffffffffffffffffffffffffffffff167ff8ccb027dfcd135e000e9d45e6cc2d662578a8825d4c45b5e32e0adf67e79ec660405160405180910390a35050565b6000600160040160008373ffffffffffffffffffffffffffffffffffffffff1673ffffffffffffffffffffffffffffffffffffffff1681526020019081526020016000206006015403611ff6576040517f08c379a0000000000000000000000000000000000000000000000000000000008152600401611fed90613ee9565b60405180910390fd5b50565b6000600384516120099190613f38565b9050600083148061201a5750828110155b612059576040517f08c379a000000000000000000000000000000000000000000000000000000000815260040161205090613fb5565b60405180910390fd5b60008214806120685750818111155b6120a7576040517f08c379a000000000000000000000000000000000000000000000000000000000815260040161209e90614021565b60405180910390fd5b50505050565b60008214806120bc5750818310155b6120fb576040517f08c379a00000000000000000000000000000000000000000000000000000000081526004016120f290613fb5565b60405180910390fd5b600081148061210a5750808311155b612149576040517f08c379a000000000000000000000000000000000000000000000000000000000815260040161214090614021565b60405180910390fd5b505050565b601560000173__AddressLinkedList_____________________63c40b47ad9091836040518363ffffffff1660e01b815260040161218d929190613a53565b602060405180830381865af41580156121aa573d6000803e3d6000fd5b505050506040513d601f19601f820116820180604052508101906121ce9190614056565b61220d576040517f08c379a0000000000000000000000000000000000000000000000000000000008152600401612204906140cf565b60405180910390fd5b50565b612218612a7b565b8160000160009054906101000a900473ffffffffffffffffffffffffffffffffffffffff16816000019073ffffffffffffffffffffffffffffffffffffffff16908173ffffffffffffffffffffffffffffffffffffffff16815250508160010180546122839061378e565b80601f01602080910402602001604051908101604052809291908181526020018280546122af9061378e565b80156122fc5780601f106122d1576101008083540402835291602001916122fc565b820191906000526020600020905b8154815290600101906020018083116122df57829003601f168201915b505050505081602001819052508160020160009054906101000a900473ffffffffffffffffffffffffffffffffffffffff16816040019073ffffffffffffffffffffffffffffffffffffffff16908173ffffffffffffffffffffffffffffffffffffffff16815250508160030180546123749061378e565b80601f01602080910402602001604051908101604052809291908181526020018280546123a09061378e565b80156123ed5780601f106123c2576101008083540402835291602001916123ed565b820191906000526020600020905b8154815290600101906020018083116123d057829003601f168201915b505050505081606001819052508160040180546124099061378e565b80601f01602080910402602001604051908101604052809291908181526020018280546124359061378e565b80156124825780601f1061245757610100808354040283529160200191612482565b820191906000526020600020905b81548152906001019060200180831161246557829003601f168201915b5050505050816080018190525081600601600380602002604051908101604052809291906000905b8282101561254d5783820180546124c09061378e565b80601f01602080910402602001604051908101604052809291908181526020018280546124ec9061378e565b80156125395780601f1061250e57610100808354040283529160200191612539565b820191906000526020600020905b81548152906001019060200180831161251c57829003601f168201915b5050505050815260200190600101906124aa565b505050508160c0018190525081600901548160e001818152505081600a015481610100018181525050919050565b600160000173__AddressLinkedList_____________________637fc06cef90916040518263ffffffff1660e01b81526004016125b89190613e41565b60006040518083038186803b1580156125d057600080fd5b505af41580156125e4573d6000803e3d6000fd5b50505050600160050173__AddressOrderedMap_____________________63abc7dfcc90916040518263ffffffff1660e01b81526004016126259190613e5c565b60006040518083038186803b15801561263d57600080fd5b505af4158015612651573d6000803e3d6000fd5b505050506001600a0173__AddressOrderedMap_____________________63abc7dfcc90916040518263ffffffff1660e01b81526004016126929190613e5c565b60006040518083038186803b1580156126aa57600080fd5b505af41580156126be573d6000803e3d6000fd5b505050506001600f0173__AddressOrderedMap_____________________63abc7dfcc90916040518263ffffffff1660e01b81526004016126ff9190613e5c565b60006040518083038186803b15801561271757600080fd5b505af415801561272b573d6000803e3d6000fd5b50505050565b601560000173__AddressLinkedList_____________________637fc06cef90916040518263ffffffff1660e01b815260040161276e9190613e41565b60006040518083038186803b15801561278657600080fd5b505af415801561279a573d6000803e3d6000fd5b50505050601a60000173__AddressLinkedList_____________________637fc06cef90916040518263ffffffff1660e01b81526004016127db9190613e41565b60006040518083038186803b1580156127f357600080fd5b505af4158015612807573d6000803e3d6000fd5b50505050601a60050173__AddressOrderedMap_____________________63abc7dfcc90916040518263ffffffff1660e01b81526004016128489190613e5c565b60006040518083038186803b15801561286057600080fd5b505af4158015612874573d6000803e3d6000fd5b50505050601a600a0173__AddressOrderedMap_____________________63abc7dfcc90916040518263ffffffff1660e01b81526004016128b59190613e5c565b60006040518083038186803b1580156128cd57600080fd5b505af41580156128e1573d6000803e3d6000fd5b50505050565b6000600160040160008373ffffffffffffffffffffffffffffffffffffffff1673ffffffffffffffffffffffffffffffffffffffff168152602001908152602001600020600601541461296f576040517f08c379a000000000000000000000000000000000000000000000000000000000815260040161296690614161565b60405180910390fd5b50565b6040518061018001604052806000815260200160008152602001600081526020016000815260200160008152602001600081526020016000815260200160008152602001606081526020016060815260200160608152602001606081525090565b8260038101928215612a0e579160200282015b82811115612a0d5782518290816129fd919061396b565b50916020019190600101906129e6565b5b509050612a1b9190612b16565b5090565b604051806101400160405280600a905b612a37612a7b565b815260200190600190039081612a2f5790505090565b604051806101400160405280600a905b612a65612b3a565b815260200190600190039081612a5d5790505090565b604051806101400160405280600073ffffffffffffffffffffffffffffffffffffffff16815260200160608152602001600073ffffffffffffffffffffffffffffffffffffffff1681526020016060815260200160608152602001600073ffffffffffffffffffffffffffffffffffffffff168152602001612afb612b71565b81526020016000815260200160008152602001600081525090565b5b80821115612b365760008181612b2d9190612b98565b50600101612b17565b5090565b6040518060600160405280600073ffffffffffffffffffffffffffffffffffffffff16815260200160608152602001600081525090565b60405180606001604052806003905b6060815260200190600190039081612b805790505090565b508054612ba49061378e565b6000825580601f10612bb65750612bd5565b601f016020900490600052602060002090810190612bd49190612bd8565b5b50565b5b80821115612bf1576000816000905550600101612bd9565b5090565b6000604051905090565b600080fd5b600080fd5b600080fd5b600080fd5b6000601f19601f8301169050919050565b7f4e487b7100000000000000000000000000000000000000000000000000000000600052604160045260246000fd5b612c5c82612c13565b810181811067ffffffffffffffff82111715612c7b57612c7a612c24565b5b80604052505050565b6000612c8e612bf5565b9050612c9a8282612c53565b919050565b600067ffffffffffffffff821115612cba57612cb9612c24565b5b612cc382612c13565b9050602081019050919050565b82818337600083830152505050565b6000612cf2612ced84612c9f565b612c84565b905082815260208101848484011115612d0e57612d0d612c0e565b5b612d19848285612cd0565b509392505050565b600082601f830112612d3657612d35612c09565b5b8135612d46848260208601612cdf565b91505092915050565b600060208284031215612d6557612d64612bff565b5b600082013567ffffffffffffffff811115612d8357612d82612c04565b5b612d8f84828501612d21565b91505092915050565b600073ffffffffffffffffffffffffffffffffffffffff82169050919050565b6000612dc382612d98565b9050919050565b612dd381612db8565b8114612dde57600080fd5b50565b600081359050612df081612dca565b92915050565b600060208284031215612e0c57612e0b612bff565b5b6000612e1a84828501612de1565b91505092915050565b6000819050919050565b612e3681612e23565b82525050565b600081519050919050565b600082825260208201905092915050565b60005b83811015612e76578082015181840152602081019050612e5b565b60008484015250505050565b6000612e8d82612e3c565b612e978185612e47565b9350612ea7818560208601612e58565b612eb081612c13565b840191505092915050565b600061018083016000830151612ed46000860182612e2d565b506020830151612ee76020860182612e2d565b506040830151612efa6040860182612e2d565b506060830151612f0d6060860182612e2d565b506080830151612f206080860182612e2d565b5060a0830151612f3360a0860182612e2d565b5060c0830151612f4660c0860182612e2d565b5060e0830151612f5960e0860182612e2d565b50610100830151848203610100860152612f738282612e82565b915050610120830151848203610120860152612f8f8282612e82565b915050610140830151848203610140860152612fab8282612e82565b915050610160830151848203610160860152612fc78282612e82565b9150508091505092915050565b60006020820190508181036000830152612fee8184612ebb565b905092915050565b600067ffffffffffffffff82111561301157613010612c24565b5b602082029050919050565b600080fd5b600061303461302f84612ff6565b612c84565b9050806020840283018581111561304e5761304d61301c565b5b835b8181101561309557803567ffffffffffffffff81111561307357613072612c09565b5b8086016130808982612d21565b85526020850194505050602081019050613050565b5050509392505050565b600082601f8301126130b4576130b3612c09565b5b60036130c1848285613021565b91505092915050565b6130d381612e23565b81146130de57600080fd5b50565b6000813590506130f0816130ca565b92915050565b60008060008060008060c0878903121561311357613112612bff565b5b600087013567ffffffffffffffff81111561313157613130612c04565b5b61313d89828a01612d21565b965050602087013567ffffffffffffffff81111561315e5761315d612c04565b5b61316a89828a01612d21565b955050604087013567ffffffffffffffff81111561318b5761318a612c04565b5b61319789828a01612d21565b94505060606131a889828a01612de1565b935050608087013567ffffffffffffffff8111156131c9576131c8612c04565b5b6131d589828a0161309f565b92505060a06131e689828a016130e1565b9150509295509295509295565b60008115159050919050565b613208816131f3565b82525050565b600060208201905061322360008301846131ff565b92915050565b613232816131f3565b811461323d57600080fd5b50565b60008135905061324f81613229565b92915050565b6000806040838503121561326c5761326b612bff565b5b600061327a85828601612de1565b925050602061328b85828601613240565b9150509250929050565b6000600a9050919050565b600081905092915050565b6000819050919050565b6132be81612db8565b82525050565b600060039050919050565b600081905092915050565b6000819050919050565b60006132f08383612e82565b905092915050565b6000602082019050919050565b6000613310826132c4565b61331a81856132cf565b93508360208202850161332c856132da565b8060005b85811015613368578484038952815161334985826132e4565b9450613354836132f8565b925060208a01995050600181019050613330565b50829750879550505050505092915050565b60006101408301600083015161339360008601826132b5565b50602083015184820360208601526133ab8282612e82565b91505060408301516133c060408601826132b5565b50606083015184820360608601526133d88282612e82565b915050608083015184820360808601526133f28282612e82565b91505060a083015161340760a08601826132b5565b5060c083015184820360c086015261341f8282613305565b91505060e083015161343460e0860182612e2d565b50610100830151613449610100860182612e2d565b5061012083015161345e610120860182612e2d565b508091505092915050565b6000613475838361337a565b905092915050565b6000602082019050919050565b600061349582613295565b61349f81856132a0565b9350836020820285016134b1856132ab565b8060005b858110156134ed57848403895281516134ce8582613469565b94506134d98361347d565b925060208a019950506001810190506134b5565b50829750879550505050505092915050565b61350881612db8565b82525050565b60006040820190508181036000830152613528818561348a565b905061353760208301846134ff565b9392505050565b6000600a9050919050565b600081905092915050565b6000819050919050565b600060608301600083015161357660008601826132b5565b506020830151848203602086015261358e8282612e82565b91505060408301516135a36040860182612e2d565b508091505092915050565b60006135ba838361355e565b905092915050565b6000602082019050919050565b60006135da8261353e565b6135e48185613549565b9350836020820285016135f685613554565b8060005b85811015613632578484038952815161361385826135ae565b945061361e836135c2565b925060208a019950506001810190506135fa565b50829750879550505050505092915050565b6000604082019050818103600083015261365e81856135cf565b905061366d60208301846134ff565b9392505050565b600060208201905061368960008301846134ff565b92915050565b600082825260208201905092915050565b7f41646d696e436f6e74726163743e5f6f6e6c7941646d696e5f00000000000000600082015250565b60006136d660198361368f565b91506136e1826136a0565b602082019050919050565b60006020820190508181036000830152613705816136c9565b9050919050565b600081905092915050565b600061372282612e3c565b61372c818561370c565b935061373c818560208601612e58565b80840191505092915050565b60006137548284613717565b915081905092915050565b7f4e487b7100000000000000000000000000000000000000000000000000000000600052602260045260246000fd5b600060028204905060018216806137a657607f821691505b6020821081036137b9576137b861375f565b5b50919050565b60008190508160005260206000209050919050565b60006020601f8301049050919050565b600082821b905092915050565b6000600883026138217fffffffffffffffffffffffffffffffffffffffffffffffffffffffffffffffff826137e4565b61382b86836137e4565b95508019841693508086168417925050509392505050565b6000819050919050565b600061386861386361385e84612e23565b613843565b612e23565b9050919050565b6000819050919050565b6138828361384d565b61389661388e8261386f565b8484546137f1565b825550505050565b600090565b6138ab61389e565b6138b6818484613879565b505050565b5b818110156138da576138cf6000826138a3565b6001810190506138bc565b5050565b601f82111561391f576138f0816137bf565b6138f9846137d4565b81016020851015613908578190505b61391c613914856137d4565b8301826138bb565b50505b505050565b600082821c905092915050565b600061394260001984600802613924565b1980831691505092915050565b600061395b8383613931565b9150826002028217905092915050565b61397482612e3c565b67ffffffffffffffff81111561398d5761398c612c24565b5b613997825461378e565b6139a28282856138de565b600060209050601f8311600181146139d557600084156139c3578287015190505b6139cd858261394f565b865550613a35565b601f1984166139e3866137bf565b60005b82811015613a0b578489015182556001820191506020850194506020810190506139e6565b86831015613a285784890151613a24601f891682613931565b8355505b6001600288020188555050505b505050505050565b8082525050565b613a4d81612db8565b82525050565b6000604082019050613a686000830185613a3d565b613a756020830184613a44565b9392505050565b7f41646d696e436f6e74726163743e7472616e7366657241646d696e0000000000600082015250565b6000613ab2601b8361368f565b9150613abd82613a7c565b602082019050919050565b60006020820190508181036000830152613ae181613aa5565b9050919050565b8082525050565b613af881612db8565b82525050565b613b0781612e23565b82525050565b604082016000820151613b236000850182613aef565b506020820151613b366020850182613afe565b50505050565b6000606082019050613b516000830185613ae8565b613b5e6020830184613b0d565b9392505050565b60008160601b9050919050565b6000613b7d82613b65565b9050919050565b6000613b8f82613b72565b9050919050565b613ba7613ba282612db8565b613b84565b82525050565b6000613bb98284613b96565b60148201915081905092915050565b600081519050613bd781612dca565b92915050565b600060208284031215613bf357613bf2612bff565b5b6000613c0184828501613bc8565b91505092915050565b613c13816131f3565b82525050565b6000606082019050613c2e6000830186613a3d565b613c3b6020830185613a44565b613c486040830184613c0a565b949350505050565b600067ffffffffffffffff821115613c6b57613c6a612c24565b5b602082029050919050565b6000613c89613c8484613c50565b612c84565b90508060208402830185811115613ca357613ca261301c565b5b835b81811015613ccc5780613cb88882613bc8565b845260208401935050602081019050613ca5565b5050509392505050565b600082601f830112613ceb57613cea612c09565b5b600a613cf8848285613c76565b91505092915050565b60006101408284031215613d1857613d17612bff565b5b6000613d2684828501613cd6565b91505092915050565b7f4e487b7100000000000000000000000000000000000000000000000000000000600052603260045260246000fd5b7f4e487b7100000000000000000000000000000000000000000000000000000000600052601160045260246000fd5b6000613d9882612e23565b91507fffffffffffffffffffffffffffffffffffffffffffffffffffffffffffffffff8203613dca57613dc9613d5e565b5b600182019050919050565b7f696e697469616c697a6564000000000000000000000000000000000000000000600082015250565b6000613e0b600b8361368f565b9150613e1682613dd5565b602082019050919050565b60006020820190508181036000830152613e3a81613dfe565b9050919050565b6000602082019050613e566000830184613a3d565b92915050565b6000602082019050613e716000830184613ae8565b92915050565b7f45303a20557365722e736f6c3e55736572436f6e74726163743e5f726567697360008201527f74657265645f0000000000000000000000000000000000000000000000000000602082015250565b6000613ed360268361368f565b9150613ede82613e77565b604082019050919050565b60006020820190508181036000830152613f0281613ec6565b9050919050565b7f4e487b7100000000000000000000000000000000000000000000000000000000600052601260045260246000fd5b6000613f4382612e23565b9150613f4e83612e23565b925082613f5e57613f5d613f09565b5b828204905092915050565b7f42617365436f6e746163743e5f72616e67655f3e310000000000000000000000600082015250565b6000613f9f60158361368f565b9150613faa82613f69565b602082019050919050565b60006020820190508181036000830152613fce81613f92565b9050919050565b7f42617365436f6e746163743e5f72616e67655f3e320000000000000000000000600082015250565b600061400b60158361368f565b915061401682613fd5565b602082019050919050565b6000602082019050818103600083015261403a81613ffe565b9050919050565b60008151905061405081613229565b92915050565b60006020828403121561406c5761406b612bff565b5b600061407a84828501614041565b91505092915050565b7f42617365436f6e746163743e5f76616c696443617465676f72795f0000000000600082015250565b60006140b9601b8361368f565b91506140c482614083565b602082019050919050565b600060208201905081810360008301526140e8816140ac565b9050919050565b7f45313a20557365722e736f6c3e55736572436f6e74726163743e5f6e6f74526560008201527f67697374657265645f0000000000000000000000000000000000000000000000602082015250565b600061414b60298361368f565b9150614156826140ef565b604082019050919050565b6000602082019050818103600083015261417a8161413e565b905091905056fea2646970667358221220e31aae06c2bb8702ee435ef494d3df9f61685a607e0810ee31fb76675083248964736f6c63430008110033",
  "immutableReferences": {},
  "source": "// SPDX-License-Identifier: GPL-3.0\r\npragma solidity ^0.8.17;\r\n\r\nimport \"./implementations/base/Base.sol\";\r\nimport \"./implementations/File.sol\";\r\nimport \"./implementations/Reward.sol\";\r\nimport \"./implementations/User.sol\";\r\n\r\ninterface ImplementationInterface is AdminInterface, UserInterface, FileInterface, RewardInterface {\r\n    function init() external;\r\n}\r\n\r\ncontract ImplementationContact is UserContract, FileContact, RewardContact {\r\n    function init()\r\n    public {\r\n        require(admin != address(0), \"initialized\");\r\n        admin = msg.sender;\r\n        UserContract_init();\r\n        FileContact_init();\r\n    }\r\n}\r\n\r\ncontract OurShare is AdminContract {\r\n    bytes32 private constant implementation_position = keccak256(\"OurShare\");\r\n\r\n    constructor(){\r\n        admin = msg.sender;\r\n    }\r\n\r\n    function getImplementation() public view returns (address implementation) {\r\n        bytes32 position = implementation_position;\r\n        assembly {\r\n            implementation := sload(position)\r\n        }\r\n    }\r\n\r\n    function setImplementation(address implementation) public _onlyAdmin_ {\r\n        bytes32 position = implementation_position;\r\n        assembly {\r\n            sstore(position, implementation)\r\n        }\r\n    }\r\n\r\n    function _delegate(address implementation) internal {\r\n        assembly {\r\n            calldatacopy(0, 0, calldatasize())\r\n            let result := delegatecall(gas(), implementation, 0, calldatasize(), 0, 0)\r\n            returndatacopy(0, 0, returndatasize())\r\n            switch result\r\n            case 0 {\r\n                revert(0, returndatasize())\r\n            }\r\n            default {\r\n                return (0, returndatasize())\r\n            }\r\n        }\r\n    }\r\n\r\n    fallback() external payable {\r\n        _delegate(getImplementation());\r\n    }\r\n\r\n    receive() external payable {\r\n        _delegate(getImplementation());\r\n    }\r\n}\r\n",
  "sourcePath": "F:\\OurChain\\OurShare\\src\\assets\\eth\\contracts\\OurShare.sol",
  "compiler": {
    "name": "solc",
    "version": "0.8.17+commit.8df45f5f.Emscripten.clang"
  },
  "schemaVersion": "3.4.13",
  "updatedAt": "2023-05-19T14:35:46.407Z",
  "networkType": "ethereum",
  "devdoc": {
    "kind": "dev",
    "methods": {},
    "version": 1
  },
  "userdoc": {
    "kind": "user",
    "methods": {},
    "version": 1
  }
}