{
  "contractName": "ImplementationContact",
  "abi": [
    {
      "anonymous": false,
      "inputs": [
        {
          "indexed": true,
          "internalType": "address",
          "name": "old_admin",
          "type": "address"
        },
        {
          "indexed": true,
          "internalType": "address",
          "name": "new_admin",
          "type": "address"
        }
      ],
      "name": "AdminTransferred",
      "type": "event"
    },
    {
      "inputs": [],
      "name": "RewardContract_init",
      "outputs": [],
      "stateMutability": "nonpayable",
      "type": "function"
    },
    {
      "inputs": [
        {
          "internalType": "string",
          "name": "name",
          "type": "string"
        }
      ],
      "name": "addCategory",
      "outputs": [],
      "stateMutability": "nonpayable",
      "type": "function"
    },
    {
      "inputs": [],
      "name": "admin",
      "outputs": [
        {
          "internalType": "address",
          "name": "",
          "type": "address"
        }
      ],
      "stateMutability": "view",
      "type": "function",
      "constant": true
    },
    {
      "inputs": [
        {
          "internalType": "address",
          "name": "cursor",
          "type": "address"
        }
      ],
      "name": "getCategorySlice",
      "outputs": [
        {
          "components": [
            {
              "internalType": "address",
              "name": "category_address",
              "type": "address"
            },
            {
              "internalType": "string",
              "name": "name",
              "type": "string"
            },
            {
              "internalType": "uint256",
              "name": "num",
              "type": "uint256"
            }
          ],
          "internalType": "struct Types.Category[10]",
          "name": "category_slice",
          "type": "tuple[10]"
        },
        {
          "internalType": "address",
          "name": "next",
          "type": "address"
        },
        {
          "internalType": "bool",
          "name": "finished",
          "type": "bool"
        }
      ],
      "stateMutability": "view",
      "type": "function",
      "constant": true
    },
    {
      "inputs": [
        {
          "internalType": "address",
          "name": "cursor",
          "type": "address"
        },
        {
          "internalType": "address",
          "name": "category_address",
          "type": "address"
        },
        {
          "internalType": "uint256",
          "name": "order",
          "type": "uint256"
        },
        {
          "internalType": "bool",
          "name": "reverse",
          "type": "bool"
        }
      ],
      "name": "getFileBriefInfos",
      "outputs": [
        {
          "components": [
            {
              "internalType": "address",
              "name": "file_address",
              "type": "address"
            },
            {
              "internalType": "address",
              "name": "category_address",
              "type": "address"
            },
            {
              "internalType": "bool",
              "name": "is_buy",
              "type": "bool"
            },
            {
              "internalType": "string",
              "name": "name",
              "type": "string"
            },
            {
              "internalType": "string",
              "name": "title",
              "type": "string"
            },
            {
              "internalType": "string",
              "name": "owner",
              "type": "string"
            },
            {
              "internalType": "string",
              "name": "description",
              "type": "string"
            },
            {
              "internalType": "string",
              "name": "cover",
              "type": "string"
            },
            {
              "internalType": "uint256",
              "name": "price",
              "type": "uint256"
            },
            {
              "internalType": "uint256",
              "name": "up_num",
              "type": "uint256"
            },
            {
              "internalType": "uint256",
              "name": "down_num",
              "type": "uint256"
            },
            {
              "internalType": "uint256",
              "name": "buyer_num",
              "type": "uint256"
            },
            {
              "internalType": "uint256",
              "name": "comment_num",
              "type": "uint256"
            },
            {
              "internalType": "uint256",
              "name": "up_and_down",
              "type": "uint256"
            },
            {
              "internalType": "uint256",
              "name": "upload_timestamp",
              "type": "uint256"
            }
          ],
          "internalType": "struct Types.FileBriefInfo[10]",
          "name": "file_infos",
          "type": "tuple[10]"
        },
        {
          "internalType": "address",
          "name": "next",
          "type": "address"
        },
        {
          "internalType": "bool",
          "name": "finished",
          "type": "bool"
        }
      ],
      "stateMutability": "view",
      "type": "function",
      "constant": true
    },
    {
      "inputs": [
        {
          "internalType": "address",
          "name": "file_address",
          "type": "address"
        }
      ],
      "name": "getFileDetailInfo",
      "outputs": [
        {
          "components": [
            {
              "internalType": "address",
              "name": "owner",
              "type": "address"
            },
            {
              "internalType": "address",
              "name": "file_address",
              "type": "address"
            },
            {
              "internalType": "address",
              "name": "category_address",
              "type": "address"
            },
            {
              "internalType": "bool",
              "name": "is_buy",
              "type": "bool"
            },
            {
              "internalType": "string",
              "name": "name",
              "type": "string"
            },
            {
              "internalType": "string",
              "name": "title",
              "type": "string"
            },
            {
              "internalType": "string",
              "name": "description",
              "type": "string"
            },
            {
              "internalType": "string",
              "name": "ipfs_address",
              "type": "string"
            },
            {
              "internalType": "string[3]",
              "name": "images",
              "type": "string[3]"
            },
            {
              "internalType": "uint256",
              "name": "price",
              "type": "uint256"
            },
            {
              "internalType": "uint256",
              "name": "up_num",
              "type": "uint256"
            },
            {
              "internalType": "uint256",
              "name": "down_num",
              "type": "uint256"
            },
            {
              "internalType": "uint256",
              "name": "buyer_num",
              "type": "uint256"
            },
            {
              "internalType": "uint256",
              "name": "comment_num",
              "type": "uint256"
            },
            {
              "internalType": "uint256",
              "name": "up_and_down",
              "type": "uint256"
            },
            {
              "internalType": "uint256",
              "name": "upload_timestamp",
              "type": "uint256"
            }
          ],
          "internalType": "struct Types.FileDetailInfo",
          "name": "detail_info",
          "type": "tuple"
        }
      ],
      "stateMutability": "view",
      "type": "function",
      "constant": true
    },
    {
      "inputs": [
        {
          "internalType": "address",
          "name": "user_address",
          "type": "address"
        }
      ],
      "name": "getOtherSimpleInfo",
      "outputs": [
        {
          "components": [
            {
              "internalType": "string",
              "name": "major",
              "type": "string"
            },
            {
              "internalType": "string",
              "name": "avatar",
              "type": "string"
            },
            {
              "internalType": "string",
              "name": "nickname",
              "type": "string"
            },
            {
              "internalType": "string",
              "name": "signature",
              "type": "string"
            },
            {
              "internalType": "uint256",
              "name": "heart",
              "type": "uint256"
            },
            {
              "internalType": "uint256",
              "name": "medal_num",
              "type": "uint256"
            },
            {
              "internalType": "uint256",
              "name": "experience",
              "type": "uint256"
            },
            {
              "internalType": "uint256",
              "name": "follower_num",
              "type": "uint256"
            },
            {
              "internalType": "uint256",
              "name": "uploaded_file_num",
              "type": "uint256"
            }
          ],
          "internalType": "struct Types.UserSimpleInfo",
          "name": "simple_info",
          "type": "tuple"
        }
      ],
      "stateMutability": "view",
      "type": "function",
      "constant": true
    },
    {
      "inputs": [
        {
          "internalType": "address",
          "name": "cursor",
          "type": "address"
        },
        {
          "internalType": "bool",
          "name": "reverse",
          "type": "bool"
        }
      ],
      "name": "getSelfFileBriefInfos",
      "outputs": [
        {
          "components": [
            {
              "internalType": "address",
              "name": "file_address",
              "type": "address"
            },
            {
              "internalType": "address",
              "name": "category_address",
              "type": "address"
            },
            {
              "internalType": "bool",
              "name": "is_buy",
              "type": "bool"
            },
            {
              "internalType": "string",
              "name": "name",
              "type": "string"
            },
            {
              "internalType": "string",
              "name": "title",
              "type": "string"
            },
            {
              "internalType": "string",
              "name": "owner",
              "type": "string"
            },
            {
              "internalType": "string",
              "name": "description",
              "type": "string"
            },
            {
              "internalType": "string",
              "name": "cover",
              "type": "string"
            },
            {
              "internalType": "uint256",
              "name": "price",
              "type": "uint256"
            },
            {
              "internalType": "uint256",
              "name": "up_num",
              "type": "uint256"
            },
            {
              "internalType": "uint256",
              "name": "down_num",
              "type": "uint256"
            },
            {
              "internalType": "uint256",
              "name": "buyer_num",
              "type": "uint256"
            },
            {
              "internalType": "uint256",
              "name": "comment_num",
              "type": "uint256"
            },
            {
              "internalType": "uint256",
              "name": "up_and_down",
              "type": "uint256"
            },
            {
              "internalType": "uint256",
              "name": "upload_timestamp",
              "type": "uint256"
            }
          ],
          "internalType": "struct Types.FileBriefInfo[10]",
          "name": "file_infos",
          "type": "tuple[10]"
        },
        {
          "internalType": "address",
          "name": "next",
          "type": "address"
        },
        {
          "internalType": "bool",
          "name": "finished",
          "type": "bool"
        }
      ],
      "stateMutability": "view",
      "type": "function",
      "constant": true
    },
    {
      "inputs": [],
      "name": "getSelfInfo",
      "outputs": [
        {
          "components": [
            {
              "internalType": "string",
              "name": "major",
              "type": "string"
            },
            {
              "internalType": "string",
              "name": "avatar",
              "type": "string"
            },
            {
              "internalType": "string",
              "name": "nickname",
              "type": "string"
            },
            {
              "internalType": "string",
              "name": "signature",
              "type": "string"
            },
            {
              "internalType": "uint256",
              "name": "ID",
              "type": "uint256"
            },
            {
              "internalType": "uint256",
              "name": "coins",
              "type": "uint256"
            },
            {
              "internalType": "uint256",
              "name": "heart",
              "type": "uint256"
            },
            {
              "internalType": "uint256",
              "name": "experience",
              "type": "uint256"
            },
            {
              "internalType": "uint256",
              "name": "follower_num",
              "type": "uint256"
            },
            {
              "internalType": "uint256",
              "name": "following_num",
              "type": "uint256"
            },
            {
              "internalType": "uint256",
              "name": "login_timestamp",
              "type": "uint256"
            },
            {
              "internalType": "uint256",
              "name": "uploaded_file_num",
              "type": "uint256"
            }
          ],
          "internalType": "struct Types.UserSelfInfo",
          "name": "self_info",
          "type": "tuple"
        }
      ],
      "stateMutability": "view",
      "type": "function",
      "constant": true
    },
    {
      "inputs": [
        {
          "internalType": "address",
          "name": "user_address",
          "type": "address"
        }
      ],
      "name": "isRegistered",
      "outputs": [
        {
          "internalType": "bool",
          "name": "is_registered",
          "type": "bool"
        }
      ],
      "stateMutability": "view",
      "type": "function",
      "constant": true
    },
    {
      "inputs": [
        {
          "internalType": "string",
          "name": "nickname",
          "type": "string"
        }
      ],
      "name": "register",
      "outputs": [],
      "stateMutability": "nonpayable",
      "type": "function"
    },
    {
      "inputs": [],
      "name": "renounceAdmin",
      "outputs": [],
      "stateMutability": "nonpayable",
      "type": "function"
    },
    {
      "inputs": [
        {
          "internalType": "address",
          "name": "new_admin",
          "type": "address"
        }
      ],
      "name": "transferAdmin",
      "outputs": [],
      "stateMutability": "nonpayable",
      "type": "function"
    },
    {
      "inputs": [
        {
          "internalType": "string",
          "name": "avatar",
          "type": "string"
        }
      ],
      "name": "updateAvatar",
      "outputs": [],
      "stateMutability": "nonpayable",
      "type": "function"
    },
    {
      "inputs": [
        {
          "internalType": "string",
          "name": "nickname",
          "type": "string"
        }
      ],
      "name": "updateNickname",
      "outputs": [],
      "stateMutability": "nonpayable",
      "type": "function"
    },
    {
      "inputs": [
        {
          "internalType": "string",
          "name": "signature",
          "type": "string"
        }
      ],
      "name": "updateSignature",
      "outputs": [],
      "stateMutability": "nonpayable",
      "type": "function"
    },
    {
      "inputs": [
        {
          "internalType": "string",
          "name": "ipfs_address",
          "type": "string"
        },
        {
          "internalType": "string",
          "name": "name",
          "type": "string"
        },
        {
          "internalType": "string",
          "name": "title",
          "type": "string"
        },
        {
          "internalType": "string",
          "name": "description",
          "type": "string"
        },
        {
          "internalType": "address",
          "name": "category_address",
          "type": "address"
        },
        {
          "internalType": "string[3]",
          "name": "images",
          "type": "string[3]"
        },
        {
          "internalType": "uint256",
          "name": "price",
          "type": "uint256"
        }
      ],
      "name": "uploadFile",
      "outputs": [],
      "stateMutability": "nonpayable",
      "type": "function"
    },
    {
      "inputs": [],
      "name": "init",
      "outputs": [],
      "stateMutability": "nonpayable",
      "type": "function"
    }
  ],
  "bytecode": "0x608060405234801561001057600080fd5b50613daa806100206000396000f3fe608060405234801561001057600080fd5b50600436106101165760003560e01c8063bd2e3b17116100a2578063db12e04111610071578063db12e041146102f5578063e1c7392a146102ff578063f2c298be14610309578063f2e9c78314610325578063f851a4401461034157610116565b8063bd2e3b1714610247578063c3c5a54714610263578063c8ef7dd614610293578063cffa6442146102c357610116565b806375829def116100e957806375829def146101cb5780637e8e7733146101e75780638bad0c0a146102055780639fe958b91461020f578063a389559f1461022b57610116565b806320c16dd51461011b57806324c432e21461014d5780632e0dcbf71461017f5780636020c0041461019b575b600080fd5b61013560048036038101906101309190611a0d565b61035f565b60405161014493929190611d64565b60405180910390f35b61016760048036038101906101629190611da2565b6104b4565b60405161017693929190611d64565b60405180910390f35b61019960048036038101906101949190611f17565b6105e6565b005b6101b560048036038101906101b09190611f60565b6106e3565b6040516101c29190612067565b60405180910390f35b6101e560048036038101906101e09190611f60565b610774565b005b6101ef61087d565b6040516101fc91906121a2565b60405180910390f35b61020d61090a565b005b61022960048036038101906102249190611f17565b6109a4565b005b61024560048036038101906102409190611f17565b610a13565b005b610261600480360381019061025c9190611f17565b610a82565b005b61027d60048036038101906102789190611f60565b610af1565b60405161028a91906121c4565b60405180910390f35b6102ad60048036038101906102a89190611f60565b610b77565b6040516102ba9190612409565b60405180910390f35b6102dd60048036038101906102d89190611f60565b610c08565b6040516102ec93929190612531565b60405180910390f35b6102fd610ca8565b005b610307610caa565b005b610323600480360381019061031e9190611f17565b610d93565b005b61033f600480360381019061033a9190612643565b610e02565b005b610349610fc9565b6040516103569190612771565b60405180910390f35b610367611638565b600080610372611666565b601573__FileLib_______________________________633ae501ac90918a8a8a8a6040518663ffffffff1660e01b81526004016103b49594939291906127c0565b61018060405180830381865af41580156103d2573d6000803e3d6000fd5b505050506040513d601f19601f820116820180604052508101906103f691906128ee565b80945081955082935050505060005b600a8110156104a857600073ffffffffffffffffffffffffffffffffffffffff168282600a811061043957610438612944565b5b602002015173ffffffffffffffffffffffffffffffffffffffff1603156104a85761047a8282600a81106104705761046f612944565b5b6020020151610fed565b8582600a811061048d5761048c612944565b5b602002018190525080806104a0906129a2565b915050610405565b50509450945094915050565b6104bc611638565b6000806000600173__UserLib_______________________________63dddd4690909188886040518463ffffffff1660e01b81526004016104ff939291906129f1565b61014060405180830381865af415801561051d573d6000803e3d6000fd5b505050506040513d601f19601f820116820180604052508101906105419190612a28565b905060005b600a8110156105dd578181600a811061056257610561612944565b5b60200201519350600073ffffffffffffffffffffffffffffffffffffffff168473ffffffffffffffffffffffffffffffffffffffff16036105a657600192506105dd565b6105af84610fed565b8582600a81106105c2576105c1612944565b5b602002018190525080806105d5906129a2565b915050610546565b50509250925092565b3373ffffffffffffffffffffffffffffffffffffffff1660008054906101000a900473ffffffffffffffffffffffffffffffffffffffff1673ffffffffffffffffffffffffffffffffffffffff1614610674576040517f08c379a000000000000000000000000000000000000000000000000000000000815260040161066b90612ab3565b60405180910390fd5b602473__CategoryLib___________________________63a1a3afd09091836040518363ffffffff1660e01b81526004016106b0929190612b24565b60006040518083038186803b1580156106c857600080fd5b505af41580156106dc573d6000803e3d6000fd5b5050505050565b6106eb611689565b600173__UserLib_______________________________6301962a669091846040518363ffffffff1660e01b8152600401610727929190612b54565b600060405180830381865af4158015610744573d6000803e3d6000fd5b505050506040513d6000823e3d601f19601f8201168201806040525081019061076d9190612d5c565b9050919050565b3373ffffffffffffffffffffffffffffffffffffffff1660008054906101000a900473ffffffffffffffffffffffffffffffffffffffff1673ffffffffffffffffffffffffffffffffffffffff1614610802576040517f08c379a00000000000000000000000000000000000000000000000000000000081526004016107f990612ab3565b60405180910390fd5b600073ffffffffffffffffffffffffffffffffffffffff168173ffffffffffffffffffffffffffffffffffffffff1603610871576040517f08c379a000000000000000000000000000000000000000000000000000000000815260040161086890612df1565b60405180910390fd5b61087a8161115d565b50565b6108856116d5565b600173__UserLib_______________________________636e0358de90916040518263ffffffff1660e01b81526004016108bf9190612e11565b600060405180830381865af41580156108dc573d6000803e3d6000fd5b505050506040513d6000823e3d601f19601f820116820180604052508101906109059190612fbe565b905090565b3373ffffffffffffffffffffffffffffffffffffffff1660008054906101000a900473ffffffffffffffffffffffffffffffffffffffff1673ffffffffffffffffffffffffffffffffffffffff1614610998576040517f08c379a000000000000000000000000000000000000000000000000000000000815260040161098f90612ab3565b60405180910390fd5b6109a2600061115d565b565b600173__UserLib_______________________________6369b33f769091836040518363ffffffff1660e01b81526004016109e0929190613007565b60006040518083038186803b1580156109f857600080fd5b505af4158015610a0c573d6000803e3d6000fd5b5050505050565b600173__UserLib_______________________________6368caaef19091836040518363ffffffff1660e01b8152600401610a4f929190613007565b60006040518083038186803b158015610a6757600080fd5b505af4158015610a7b573d6000803e3d6000fd5b5050505050565b600173__UserLib_______________________________63e0baafdb9091836040518363ffffffff1660e01b8152600401610abe929190613007565b60006040518083038186803b158015610ad657600080fd5b505af4158015610aea573d6000803e3d6000fd5b5050505050565b6000600173__UserLib_______________________________63b50d32099091846040518363ffffffff1660e01b8152600401610b2f929190612b54565b602060405180830381865af4158015610b4c573d6000803e3d6000fd5b505050506040513d601f19601f82011682018060405250810190610b709190613037565b9050919050565b610b7f611736565b601573__FileLib_______________________________63584c2ff59091846040518363ffffffff1660e01b8152600401610bbb929190613064565b600060405180830381865af4158015610bd8573d6000803e3d6000fd5b505050506040513d6000823e3d601f19601f82011682018060405250810190610c01919061333c565b9050919050565b610c106117fd565b600080602473__CategoryLib___________________________634817eb9d9091866040518363ffffffff1660e01b8152600401610c4f929190613385565b600060405180830381865af4158015610c6c573d6000803e3d6000fd5b505050506040513d6000823e3d601f19601f82011682018060405250810190610c9591906134fd565b8093508194508295505050509193909250565b565b600073ffffffffffffffffffffffffffffffffffffffff1660008054906101000a900473ffffffffffffffffffffffffffffffffffffffff1673ffffffffffffffffffffffffffffffffffffffff1603610d39576040517f08c379a0000000000000000000000000000000000000000000000000000000008152600401610d30906135b8565b60405180910390fd5b336000806101000a81548173ffffffffffffffffffffffffffffffffffffffff021916908373ffffffffffffffffffffffffffffffffffffffff160217905550610d81611221565b610d8961128d565b610d91611363565b565b600173__UserLib_______________________________632ef420dd9091836040518363ffffffff1660e01b8152600401610dcf929190613007565b60006040518083038186803b158015610de757600080fd5b505af4158015610dfb573d6000803e3d6000fd5b5050505050565b610e0b33611365565b610e1483611424565b610e2b60016040876114e39092919063ffffffff16565b610e436001610200866114e39092919063ffffffff16565b610e5a60016014836115979092919063ffffffff16565b6000601573__FileLib_______________________________6304be43b890918a8a8a8a8a8a8a6040518963ffffffff1660e01b8152600401610ea49897969594939291906136b6565b602060405180830381865af4158015610ec1573d6000803e3d6000fd5b505050506040513d601f19601f82011682018060405250810190610ee59190613757565b9050602473__CategoryLib___________________________63c525098d9091866040518363ffffffff1660e01b8152600401610f23929190613385565b60006040518083038186803b158015610f3b57600080fd5b505af4158015610f4f573d6000803e3d6000fd5b50505050600173__UserLib_______________________________636275fd579091836040518363ffffffff1660e01b8152600401610f8f929190612b54565b60006040518083038186803b158015610fa757600080fd5b505af4158015610fbb573d6000803e3d6000fd5b505050505050505050505050565b60008054906101000a900473ffffffffffffffffffffffffffffffffffffffff1681565b610ff561182b565b6000601573__FileLib_______________________________632f5ff7e89091856040518363ffffffff1660e01b8152600401611033929190613064565b600060405180830381865af4158015611050573d6000803e3d6000fd5b505050506040513d6000823e3d601f19601f820116820180604052508101906110799190613974565b8092508193505050600160000160008273ffffffffffffffffffffffffffffffffffffffff1673ffffffffffffffffffffffffffffffffffffffff16815260200190815260200160002060030180546110d1906139ff565b80601f01602080910402602001604051908101604052809291908181526020018280546110fd906139ff565b801561114a5780601f1061111f5761010080835404028352916020019161114a565b820191906000526020600020905b81548152906001019060200180831161112d57829003601f168201915b50505050508260a0018190525050919050565b60008060009054906101000a900473ffffffffffffffffffffffffffffffffffffffff169050816000806101000a81548173ffffffffffffffffffffffffffffffffffffffff021916908373ffffffffffffffffffffffffffffffffffffffff1602179055508173ffffffffffffffffffffffffffffffffffffffff168173ffffffffffffffffffffffffffffffffffffffff167ff8ccb027dfcd135e000e9d45e6cc2d662578a8825d4c45b5e32e0adf67e79ec660405160405180910390a35050565b600173__UserLib_______________________________6374aa063390916040518263ffffffff1660e01b815260040161125b9190612e11565b60006040518083038186803b15801561127357600080fd5b505af4158015611287573d6000803e3d6000fd5b50505050565b601573__FileLib_______________________________63d0eb643090916040518263ffffffff1660e01b81526004016112c79190613a30565b60006040518083038186803b1580156112df57600080fd5b505af41580156112f3573d6000803e3d6000fd5b50505050602473__CategoryLib___________________________63d0eefddb90916040518263ffffffff1660e01b81526004016113319190613a4b565b60006040518083038186803b15801561134957600080fd5b505af415801561135d573d6000803e3d6000fd5b50505050565b565b600173__UserLib_______________________________63b50d32099091836040518363ffffffff1660e01b81526004016113a1929190612b54565b602060405180830381865af41580156113be573d6000803e3d6000fd5b505050506040513d601f19601f820116820180604052508101906113e29190613037565b611421576040517f08c379a000000000000000000000000000000000000000000000000000000000815260040161141890613ad8565b60405180910390fd5b50565b602473__CategoryLib___________________________63853b58329091836040518363ffffffff1660e01b8152600401611460929190613385565b602060405180830381865af415801561147d573d6000803e3d6000fd5b505050506040513d601f19601f820116820180604052508101906114a19190613037565b6114e0576040517f08c379a00000000000000000000000000000000000000000000000000000000081526004016114d790613b44565b60405180910390fd5b50565b6000600384516114f39190613b93565b905060008314806115045750828110155b611543576040517f08c379a000000000000000000000000000000000000000000000000000000000815260040161153a90613c10565b60405180910390fd5b60008214806115525750818111155b611591576040517f08c379a000000000000000000000000000000000000000000000000000000000815260040161158890613c7c565b60405180910390fd5b50505050565b60008214806115a65750818310155b6115e5576040517f08c379a00000000000000000000000000000000000000000000000000000000081526004016115dc90613ce8565b60405180910390fd5b60008114806115f45750808311155b611633576040517f08c379a000000000000000000000000000000000000000000000000000000000815260040161162a90613d54565b60405180910390fd5b505050565b604051806101400160405280600a905b61165061182b565b8152602001906001900390816116485790505090565b604051806101400160405280600a90602082028036833780820191505090505090565b6040518061012001604052806060815260200160608152602001606081526020016060815260200160008152602001600081526020016000815260200160008152602001600081525090565b6040518061018001604052806060815260200160608152602001606081526020016060815260200160008152602001600081526020016000815260200160008152602001600081526020016000815260200160008152602001600081525090565b604051806102000160405280600073ffffffffffffffffffffffffffffffffffffffff168152602001600073ffffffffffffffffffffffffffffffffffffffff168152602001600073ffffffffffffffffffffffffffffffffffffffff168152602001600015158152602001606081526020016060815260200160608152602001606081526020016117c66118cf565b8152602001600081526020016000815260200160008152602001600081526020016000815260200160008152602001600081525090565b604051806101400160405280600a905b6118156118f6565b81526020019060019003908161180d5790505090565b604051806101e00160405280600073ffffffffffffffffffffffffffffffffffffffff168152602001600073ffffffffffffffffffffffffffffffffffffffff1681526020016000151581526020016060815260200160608152602001606081526020016060815260200160608152602001600081526020016000815260200160008152602001600081526020016000815260200160008152602001600081525090565b60405180606001604052806003905b60608152602001906001900390816118de5790505090565b6040518060600160405280600073ffffffffffffffffffffffffffffffffffffffff16815260200160608152602001600081525090565b6000604051905090565b600080fd5b600080fd5b600073ffffffffffffffffffffffffffffffffffffffff82169050919050565b600061196c82611941565b9050919050565b61197c81611961565b811461198757600080fd5b50565b60008135905061199981611973565b92915050565b6000819050919050565b6119b28161199f565b81146119bd57600080fd5b50565b6000813590506119cf816119a9565b92915050565b60008115159050919050565b6119ea816119d5565b81146119f557600080fd5b50565b600081359050611a07816119e1565b92915050565b60008060008060808587031215611a2757611a26611937565b5b6000611a358782880161198a565b9450506020611a468782880161198a565b9350506040611a57878288016119c0565b9250506060611a68878288016119f8565b91505092959194509250565b6000600a9050919050565b600081905092915050565b6000819050919050565b611a9d81611961565b82525050565b611aac816119d5565b82525050565b600081519050919050565b600082825260208201905092915050565b60005b83811015611aec578082015181840152602081019050611ad1565b60008484015250505050565b6000601f19601f8301169050919050565b6000611b1482611ab2565b611b1e8185611abd565b9350611b2e818560208601611ace565b611b3781611af8565b840191505092915050565b611b4b8161199f565b82525050565b60006101e083016000830151611b6a6000860182611a94565b506020830151611b7d6020860182611a94565b506040830151611b906040860182611aa3565b5060608301518482036060860152611ba88282611b09565b91505060808301518482036080860152611bc28282611b09565b91505060a083015184820360a0860152611bdc8282611b09565b91505060c083015184820360c0860152611bf68282611b09565b91505060e083015184820360e0860152611c108282611b09565b915050610100830151611c27610100860182611b42565b50610120830151611c3c610120860182611b42565b50610140830151611c51610140860182611b42565b50610160830151611c66610160860182611b42565b50610180830151611c7b610180860182611b42565b506101a0830151611c906101a0860182611b42565b506101c0830151611ca56101c0860182611b42565b508091505092915050565b6000611cbc8383611b51565b905092915050565b6000602082019050919050565b6000611cdc82611a74565b611ce68185611a7f565b935083602082028501611cf885611a8a565b8060005b85811015611d345784840389528151611d158582611cb0565b9450611d2083611cc4565b925060208a01995050600181019050611cfc565b50829750879550505050505092915050565b611d4f81611961565b82525050565b611d5e816119d5565b82525050565b60006060820190508181036000830152611d7e8186611cd1565b9050611d8d6020830185611d46565b611d9a6040830184611d55565b949350505050565b60008060408385031215611db957611db8611937565b5b6000611dc78582860161198a565b9250506020611dd8858286016119f8565b9150509250929050565b600080fd5b600080fd5b7f4e487b7100000000000000000000000000000000000000000000000000000000600052604160045260246000fd5b611e2482611af8565b810181811067ffffffffffffffff82111715611e4357611e42611dec565b5b80604052505050565b6000611e5661192d565b9050611e628282611e1b565b919050565b600067ffffffffffffffff821115611e8257611e81611dec565b5b611e8b82611af8565b9050602081019050919050565b82818337600083830152505050565b6000611eba611eb584611e67565b611e4c565b905082815260208101848484011115611ed657611ed5611de7565b5b611ee1848285611e98565b509392505050565b600082601f830112611efe57611efd611de2565b5b8135611f0e848260208601611ea7565b91505092915050565b600060208284031215611f2d57611f2c611937565b5b600082013567ffffffffffffffff811115611f4b57611f4a61193c565b5b611f5784828501611ee9565b91505092915050565b600060208284031215611f7657611f75611937565b5b6000611f848482850161198a565b91505092915050565b6000610120830160008301518482036000860152611fab8282611b09565b91505060208301518482036020860152611fc58282611b09565b91505060408301518482036040860152611fdf8282611b09565b91505060608301518482036060860152611ff98282611b09565b915050608083015161200e6080860182611b42565b5060a083015161202160a0860182611b42565b5060c083015161203460c0860182611b42565b5060e083015161204760e0860182611b42565b5061010083015161205c610100860182611b42565b508091505092915050565b600060208201905081810360008301526120818184611f8d565b905092915050565b60006101808301600083015184820360008601526120a78282611b09565b915050602083015184820360208601526120c18282611b09565b915050604083015184820360408601526120db8282611b09565b915050606083015184820360608601526120f58282611b09565b915050608083015161210a6080860182611b42565b5060a083015161211d60a0860182611b42565b5060c083015161213060c0860182611b42565b5060e083015161214360e0860182611b42565b50610100830151612158610100860182611b42565b5061012083015161216d610120860182611b42565b50610140830151612182610140860182611b42565b50610160830151612197610160860182611b42565b508091505092915050565b600060208201905081810360008301526121bc8184612089565b905092915050565b60006020820190506121d96000830184611d55565b92915050565b600060039050919050565b600081905092915050565b6000819050919050565b600061220b8383611b09565b905092915050565b6000602082019050919050565b600061222b826121df565b61223581856121ea565b935083602082028501612247856121f5565b8060005b85811015612283578484038952815161226485826121ff565b945061226f83612213565b925060208a0199505060018101905061224b565b50829750879550505050505092915050565b6000610200830160008301516122ae6000860182611a94565b5060208301516122c16020860182611a94565b5060408301516122d46040860182611a94565b5060608301516122e76060860182611aa3565b50608083015184820360808601526122ff8282611b09565b91505060a083015184820360a08601526123198282611b09565b91505060c083015184820360c08601526123338282611b09565b91505060e083015184820360e086015261234d8282611b09565b9150506101008301518482036101008601526123698282612220565b915050610120830151612380610120860182611b42565b50610140830151612395610140860182611b42565b506101608301516123aa610160860182611b42565b506101808301516123bf610180860182611b42565b506101a08301516123d46101a0860182611b42565b506101c08301516123e96101c0860182611b42565b506101e08301516123fe6101e0860182611b42565b508091505092915050565b600060208201905081810360008301526124238184612295565b905092915050565b6000600a9050919050565b600081905092915050565b6000819050919050565b60006060830160008301516124636000860182611a94565b506020830151848203602086015261247b8282611b09565b91505060408301516124906040860182611b42565b508091505092915050565b60006124a7838361244b565b905092915050565b6000602082019050919050565b60006124c78261242b565b6124d18185612436565b9350836020820285016124e385612441565b8060005b8581101561251f5784840389528151612500858261249b565b945061250b836124af565b925060208a019950506001810190506124e7565b50829750879550505050505092915050565b6000606082019050818103600083015261254b81866124bc565b905061255a6020830185611d46565b6125676040830184611d55565b949350505050565b600067ffffffffffffffff82111561258a57612589611dec565b5b602082029050919050565b600080fd5b60006125ad6125a88461256f565b611e4c565b905080602084028301858111156125c7576125c6612595565b5b835b8181101561260e57803567ffffffffffffffff8111156125ec576125eb611de2565b5b8086016125f98982611ee9565b855260208501945050506020810190506125c9565b5050509392505050565b600082601f83011261262d5761262c611de2565b5b600361263a84828561259a565b91505092915050565b600080600080600080600060e0888a03121561266257612661611937565b5b600088013567ffffffffffffffff8111156126805761267f61193c565b5b61268c8a828b01611ee9565b975050602088013567ffffffffffffffff8111156126ad576126ac61193c565b5b6126b98a828b01611ee9565b965050604088013567ffffffffffffffff8111156126da576126d961193c565b5b6126e68a828b01611ee9565b955050606088013567ffffffffffffffff8111156127075761270661193c565b5b6127138a828b01611ee9565b94505060806127248a828b0161198a565b93505060a088013567ffffffffffffffff8111156127455761274461193c565b5b6127518a828b01612618565b92505060c06127628a828b016119c0565b91505092959891949750929550565b60006020820190506127866000830184611d46565b92915050565b8082525050565b61279c81611961565b82525050565b6127ab8161199f565b82525050565b6127ba816119d5565b82525050565b600060a0820190506127d5600083018861278c565b6127e26020830187612793565b6127ef6040830186612793565b6127fc60608301856127a2565b61280960808301846127b1565b9695505050505050565b600067ffffffffffffffff82111561282e5761282d611dec565b5b602082029050919050565b60008151905061284881611973565b92915050565b600061286161285c84612813565b611e4c565b9050806020840283018581111561287b5761287a612595565b5b835b818110156128a457806128908882612839565b84526020840193505060208101905061287d565b5050509392505050565b600082601f8301126128c3576128c2611de2565b5b600a6128d084828561284e565b91505092915050565b6000815190506128e8816119e1565b92915050565b6000806000610180848603121561290857612907611937565b5b6000612916868287016128ae565b93505061014061292886828701612839565b92505061016061293a868287016128d9565b9150509250925092565b7f4e487b7100000000000000000000000000000000000000000000000000000000600052603260045260246000fd5b7f4e487b7100000000000000000000000000000000000000000000000000000000600052601160045260246000fd5b60006129ad8261199f565b91507fffffffffffffffffffffffffffffffffffffffffffffffffffffffffffffffff82036129df576129de612973565b5b600182019050919050565b8082525050565b6000606082019050612a0660008301866129ea565b612a136020830185612793565b612a2060408301846127b1565b949350505050565b60006101408284031215612a3f57612a3e611937565b5b6000612a4d848285016128ae565b91505092915050565b600082825260208201905092915050565b7f41646d696e436f6e74726163743e5f6f6e6c7941646d696e5f00000000000000600082015250565b6000612a9d601983612a56565b9150612aa882612a67565b602082019050919050565b60006020820190508181036000830152612acc81612a90565b9050919050565b8082525050565b600082825260208201905092915050565b6000612af682611ab2565b612b008185612ada565b9350612b10818560208601611ace565b612b1981611af8565b840191505092915050565b6000604082019050612b396000830185612ad3565b8181036020830152612b4b8184612aeb565b90509392505050565b6000604082019050612b6960008301856129ea565b612b766020830184612793565b9392505050565b600080fd5b600080fd5b6000612b9a612b9584611e67565b611e4c565b905082815260208101848484011115612bb657612bb5611de7565b5b612bc1848285611ace565b509392505050565b600082601f830112612bde57612bdd611de2565b5b8151612bee848260208601612b87565b91505092915050565b600081519050612c06816119a9565b92915050565b60006101208284031215612c2357612c22612b7d565b5b612c2e610120611e4c565b9050600082015167ffffffffffffffff811115612c4e57612c4d612b82565b5b612c5a84828501612bc9565b600083015250602082015167ffffffffffffffff811115612c7e57612c7d612b82565b5b612c8a84828501612bc9565b602083015250604082015167ffffffffffffffff811115612cae57612cad612b82565b5b612cba84828501612bc9565b604083015250606082015167ffffffffffffffff811115612cde57612cdd612b82565b5b612cea84828501612bc9565b6060830152506080612cfe84828501612bf7565b60808301525060a0612d1284828501612bf7565b60a08301525060c0612d2684828501612bf7565b60c08301525060e0612d3a84828501612bf7565b60e083015250610100612d4f84828501612bf7565b6101008301525092915050565b600060208284031215612d7257612d71611937565b5b600082015167ffffffffffffffff811115612d9057612d8f61193c565b5b612d9c84828501612c0c565b91505092915050565b7f41646d696e436f6e74726163743e7472616e7366657241646d696e0000000000600082015250565b6000612ddb601b83612a56565b9150612de682612da5565b602082019050919050565b60006020820190508181036000830152612e0a81612dce565b9050919050565b6000602082019050612e2660008301846129ea565b92915050565b60006101808284031215612e4357612e42612b7d565b5b612e4e610180611e4c565b9050600082015167ffffffffffffffff811115612e6e57612e6d612b82565b5b612e7a84828501612bc9565b600083015250602082015167ffffffffffffffff811115612e9e57612e9d612b82565b5b612eaa84828501612bc9565b602083015250604082015167ffffffffffffffff811115612ece57612ecd612b82565b5b612eda84828501612bc9565b604083015250606082015167ffffffffffffffff811115612efe57612efd612b82565b5b612f0a84828501612bc9565b6060830152506080612f1e84828501612bf7565b60808301525060a0612f3284828501612bf7565b60a08301525060c0612f4684828501612bf7565b60c08301525060e0612f5a84828501612bf7565b60e083015250610100612f6f84828501612bf7565b61010083015250610120612f8584828501612bf7565b61012083015250610140612f9b84828501612bf7565b61014083015250610160612fb184828501612bf7565b6101608301525092915050565b600060208284031215612fd457612fd3611937565b5b600082015167ffffffffffffffff811115612ff257612ff161193c565b5b612ffe84828501612e2c565b91505092915050565b600060408201905061301c60008301856129ea565b818103602083015261302e8184612aeb565b90509392505050565b60006020828403121561304d5761304c611937565b5b600061305b848285016128d9565b91505092915050565b6000604082019050613079600083018561278c565b6130866020830184612793565b9392505050565b60006130a061309b8461256f565b611e4c565b905080602084028301858111156130ba576130b9612595565b5b835b8181101561310157805167ffffffffffffffff8111156130df576130de611de2565b5b8086016130ec8982612bc9565b855260208501945050506020810190506130bc565b5050509392505050565b600082601f8301126131205761311f611de2565b5b600361312d84828561308d565b91505092915050565b6000610200828403121561314d5761314c612b7d565b5b613158610200611e4c565b9050600061316884828501612839565b600083015250602061317c84828501612839565b602083015250604061319084828501612839565b60408301525060606131a4848285016128d9565b606083015250608082015167ffffffffffffffff8111156131c8576131c7612b82565b5b6131d484828501612bc9565b60808301525060a082015167ffffffffffffffff8111156131f8576131f7612b82565b5b61320484828501612bc9565b60a08301525060c082015167ffffffffffffffff81111561322857613227612b82565b5b61323484828501612bc9565b60c08301525060e082015167ffffffffffffffff81111561325857613257612b82565b5b61326484828501612bc9565b60e08301525061010082015167ffffffffffffffff81111561328957613288612b82565b5b6132958482850161310b565b610100830152506101206132ab84828501612bf7565b610120830152506101406132c184828501612bf7565b610140830152506101606132d784828501612bf7565b610160830152506101806132ed84828501612bf7565b610180830152506101a061330384828501612bf7565b6101a0830152506101c061331984828501612bf7565b6101c0830152506101e061332f84828501612bf7565b6101e08301525092915050565b60006020828403121561335257613351611937565b5b600082015167ffffffffffffffff8111156133705761336f61193c565b5b61337c84828501613136565b91505092915050565b600060408201905061339a6000830185612ad3565b6133a76020830184612793565b9392505050565b600067ffffffffffffffff8211156133c9576133c8611dec565b5b602082029050919050565b6000606082840312156133ea576133e9612b7d565b5b6133f46060611e4c565b9050600061340484828501612839565b600083015250602082015167ffffffffffffffff81111561342857613427612b82565b5b61343484828501612bc9565b602083015250604061344884828501612bf7565b60408301525092915050565b6000613467613462846133ae565b611e4c565b9050806020840283018581111561348157613480612595565b5b835b818110156134c857805167ffffffffffffffff8111156134a6576134a5611de2565b5b8086016134b389826133d4565b85526020850194505050602081019050613483565b5050509392505050565b600082601f8301126134e7576134e6611de2565b5b600a6134f4848285613454565b91505092915050565b60008060006060848603121561351657613515611937565b5b600084015167ffffffffffffffff8111156135345761353361193c565b5b613540868287016134d2565b935050602061355186828701612839565b9250506040613562868287016128d9565b9150509250925092565b7f696e697469616c697a6564000000000000000000000000000000000000000000600082015250565b60006135a2600b83612a56565b91506135ad8261356c565b602082019050919050565b600060208201905081810360008301526135d181613595565b9050919050565b600081905092915050565b600082825260208201905092915050565b60006135ff82611ab2565b61360981856135e3565b9350613619818560208601611ace565b61362281611af8565b840191505092915050565b600061363983836135f4565b905092915050565b600061364c826121df565b61365681856135d8565b935083602082028501613668856121f5565b8060005b858110156136a45784840389528151613685858261362d565b945061369083612213565b925060208a0199505060018101905061366c565b50829750879550505050505092915050565b6000610100820190506136cc600083018b61278c565b81810360208301526136de818a612aeb565b905081810360408301526136f28189612aeb565b905081810360608301526137068188612aeb565b9050818103608083015261371a8187612aeb565b905061372960a0830186612793565b81810360c083015261373b8185613641565b905061374a60e08301846127a2565b9998505050505050505050565b60006020828403121561376d5761376c611937565b5b600061377b84828501612839565b91505092915050565b60006101e0828403121561379b5761379a612b7d565b5b6137a66101e0611e4c565b905060006137b684828501612839565b60008301525060206137ca84828501612839565b60208301525060406137de848285016128d9565b604083015250606082015167ffffffffffffffff81111561380257613801612b82565b5b61380e84828501612bc9565b606083015250608082015167ffffffffffffffff81111561383257613831612b82565b5b61383e84828501612bc9565b60808301525060a082015167ffffffffffffffff81111561386257613861612b82565b5b61386e84828501612bc9565b60a08301525060c082015167ffffffffffffffff81111561389257613891612b82565b5b61389e84828501612bc9565b60c08301525060e082015167ffffffffffffffff8111156138c2576138c1612b82565b5b6138ce84828501612bc9565b60e0830152506101006138e384828501612bf7565b610100830152506101206138f984828501612bf7565b6101208301525061014061390f84828501612bf7565b6101408301525061016061392584828501612bf7565b6101608301525061018061393b84828501612bf7565b610180830152506101a061395184828501612bf7565b6101a0830152506101c061396784828501612bf7565b6101c08301525092915050565b6000806040838503121561398b5761398a611937565b5b600083015167ffffffffffffffff8111156139a9576139a861193c565b5b6139b585828601613784565b92505060206139c685828601612839565b9150509250929050565b7f4e487b7100000000000000000000000000000000000000000000000000000000600052602260045260246000fd5b60006002820490506001821680613a1757607f821691505b602082108103613a2a57613a296139d0565b5b50919050565b6000602082019050613a45600083018461278c565b92915050565b6000602082019050613a606000830184612ad3565b92915050565b7f45303a20557365722e736f6c3e55736572436f6e74726163743e5f726567697360008201527f74657265645f0000000000000000000000000000000000000000000000000000602082015250565b6000613ac2602683612a56565b9150613acd82613a66565b604082019050919050565b60006020820190508181036000830152613af181613ab5565b9050919050565b7f42617365436f6e746163743e5f76616c696443617465676f72795f0000000000600082015250565b6000613b2e601b83612a56565b9150613b3982613af8565b602082019050919050565b60006020820190508181036000830152613b5d81613b21565b9050919050565b7f4e487b7100000000000000000000000000000000000000000000000000000000600052601260045260246000fd5b6000613b9e8261199f565b9150613ba98361199f565b925082613bb957613bb8613b64565b5b828204905092915050565b7f537472696e674c69623e72616e67653e31000000000000000000000000000000600082015250565b6000613bfa601183612a56565b9150613c0582613bc4565b602082019050919050565b60006020820190508181036000830152613c2981613bed565b9050919050565b7f537472696e674c69623e72616e67653e32000000000000000000000000000000600082015250565b6000613c66601183612a56565b9150613c7182613c30565b602082019050919050565b60006020820190508181036000830152613c9581613c59565b9050919050565b7f55696e744c69623e72616e67653e310000000000000000000000000000000000600082015250565b6000613cd2600f83612a56565b9150613cdd82613c9c565b602082019050919050565b60006020820190508181036000830152613d0181613cc5565b9050919050565b7f55696e744c69623e72616e67653e320000000000000000000000000000000000600082015250565b6000613d3e600f83612a56565b9150613d4982613d08565b602082019050919050565b60006020820190508181036000830152613d6d81613d31565b905091905056fea26469706673582212204a51c9eea36d9a202847c3aa3a2cfd71d84fca93ef32be196a8abb0f1d2f41c864736f6c63430008110033",
  "immutableReferences": {},
  "source": "// SPDX-License-Identifier: GPL-3.0\r\npragma solidity ^0.8.17;\r\n\r\nimport \"./implementations/base/Base.sol\";\r\nimport \"./implementations/User.sol\";\r\nimport \"./implementations/File.sol\";\r\nimport \"./implementations/Reward.sol\";\r\nimport \"./implementations/Message.sol\";\r\n\r\ninterface ImplementationInterface is AdminInterface, UserInterface, FileInterface, RewardInterface, MessageInterface {\r\n    function init() external;\r\n}\r\n\r\ncontract ImplementationContact is UserContract, FileContact, RewardContact, MessageContact {\r\n    function init()\r\n    public {\r\n        require(admin != address(0), \"initialized\");\r\n        admin = msg.sender;\r\n        UserContract_init();\r\n        FileContract_init();\r\n//        RewardContract_init();\r\n        MessageContract_init();\r\n    }\r\n}\r\n\r\ncontract OurShare is AdminContract {\r\n    bytes32 private constant implementation_position = keccak256(\"OurShare\");\r\n\r\n    constructor(){\r\n        admin = msg.sender;\r\n    }\r\n\r\n    function getImplementation() public view returns (address implementation) {\r\n        bytes32 position = implementation_position;\r\n        assembly {\r\n            implementation := sload(position)\r\n        }\r\n    }\r\n\r\n    function setImplementation(address implementation) public _onlyAdmin_ {\r\n        bytes32 position = implementation_position;\r\n        assembly {\r\n            sstore(position, implementation)\r\n        }\r\n    }\r\n\r\n    function _delegate(address implementation) internal {\r\n        assembly {\r\n            calldatacopy(0, 0, calldatasize())\r\n            let result := delegatecall(gas(), implementation, 0, calldatasize(), 0, 0)\r\n            returndatacopy(0, 0, returndatasize())\r\n            switch result\r\n            case 0 {\r\n                revert(0, returndatasize())\r\n            }\r\n            default {\r\n                return (0, returndatasize())\r\n            }\r\n        }\r\n    }\r\n\r\n    fallback() external payable {\r\n        _delegate(getImplementation());\r\n    }\r\n\r\n    receive() external payable {\r\n        _delegate(getImplementation());\r\n    }\r\n}\r\n",
  "sourcePath": "F:\\OurChain\\OurShare\\src\\assets\\eth\\contracts\\OurShare.sol",
  "compiler": {
    "name": "solc",
    "version": "0.8.17+commit.8df45f5f.Emscripten.clang"
  },
  "schemaVersion": "3.4.13",
  "updatedAt": "2023-05-26T05:06:00.930Z",
  "networkType": "ethereum",
  "devdoc": {
    "kind": "dev",
    "methods": {},
    "version": 1
  },
  "userdoc": {
    "kind": "user",
    "methods": {},
    "version": 1
  }
}