{
  "contractName": "ImplementationContact",
  "abi": [
    {
      "anonymous": false,
      "inputs": [
        {
          "indexed": true,
          "internalType": "address",
          "name": "old_admin",
          "type": "address"
        },
        {
          "indexed": true,
          "internalType": "address",
          "name": "new_admin",
          "type": "address"
        }
      ],
      "name": "AdminTransferred",
      "type": "event"
    },
    {
      "inputs": [],
      "name": "admin",
      "outputs": [
        {
          "internalType": "address",
          "name": "",
          "type": "address"
        }
      ],
      "stateMutability": "view",
      "type": "function"
    },
    {
      "inputs": [],
      "name": "getSelfInfo",
      "outputs": [
        {
          "components": [
            {
              "internalType": "uint256",
              "name": "ID",
              "type": "uint256"
            },
            {
              "internalType": "uint256",
              "name": "coins",
              "type": "uint256"
            },
            {
              "internalType": "uint256",
              "name": "heart",
              "type": "uint256"
            },
            {
              "internalType": "uint256",
              "name": "experience",
              "type": "uint256"
            },
            {
              "internalType": "uint256",
              "name": "follower_num",
              "type": "uint256"
            },
            {
              "internalType": "uint256",
              "name": "following_num",
              "type": "uint256"
            },
            {
              "internalType": "uint256",
              "name": "login_timestamp",
              "type": "uint256"
            },
            {
              "internalType": "uint256",
              "name": "uploaded_file_num",
              "type": "uint256"
            },
            {
              "internalType": "string",
              "name": "major",
              "type": "string"
            },
            {
              "internalType": "string",
              "name": "avatar",
              "type": "string"
            },
            {
              "internalType": "string",
              "name": "nickname",
              "type": "string"
            },
            {
              "internalType": "string",
              "name": "signature",
              "type": "string"
            }
          ],
          "internalType": "struct StoreContact.UserSelfInfo",
          "name": "self_info",
          "type": "tuple"
        }
      ],
      "stateMutability": "view",
      "type": "function"
    },
    {
      "inputs": [
        {
          "internalType": "address",
          "name": "user_address",
          "type": "address"
        }
      ],
      "name": "isRegistered",
      "outputs": [
        {
          "internalType": "bool",
          "name": "is_registered",
          "type": "bool"
        }
      ],
      "stateMutability": "view",
      "type": "function"
    },
    {
      "inputs": [
        {
          "internalType": "string",
          "name": "nickname",
          "type": "string"
        }
      ],
      "name": "register",
      "outputs": [],
      "stateMutability": "nonpayable",
      "type": "function"
    },
    {
      "inputs": [],
      "name": "renounceAdmin",
      "outputs": [],
      "stateMutability": "nonpayable",
      "type": "function"
    },
    {
      "inputs": [
        {
          "internalType": "address",
          "name": "new_admin",
          "type": "address"
        }
      ],
      "name": "transferAdmin",
      "outputs": [],
      "stateMutability": "nonpayable",
      "type": "function"
    },
    {
      "inputs": [
        {
          "internalType": "string",
          "name": "avatar",
          "type": "string"
        }
      ],
      "name": "updateAvatar",
      "outputs": [],
      "stateMutability": "nonpayable",
      "type": "function"
    },
    {
      "inputs": [
        {
          "internalType": "string",
          "name": "nickname",
          "type": "string"
        }
      ],
      "name": "updateNickname",
      "outputs": [],
      "stateMutability": "nonpayable",
      "type": "function"
    },
    {
      "inputs": [
        {
          "internalType": "string",
          "name": "signature",
          "type": "string"
        }
      ],
      "name": "updateSignature",
      "outputs": [],
      "stateMutability": "nonpayable",
      "type": "function"
    },
    {
      "inputs": [
        {
          "internalType": "address",
          "name": "ipfs_address",
          "type": "address"
        },
        {
          "internalType": "string",
          "name": "title",
          "type": "string"
        },
        {
          "internalType": "string",
          "name": "description",
          "type": "string"
        },
        {
          "internalType": "bytes[][3]",
          "name": "images",
          "type": "bytes[][3]"
        },
        {
          "internalType": "uint256",
          "name": "price",
          "type": "uint256"
        }
      ],
      "name": "uploadFile",
      "outputs": [],
      "stateMutability": "nonpayable",
      "type": "function"
    },
    {
      "inputs": [],
      "name": "init",
      "outputs": [],
      "stateMutability": "nonpayable",
      "type": "function"
    }
  ],
  "bytecode": "0x608060405234801561001057600080fd5b50612bb9806100206000396000f3fe608060405234801561001057600080fd5b50600436106100a95760003560e01c8063a389559f11610071578063a389559f1461012a578063bd2e3b1714610146578063c3c5a54714610162578063e1c7392a14610192578063f2c298be1461019c578063f851a440146101b8576100a9565b8063636624ed146100ae57806375829def146100ca5780637e8e7733146100e65780638bad0c0a146101045780639fe958b91461010e575b600080fd5b6100c860048036038101906100c39190611fa9565b6101d6565b005b6100e460048036038101906100df9190612078565b6104d0565b005b6100ee6105d9565b6040516100fb919061224c565b60405180910390f35b61010c6108d8565b005b6101286004803603810190610123919061226e565b610972565b005b610144600480360381019061013f919061226e565b610a58565b005b610160600480360381019061015b919061226e565b610b3e565b005b61017c60048036038101906101779190612078565b610c24565b60405161018991906122d2565b60405180910390f35b61019a610c76565b005b6101b660048036038101906101b1919061226e565b610d57565b005b6101c061159d565b6040516101cd91906122fc565b60405180910390f35b600061020d868686856040516020016101f294939291906123bc565b604051602081830303815290604052805190602001206115c1565b90506000601560040160008373ffffffffffffffffffffffffffffffffffffffff1673ffffffffffffffffffffffffffffffffffffffff1681526020019081526020016000209050868160000160006101000a81548173ffffffffffffffffffffffffffffffffffffffff021916908373ffffffffffffffffffffffffffffffffffffffff160217905550338160010160006101000a81548173ffffffffffffffffffffffffffffffffffffffff021916908373ffffffffffffffffffffffffffffffffffffffff160217905550858160020190816102ec919061260e565b50848160030190816102fe919061260e565b508381600401906003610312929190611992565b50428160070181905550828160080181905550601560000173__AddressLinkedList_____________________63dbd4df179091846040518363ffffffff1660e01b81526004016103649291906126f6565b60006040518083038186803b15801561037c57600080fd5b505af4158015610390573d6000803e3d6000fd5b50505050601560050173__AddressOrderedMap_____________________633fc68a5f909160405180604001604052808673ffffffffffffffffffffffffffffffffffffffff168152602001878152506040518363ffffffff1660e01b81526004016103fd929190612773565b60006040518083038186803b15801561041557600080fd5b505af4158015610429573d6000803e3d6000fd5b505050506015600a0173__AddressOrderedMap_____________________633fc68a5f909160405180604001604052808673ffffffffffffffffffffffffffffffffffffffff16815260200160008152506040518363ffffffff1660e01b8152600401610497929190612773565b60006040518083038186803b1580156104af57600080fd5b505af41580156104c3573d6000803e3d6000fd5b5050505050505050505050565b3373ffffffffffffffffffffffffffffffffffffffff1660008054906101000a900473ffffffffffffffffffffffffffffffffffffffff1673ffffffffffffffffffffffffffffffffffffffff161461055e576040517f08c379a0000000000000000000000000000000000000000000000000000000008152600401610555906127f9565b60405180910390fd5b600073ffffffffffffffffffffffffffffffffffffffff168173ffffffffffffffffffffffffffffffffffffffff16036105cd576040517f08c379a00000000000000000000000000000000000000000000000000000000081526004016105c490612865565b60405180910390fd5b6105d6816115cf565b50565b6105e16119e5565b6000600160040160003373ffffffffffffffffffffffffffffffffffffffff1673ffffffffffffffffffffffffffffffffffffffff1681526020019081526020016000209050604051806101800160405280826000015481526020018260020154815260200182600301548152602001826004015481526020018260160160030154815260200182601a01600301548152602001826005015481526020018260270160030154815260200182600601805461069b90612431565b80601f01602080910402602001604051908101604052809291908181526020018280546106c790612431565b80156107145780601f106106e957610100808354040283529160200191610714565b820191906000526020600020905b8154815290600101906020018083116106f757829003601f168201915b5050505050815260200182600701805461072d90612431565b80601f016020809104026020016040519081016040528092919081815260200182805461075990612431565b80156107a65780601f1061077b576101008083540402835291602001916107a6565b820191906000526020600020905b81548152906001019060200180831161078957829003601f168201915b505050505081526020018260080180546107bf90612431565b80601f01602080910402602001604051908101604052809291908181526020018280546107eb90612431565b80156108385780601f1061080d57610100808354040283529160200191610838565b820191906000526020600020905b81548152906001019060200180831161081b57829003601f168201915b5050505050815260200182600901805461085190612431565b80601f016020809104026020016040519081016040528092919081815260200182805461087d90612431565b80156108ca5780601f1061089f576101008083540402835291602001916108ca565b820191906000526020600020905b8154815290600101906020018083116108ad57829003601f168201915b505050505081525091505090565b3373ffffffffffffffffffffffffffffffffffffffff1660008054906101000a900473ffffffffffffffffffffffffffffffffffffffff1673ffffffffffffffffffffffffffffffffffffffff1614610966576040517f08c379a000000000000000000000000000000000000000000000000000000000815260040161095d906127f9565b60405180910390fd5b61097060006115cf565b565b336000600160040160008373ffffffffffffffffffffffffffffffffffffffff1673ffffffffffffffffffffffffffffffffffffffff16815260200190815260200160002060050154036109fb576040517f08c379a00000000000000000000000000000000000000000000000000000000081526004016109f2906128f7565b60405180910390fd5b6000600160040160003373ffffffffffffffffffffffffffffffffffffffff1673ffffffffffffffffffffffffffffffffffffffff168152602001908152602001600020905082816007019081610a52919061260e565b50505050565b336000600160040160008373ffffffffffffffffffffffffffffffffffffffff1673ffffffffffffffffffffffffffffffffffffffff1681526020019081526020016000206005015403610ae1576040517f08c379a0000000000000000000000000000000000000000000000000000000008152600401610ad8906128f7565b60405180910390fd5b6000600160040160003373ffffffffffffffffffffffffffffffffffffffff1673ffffffffffffffffffffffffffffffffffffffff168152602001908152602001600020905082816009019081610b38919061260e565b50505050565b336000600160040160008373ffffffffffffffffffffffffffffffffffffffff1673ffffffffffffffffffffffffffffffffffffffff1681526020019081526020016000206005015403610bc7576040517f08c379a0000000000000000000000000000000000000000000000000000000008152600401610bbe906128f7565b60405180910390fd5b6000600160040160003373ffffffffffffffffffffffffffffffffffffffff1673ffffffffffffffffffffffffffffffffffffffff168152602001908152602001600020905082816008019081610c1e919061260e565b50505050565b600080600160040160008473ffffffffffffffffffffffffffffffffffffffff1673ffffffffffffffffffffffffffffffffffffffff1681526020019081526020016000206005015414159050919050565b600073ffffffffffffffffffffffffffffffffffffffff1660008054906101000a900473ffffffffffffffffffffffffffffffffffffffff1673ffffffffffffffffffffffffffffffffffffffff1603610d05576040517f08c379a0000000000000000000000000000000000000000000000000000000008152600401610cfc90612963565b60405180910390fd5b336000806101000a81548173ffffffffffffffffffffffffffffffffffffffff021916908373ffffffffffffffffffffffffffffffffffffffff160217905550610d4d611693565b610d55611849565b565b336000600160040160008373ffffffffffffffffffffffffffffffffffffffff1673ffffffffffffffffffffffffffffffffffffffff1681526020019081526020016000206005015414610de0576040517f08c379a0000000000000000000000000000000000000000000000000000000008152600401610dd7906129f5565b60405180910390fd5b6000600160040160003373ffffffffffffffffffffffffffffffffffffffff1673ffffffffffffffffffffffffffffffffffffffff16815260200190815260200160002090506002816001018190555042816005018190555082816008019081610e4a919061260e565b5080600a0173__AddressLinkedList_____________________637fc06cef90916040518263ffffffff1660e01b8152600401610e879190612a15565b60006040518083038186803b158015610e9f57600080fd5b505af4158015610eb3573d6000803e3d6000fd5b5050505080600e0173__AddressLinkedList_____________________637fc06cef90916040518263ffffffff1660e01b8152600401610ef39190612a15565b60006040518083038186803b158015610f0b57600080fd5b505af4158015610f1f573d6000803e3d6000fd5b505050508060120173__AddressLinkedList_____________________637fc06cef90916040518263ffffffff1660e01b8152600401610f5f9190612a15565b60006040518083038186803b158015610f7757600080fd5b505af4158015610f8b573d6000803e3d6000fd5b505050508060160173__AddressLinkedList_____________________637fc06cef90916040518263ffffffff1660e01b8152600401610fcb9190612a15565b60006040518083038186803b158015610fe357600080fd5b505af4158015610ff7573d6000803e3d6000fd5b5050505080601a0173__AddressLinkedList_____________________637fc06cef90916040518263ffffffff1660e01b81526004016110379190612a15565b60006040518083038186803b15801561104f57600080fd5b505af4158015611063573d6000803e3d6000fd5b5050505080601e0173__AddressOrderedMap_____________________63abc7dfcc90916040518263ffffffff1660e01b81526004016110a39190612a30565b60006040518083038186803b1580156110bb57600080fd5b505af41580156110cf573d6000803e3d6000fd5b505050508060230173__AddressLinkedList_____________________637fc06cef90916040518263ffffffff1660e01b815260040161110f9190612a15565b60006040518083038186803b15801561112757600080fd5b505af415801561113b573d6000803e3d6000fd5b505050508060270173__AddressLinkedList_____________________637fc06cef90916040518263ffffffff1660e01b815260040161117b9190612a15565b60006040518083038186803b15801561119357600080fd5b505af41580156111a7573d6000803e3d6000fd5b5050505080602b0173__AddressOrderedMap_____________________63abc7dfcc90916040518263ffffffff1660e01b81526004016111e79190612a30565b60006040518083038186803b1580156111ff57600080fd5b505af4158015611213573d6000803e3d6000fd5b505050508060300173__AddressLinkedList_____________________637fc06cef90916040518263ffffffff1660e01b81526004016112539190612a15565b60006040518083038186803b15801561126b57600080fd5b505af415801561127f573d6000803e3d6000fd5b505050508060340173__AddressOrderedMap_____________________63abc7dfcc90916040518263ffffffff1660e01b81526004016112bf9190612a30565b60006040518083038186803b1580156112d757600080fd5b505af41580156112eb573d6000803e3d6000fd5b505050508060390173__AddressOrderedMap_____________________63abc7dfcc90916040518263ffffffff1660e01b815260040161132b9190612a30565b60006040518083038186803b15801561134357600080fd5b505af4158015611357573d6000803e3d6000fd5b50505050600160000173__AddressLinkedList_____________________63dbd4df179091336040518363ffffffff1660e01b815260040161139a9291906126f6565b60006040518083038186803b1580156113b257600080fd5b505af41580156113c6573d6000803e3d6000fd5b50505050600160050173__AddressOrderedMap_____________________633fc68a5f909160405180604001604052803373ffffffffffffffffffffffffffffffffffffffff16815260200160008152506040518363ffffffff1660e01b8152600401611434929190612773565b60006040518083038186803b15801561144c57600080fd5b505af4158015611460573d6000803e3d6000fd5b505050506001600a0173__AddressOrderedMap_____________________633fc68a5f909160405180604001604052803373ffffffffffffffffffffffffffffffffffffffff16815260200160008152506040518363ffffffff1660e01b81526004016114ce929190612773565b60006040518083038186803b1580156114e657600080fd5b505af41580156114fa573d6000803e3d6000fd5b505050506001600f0173__AddressOrderedMap_____________________633fc68a5f909160405180604001604052803373ffffffffffffffffffffffffffffffffffffffff16815260200160008152506040518363ffffffff1660e01b8152600401611568929190612773565b60006040518083038186803b15801561158057600080fd5b505af4158015611594573d6000803e3d6000fd5b50505050505050565b60008054906101000a900473ffffffffffffffffffffffffffffffffffffffff1681565b600060208201519050919050565b60008060009054906101000a900473ffffffffffffffffffffffffffffffffffffffff169050816000806101000a81548173ffffffffffffffffffffffffffffffffffffffff021916908373ffffffffffffffffffffffffffffffffffffffff1602179055508173ffffffffffffffffffffffffffffffffffffffff168173ffffffffffffffffffffffffffffffffffffffff167ff8ccb027dfcd135e000e9d45e6cc2d662578a8825d4c45b5e32e0adf67e79ec660405160405180910390a35050565b600160000173__AddressLinkedList_____________________637fc06cef90916040518263ffffffff1660e01b81526004016116d09190612a15565b60006040518083038186803b1580156116e857600080fd5b505af41580156116fc573d6000803e3d6000fd5b50505050600160050173__AddressOrderedMap_____________________63abc7dfcc90916040518263ffffffff1660e01b815260040161173d9190612a30565b60006040518083038186803b15801561175557600080fd5b505af4158015611769573d6000803e3d6000fd5b505050506001600a0173__AddressOrderedMap_____________________63abc7dfcc90916040518263ffffffff1660e01b81526004016117aa9190612a30565b60006040518083038186803b1580156117c257600080fd5b505af41580156117d6573d6000803e3d6000fd5b505050506001600f0173__AddressOrderedMap_____________________63abc7dfcc90916040518263ffffffff1660e01b81526004016118179190612a30565b60006040518083038186803b15801561182f57600080fd5b505af4158015611843573d6000803e3d6000fd5b50505050565b601560000173__AddressLinkedList_____________________637fc06cef90916040518263ffffffff1660e01b81526004016118869190612a15565b60006040518083038186803b15801561189e57600080fd5b505af41580156118b2573d6000803e3d6000fd5b50505050601560050173__AddressOrderedMap_____________________63abc7dfcc90916040518263ffffffff1660e01b81526004016118f39190612a30565b60006040518083038186803b15801561190b57600080fd5b505af415801561191f573d6000803e3d6000fd5b505050506015600a0173__AddressOrderedMap_____________________63abc7dfcc90916040518263ffffffff1660e01b81526004016119609190612a30565b60006040518083038186803b15801561197857600080fd5b505af415801561198c573d6000803e3d6000fd5b50505050565b82600381019282156119d4579160200282015b828111156119d35782518290805190602001906119c3929190611a46565b50916020019190600101906119a5565b5b5090506119e19190611a9f565b5090565b6040518061018001604052806000815260200160008152602001600081526020016000815260200160008152602001600081526020016000815260200160008152602001606081526020016060815260200160608152602001606081525090565b828054828255906000526020600020908101928215611a8e579160200282015b82811115611a8d578251829081611a7d9190612ab1565b5091602001919060010190611a66565b5b509050611a9b9190611ac3565b5090565b5b80821115611abf5760008181611ab69190611ae7565b50600101611aa0565b5090565b5b80821115611ae35760008181611ada9190611b08565b50600101611ac4565b5090565b5080546000825590600052602060002090810190611b059190611ac3565b50565b508054611b1490612431565b6000825580601f10611b265750611b45565b601f016020900490600052602060002090810190611b449190611b48565b5b50565b5b80821115611b61576000816000905550600101611b49565b5090565b6000604051905090565b600080fd5b600080fd5b600073ffffffffffffffffffffffffffffffffffffffff82169050919050565b6000611ba482611b79565b9050919050565b611bb481611b99565b8114611bbf57600080fd5b50565b600081359050611bd181611bab565b92915050565b600080fd5b600080fd5b6000601f19601f8301169050919050565b7f4e487b7100000000000000000000000000000000000000000000000000000000600052604160045260246000fd5b611c2a82611be1565b810181811067ffffffffffffffff82111715611c4957611c48611bf2565b5b80604052505050565b6000611c5c611b65565b9050611c688282611c21565b919050565b600067ffffffffffffffff821115611c8857611c87611bf2565b5b611c9182611be1565b9050602081019050919050565b82818337600083830152505050565b6000611cc0611cbb84611c6d565b611c52565b905082815260208101848484011115611cdc57611cdb611bdc565b5b611ce7848285611c9e565b509392505050565b600082601f830112611d0457611d03611bd7565b5b8135611d14848260208601611cad565b91505092915050565b600067ffffffffffffffff821115611d3857611d37611bf2565b5b602082029050919050565b600080fd5b600067ffffffffffffffff821115611d6357611d62611bf2565b5b602082029050602081019050919050565b600067ffffffffffffffff821115611d8f57611d8e611bf2565b5b611d9882611be1565b9050602081019050919050565b6000611db8611db384611d74565b611c52565b905082815260208101848484011115611dd457611dd3611bdc565b5b611ddf848285611c9e565b509392505050565b600082601f830112611dfc57611dfb611bd7565b5b8135611e0c848260208601611da5565b91505092915050565b6000611e28611e2384611d48565b611c52565b90508083825260208201905060208402830185811115611e4b57611e4a611d43565b5b835b81811015611e9257803567ffffffffffffffff811115611e7057611e6f611bd7565b5b808601611e7d8982611de7565b85526020850194505050602081019050611e4d565b5050509392505050565b600082601f830112611eb157611eb0611bd7565b5b8135611ec1848260208601611e15565b91505092915050565b6000611edd611ed884611d1d565b611c52565b90508060208402830185811115611ef757611ef6611d43565b5b835b81811015611f3e57803567ffffffffffffffff811115611f1c57611f1b611bd7565b5b808601611f298982611e9c565b85526020850194505050602081019050611ef9565b5050509392505050565b600082601f830112611f5d57611f5c611bd7565b5b6003611f6a848285611eca565b91505092915050565b6000819050919050565b611f8681611f73565b8114611f9157600080fd5b50565b600081359050611fa381611f7d565b92915050565b600080600080600060a08688031215611fc557611fc4611b6f565b5b6000611fd388828901611bc2565b955050602086013567ffffffffffffffff811115611ff457611ff3611b74565b5b61200088828901611cef565b945050604086013567ffffffffffffffff81111561202157612020611b74565b5b61202d88828901611cef565b935050606086013567ffffffffffffffff81111561204e5761204d611b74565b5b61205a88828901611f48565b925050608061206b88828901611f94565b9150509295509295909350565b60006020828403121561208e5761208d611b6f565b5b600061209c84828501611bc2565b91505092915050565b6120ae81611f73565b82525050565b600081519050919050565b600082825260208201905092915050565b60005b838110156120ee5780820151818401526020810190506120d3565b60008484015250505050565b6000612105826120b4565b61210f81856120bf565b935061211f8185602086016120d0565b61212881611be1565b840191505092915050565b60006101808301600083015161214c60008601826120a5565b50602083015161215f60208601826120a5565b50604083015161217260408601826120a5565b50606083015161218560608601826120a5565b50608083015161219860808601826120a5565b5060a08301516121ab60a08601826120a5565b5060c08301516121be60c08601826120a5565b5060e08301516121d160e08601826120a5565b506101008301518482036101008601526121eb82826120fa565b91505061012083015184820361012086015261220782826120fa565b91505061014083015184820361014086015261222382826120fa565b91505061016083015184820361016086015261223f82826120fa565b9150508091505092915050565b600060208201905081810360008301526122668184612133565b905092915050565b60006020828403121561228457612283611b6f565b5b600082013567ffffffffffffffff8111156122a2576122a1611b74565b5b6122ae84828501611cef565b91505092915050565b60008115159050919050565b6122cc816122b7565b82525050565b60006020820190506122e760008301846122c3565b92915050565b6122f681611b99565b82525050565b600060208201905061231160008301846122ed565b92915050565b60008160601b9050919050565b600061232f82612317565b9050919050565b600061234182612324565b9050919050565b61235961235482611b99565b612336565b82525050565b600081905092915050565b6000612375826120b4565b61237f818561235f565b935061238f8185602086016120d0565b80840191505092915050565b6000819050919050565b6123b66123b182611f73565b61239b565b82525050565b60006123c88287612348565b6014820191506123d8828661236a565b91506123e4828561236a565b91506123f082846123a5565b60208201915081905095945050505050565b7f4e487b7100000000000000000000000000000000000000000000000000000000600052602260045260246000fd5b6000600282049050600182168061244957607f821691505b60208210810361245c5761245b612402565b5b50919050565b60008190508160005260206000209050919050565b60006020601f8301049050919050565b600082821b905092915050565b6000600883026124c47fffffffffffffffffffffffffffffffffffffffffffffffffffffffffffffffff82612487565b6124ce8683612487565b95508019841693508086168417925050509392505050565b6000819050919050565b600061250b61250661250184611f73565b6124e6565b611f73565b9050919050565b6000819050919050565b612525836124f0565b61253961253182612512565b848454612494565b825550505050565b600090565b61254e612541565b61255981848461251c565b505050565b5b8181101561257d57612572600082612546565b60018101905061255f565b5050565b601f8211156125c25761259381612462565b61259c84612477565b810160208510156125ab578190505b6125bf6125b785612477565b83018261255e565b50505b505050565b600082821c905092915050565b60006125e5600019846008026125c7565b1980831691505092915050565b60006125fe83836125d4565b9150826002028217905092915050565b612617826120b4565b67ffffffffffffffff8111156126305761262f611bf2565b5b61263a8254612431565b612645828285612581565b600060209050601f8311600181146126785760008415612666578287015190505b61267085826125f2565b8655506126d8565b601f19841661268686612462565b60005b828110156126ae57848901518255600182019150602085019450602081019050612689565b868310156126cb57848901516126c7601f8916826125d4565b8355505b6001600288020188555050505b505050505050565b8082525050565b6126f081611b99565b82525050565b600060408201905061270b60008301856126e0565b61271860208301846126e7565b9392505050565b8082525050565b61272f81611b99565b82525050565b61273e81611f73565b82525050565b60408201600082015161275a6000850182612726565b50602082015161276d6020850182612735565b50505050565b6000606082019050612788600083018561271f565b6127956020830184612744565b9392505050565b600082825260208201905092915050565b7f41646d696e436f6e74726163743e5f6f6e6c7941646d696e5f00000000000000600082015250565b60006127e360198361279c565b91506127ee826127ad565b602082019050919050565b60006020820190508181036000830152612812816127d6565b9050919050565b7f41646d696e436f6e74726163743e7472616e7366657241646d696e0000000000600082015250565b600061284f601b8361279c565b915061285a82612819565b602082019050919050565b6000602082019050818103600083015261287e81612842565b9050919050565b7f45303a20557365722e736f6c3e55736572436f6e74726163743e5f726567697360008201527f74657265645f0000000000000000000000000000000000000000000000000000602082015250565b60006128e160268361279c565b91506128ec82612885565b604082019050919050565b60006020820190508181036000830152612910816128d4565b9050919050565b7f696e697469616c697a6564000000000000000000000000000000000000000000600082015250565b600061294d600b8361279c565b915061295882612917565b602082019050919050565b6000602082019050818103600083015261297c81612940565b9050919050565b7f45313a20557365722e736f6c3e55736572436f6e74726163743e5f6e6f74526560008201527f67697374657265645f0000000000000000000000000000000000000000000000602082015250565b60006129df60298361279c565b91506129ea82612983565b604082019050919050565b60006020820190508181036000830152612a0e816129d2565b9050919050565b6000602082019050612a2a60008301846126e0565b92915050565b6000602082019050612a45600083018461271f565b92915050565b600081519050919050565b60008190508160005260206000209050919050565b601f821115612aac57612a7d81612a56565b612a8684612477565b81016020851015612a95578190505b612aa9612aa185612477565b83018261255e565b50505b505050565b612aba82612a4b565b67ffffffffffffffff811115612ad357612ad2611bf2565b5b612add8254612431565b612ae8828285612a6b565b600060209050601f831160018114612b1b5760008415612b09578287015190505b612b1385826125f2565b865550612b7b565b601f198416612b2986612a56565b60005b82811015612b5157848901518255600182019150602085019450602081019050612b2c565b86831015612b6e5784890151612b6a601f8916826125d4565b8355505b6001600288020188555050505b50505050505056fea2646970667358221220000002649601eaef3adc151904b4f48eadf27ed71b3955d08fb7871bf65eaa3664736f6c63430008130033",
  "immutableReferences": {},
  "source": "// SPDX-License-Identifier: GPL-3.0\r\npragma solidity ^0.8.17;\r\n\r\nimport \"./implementations/base/Base.sol\";\r\nimport \"./implementations/File.sol\";\r\nimport \"./implementations/Reward.sol\";\r\nimport \"./implementations/User.sol\";\r\n\r\ninterface ImplementationInterface is AdminInterface, UserInterface, FileInterface, RewardInterface {\r\n    function init() external;\r\n}\r\n\r\ncontract ImplementationContact is UserContract, FileContact, RewardContact {\r\n    function init()\r\n    public {\r\n        require(admin != address(0), \"initialized\");\r\n        admin = msg.sender;\r\n        UserContract_init();\r\n        FileContact_init();\r\n    }\r\n}\r\n\r\ncontract OurShare is AdminContract {\r\n    bytes32 private constant implementation_position = keccak256(\"OurShare\");\r\n\r\n    constructor(){\r\n        admin = msg.sender;\r\n    }\r\n\r\n    function getImplementation() public view returns (address implementation) {\r\n        bytes32 position = implementation_position;\r\n        assembly {\r\n            implementation := sload(position)\r\n        }\r\n    }\r\n\r\n    function setImplementation(address implementation) public _onlyAdmin_ {\r\n        bytes32 position = implementation_position;\r\n        assembly {\r\n            sstore(position, implementation)\r\n        }\r\n    }\r\n\r\n    function _delegate(address implementation) internal {\r\n        assembly {\r\n            calldatacopy(0, 0, calldatasize())\r\n            let result := delegatecall(gas(), implementation, 0, calldatasize(), 0, 0)\r\n            returndatacopy(0, 0, returndatasize())\r\n            switch result\r\n            case 0 {\r\n                revert(0, returndatasize())\r\n            }\r\n            default {\r\n                return (0, returndatasize())\r\n            }\r\n        }\r\n    }\r\n\r\n    fallback() external payable {\r\n        _delegate(getImplementation());\r\n    }\r\n\r\n    receive() external payable {\r\n        _delegate(getImplementation());\r\n    }\r\n}\r\n",
  "sourcePath": "F:\\OurChain\\OurShare\\src\\assets\\eth\\contracts\\OurShare.sol",
  "compiler": {
    "name": "solc",
    "version": "0.8.19+commit.7dd6d404.Emscripten.clang"
  },
  "schemaVersion": "3.4.13",
  "updatedAt": "2023-05-10T08:36:39.767Z",
  "devdoc": {
    "kind": "dev",
    "methods": {},
    "version": 1
  },
  "userdoc": {
    "kind": "user",
    "methods": {},
    "version": 1
  }
}