{
  "contractName": "ImplementationContact",
  "abi": [
    {
      "anonymous": false,
      "inputs": [
        {
          "indexed": true,
          "internalType": "address",
          "name": "old_admin",
          "type": "address"
        },
        {
          "indexed": true,
          "internalType": "address",
          "name": "new_admin",
          "type": "address"
        }
      ],
      "name": "AdminTransferred",
      "type": "event"
    },
    {
      "inputs": [],
      "name": "RewardContact_init",
      "outputs": [],
      "stateMutability": "nonpayable",
      "type": "function"
    },
    {
      "inputs": [
        {
          "internalType": "string",
          "name": "name",
          "type": "string"
        }
      ],
      "name": "addCategory",
      "outputs": [],
      "stateMutability": "nonpayable",
      "type": "function"
    },
    {
      "inputs": [],
      "name": "admin",
      "outputs": [
        {
          "internalType": "address",
          "name": "",
          "type": "address"
        }
      ],
      "stateMutability": "view",
      "type": "function",
      "constant": true
    },
    {
      "inputs": [
        {
          "internalType": "address",
          "name": "cursor",
          "type": "address"
        }
      ],
      "name": "getCategorySlice",
      "outputs": [
        {
          "components": [
            {
              "internalType": "address",
              "name": "category_address",
              "type": "address"
            },
            {
              "internalType": "string",
              "name": "name",
              "type": "string"
            },
            {
              "internalType": "uint256",
              "name": "num",
              "type": "uint256"
            }
          ],
          "internalType": "struct StoreContact.Category[10]",
          "name": "category_slice",
          "type": "tuple[10]"
        },
        {
          "internalType": "address",
          "name": "next",
          "type": "address"
        }
      ],
      "stateMutability": "view",
      "type": "function",
      "constant": true
    },
    {
      "inputs": [
        {
          "internalType": "address",
          "name": "cursor",
          "type": "address"
        },
        {
          "internalType": "address",
          "name": "category",
          "type": "address"
        },
        {
          "internalType": "uint256",
          "name": "order",
          "type": "uint256"
        },
        {
          "internalType": "bool",
          "name": "reverse",
          "type": "bool"
        }
      ],
      "name": "getFileInfos",
      "outputs": [
        {
          "components": [
            {
              "internalType": "address",
              "name": "owner",
              "type": "address"
            },
            {
              "internalType": "address",
              "name": "category",
              "type": "address"
            },
            {
              "internalType": "address",
              "name": "file_address",
              "type": "address"
            },
            {
              "internalType": "bool",
              "name": "is_buy",
              "type": "bool"
            },
            {
              "internalType": "string",
              "name": "name",
              "type": "string"
            },
            {
              "internalType": "string",
              "name": "title",
              "type": "string"
            },
            {
              "internalType": "string",
              "name": "description",
              "type": "string"
            },
            {
              "internalType": "string",
              "name": "ipfs_address",
              "type": "string"
            },
            {
              "internalType": "string[3]",
              "name": "images",
              "type": "string[3]"
            },
            {
              "internalType": "uint256",
              "name": "price",
              "type": "uint256"
            },
            {
              "internalType": "uint256",
              "name": "up_num",
              "type": "uint256"
            },
            {
              "internalType": "uint256",
              "name": "down_num",
              "type": "uint256"
            },
            {
              "internalType": "uint256",
              "name": "buyer_num",
              "type": "uint256"
            },
            {
              "internalType": "uint256",
              "name": "comment_num",
              "type": "uint256"
            },
            {
              "internalType": "uint256",
              "name": "up_and_down",
              "type": "uint256"
            },
            {
              "internalType": "uint256",
              "name": "upload_timestamp",
              "type": "uint256"
            }
          ],
          "internalType": "struct StoreContact.FileInfo[10]",
          "name": "file_infos",
          "type": "tuple[10]"
        },
        {
          "internalType": "address",
          "name": "next",
          "type": "address"
        },
        {
          "internalType": "bool",
          "name": "finished",
          "type": "bool"
        }
      ],
      "stateMutability": "view",
      "type": "function",
      "constant": true
    },
    {
      "inputs": [
        {
          "internalType": "address",
          "name": "cursor",
          "type": "address"
        },
        {
          "internalType": "bool",
          "name": "reverse",
          "type": "bool"
        }
      ],
      "name": "getSelfFileInfos",
      "outputs": [
        {
          "components": [
            {
              "internalType": "address",
              "name": "owner",
              "type": "address"
            },
            {
              "internalType": "address",
              "name": "category",
              "type": "address"
            },
            {
              "internalType": "address",
              "name": "file_address",
              "type": "address"
            },
            {
              "internalType": "bool",
              "name": "is_buy",
              "type": "bool"
            },
            {
              "internalType": "string",
              "name": "name",
              "type": "string"
            },
            {
              "internalType": "string",
              "name": "title",
              "type": "string"
            },
            {
              "internalType": "string",
              "name": "description",
              "type": "string"
            },
            {
              "internalType": "string",
              "name": "ipfs_address",
              "type": "string"
            },
            {
              "internalType": "string[3]",
              "name": "images",
              "type": "string[3]"
            },
            {
              "internalType": "uint256",
              "name": "price",
              "type": "uint256"
            },
            {
              "internalType": "uint256",
              "name": "up_num",
              "type": "uint256"
            },
            {
              "internalType": "uint256",
              "name": "down_num",
              "type": "uint256"
            },
            {
              "internalType": "uint256",
              "name": "buyer_num",
              "type": "uint256"
            },
            {
              "internalType": "uint256",
              "name": "comment_num",
              "type": "uint256"
            },
            {
              "internalType": "uint256",
              "name": "up_and_down",
              "type": "uint256"
            },
            {
              "internalType": "uint256",
              "name": "upload_timestamp",
              "type": "uint256"
            }
          ],
          "internalType": "struct StoreContact.FileInfo[10]",
          "name": "file_infos",
          "type": "tuple[10]"
        },
        {
          "internalType": "address",
          "name": "next",
          "type": "address"
        }
      ],
      "stateMutability": "view",
      "type": "function",
      "constant": true
    },
    {
      "inputs": [],
      "name": "getSelfInfo",
      "outputs": [
        {
          "components": [
            {
              "internalType": "string",
              "name": "major",
              "type": "string"
            },
            {
              "internalType": "string",
              "name": "avatar",
              "type": "string"
            },
            {
              "internalType": "string",
              "name": "nickname",
              "type": "string"
            },
            {
              "internalType": "string",
              "name": "signature",
              "type": "string"
            },
            {
              "internalType": "uint256",
              "name": "ID",
              "type": "uint256"
            },
            {
              "internalType": "uint256",
              "name": "coins",
              "type": "uint256"
            },
            {
              "internalType": "uint256",
              "name": "heart",
              "type": "uint256"
            },
            {
              "internalType": "uint256",
              "name": "experience",
              "type": "uint256"
            },
            {
              "internalType": "uint256",
              "name": "follower_num",
              "type": "uint256"
            },
            {
              "internalType": "uint256",
              "name": "following_num",
              "type": "uint256"
            },
            {
              "internalType": "uint256",
              "name": "login_timestamp",
              "type": "uint256"
            },
            {
              "internalType": "uint256",
              "name": "uploaded_file_num",
              "type": "uint256"
            }
          ],
          "internalType": "struct StoreContact.UserSelfInfo",
          "name": "self_info",
          "type": "tuple"
        }
      ],
      "stateMutability": "view",
      "type": "function",
      "constant": true
    },
    {
      "inputs": [
        {
          "internalType": "address",
          "name": "user_address",
          "type": "address"
        }
      ],
      "name": "isRegistered",
      "outputs": [
        {
          "internalType": "bool",
          "name": "is_registered",
          "type": "bool"
        }
      ],
      "stateMutability": "view",
      "type": "function",
      "constant": true
    },
    {
      "inputs": [
        {
          "internalType": "string",
          "name": "nickname",
          "type": "string"
        }
      ],
      "name": "register",
      "outputs": [],
      "stateMutability": "nonpayable",
      "type": "function"
    },
    {
      "inputs": [],
      "name": "renounceAdmin",
      "outputs": [],
      "stateMutability": "nonpayable",
      "type": "function"
    },
    {
      "inputs": [
        {
          "internalType": "address",
          "name": "new_admin",
          "type": "address"
        }
      ],
      "name": "transferAdmin",
      "outputs": [],
      "stateMutability": "nonpayable",
      "type": "function"
    },
    {
      "inputs": [
        {
          "internalType": "string",
          "name": "avatar",
          "type": "string"
        }
      ],
      "name": "updateAvatar",
      "outputs": [],
      "stateMutability": "nonpayable",
      "type": "function"
    },
    {
      "inputs": [
        {
          "internalType": "string",
          "name": "nickname",
          "type": "string"
        }
      ],
      "name": "updateNickname",
      "outputs": [],
      "stateMutability": "nonpayable",
      "type": "function"
    },
    {
      "inputs": [
        {
          "internalType": "string",
          "name": "signature",
          "type": "string"
        }
      ],
      "name": "updateSignature",
      "outputs": [],
      "stateMutability": "nonpayable",
      "type": "function"
    },
    {
      "inputs": [
        {
          "internalType": "string",
          "name": "ipfs_address",
          "type": "string"
        },
        {
          "internalType": "string",
          "name": "name",
          "type": "string"
        },
        {
          "internalType": "string",
          "name": "title",
          "type": "string"
        },
        {
          "internalType": "string",
          "name": "description",
          "type": "string"
        },
        {
          "internalType": "address",
          "name": "category",
          "type": "address"
        },
        {
          "internalType": "string[3]",
          "name": "images",
          "type": "string[3]"
        },
        {
          "internalType": "uint256",
          "name": "price",
          "type": "uint256"
        }
      ],
      "name": "uploadFile",
      "outputs": [],
      "stateMutability": "nonpayable",
      "type": "function"
    },
    {
      "inputs": [],
      "name": "init",
      "outputs": [],
      "stateMutability": "nonpayable",
      "type": "function"
    }
  ],
  "bytecode": "0x608060405234801561001057600080fd5b50614b9a806100206000396000f3fe608060405234801561001057600080fd5b50600436106101005760003560e01c8063c40eb86911610097578063eed73f5c11610066578063eed73f5c1461025f578063f2c298be14610291578063f2e9c783146102ad578063f851a440146102c957610100565b8063c40eb869146101e9578063c63e3e8b1461021a578063cffa644214610224578063e1c7392a1461025557610100565b80639fe958b9116100d35780639fe958b914610165578063a389559f14610181578063bd2e3b171461019d578063c3c5a547146101b957610100565b80632e0dcbf71461010557806375829def146101215780637e8e77331461013d5780638bad0c0a1461015b575b600080fd5b61011f600480360381019061011a919061359f565b6102e7565b005b61013b60048036038101906101369190613646565b6104b7565b005b6101456105c0565b6040516101529190613824565b60405180910390f35b6101636108bf565b005b61017f600480360381019061017a919061359f565b610959565b005b61019b6004803603810190610196919061359f565b6109cb565b005b6101b760048036038101906101b2919061359f565b610a3d565b005b6101d360048036038101906101ce9190613646565b610aaf565b6040516101e09190613861565b60405180910390f35b61020360048036038101906101fe91906138a8565b610b01565b604051610211929190613bf5565b60405180910390f35b610222610cb7565b005b61023e60048036038101906102399190613646565b610cb9565b60405161024c929190613d2b565b60405180910390f35b61025d610f19565b005b61027960048036038101906102749190613d87565b610ffa565b60405161028893929190613dee565b60405180910390f35b6102ab60048036038101906102a6919061359f565b6114dd565b005b6102c760048036038101906102c29190613f00565b611cf1565b005b6102d16124c2565b6040516102de919061402e565b60405180910390f35b3373ffffffffffffffffffffffffffffffffffffffff1660008054906101000a900473ffffffffffffffffffffffffffffffffffffffff1673ffffffffffffffffffffffffffffffffffffffff1614610375576040517f08c379a000000000000000000000000000000000000000000000000000000000815260040161036c906140a6565b60405180910390fd5b60006103a68260405160200161038b9190614102565b604051602081830303815290604052805190602001206124e6565b90506000601560000160008373ffffffffffffffffffffffffffffffffffffffff1673ffffffffffffffffffffffffffffffffffffffff1681526020019081526020016000209050818160000160006101000a81548173ffffffffffffffffffffffffffffffffffffffff021916908373ffffffffffffffffffffffffffffffffffffffff160217905550828160010190816104429190614325565b50601560010173__AddressLinkedList_____________________63dbd4df179091846040518363ffffffff1660e01b815260040161048292919061440d565b60006040518083038186803b15801561049a57600080fd5b505af41580156104ae573d6000803e3d6000fd5b50505050505050565b3373ffffffffffffffffffffffffffffffffffffffff1660008054906101000a900473ffffffffffffffffffffffffffffffffffffffff1673ffffffffffffffffffffffffffffffffffffffff1614610545576040517f08c379a000000000000000000000000000000000000000000000000000000000815260040161053c906140a6565b60405180910390fd5b600073ffffffffffffffffffffffffffffffffffffffff168173ffffffffffffffffffffffffffffffffffffffff16036105b4576040517f08c379a00000000000000000000000000000000000000000000000000000000081526004016105ab90614482565b60405180910390fd5b6105bd816124f3565b50565b6105c8613196565b6000600160000160003373ffffffffffffffffffffffffffffffffffffffff1673ffffffffffffffffffffffffffffffffffffffff168152602001908152602001600020905060405180610180016040528082600101805461062990614148565b80601f016020809104026020016040519081016040528092919081815260200182805461065590614148565b80156106a25780601f10610677576101008083540402835291602001916106a2565b820191906000526020600020905b81548152906001019060200180831161068557829003601f168201915b505050505081526020018260020180546106bb90614148565b80601f01602080910402602001604051908101604052809291908181526020018280546106e790614148565b80156107345780601f1061070957610100808354040283529160200191610734565b820191906000526020600020905b81548152906001019060200180831161071757829003601f168201915b5050505050815260200182600301805461074d90614148565b80601f016020809104026020016040519081016040528092919081815260200182805461077990614148565b80156107c65780601f1061079b576101008083540402835291602001916107c6565b820191906000526020600020905b8154815290600101906020018083116107a957829003601f168201915b505050505081526020018260040180546107df90614148565b80601f016020809104026020016040519081016040528092919081815260200182805461080b90614148565b80156108585780601f1061082d57610100808354040283529160200191610858565b820191906000526020600020905b81548152906001019060200180831161083b57829003601f168201915b50505050508152602001826005015481526020018260070154815260200182600801548152602001826009015481526020018260170160030154815260200182601b0160030154815260200182600a01548152602001826028016003015481525091505090565b3373ffffffffffffffffffffffffffffffffffffffff1660008054906101000a900473ffffffffffffffffffffffffffffffffffffffff1673ffffffffffffffffffffffffffffffffffffffff161461094d576040517f08c379a0000000000000000000000000000000000000000000000000000000008152600401610944906140a6565b60405180910390fd5b61095760006124f3565b565b610962336125b7565b61096f816001600a612642565b6000600160000160003373ffffffffffffffffffffffffffffffffffffffff1673ffffffffffffffffffffffffffffffffffffffff1681526020019081526020016000209050818160020190816109c69190614325565b505050565b6109d4336125b7565b6109e18160016020612642565b6000600160000160003373ffffffffffffffffffffffffffffffffffffffff1673ffffffffffffffffffffffffffffffffffffffff168152602001908152602001600020905081816004019081610a389190614325565b505050565b610a46336125b7565b610a53816001600a612642565b6000600160000160003373ffffffffffffffffffffffffffffffffffffffff1673ffffffffffffffffffffffffffffffffffffffff168152602001908152602001600020905081816003019081610aaa9190614325565b505050565b600080600160000160008473ffffffffffffffffffffffffffffffffffffffff1673ffffffffffffffffffffffffffffffffffffffff168152602001908152602001600020600a015414159050919050565b610b096131f7565b6000610b14336125b7565b6000600160000160003373ffffffffffffffffffffffffffffffffffffffff1673ffffffffffffffffffffffffffffffffffffffff16815260200190815260200160002060280173__AddressLinkedList_____________________637ea94909909187876040518463ffffffff1660e01b8152600401610b97939291906144b1565b61014060405180830381865af4158015610bb5573d6000803e3d6000fd5b505050506040513d601f19601f82011682018060405250810190610bd991906145ae565b905060005b600a811015610cae578181600a8110610bfa57610bf96145dc565b5b60200201519250600073ffffffffffffffffffffffffffffffffffffffff168373ffffffffffffffffffffffffffffffffffffffff160315610cae57610c80601a60000160008573ffffffffffffffffffffffffffffffffffffffff1673ffffffffffffffffffffffffffffffffffffffff1681526020019081526020016000206126f6565b8482600a8110610c9357610c926145dc565b5b60200201819052508080610ca69061463a565b915050610bde565b50509250929050565b565b610cc1613225565b600080601560010173__AddressLinkedList_____________________637ea9490990918660006040518463ffffffff1660e01b8152600401610d06939291906144b1565b61014060405180830381865af4158015610d24573d6000803e3d6000fd5b505050506040513d601f19601f82011682018060405250810190610d4891906145ae565b905060005b600a811015610f12578181600a8110610d6957610d686145dc565b5b60200201519250600073ffffffffffffffffffffffffffffffffffffffff168373ffffffffffffffffffffffffffffffffffffffff160315610f1257601560000160008473ffffffffffffffffffffffffffffffffffffffff1673ffffffffffffffffffffffffffffffffffffffff1681526020019081526020016000206040518060600160405290816000820160009054906101000a900473ffffffffffffffffffffffffffffffffffffffff1673ffffffffffffffffffffffffffffffffffffffff1673ffffffffffffffffffffffffffffffffffffffff168152602001600182018054610e5890614148565b80601f0160208091040260200160405190810160405280929190818152602001828054610e8490614148565b8015610ed15780601f10610ea657610100808354040283529160200191610ed1565b820191906000526020600020905b815481529060010190602001808311610eb457829003601f168201915b505050505081526020016002820154815250508482600a8110610ef757610ef66145dc565b5b60200201819052508080610f0a9061463a565b915050610d4d565b5050915091565b600073ffffffffffffffffffffffffffffffffffffffff1660008054906101000a900473ffffffffffffffffffffffffffffffffffffffff1673ffffffffffffffffffffffffffffffffffffffff1603610fa8576040517f08c379a0000000000000000000000000000000000000000000000000000000008152600401610f9f906146ce565b60405180910390fd5b336000806101000a81548173ffffffffffffffffffffffffffffffffffffffff021916908373ffffffffffffffffffffffffffffffffffffffff160217905550610ff0612c3d565b610ff8612df2565b565b6110026131f7565b60008061100d613253565b60005b600a8110156114d157851561120357600173ffffffffffffffffffffffffffffffffffffffff168973ffffffffffffffffffffffffffffffffffffffff160361105c57600192506114d1565b600187036110eb57601a60050173__AddressOrderedMap_____________________63f8e3ec5690918b6040518363ffffffff1660e01b81526004016110a39291906146f5565b602060405180830381865af41580156110c0573d6000803e3d6000fd5b505050506040513d601f19601f820116820180604052508101906110e4919061471e565b98506111fe565b6002870361117a57601a600a0173__AddressOrderedMap_____________________63f8e3ec5690918b6040518363ffffffff1660e01b81526004016111329291906146f5565b602060405180830381865af415801561114f573d6000803e3d6000fd5b505050506040513d601f19601f82011682018060405250810190611173919061471e565b98506111fd565b601a60010173__AddressLinkedList_____________________635008f58590918b6040518363ffffffff1660e01b81526004016111b992919061440d565b602060405180830381865af41580156111d6573d6000803e3d6000fd5b505050506040513d601f19601f820116820180604052508101906111fa919061471e565b98505b5b6113e3565b600273ffffffffffffffffffffffffffffffffffffffff168973ffffffffffffffffffffffffffffffffffffffff160361124057600192506114d1565b600187036112cf57601a60050173__AddressOrderedMap_____________________63da35ee4b90918b6040518363ffffffff1660e01b81526004016112879291906146f5565b602060405180830381865af41580156112a4573d6000803e3d6000fd5b505050506040513d601f19601f820116820180604052508101906112c8919061471e565b98506113e2565b6002870361135e57601a600a0173__AddressOrderedMap_____________________63da35ee4b90918b6040518363ffffffff1660e01b81526004016113169291906146f5565b602060405180830381865af4158015611333573d6000803e3d6000fd5b505050506040513d601f19601f82011682018060405250810190611357919061471e565b98506113e1565b601a60010173__AddressLinkedList_____________________635cb1e46590918b6040518363ffffffff1660e01b815260040161139d92919061440d565b602060405180830381865af41580156113ba573d6000803e3d6000fd5b505050506040513d601f19601f820116820180604052508101906113de919061471e565b98505b5b5b61142d601a60000160008b73ffffffffffffffffffffffffffffffffffffffff1673ffffffffffffffffffffffffffffffffffffffff1681526020019081526020016000206126f6565b91508773ffffffffffffffffffffffffffffffffffffffff16826020015173ffffffffffffffffffffffffffffffffffffffff1614806114995750600073ffffffffffffffffffffffffffffffffffffffff168873ffffffffffffffffffffffffffffffffffffffff16145b156114c957818582600a81106114b2576114b16145dc565b5b602002018190525080806114c59061463a565b9150505b889350611010565b50509450945094915050565b6114e633612fa8565b6114f3816001600a612642565b6000600160000160003373ffffffffffffffffffffffffffffffffffffffff1673ffffffffffffffffffffffffffffffffffffffff1681526020019081526020016000209050600281600601819055504281600a01819055508181600301908161155d9190614325565b50338160000160006101000a81548173ffffffffffffffffffffffffffffffffffffffff021916908373ffffffffffffffffffffffffffffffffffffffff16021790555080600b0173__AddressLinkedList_____________________637fc06cef90916040518263ffffffff1660e01b81526004016115dd919061474b565b60006040518083038186803b1580156115f557600080fd5b505af4158015611609573d6000803e3d6000fd5b5050505080600f0173__AddressLinkedList_____________________637fc06cef90916040518263ffffffff1660e01b8152600401611649919061474b565b60006040518083038186803b15801561166157600080fd5b505af4158015611675573d6000803e3d6000fd5b505050508060130173__AddressLinkedList_____________________637fc06cef90916040518263ffffffff1660e01b81526004016116b5919061474b565b60006040518083038186803b1580156116cd57600080fd5b505af41580156116e1573d6000803e3d6000fd5b505050508060170173__AddressLinkedList_____________________637fc06cef90916040518263ffffffff1660e01b8152600401611721919061474b565b60006040518083038186803b15801561173957600080fd5b505af415801561174d573d6000803e3d6000fd5b5050505080601b0173__AddressLinkedList_____________________637fc06cef90916040518263ffffffff1660e01b815260040161178d919061474b565b60006040518083038186803b1580156117a557600080fd5b505af41580156117b9573d6000803e3d6000fd5b5050505080601f0173__AddressOrderedMap_____________________63abc7dfcc90916040518263ffffffff1660e01b81526004016117f99190614766565b60006040518083038186803b15801561181157600080fd5b505af4158015611825573d6000803e3d6000fd5b505050508060240173__AddressLinkedList_____________________637fc06cef90916040518263ffffffff1660e01b8152600401611865919061474b565b60006040518083038186803b15801561187d57600080fd5b505af4158015611891573d6000803e3d6000fd5b505050508060280173__AddressLinkedList_____________________637fc06cef90916040518263ffffffff1660e01b81526004016118d1919061474b565b60006040518083038186803b1580156118e957600080fd5b505af41580156118fd573d6000803e3d6000fd5b5050505080602c0173__AddressOrderedMap_____________________63abc7dfcc90916040518263ffffffff1660e01b815260040161193d9190614766565b60006040518083038186803b15801561195557600080fd5b505af4158015611969573d6000803e3d6000fd5b505050508060310173__AddressLinkedList_____________________637fc06cef90916040518263ffffffff1660e01b81526004016119a9919061474b565b60006040518083038186803b1580156119c157600080fd5b505af41580156119d5573d6000803e3d6000fd5b505050508060350173__AddressOrderedMap_____________________63abc7dfcc90916040518263ffffffff1660e01b8152600401611a159190614766565b60006040518083038186803b158015611a2d57600080fd5b505af4158015611a41573d6000803e3d6000fd5b5050505080603a0173__AddressOrderedMap_____________________63abc7dfcc90916040518263ffffffff1660e01b8152600401611a819190614766565b60006040518083038186803b158015611a9957600080fd5b505af4158015611aad573d6000803e3d6000fd5b505050506001800173__AddressLinkedList_____________________63dbd4df179091336040518363ffffffff1660e01b8152600401611aef92919061440d565b60006040518083038186803b158015611b0757600080fd5b505af4158015611b1b573d6000803e3d6000fd5b50505050600160050173__AddressOrderedMap_____________________633fc68a5f909160405180604001604052803373ffffffffffffffffffffffffffffffffffffffff16815260200160008152506040518363ffffffff1660e01b8152600401611b899291906147ce565b60006040518083038186803b158015611ba157600080fd5b505af4158015611bb5573d6000803e3d6000fd5b505050506001600f0173__AddressOrderedMap_____________________633fc68a5f909160405180604001604052803373ffffffffffffffffffffffffffffffffffffffff16815260200160008152506040518363ffffffff1660e01b8152600401611c239291906147ce565b60006040518083038186803b158015611c3b57600080fd5b505af4158015611c4f573d6000803e3d6000fd5b505050506001600a0173__AddressOrderedMap_____________________633fc68a5f909160405180604001604052803373ffffffffffffffffffffffffffffffffffffffff16815260200160008152506040518363ffffffff1660e01b8152600401611cbd9291906147ce565b60006040518083038186803b158015611cd557600080fd5b505af4158015611ce9573d6000803e3d6000fd5b505050505050565b611cfa336125b7565b611d078560016040612642565b611d15846001610200612642565b611d228160016014613033565b611d2b836130d4565b6000611d5c86604051602001611d419190614102565b604051602081830303815290604052805190602001206124e6565b90506000601a60000160008373ffffffffffffffffffffffffffffffffffffffff1673ffffffffffffffffffffffffffffffffffffffff1681526020019081526020016000209050338160000160006101000a81548173ffffffffffffffffffffffffffffffffffffffff021916908373ffffffffffffffffffffffffffffffffffffffff160217905550848160010160006101000a81548173ffffffffffffffffffffffffffffffffffffffff021916908373ffffffffffffffffffffffffffffffffffffffff160217905550818160020160006101000a81548173ffffffffffffffffffffffffffffffffffffffff021916908373ffffffffffffffffffffffffffffffffffffffff16021790555087816003019081611e7e9190614325565b5086816004019081611e909190614325565b5085816005019081611ea29190614325565b5088816006019081611eb49190614325565b508381600701906003611ec892919061331a565b508281600a01819055504281600e0181905550600181600f0160003373ffffffffffffffffffffffffffffffffffffffff1673ffffffffffffffffffffffffffffffffffffffff16815260200190815260200160002060006101000a81548160ff0219169083151502179055508060120173__AddressLinkedList_____________________637fc06cef90916040518263ffffffff1660e01b8152600401611f71919061474b565b60006040518083038186803b158015611f8957600080fd5b505af4158015611f9d573d6000803e3d6000fd5b50505050601a60010173__AddressLinkedList_____________________63dbd4df179091846040518363ffffffff1660e01b8152600401611fe092919061440d565b60006040518083038186803b158015611ff857600080fd5b505af415801561200c573d6000803e3d6000fd5b50505050601a60050173__AddressOrderedMap_____________________633fc68a5f909160405180604001604052808673ffffffffffffffffffffffffffffffffffffffff168152602001878152506040518363ffffffff1660e01b81526004016120799291906147ce565b60006040518083038186803b15801561209157600080fd5b505af41580156120a5573d6000803e3d6000fd5b50505050601a600a0173__AddressOrderedMap_____________________633fc68a5f909160405180604001604052808673ffffffffffffffffffffffffffffffffffffffff16815260200160008152506040518363ffffffff1660e01b81526004016121139291906147ce565b60006040518083038186803b15801561212b57600080fd5b505af415801561213f573d6000803e3d6000fd5b50505050601560000160008673ffffffffffffffffffffffffffffffffffffffff1673ffffffffffffffffffffffffffffffffffffffff16815260200190815260200160002060020160008154809291906121999061463a565b919050555060006121cf836040516020016121b4919061483f565b604051602081830303815290604052805190602001206124e6565b90506000604260020160008373ffffffffffffffffffffffffffffffffffffffff1673ffffffffffffffffffffffffffffffffffffffff1681526020019081526020016000209050338160000160006101000a81548173ffffffffffffffffffffffffffffffffffffffff021916908373ffffffffffffffffffffffffffffffffffffffff160217905550838160010160006101000a81548173ffffffffffffffffffffffffffffffffffffffff021916908373ffffffffffffffffffffffffffffffffffffffff1602179055506000600190506000600160000160003373ffffffffffffffffffffffffffffffffffffffff1673ffffffffffffffffffffffffffffffffffffffff16815260200190815260200160002090505b600115612445578060170173__AddressLinkedList_____________________635cb1e4659091846040518363ffffffff1660e01b815260040161232f92919061440d565b602060405180830381865af415801561234c573d6000803e3d6000fd5b505050506040513d601f19601f82011682018060405250810190612370919061471e565b9150600273ffffffffffffffffffffffffffffffffffffffff168273ffffffffffffffffffffffffffffffffffffffff160315612445578060350173__AddressOrderedMap_____________________633fc68a5f909160405180604001604052808873ffffffffffffffffffffffffffffffffffffffff16815260200160018152506040518363ffffffff1660e01b81526004016124109291906147ce565b60006040518083038186803b15801561242857600080fd5b505af415801561243c573d6000803e3d6000fd5b505050506122ea565b8060280173__AddressLinkedList_____________________63dbd4df179091886040518363ffffffff1660e01b815260040161248392919061440d565b60006040518083038186803b15801561249b57600080fd5b505af41580156124af573d6000803e3d6000fd5b5050505050505050505050505050505050565b60008054906101000a900473ffffffffffffffffffffffffffffffffffffffff1681565b60008160001c9050919050565b60008060009054906101000a900473ffffffffffffffffffffffffffffffffffffffff169050816000806101000a81548173ffffffffffffffffffffffffffffffffffffffff021916908373ffffffffffffffffffffffffffffffffffffffff1602179055508173ffffffffffffffffffffffffffffffffffffffff168173ffffffffffffffffffffffffffffffffffffffff167ff8ccb027dfcd135e000e9d45e6cc2d662578a8825d4c45b5e32e0adf67e79ec660405160405180910390a35050565b6000600160000160008373ffffffffffffffffffffffffffffffffffffffff1673ffffffffffffffffffffffffffffffffffffffff168152602001908152602001600020600a01540361263f576040517f08c379a0000000000000000000000000000000000000000000000000000000008152600401612636906148cc565b60405180910390fd5b50565b600060038451612652919061491b565b905060008314806126635750828110155b6126a2576040517f08c379a000000000000000000000000000000000000000000000000000000000815260040161269990614998565b60405180910390fd5b60008214806126b15750818111155b6126f0576040517f08c379a00000000000000000000000000000000000000000000000000000000081526004016126e790614a04565b60405180910390fd5b50505050565b6126fe613253565b8160000160009054906101000a900473ffffffffffffffffffffffffffffffffffffffff16816000019073ffffffffffffffffffffffffffffffffffffffff16908173ffffffffffffffffffffffffffffffffffffffff16815250508160010160009054906101000a900473ffffffffffffffffffffffffffffffffffffffff16816020019073ffffffffffffffffffffffffffffffffffffffff16908173ffffffffffffffffffffffffffffffffffffffff16815250508160020160009054906101000a900473ffffffffffffffffffffffffffffffffffffffff16816040019073ffffffffffffffffffffffffffffffffffffffff16908173ffffffffffffffffffffffffffffffffffffffff168152505081600f0160003373ffffffffffffffffffffffffffffffffffffffff1673ffffffffffffffffffffffffffffffffffffffff16815260200190815260200160002060009054906101000a900460ff1681606001901515908115158152505081600301805461287f90614148565b80601f01602080910402602001604051908101604052809291908181526020018280546128ab90614148565b80156128f85780601f106128cd576101008083540402835291602001916128f8565b820191906000526020600020905b8154815290600101906020018083116128db57829003601f168201915b5050505050816080018190525081600401805461291490614148565b80601f016020809104026020016040519081016040528092919081815260200182805461294090614148565b801561298d5780601f106129625761010080835404028352916020019161298d565b820191906000526020600020905b81548152906001019060200180831161297057829003601f168201915b50505050508160a001819052508160050180546129a990614148565b80601f01602080910402602001604051908101604052809291908181526020018280546129d590614148565b8015612a225780601f106129f757610100808354040283529160200191612a22565b820191906000526020600020905b815481529060010190602001808311612a0557829003601f168201915b50505050508160c00181905250816006018054612a3e90614148565b80601f0160208091040260200160405190810160405280929190818152602001828054612a6a90614148565b8015612ab75780601f10612a8c57610100808354040283529160200191612ab7565b820191906000526020600020905b815481529060010190602001808311612a9a57829003601f168201915b50505050508160e0018190525081600701600380602002604051908101604052809291906000905b82821015612b82578382018054612af590614148565b80601f0160208091040260200160405190810160405280929190818152602001828054612b2190614148565b8015612b6e5780601f10612b4357610100808354040283529160200191612b6e565b820191906000526020600020905b815481529060010190602001808311612b5157829003601f168201915b505050505081526020019060010190612adf565b5050505081610100018190525081600a01548161012001818152505081600b01548161014001818152505081600c01548161016001818152505081600d0154816101800181815250508160120160030154816101a00181815250508160100160003373ffffffffffffffffffffffffffffffffffffffff1673ffffffffffffffffffffffffffffffffffffffff16815260200190815260200160002054816101c001818152505081600e0154816101e0018181525050919050565b6001800173__AddressLinkedList_____________________637fc06cef90916040518263ffffffff1660e01b8152600401612c79919061474b565b60006040518083038186803b158015612c9157600080fd5b505af4158015612ca5573d6000803e3d6000fd5b50505050600160050173__AddressOrderedMap_____________________63abc7dfcc90916040518263ffffffff1660e01b8152600401612ce69190614766565b60006040518083038186803b158015612cfe57600080fd5b505af4158015612d12573d6000803e3d6000fd5b505050506001600f0173__AddressOrderedMap_____________________63abc7dfcc90916040518263ffffffff1660e01b8152600401612d539190614766565b60006040518083038186803b158015612d6b57600080fd5b505af4158015612d7f573d6000803e3d6000fd5b505050506001600a0173__AddressOrderedMap_____________________63abc7dfcc90916040518263ffffffff1660e01b8152600401612dc09190614766565b60006040518083038186803b158015612dd857600080fd5b505af4158015612dec573d6000803e3d6000fd5b50505050565b601560010173__AddressLinkedList_____________________637fc06cef90916040518263ffffffff1660e01b8152600401612e2f919061474b565b60006040518083038186803b158015612e4757600080fd5b505af4158015612e5b573d6000803e3d6000fd5b50505050601a60010173__AddressLinkedList_____________________637fc06cef90916040518263ffffffff1660e01b8152600401612e9c919061474b565b60006040518083038186803b158015612eb457600080fd5b505af4158015612ec8573d6000803e3d6000fd5b50505050601a60050173__AddressOrderedMap_____________________63abc7dfcc90916040518263ffffffff1660e01b8152600401612f099190614766565b60006040518083038186803b158015612f2157600080fd5b505af4158015612f35573d6000803e3d6000fd5b50505050601a600a0173__AddressOrderedMap_____________________63abc7dfcc90916040518263ffffffff1660e01b8152600401612f769190614766565b60006040518083038186803b158015612f8e57600080fd5b505af4158015612fa2573d6000803e3d6000fd5b50505050565b6000600160000160008373ffffffffffffffffffffffffffffffffffffffff1673ffffffffffffffffffffffffffffffffffffffff168152602001908152602001600020600a015414613030576040517f08c379a000000000000000000000000000000000000000000000000000000000815260040161302790614a96565b60405180910390fd5b50565b60008214806130425750818310155b613081576040517f08c379a000000000000000000000000000000000000000000000000000000000815260040161307890614998565b60405180910390fd5b60008114806130905750808311155b6130cf576040517f08c379a00000000000000000000000000000000000000000000000000000000081526004016130c690614a04565b60405180910390fd5b505050565b601560010173__AddressLinkedList_____________________63c40b47ad9091836040518363ffffffff1660e01b815260040161311392919061440d565b602060405180830381865af4158015613130573d6000803e3d6000fd5b505050506040513d601f19601f820116820180604052508101906131549190614acb565b613193576040517f08c379a000000000000000000000000000000000000000000000000000000000815260040161318a90614b44565b60405180910390fd5b50565b6040518061018001604052806060815260200160608152602001606081526020016060815260200160008152602001600081526020016000815260200160008152602001600081526020016000815260200160008152602001600081525090565b604051806101400160405280600a905b61320f613253565b8152602001906001900390816132075790505090565b604051806101400160405280600a905b61323d613366565b8152602001906001900390816132355790505090565b604051806102000160405280600073ffffffffffffffffffffffffffffffffffffffff168152602001600073ffffffffffffffffffffffffffffffffffffffff168152602001600073ffffffffffffffffffffffffffffffffffffffff168152602001600015158152602001606081526020016060815260200160608152602001606081526020016132e361339d565b8152602001600081526020016000815260200160008152602001600081526020016000815260200160008152602001600081525090565b8260038101928215613355579160200282015b828111156133545782518290816133449190614325565b509160200191906001019061332d565b5b50905061336291906133c4565b5090565b6040518060600160405280600073ffffffffffffffffffffffffffffffffffffffff16815260200160608152602001600081525090565b60405180606001604052806003905b60608152602001906001900390816133ac5790505090565b5b808211156133e457600081816133db91906133e8565b506001016133c5565b5090565b5080546133f490614148565b6000825580601f106134065750613425565b601f0160209004906000526020600020908101906134249190613428565b5b50565b5b80821115613441576000816000905550600101613429565b5090565b6000604051905090565b600080fd5b600080fd5b600080fd5b600080fd5b6000601f19601f8301169050919050565b7f4e487b7100000000000000000000000000000000000000000000000000000000600052604160045260246000fd5b6134ac82613463565b810181811067ffffffffffffffff821117156134cb576134ca613474565b5b80604052505050565b60006134de613445565b90506134ea82826134a3565b919050565b600067ffffffffffffffff82111561350a57613509613474565b5b61351382613463565b9050602081019050919050565b82818337600083830152505050565b600061354261353d846134ef565b6134d4565b90508281526020810184848401111561355e5761355d61345e565b5b613569848285613520565b509392505050565b600082601f83011261358657613585613459565b5b813561359684826020860161352f565b91505092915050565b6000602082840312156135b5576135b461344f565b5b600082013567ffffffffffffffff8111156135d3576135d2613454565b5b6135df84828501613571565b91505092915050565b600073ffffffffffffffffffffffffffffffffffffffff82169050919050565b6000613613826135e8565b9050919050565b61362381613608565b811461362e57600080fd5b50565b6000813590506136408161361a565b92915050565b60006020828403121561365c5761365b61344f565b5b600061366a84828501613631565b91505092915050565b600081519050919050565b600082825260208201905092915050565b60005b838110156136ad578082015181840152602081019050613692565b60008484015250505050565b60006136c482613673565b6136ce818561367e565b93506136de81856020860161368f565b6136e781613463565b840191505092915050565b6000819050919050565b613705816136f2565b82525050565b600061018083016000830151848203600086015261372982826136b9565b9150506020830151848203602086015261374382826136b9565b9150506040830151848203604086015261375d82826136b9565b9150506060830151848203606086015261377782826136b9565b915050608083015161378c60808601826136fc565b5060a083015161379f60a08601826136fc565b5060c08301516137b260c08601826136fc565b5060e08301516137c560e08601826136fc565b506101008301516137da6101008601826136fc565b506101208301516137ef6101208601826136fc565b506101408301516138046101408601826136fc565b506101608301516138196101608601826136fc565b508091505092915050565b6000602082019050818103600083015261383e818461370b565b905092915050565b60008115159050919050565b61385b81613846565b82525050565b60006020820190506138766000830184613852565b92915050565b61388581613846565b811461389057600080fd5b50565b6000813590506138a28161387c565b92915050565b600080604083850312156138bf576138be61344f565b5b60006138cd85828601613631565b92505060206138de85828601613893565b9150509250929050565b6000600a9050919050565b600081905092915050565b6000819050919050565b61391181613608565b82525050565b61392081613846565b82525050565b600060039050919050565b600081905092915050565b6000819050919050565b600061395283836136b9565b905092915050565b6000602082019050919050565b600061397282613926565b61397c8185613931565b93508360208202850161398e8561393c565b8060005b858110156139ca57848403895281516139ab8582613946565b94506139b68361395a565b925060208a01995050600181019050613992565b50829750879550505050505092915050565b6000610200830160008301516139f56000860182613908565b506020830151613a086020860182613908565b506040830151613a1b6040860182613908565b506060830151613a2e6060860182613917565b5060808301518482036080860152613a4682826136b9565b91505060a083015184820360a0860152613a6082826136b9565b91505060c083015184820360c0860152613a7a82826136b9565b91505060e083015184820360e0860152613a9482826136b9565b915050610100830151848203610100860152613ab08282613967565b915050610120830151613ac76101208601826136fc565b50610140830151613adc6101408601826136fc565b50610160830151613af16101608601826136fc565b50610180830151613b066101808601826136fc565b506101a0830151613b1b6101a08601826136fc565b506101c0830151613b306101c08601826136fc565b506101e0830151613b456101e08601826136fc565b508091505092915050565b6000613b5c83836139dc565b905092915050565b6000602082019050919050565b6000613b7c826138e8565b613b8681856138f3565b935083602082028501613b98856138fe565b8060005b85811015613bd45784840389528151613bb58582613b50565b9450613bc083613b64565b925060208a01995050600181019050613b9c565b50829750879550505050505092915050565b613bef81613608565b82525050565b60006040820190508181036000830152613c0f8185613b71565b9050613c1e6020830184613be6565b9392505050565b6000600a9050919050565b600081905092915050565b6000819050919050565b6000606083016000830151613c5d6000860182613908565b5060208301518482036020860152613c7582826136b9565b9150506040830151613c8a60408601826136fc565b508091505092915050565b6000613ca18383613c45565b905092915050565b6000602082019050919050565b6000613cc182613c25565b613ccb8185613c30565b935083602082028501613cdd85613c3b565b8060005b85811015613d195784840389528151613cfa8582613c95565b9450613d0583613ca9565b925060208a01995050600181019050613ce1565b50829750879550505050505092915050565b60006040820190508181036000830152613d458185613cb6565b9050613d546020830184613be6565b9392505050565b613d64816136f2565b8114613d6f57600080fd5b50565b600081359050613d8181613d5b565b92915050565b60008060008060808587031215613da157613da061344f565b5b6000613daf87828801613631565b9450506020613dc087828801613631565b9350506040613dd187828801613d72565b9250506060613de287828801613893565b91505092959194509250565b60006060820190508181036000830152613e088186613b71565b9050613e176020830185613be6565b613e246040830184613852565b949350505050565b600067ffffffffffffffff821115613e4757613e46613474565b5b602082029050919050565b600080fd5b6000613e6a613e6584613e2c565b6134d4565b90508060208402830185811115613e8457613e83613e52565b5b835b81811015613ecb57803567ffffffffffffffff811115613ea957613ea8613459565b5b808601613eb68982613571565b85526020850194505050602081019050613e86565b5050509392505050565b600082601f830112613eea57613ee9613459565b5b6003613ef7848285613e57565b91505092915050565b600080600080600080600060e0888a031215613f1f57613f1e61344f565b5b600088013567ffffffffffffffff811115613f3d57613f3c613454565b5b613f498a828b01613571565b975050602088013567ffffffffffffffff811115613f6a57613f69613454565b5b613f768a828b01613571565b965050604088013567ffffffffffffffff811115613f9757613f96613454565b5b613fa38a828b01613571565b955050606088013567ffffffffffffffff811115613fc457613fc3613454565b5b613fd08a828b01613571565b9450506080613fe18a828b01613631565b93505060a088013567ffffffffffffffff81111561400257614001613454565b5b61400e8a828b01613ed5565b92505060c061401f8a828b01613d72565b91505092959891949750929550565b60006020820190506140436000830184613be6565b92915050565b600082825260208201905092915050565b7f41646d696e436f6e74726163743e5f6f6e6c7941646d696e5f00000000000000600082015250565b6000614090601983614049565b915061409b8261405a565b602082019050919050565b600060208201905081810360008301526140bf81614083565b9050919050565b600081905092915050565b60006140dc82613673565b6140e681856140c6565b93506140f681856020860161368f565b80840191505092915050565b600061410e82846140d1565b915081905092915050565b7f4e487b7100000000000000000000000000000000000000000000000000000000600052602260045260246000fd5b6000600282049050600182168061416057607f821691505b60208210810361417357614172614119565b5b50919050565b60008190508160005260206000209050919050565b60006020601f8301049050919050565b600082821b905092915050565b6000600883026141db7fffffffffffffffffffffffffffffffffffffffffffffffffffffffffffffffff8261419e565b6141e5868361419e565b95508019841693508086168417925050509392505050565b6000819050919050565b600061422261421d614218846136f2565b6141fd565b6136f2565b9050919050565b6000819050919050565b61423c83614207565b61425061424882614229565b8484546141ab565b825550505050565b600090565b614265614258565b614270818484614233565b505050565b5b818110156142945761428960008261425d565b600181019050614276565b5050565b601f8211156142d9576142aa81614179565b6142b38461418e565b810160208510156142c2578190505b6142d66142ce8561418e565b830182614275565b50505b505050565b600082821c905092915050565b60006142fc600019846008026142de565b1980831691505092915050565b600061431583836142eb565b9150826002028217905092915050565b61432e82613673565b67ffffffffffffffff81111561434757614346613474565b5b6143518254614148565b61435c828285614298565b600060209050601f83116001811461438f576000841561437d578287015190505b6143878582614309565b8655506143ef565b601f19841661439d86614179565b60005b828110156143c5578489015182556001820191506020850194506020810190506143a0565b868310156143e257848901516143de601f8916826142eb565b8355505b6001600288020188555050505b505050505050565b8082525050565b61440781613608565b82525050565b600060408201905061442260008301856143f7565b61442f60208301846143fe565b9392505050565b7f41646d696e436f6e74726163743e7472616e7366657241646d696e0000000000600082015250565b600061446c601b83614049565b915061447782614436565b602082019050919050565b6000602082019050818103600083015261449b8161445f565b9050919050565b6144ab81613846565b82525050565b60006060820190506144c660008301866143f7565b6144d360208301856143fe565b6144e060408301846144a2565b949350505050565b600067ffffffffffffffff82111561450357614502613474565b5b602082029050919050565b60008151905061451d8161361a565b92915050565b6000614536614531846144e8565b6134d4565b905080602084028301858111156145505761454f613e52565b5b835b818110156145795780614565888261450e565b845260208401935050602081019050614552565b5050509392505050565b600082601f83011261459857614597613459565b5b600a6145a5848285614523565b91505092915050565b600061014082840312156145c5576145c461344f565b5b60006145d384828501614583565b91505092915050565b7f4e487b7100000000000000000000000000000000000000000000000000000000600052603260045260246000fd5b7f4e487b7100000000000000000000000000000000000000000000000000000000600052601160045260246000fd5b6000614645826136f2565b91507fffffffffffffffffffffffffffffffffffffffffffffffffffffffffffffffff82036146775761467661460b565b5b600182019050919050565b7f696e697469616c697a6564000000000000000000000000000000000000000000600082015250565b60006146b8600b83614049565b91506146c382614682565b602082019050919050565b600060208201905081810360008301526146e7816146ab565b9050919050565b8082525050565b600060408201905061470a60008301856146ee565b61471760208301846143fe565b9392505050565b6000602082840312156147345761473361344f565b5b60006147428482850161450e565b91505092915050565b600060208201905061476060008301846143f7565b92915050565b600060208201905061477b60008301846146ee565b92915050565b61478a81613608565b82525050565b614799816136f2565b82525050565b6040820160008201516147b56000850182614781565b5060208201516147c86020850182614790565b50505050565b60006060820190506147e360008301856146ee565b6147f0602083018461479f565b9392505050565b60008160601b9050919050565b600061480f826147f7565b9050919050565b600061482182614804565b9050919050565b61483961483482613608565b614816565b82525050565b600061484b8284614828565b60148201915081905092915050565b7f45303a20557365722e736f6c3e55736572436f6e74726163743e5f726567697360008201527f74657265645f0000000000000000000000000000000000000000000000000000602082015250565b60006148b6602683614049565b91506148c18261485a565b604082019050919050565b600060208201905081810360008301526148e5816148a9565b9050919050565b7f4e487b7100000000000000000000000000000000000000000000000000000000600052601260045260246000fd5b6000614926826136f2565b9150614931836136f2565b925082614941576149406148ec565b5b828204905092915050565b7f42617365436f6e746163743e5f72616e67655f3e310000000000000000000000600082015250565b6000614982601583614049565b915061498d8261494c565b602082019050919050565b600060208201905081810360008301526149b181614975565b9050919050565b7f42617365436f6e746163743e5f72616e67655f3e320000000000000000000000600082015250565b60006149ee601583614049565b91506149f9826149b8565b602082019050919050565b60006020820190508181036000830152614a1d816149e1565b9050919050565b7f45313a20557365722e736f6c3e55736572436f6e74726163743e5f6e6f74526560008201527f67697374657265645f0000000000000000000000000000000000000000000000602082015250565b6000614a80602983614049565b9150614a8b82614a24565b604082019050919050565b60006020820190508181036000830152614aaf81614a73565b9050919050565b600081519050614ac58161387c565b92915050565b600060208284031215614ae157614ae061344f565b5b6000614aef84828501614ab6565b91505092915050565b7f42617365436f6e746163743e5f76616c696443617465676f72795f0000000000600082015250565b6000614b2e601b83614049565b9150614b3982614af8565b602082019050919050565b60006020820190508181036000830152614b5d81614b21565b905091905056fea26469706673582212200834baf9c1a57db0e94c2a9403c70adf89ecac80434138828c6dc40ccb7f2a1964736f6c63430008110033",
  "immutableReferences": {},
  "source": "// SPDX-License-Identifier: GPL-3.0\r\npragma solidity ^0.8.17;\r\n\r\nimport \"./implementations/base/Base.sol\";\r\nimport \"./implementations/File.sol\";\r\nimport \"./implementations/Reward.sol\";\r\nimport \"./implementations/User.sol\";\r\n\r\ninterface ImplementationInterface is AdminInterface, UserInterface, FileInterface, RewardInterface {\r\n    function init() external;\r\n}\r\n\r\ncontract ImplementationContact is UserContract, FileContact, RewardContact {\r\n    function init()\r\n    public {\r\n        require(admin != address(0), \"initialized\");\r\n        admin = msg.sender;\r\n        UserContract_init();\r\n        FileContact_init();\r\n    }\r\n}\r\n\r\ncontract OurShare is AdminContract {\r\n    bytes32 private constant implementation_position = keccak256(\"OurShare\");\r\n\r\n    constructor(){\r\n        admin = msg.sender;\r\n    }\r\n\r\n    function getImplementation() public view returns (address implementation) {\r\n        bytes32 position = implementation_position;\r\n        assembly {\r\n            implementation := sload(position)\r\n        }\r\n    }\r\n\r\n    function setImplementation(address implementation) public _onlyAdmin_ {\r\n        bytes32 position = implementation_position;\r\n        assembly {\r\n            sstore(position, implementation)\r\n        }\r\n    }\r\n\r\n    function _delegate(address implementation) internal {\r\n        assembly {\r\n            calldatacopy(0, 0, calldatasize())\r\n            let result := delegatecall(gas(), implementation, 0, calldatasize(), 0, 0)\r\n            returndatacopy(0, 0, returndatasize())\r\n            switch result\r\n            case 0 {\r\n                revert(0, returndatasize())\r\n            }\r\n            default {\r\n                return (0, returndatasize())\r\n            }\r\n        }\r\n    }\r\n\r\n    fallback() external payable {\r\n        _delegate(getImplementation());\r\n    }\r\n\r\n    receive() external payable {\r\n        _delegate(getImplementation());\r\n    }\r\n}\r\n",
  "sourcePath": "F:\\OurChain\\OurShare\\src\\assets\\eth\\contracts\\OurShare.sol",
  "compiler": {
    "name": "solc",
    "version": "0.8.17+commit.8df45f5f.Emscripten.clang"
  },
  "schemaVersion": "3.4.13",
  "updatedAt": "2023-05-21T08:45:10.453Z",
  "networkType": "ethereum",
  "devdoc": {
    "kind": "dev",
    "methods": {},
    "version": 1
  },
  "userdoc": {
    "kind": "user",
    "methods": {},
    "version": 1
  }
}