{
  "contractName": "ImplementationContact",
  "abi": [
    {
      "anonymous": false,
      "inputs": [
        {
          "indexed": true,
          "internalType": "address",
          "name": "old_admin",
          "type": "address"
        },
        {
          "indexed": true,
          "internalType": "address",
          "name": "new_admin",
          "type": "address"
        }
      ],
      "name": "AdminTransferred",
      "type": "event"
    },
    {
      "inputs": [],
      "name": "RewardContract_init",
      "outputs": [],
      "stateMutability": "nonpayable",
      "type": "function"
    },
    {
      "inputs": [
        {
          "internalType": "string",
          "name": "name",
          "type": "string"
        }
      ],
      "name": "addCategory",
      "outputs": [],
      "stateMutability": "nonpayable",
      "type": "function"
    },
    {
      "inputs": [
        {
          "internalType": "address",
          "name": "file_address",
          "type": "address"
        },
        {
          "internalType": "string",
          "name": "content",
          "type": "string"
        },
        {
          "internalType": "string[3]",
          "name": "images",
          "type": "string[3]"
        }
      ],
      "name": "addComment",
      "outputs": [],
      "stateMutability": "nonpayable",
      "type": "function"
    },
    {
      "inputs": [
        {
          "internalType": "address",
          "name": "file_address",
          "type": "address"
        },
        {
          "internalType": "address",
          "name": "target_address",
          "type": "address"
        },
        {
          "internalType": "address",
          "name": "comment_address",
          "type": "address"
        },
        {
          "internalType": "string",
          "name": "content",
          "type": "string"
        }
      ],
      "name": "addSubComment",
      "outputs": [],
      "stateMutability": "nonpayable",
      "type": "function"
    },
    {
      "inputs": [],
      "name": "admin",
      "outputs": [
        {
          "internalType": "address",
          "name": "",
          "type": "address"
        }
      ],
      "stateMutability": "view",
      "type": "function",
      "constant": true
    },
    {
      "inputs": [
        {
          "internalType": "address",
          "name": "cursor",
          "type": "address"
        }
      ],
      "name": "getCategorySlice",
      "outputs": [
        {
          "components": [
            {
              "internalType": "address",
              "name": "category_address",
              "type": "address"
            },
            {
              "internalType": "string",
              "name": "name",
              "type": "string"
            },
            {
              "internalType": "uint256",
              "name": "num",
              "type": "uint256"
            }
          ],
          "internalType": "struct Types.Category[10]",
          "name": "category_slice",
          "type": "tuple[10]"
        },
        {
          "internalType": "address",
          "name": "next",
          "type": "address"
        },
        {
          "internalType": "bool",
          "name": "finished",
          "type": "bool"
        }
      ],
      "stateMutability": "view",
      "type": "function",
      "constant": true
    },
    {
      "inputs": [
        {
          "internalType": "address",
          "name": "cursor",
          "type": "address"
        },
        {
          "internalType": "address",
          "name": "category_address",
          "type": "address"
        },
        {
          "internalType": "uint256",
          "name": "order",
          "type": "uint256"
        },
        {
          "internalType": "bool",
          "name": "reverse",
          "type": "bool"
        }
      ],
      "name": "getFileBriefInfos",
      "outputs": [
        {
          "components": [
            {
              "internalType": "address",
              "name": "file_address",
              "type": "address"
            },
            {
              "internalType": "address",
              "name": "category_address",
              "type": "address"
            },
            {
              "internalType": "bool",
              "name": "is_buy",
              "type": "bool"
            },
            {
              "internalType": "string",
              "name": "name",
              "type": "string"
            },
            {
              "internalType": "string",
              "name": "title",
              "type": "string"
            },
            {
              "internalType": "string",
              "name": "owner",
              "type": "string"
            },
            {
              "internalType": "string",
              "name": "description",
              "type": "string"
            },
            {
              "internalType": "string",
              "name": "cover",
              "type": "string"
            },
            {
              "internalType": "uint256",
              "name": "price",
              "type": "uint256"
            },
            {
              "internalType": "uint256",
              "name": "up_num",
              "type": "uint256"
            },
            {
              "internalType": "uint256",
              "name": "down_num",
              "type": "uint256"
            },
            {
              "internalType": "uint256",
              "name": "buyer_num",
              "type": "uint256"
            },
            {
              "internalType": "uint256",
              "name": "comment_num",
              "type": "uint256"
            },
            {
              "internalType": "uint256",
              "name": "up_and_down",
              "type": "uint256"
            },
            {
              "internalType": "uint256",
              "name": "upload_timestamp",
              "type": "uint256"
            }
          ],
          "internalType": "struct Types.FileBriefInfo[10]",
          "name": "file_infos",
          "type": "tuple[10]"
        },
        {
          "internalType": "address",
          "name": "next",
          "type": "address"
        },
        {
          "internalType": "bool",
          "name": "finished",
          "type": "bool"
        }
      ],
      "stateMutability": "view",
      "type": "function",
      "constant": true
    },
    {
      "inputs": [
        {
          "internalType": "address",
          "name": "file_address",
          "type": "address"
        }
      ],
      "name": "getFileDetailInfo",
      "outputs": [
        {
          "components": [
            {
              "internalType": "address",
              "name": "owner",
              "type": "address"
            },
            {
              "internalType": "address",
              "name": "file_address",
              "type": "address"
            },
            {
              "internalType": "address",
              "name": "category_address",
              "type": "address"
            },
            {
              "internalType": "bool",
              "name": "is_buy",
              "type": "bool"
            },
            {
              "internalType": "string",
              "name": "name",
              "type": "string"
            },
            {
              "internalType": "string",
              "name": "title",
              "type": "string"
            },
            {
              "internalType": "string",
              "name": "description",
              "type": "string"
            },
            {
              "internalType": "string",
              "name": "ipfs_address",
              "type": "string"
            },
            {
              "internalType": "string[3]",
              "name": "images",
              "type": "string[3]"
            },
            {
              "internalType": "uint256",
              "name": "price",
              "type": "uint256"
            },
            {
              "internalType": "uint256",
              "name": "up_num",
              "type": "uint256"
            },
            {
              "internalType": "uint256",
              "name": "down_num",
              "type": "uint256"
            },
            {
              "internalType": "uint256",
              "name": "buyer_num",
              "type": "uint256"
            },
            {
              "internalType": "uint256",
              "name": "comment_num",
              "type": "uint256"
            },
            {
              "internalType": "uint256",
              "name": "up_and_down",
              "type": "uint256"
            },
            {
              "internalType": "uint256",
              "name": "upload_timestamp",
              "type": "uint256"
            }
          ],
          "internalType": "struct Types.FileDetailInfo",
          "name": "detail_info",
          "type": "tuple"
        }
      ],
      "stateMutability": "view",
      "type": "function",
      "constant": true
    },
    {
      "inputs": [
        {
          "internalType": "address",
          "name": "user_address",
          "type": "address"
        }
      ],
      "name": "getOtherSimpleInfo",
      "outputs": [
        {
          "components": [
            {
              "internalType": "string",
              "name": "major",
              "type": "string"
            },
            {
              "internalType": "string",
              "name": "avatar",
              "type": "string"
            },
            {
              "internalType": "string",
              "name": "nickname",
              "type": "string"
            },
            {
              "internalType": "string",
              "name": "signature",
              "type": "string"
            },
            {
              "internalType": "uint256",
              "name": "heart",
              "type": "uint256"
            },
            {
              "internalType": "uint256",
              "name": "medal_num",
              "type": "uint256"
            },
            {
              "internalType": "uint256",
              "name": "experience",
              "type": "uint256"
            },
            {
              "internalType": "uint256",
              "name": "follower_num",
              "type": "uint256"
            },
            {
              "internalType": "uint256",
              "name": "uploaded_file_num",
              "type": "uint256"
            }
          ],
          "internalType": "struct Types.UserSimpleInfo",
          "name": "simple_info",
          "type": "tuple"
        }
      ],
      "stateMutability": "view",
      "type": "function",
      "constant": true
    },
    {
      "inputs": [
        {
          "internalType": "address",
          "name": "file_address",
          "type": "address"
        },
        {
          "internalType": "address",
          "name": "cursor",
          "type": "address"
        },
        {
          "internalType": "uint256",
          "name": "order",
          "type": "uint256"
        },
        {
          "internalType": "bool",
          "name": "reverse",
          "type": "bool"
        }
      ],
      "name": "getRootComments",
      "outputs": [
        {
          "components": [
            {
              "internalType": "address",
              "name": "comment_address",
              "type": "address"
            },
            {
              "components": [
                {
                  "internalType": "address",
                  "name": "target_address",
                  "type": "address"
                },
                {
                  "internalType": "address",
                  "name": "comment_address",
                  "type": "address"
                },
                {
                  "internalType": "address",
                  "name": "sub_comment_address",
                  "type": "address"
                },
                {
                  "internalType": "string",
                  "name": "content",
                  "type": "string"
                },
                {
                  "components": [
                    {
                      "internalType": "address",
                      "name": "user_address",
                      "type": "address"
                    },
                    {
                      "internalType": "string",
                      "name": "avatar",
                      "type": "string"
                    },
                    {
                      "internalType": "string",
                      "name": "nickname",
                      "type": "string"
                    },
                    {
                      "internalType": "uint256",
                      "name": "experience",
                      "type": "uint256"
                    }
                  ],
                  "internalType": "struct Types.UserBriefInfo",
                  "name": "author",
                  "type": "tuple"
                },
                {
                  "components": [
                    {
                      "internalType": "address",
                      "name": "user_address",
                      "type": "address"
                    },
                    {
                      "internalType": "string",
                      "name": "avatar",
                      "type": "string"
                    },
                    {
                      "internalType": "string",
                      "name": "nickname",
                      "type": "string"
                    },
                    {
                      "internalType": "uint256",
                      "name": "experience",
                      "type": "uint256"
                    }
                  ],
                  "internalType": "struct Types.UserBriefInfo",
                  "name": "target_author",
                  "type": "tuple"
                },
                {
                  "internalType": "uint256",
                  "name": "up_num",
                  "type": "uint256"
                },
                {
                  "internalType": "uint256",
                  "name": "down_num",
                  "type": "uint256"
                },
                {
                  "internalType": "uint256",
                  "name": "up_and_down",
                  "type": "uint256"
                },
                {
                  "internalType": "uint256",
                  "name": "comment_timestamp",
                  "type": "uint256"
                }
              ],
              "internalType": "struct Types.FileChildrenComment[2]",
              "name": "children_comments",
              "type": "tuple[2]"
            },
            {
              "internalType": "string",
              "name": "content",
              "type": "string"
            },
            {
              "internalType": "string[3]",
              "name": "images",
              "type": "string[3]"
            },
            {
              "components": [
                {
                  "internalType": "address",
                  "name": "user_address",
                  "type": "address"
                },
                {
                  "internalType": "string",
                  "name": "avatar",
                  "type": "string"
                },
                {
                  "internalType": "string",
                  "name": "nickname",
                  "type": "string"
                },
                {
                  "internalType": "uint256",
                  "name": "experience",
                  "type": "uint256"
                }
              ],
              "internalType": "struct Types.UserBriefInfo",
              "name": "author",
              "type": "tuple"
            },
            {
              "internalType": "uint256",
              "name": "up_num",
              "type": "uint256"
            },
            {
              "internalType": "uint256",
              "name": "down_num",
              "type": "uint256"
            },
            {
              "internalType": "uint256",
              "name": "up_and_down",
              "type": "uint256"
            },
            {
              "internalType": "uint256",
              "name": "comment_num",
              "type": "uint256"
            },
            {
              "internalType": "uint256",
              "name": "comment_timestamp",
              "type": "uint256"
            }
          ],
          "internalType": "struct Types.FileRootComment[10]",
          "name": "root_comments",
          "type": "tuple[10]"
        },
        {
          "internalType": "address",
          "name": "next",
          "type": "address"
        },
        {
          "internalType": "bool",
          "name": "finished",
          "type": "bool"
        }
      ],
      "stateMutability": "view",
      "type": "function",
      "constant": true
    },
    {
      "inputs": [
        {
          "internalType": "address",
          "name": "cursor",
          "type": "address"
        },
        {
          "internalType": "bool",
          "name": "reverse",
          "type": "bool"
        }
      ],
      "name": "getSelfFileBriefInfos",
      "outputs": [
        {
          "components": [
            {
              "internalType": "address",
              "name": "file_address",
              "type": "address"
            },
            {
              "internalType": "address",
              "name": "category_address",
              "type": "address"
            },
            {
              "internalType": "bool",
              "name": "is_buy",
              "type": "bool"
            },
            {
              "internalType": "string",
              "name": "name",
              "type": "string"
            },
            {
              "internalType": "string",
              "name": "title",
              "type": "string"
            },
            {
              "internalType": "string",
              "name": "owner",
              "type": "string"
            },
            {
              "internalType": "string",
              "name": "description",
              "type": "string"
            },
            {
              "internalType": "string",
              "name": "cover",
              "type": "string"
            },
            {
              "internalType": "uint256",
              "name": "price",
              "type": "uint256"
            },
            {
              "internalType": "uint256",
              "name": "up_num",
              "type": "uint256"
            },
            {
              "internalType": "uint256",
              "name": "down_num",
              "type": "uint256"
            },
            {
              "internalType": "uint256",
              "name": "buyer_num",
              "type": "uint256"
            },
            {
              "internalType": "uint256",
              "name": "comment_num",
              "type": "uint256"
            },
            {
              "internalType": "uint256",
              "name": "up_and_down",
              "type": "uint256"
            },
            {
              "internalType": "uint256",
              "name": "upload_timestamp",
              "type": "uint256"
            }
          ],
          "internalType": "struct Types.FileBriefInfo[10]",
          "name": "file_infos",
          "type": "tuple[10]"
        },
        {
          "internalType": "address",
          "name": "next",
          "type": "address"
        },
        {
          "internalType": "bool",
          "name": "finished",
          "type": "bool"
        }
      ],
      "stateMutability": "view",
      "type": "function",
      "constant": true
    },
    {
      "inputs": [],
      "name": "getSelfInfo",
      "outputs": [
        {
          "components": [
            {
              "internalType": "string",
              "name": "major",
              "type": "string"
            },
            {
              "internalType": "string",
              "name": "avatar",
              "type": "string"
            },
            {
              "internalType": "string",
              "name": "nickname",
              "type": "string"
            },
            {
              "internalType": "string",
              "name": "signature",
              "type": "string"
            },
            {
              "internalType": "uint256",
              "name": "ID",
              "type": "uint256"
            },
            {
              "internalType": "uint256",
              "name": "coins",
              "type": "uint256"
            },
            {
              "internalType": "uint256",
              "name": "heart",
              "type": "uint256"
            },
            {
              "internalType": "uint256",
              "name": "experience",
              "type": "uint256"
            },
            {
              "internalType": "uint256",
              "name": "follower_num",
              "type": "uint256"
            },
            {
              "internalType": "uint256",
              "name": "following_num",
              "type": "uint256"
            },
            {
              "internalType": "uint256",
              "name": "login_timestamp",
              "type": "uint256"
            },
            {
              "internalType": "uint256",
              "name": "uploaded_file_num",
              "type": "uint256"
            }
          ],
          "internalType": "struct Types.UserSelfInfo",
          "name": "self_info",
          "type": "tuple"
        }
      ],
      "stateMutability": "view",
      "type": "function",
      "constant": true
    },
    {
      "inputs": [
        {
          "internalType": "address",
          "name": "user_address",
          "type": "address"
        }
      ],
      "name": "isRegistered",
      "outputs": [
        {
          "internalType": "bool",
          "name": "is_registered",
          "type": "bool"
        }
      ],
      "stateMutability": "view",
      "type": "function",
      "constant": true
    },
    {
      "inputs": [
        {
          "internalType": "string",
          "name": "nickname",
          "type": "string"
        }
      ],
      "name": "register",
      "outputs": [],
      "stateMutability": "nonpayable",
      "type": "function"
    },
    {
      "inputs": [],
      "name": "renounceAdmin",
      "outputs": [],
      "stateMutability": "nonpayable",
      "type": "function"
    },
    {
      "inputs": [
        {
          "internalType": "address",
          "name": "new_admin",
          "type": "address"
        }
      ],
      "name": "transferAdmin",
      "outputs": [],
      "stateMutability": "nonpayable",
      "type": "function"
    },
    {
      "inputs": [
        {
          "internalType": "address",
          "name": "file_address",
          "type": "address"
        },
        {
          "internalType": "bool",
          "name": "is_up",
          "type": "bool"
        }
      ],
      "name": "upAndDownFile",
      "outputs": [],
      "stateMutability": "nonpayable",
      "type": "function"
    },
    {
      "inputs": [
        {
          "internalType": "address",
          "name": "file_address",
          "type": "address"
        },
        {
          "internalType": "address",
          "name": "comment_address",
          "type": "address"
        },
        {
          "internalType": "bool",
          "name": "is_up",
          "type": "bool"
        }
      ],
      "name": "upAndDownFileComment",
      "outputs": [],
      "stateMutability": "nonpayable",
      "type": "function"
    },
    {
      "inputs": [
        {
          "internalType": "string",
          "name": "avatar",
          "type": "string"
        }
      ],
      "name": "updateAvatar",
      "outputs": [],
      "stateMutability": "nonpayable",
      "type": "function"
    },
    {
      "inputs": [
        {
          "internalType": "string",
          "name": "nickname",
          "type": "string"
        }
      ],
      "name": "updateNickname",
      "outputs": [],
      "stateMutability": "nonpayable",
      "type": "function"
    },
    {
      "inputs": [
        {
          "internalType": "string",
          "name": "signature",
          "type": "string"
        }
      ],
      "name": "updateSignature",
      "outputs": [],
      "stateMutability": "nonpayable",
      "type": "function"
    },
    {
      "inputs": [
        {
          "internalType": "string",
          "name": "ipfs_address",
          "type": "string"
        },
        {
          "internalType": "string",
          "name": "name",
          "type": "string"
        },
        {
          "internalType": "string",
          "name": "title",
          "type": "string"
        },
        {
          "internalType": "string",
          "name": "description",
          "type": "string"
        },
        {
          "internalType": "address",
          "name": "category_address",
          "type": "address"
        },
        {
          "internalType": "string[3]",
          "name": "images",
          "type": "string[3]"
        },
        {
          "internalType": "uint256",
          "name": "price",
          "type": "uint256"
        }
      ],
      "name": "uploadFile",
      "outputs": [
        {
          "internalType": "address",
          "name": "file_address",
          "type": "address"
        }
      ],
      "stateMutability": "nonpayable",
      "type": "function"
    },
    {
      "inputs": [],
      "name": "init",
      "outputs": [],
      "stateMutability": "nonpayable",
      "type": "function"
    }
  ],
  "bytecode": "0x608060405234801561001057600080fd5b50614deb806100206000396000f3fe608060405234801561001057600080fd5b506004361061014d5760003560e01c8063a389559f116100c3578063db12e0411161007c578063db12e041146103b2578063e1c7392a146103bc578063f2c298be146103c6578063f2e9c783146103e2578063f33e2a8c14610412578063f851a4401461042e5761014d565b8063a389559f146102cc578063bd2e3b17146102e8578063c3c5a54714610304578063c8ef7dd614610334578063cfbd1e7214610364578063cffa6442146103805761014d565b806379ed53601161011557806379ed53601461021e5780637e8e7733146102505780638bad0c0a1461026e5780639b1ffc2b146102785780639d5dfe41146102945780639fe958b9146102b05761014d565b806320c16dd51461015257806324c432e2146101845780632e0dcbf7146101b65780636020c004146101d257806375829def14610202575b600080fd5b61016c60048036038101906101679190611e84565b61044c565b60405161017b939291906121db565b60405180910390f35b61019e60048036038101906101999190612219565b6104f8565b6040516101ad939291906121db565b60405180910390f35b6101d060048036038101906101cb919061238e565b61059d565b005b6101ec60048036038101906101e791906123d7565b61069a565b6040516101f991906124de565b60405180910390f35b61021c600480360381019061021791906123d7565b61072b565b005b61023860048036038101906102339190611e84565b610834565b60405161024793929190612963565b60405180910390f35b6102586108e0565b6040516102659190612aba565b60405180910390f35b61027661096d565b005b610292600480360381019061028d9190612bb0565b610a07565b005b6102ae60048036038101906102a99190612219565b610a7c565b005b6102ca60048036038101906102c5919061238e565b610aee565b005b6102e660048036038101906102e1919061238e565b610c19565b005b61030260048036038101906102fd919061238e565b610d44565b005b61031e600480360381019061031991906123d7565b610e6f565b60405161032b9190612c3b565b60405180910390f35b61034e600480360381019061034991906123d7565b610ef5565b60405161035b9190612dca565b60405180910390f35b61037e60048036038101906103799190612dec565b610f86565b005b61039a600480360381019061039591906123d7565b610ffe565b6040516103a993929190612f75565b60405180910390f35b6103ba61109e565b005b6103c46110a0565b005b6103e060048036038101906103db919061238e565b611189565b005b6103fc60048036038101906103f79190612fb3565b6112b5565b60405161040991906130e1565b60405180910390f35b61042c600480360381019061042791906130fc565b611527565b005b61043661159c565b60405161044391906130e1565b60405180910390f35b61045461191d565b600080601573__FileLib_______________________________6372cfd1be90918989898960016040518763ffffffff1660e01b815260040161049c9695949392919061318a565b600060405180830381865af41580156104b9573d6000803e3d6000fd5b505050506040513d6000823e3d601f19601f820116820180604052508101906104e29190613563565b8093508194508295505050509450945094915050565b61050061191d565b600080601573__FileLib_______________________________632b5d580c9091878760016040518563ffffffff1660e01b815260040161054494939291906135d2565b600060405180830381865af4158015610561573d6000803e3d6000fd5b505050506040513d6000823e3d601f19601f8201168201806040525081019061058a9190613563565b8093508194508295505050509250925092565b3373ffffffffffffffffffffffffffffffffffffffff1660008054906101000a900473ffffffffffffffffffffffffffffffffffffffff1673ffffffffffffffffffffffffffffffffffffffff161461062b576040517f08c379a000000000000000000000000000000000000000000000000000000000815260040161062290613674565b60405180910390fd5b602973__CategoryLib___________________________63a1a3afd09091836040518363ffffffff1660e01b81526004016106679291906136e5565b60006040518083038186803b15801561067f57600080fd5b505af4158015610693573d6000803e3d6000fd5b5050505050565b6106a261194b565b600173__UserLib_______________________________6301962a669091846040518363ffffffff1660e01b81526004016106de92919061371c565b600060405180830381865af41580156106fb573d6000803e3d6000fd5b505050506040513d6000823e3d601f19601f820116820180604052508101906107249190613895565b9050919050565b3373ffffffffffffffffffffffffffffffffffffffff1660008054906101000a900473ffffffffffffffffffffffffffffffffffffffff1673ffffffffffffffffffffffffffffffffffffffff16146107b9576040517f08c379a00000000000000000000000000000000000000000000000000000000081526004016107b090613674565b60405180910390fd5b600073ffffffffffffffffffffffffffffffffffffffff168173ffffffffffffffffffffffffffffffffffffffff1603610828576040517f08c379a000000000000000000000000000000000000000000000000000000000815260040161081f9061392a565b60405180910390fd5b610831816115c0565b50565b61083c611997565b600080601573__FileLib_______________________________63990f186090918989898960016040518763ffffffff1660e01b81526004016108849695949392919061318a565b600060405180830381865af41580156108a1573d6000803e3d6000fd5b505050506040513d6000823e3d601f19601f820116820180604052508101906108ca9190613ef1565b8093508194508295505050509450945094915050565b6108e86119c5565b600173__UserLib_______________________________636e0358de90916040518263ffffffff1660e01b81526004016109229190613f60565b600060405180830381865af415801561093f573d6000803e3d6000fd5b505050506040513d6000823e3d601f19601f82011682018060405250810190610968919061410d565b905090565b3373ffffffffffffffffffffffffffffffffffffffff1660008054906101000a900473ffffffffffffffffffffffffffffffffffffffff1673ffffffffffffffffffffffffffffffffffffffff16146109fb576040517f08c379a00000000000000000000000000000000000000000000000000000000081526004016109f290613674565b60405180910390fd5b610a0560006115c0565b565b601573__FileLib_______________________________639572064f90918585856040518563ffffffff1660e01b8152600401610a479493929190614234565b60006040518083038186803b158015610a5f57600080fd5b505af4158015610a73573d6000803e3d6000fd5b50505050505050565b601573__FileLib_______________________________630f1040e1909184846040518463ffffffff1660e01b8152600401610aba93929190614287565b60006040518083038186803b158015610ad257600080fd5b505af4158015610ae6573d6000803e3d6000fd5b505050505050565b600173__UserLib_______________________________63b50d32099091336040518363ffffffff1660e01b8152600401610b2a92919061371c565b602060405180830381865af4158015610b47573d6000803e3d6000fd5b505050506040513d601f19601f82011682018060405250810190610b6b91906142be565b610baa576040517f08c379a0000000000000000000000000000000000000000000000000000000008152600401610ba190614337565b60405180910390fd5b600173__UserLib_______________________________6369b33f769091836040518363ffffffff1660e01b8152600401610be6929190614357565b60006040518083038186803b158015610bfe57600080fd5b505af4158015610c12573d6000803e3d6000fd5b5050505050565b600173__UserLib_______________________________63b50d32099091336040518363ffffffff1660e01b8152600401610c5592919061371c565b602060405180830381865af4158015610c72573d6000803e3d6000fd5b505050506040513d601f19601f82011682018060405250810190610c9691906142be565b610cd5576040517f08c379a0000000000000000000000000000000000000000000000000000000008152600401610ccc906143d3565b60405180910390fd5b600173__UserLib_______________________________6368caaef19091836040518363ffffffff1660e01b8152600401610d11929190614357565b60006040518083038186803b158015610d2957600080fd5b505af4158015610d3d573d6000803e3d6000fd5b5050505050565b600173__UserLib_______________________________63b50d32099091336040518363ffffffff1660e01b8152600401610d8092919061371c565b602060405180830381865af4158015610d9d573d6000803e3d6000fd5b505050506040513d601f19601f82011682018060405250810190610dc191906142be565b610e00576040517f08c379a0000000000000000000000000000000000000000000000000000000008152600401610df79061443f565b60405180910390fd5b600173__UserLib_______________________________63e0baafdb9091836040518363ffffffff1660e01b8152600401610e3c929190614357565b60006040518083038186803b158015610e5457600080fd5b505af4158015610e68573d6000803e3d6000fd5b5050505050565b6000600173__UserLib_______________________________63b50d32099091846040518363ffffffff1660e01b8152600401610ead92919061371c565b602060405180830381865af4158015610eca573d6000803e3d6000fd5b505050506040513d601f19601f82011682018060405250810190610eee91906142be565b9050919050565b610efd611a26565b601573__FileLib_______________________________63584c2ff59091846040518363ffffffff1660e01b8152600401610f3992919061445f565b600060405180830381865af4158015610f56573d6000803e3d6000fd5b505050506040513d6000823e3d601f19601f82011682018060405250810190610f7f919061468e565b9050919050565b601573__FileLib_______________________________63d994bc3d9091868686866040518663ffffffff1660e01b8152600401610fc89594939291906146d7565b60006040518083038186803b158015610fe057600080fd5b505af4158015610ff4573d6000803e3d6000fd5b5050505050505050565b611006611aed565b600080602973__CategoryLib___________________________634817eb9d9091866040518363ffffffff1660e01b8152600401611045929190614731565b600060405180830381865af4158015611062573d6000803e3d6000fd5b505050506040513d6000823e3d601f19601f8201168201806040525081019061108b91906148a9565b8093508194508295505050509193909250565b565b600073ffffffffffffffffffffffffffffffffffffffff1660008054906101000a900473ffffffffffffffffffffffffffffffffffffffff1673ffffffffffffffffffffffffffffffffffffffff160361112f576040517f08c379a000000000000000000000000000000000000000000000000000000000815260040161112690614964565b60405180910390fd5b336000806101000a81548173ffffffffffffffffffffffffffffffffffffffff021916908373ffffffffffffffffffffffffffffffffffffffff160217905550611177611684565b61117f6116f0565b6111876117c6565b565b600173__UserLib_______________________________63b50d32099091336040518363ffffffff1660e01b81526004016111c592919061371c565b602060405180830381865af41580156111e2573d6000803e3d6000fd5b505050506040513d601f19601f8201168201806040525081019061120691906142be565b15611246576040517f08c379a000000000000000000000000000000000000000000000000000000000815260040161123d906149d0565b60405180910390fd5b600173__UserLib_______________________________632ef420dd9091836040518363ffffffff1660e01b8152600401611282929190614357565b60006040518083038186803b15801561129a57600080fd5b505af41580156112ae573d6000803e3d6000fd5b5050505050565b6000602973__CategoryLib___________________________63853b58329091866040518363ffffffff1660e01b81526004016112f3929190614731565b602060405180830381865af4158015611310573d6000803e3d6000fd5b505050506040513d601f19601f8201168201806040525081019061133491906142be565b611373576040517f08c379a000000000000000000000000000000000000000000000000000000000815260040161136a90614a3c565b60405180910390fd5b61138a60016040886117c89092919063ffffffff16565b6113a1600160148461187c9092919063ffffffff16565b6113b96001610200876117c89092919063ffffffff16565b601573__FileLib_______________________________6304be43b890918a8a8a8a8a8a8a6040518963ffffffff1660e01b8152600401611401989796959493929190614a5c565b602060405180830381865af415801561141e573d6000803e3d6000fd5b505050506040513d601f19601f820116820180604052508101906114429190614afd565b9050602973__CategoryLib___________________________63c525098d9091866040518363ffffffff1660e01b8152600401611480929190614731565b60006040518083038186803b15801561149857600080fd5b505af41580156114ac573d6000803e3d6000fd5b50505050600173__UserLib_______________________________636275fd579091836040518363ffffffff1660e01b81526004016114ec92919061371c565b60006040518083038186803b15801561150457600080fd5b505af4158015611518573d6000803e3d6000fd5b50505050979650505050505050565b601573__FileLib_______________________________639d15ddf190918585856040518563ffffffff1660e01b81526004016115679493929190614b2a565b60006040518083038186803b15801561157f57600080fd5b505af4158015611593573d6000803e3d6000fd5b50505050505050565b60008054906101000a900473ffffffffffffffffffffffffffffffffffffffff1681565b60008060009054906101000a900473ffffffffffffffffffffffffffffffffffffffff169050816000806101000a81548173ffffffffffffffffffffffffffffffffffffffff021916908373ffffffffffffffffffffffffffffffffffffffff1602179055508173ffffffffffffffffffffffffffffffffffffffff168173ffffffffffffffffffffffffffffffffffffffff167ff8ccb027dfcd135e000e9d45e6cc2d662578a8825d4c45b5e32e0adf67e79ec660405160405180910390a35050565b600173__UserLib_______________________________6374aa063390916040518263ffffffff1660e01b81526004016116be9190613f60565b60006040518083038186803b1580156116d657600080fd5b505af41580156116ea573d6000803e3d6000fd5b50505050565b601573__FileLib_______________________________63d0eb643090916040518263ffffffff1660e01b815260040161172a9190614b6f565b60006040518083038186803b15801561174257600080fd5b505af4158015611756573d6000803e3d6000fd5b50505050602973__CategoryLib___________________________63d0eefddb90916040518263ffffffff1660e01b81526004016117949190614b8a565b60006040518083038186803b1580156117ac57600080fd5b505af41580156117c0573d6000803e3d6000fd5b50505050565b565b6000600384516117d89190614bd4565b905060008314806117e95750828110155b611828576040517f08c379a000000000000000000000000000000000000000000000000000000000815260040161181f90614c51565b60405180910390fd5b60008214806118375750818111155b611876576040517f08c379a000000000000000000000000000000000000000000000000000000000815260040161186d90614cbd565b60405180910390fd5b50505050565b600082148061188b5750818310155b6118ca576040517f08c379a00000000000000000000000000000000000000000000000000000000081526004016118c190614d29565b60405180910390fd5b60008114806118d95750808311155b611918576040517f08c379a000000000000000000000000000000000000000000000000000000000815260040161190f90614d95565b60405180910390fd5b505050565b604051806101400160405280600a905b611935611b1b565b81526020019060019003908161192d5790505090565b6040518061012001604052806060815260200160608152602001606081526020016060815260200160008152602001600081526020016000815260200160008152602001600081525090565b604051806101400160405280600a905b6119af611bbf565b8152602001906001900390816119a75790505090565b6040518061018001604052806060815260200160608152602001606081526020016060815260200160008152602001600081526020016000815260200160008152602001600081526020016000815260200160008152602001600081525090565b604051806102000160405280600073ffffffffffffffffffffffffffffffffffffffff168152602001600073ffffffffffffffffffffffffffffffffffffffff168152602001600073ffffffffffffffffffffffffffffffffffffffff16815260200160001515815260200160608152602001606081526020016060815260200160608152602001611ab6611c3a565b8152602001600081526020016000815260200160008152602001600081526020016000815260200160008152602001600081525090565b604051806101400160405280600a905b611b05611c61565b815260200190600190039081611afd5790505090565b604051806101e00160405280600073ffffffffffffffffffffffffffffffffffffffff168152602001600073ffffffffffffffffffffffffffffffffffffffff1681526020016000151581526020016060815260200160608152602001606081526020016060815260200160608152602001600081526020016000815260200160008152602001600081526020016000815260200160008152602001600081525090565b604051806101400160405280600073ffffffffffffffffffffffffffffffffffffffff168152602001611bf0611c98565b815260200160608152602001611c04611c3a565b8152602001611c11611cc5565b815260200160008152602001600081526020016000815260200160008152602001600081525090565b60405180606001604052806003905b6060815260200190600190039081611c495790505090565b6040518060600160405280600073ffffffffffffffffffffffffffffffffffffffff16815260200160608152602001600081525090565b60405180604001604052806002905b611caf611d03565b815260200190600190039081611ca75790505090565b6040518060800160405280600073ffffffffffffffffffffffffffffffffffffffff1681526020016060815260200160608152602001600081525090565b604051806101400160405280600073ffffffffffffffffffffffffffffffffffffffff168152602001600073ffffffffffffffffffffffffffffffffffffffff168152602001600073ffffffffffffffffffffffffffffffffffffffff16815260200160608152602001611d75611cc5565b8152602001611d82611cc5565b8152602001600081526020016000815260200160008152602001600081525090565b6000604051905090565b600080fd5b600080fd5b600073ffffffffffffffffffffffffffffffffffffffff82169050919050565b6000611de382611db8565b9050919050565b611df381611dd8565b8114611dfe57600080fd5b50565b600081359050611e1081611dea565b92915050565b6000819050919050565b611e2981611e16565b8114611e3457600080fd5b50565b600081359050611e4681611e20565b92915050565b60008115159050919050565b611e6181611e4c565b8114611e6c57600080fd5b50565b600081359050611e7e81611e58565b92915050565b60008060008060808587031215611e9e57611e9d611dae565b5b6000611eac87828801611e01565b9450506020611ebd87828801611e01565b9350506040611ece87828801611e37565b9250506060611edf87828801611e6f565b91505092959194509250565b6000600a9050919050565b600081905092915050565b6000819050919050565b611f1481611dd8565b82525050565b611f2381611e4c565b82525050565b600081519050919050565b600082825260208201905092915050565b60005b83811015611f63578082015181840152602081019050611f48565b60008484015250505050565b6000601f19601f8301169050919050565b6000611f8b82611f29565b611f958185611f34565b9350611fa5818560208601611f45565b611fae81611f6f565b840191505092915050565b611fc281611e16565b82525050565b60006101e083016000830151611fe16000860182611f0b565b506020830151611ff46020860182611f0b565b5060408301516120076040860182611f1a565b506060830151848203606086015261201f8282611f80565b915050608083015184820360808601526120398282611f80565b91505060a083015184820360a08601526120538282611f80565b91505060c083015184820360c086015261206d8282611f80565b91505060e083015184820360e08601526120878282611f80565b91505061010083015161209e610100860182611fb9565b506101208301516120b3610120860182611fb9565b506101408301516120c8610140860182611fb9565b506101608301516120dd610160860182611fb9565b506101808301516120f2610180860182611fb9565b506101a08301516121076101a0860182611fb9565b506101c083015161211c6101c0860182611fb9565b508091505092915050565b60006121338383611fc8565b905092915050565b6000602082019050919050565b600061215382611eeb565b61215d8185611ef6565b93508360208202850161216f85611f01565b8060005b858110156121ab578484038952815161218c8582612127565b94506121978361213b565b925060208a01995050600181019050612173565b50829750879550505050505092915050565b6121c681611dd8565b82525050565b6121d581611e4c565b82525050565b600060608201905081810360008301526121f58186612148565b905061220460208301856121bd565b61221160408301846121cc565b949350505050565b600080604083850312156122305761222f611dae565b5b600061223e85828601611e01565b925050602061224f85828601611e6f565b9150509250929050565b600080fd5b600080fd5b7f4e487b7100000000000000000000000000000000000000000000000000000000600052604160045260246000fd5b61229b82611f6f565b810181811067ffffffffffffffff821117156122ba576122b9612263565b5b80604052505050565b60006122cd611da4565b90506122d98282612292565b919050565b600067ffffffffffffffff8211156122f9576122f8612263565b5b61230282611f6f565b9050602081019050919050565b82818337600083830152505050565b600061233161232c846122de565b6122c3565b90508281526020810184848401111561234d5761234c61225e565b5b61235884828561230f565b509392505050565b600082601f83011261237557612374612259565b5b813561238584826020860161231e565b91505092915050565b6000602082840312156123a4576123a3611dae565b5b600082013567ffffffffffffffff8111156123c2576123c1611db3565b5b6123ce84828501612360565b91505092915050565b6000602082840312156123ed576123ec611dae565b5b60006123fb84828501611e01565b91505092915050565b60006101208301600083015184820360008601526124228282611f80565b9150506020830151848203602086015261243c8282611f80565b915050604083015184820360408601526124568282611f80565b915050606083015184820360608601526124708282611f80565b91505060808301516124856080860182611fb9565b5060a083015161249860a0860182611fb9565b5060c08301516124ab60c0860182611fb9565b5060e08301516124be60e0860182611fb9565b506101008301516124d3610100860182611fb9565b508091505092915050565b600060208201905081810360008301526124f88184612404565b905092915050565b6000600a9050919050565b600081905092915050565b6000819050919050565b600060029050919050565b600081905092915050565b6000819050919050565b60006080830160008301516125586000860182611f0b565b50602083015184820360208601526125708282611f80565b9150506040830151848203604086015261258a8282611f80565b915050606083015161259f6060860182611fb9565b508091505092915050565b6000610140830160008301516125c36000860182611f0b565b5060208301516125d66020860182611f0b565b5060408301516125e96040860182611f0b565b50606083015184820360608601526126018282611f80565b9150506080830151848203608086015261261b8282612540565b91505060a083015184820360a08601526126358282612540565b91505060c083015161264a60c0860182611fb9565b5060e083015161265d60e0860182611fb9565b50610100830151612672610100860182611fb9565b50610120830151612687610120860182611fb9565b508091505092915050565b600061269e83836125aa565b905092915050565b6000602082019050919050565b60006126be82612520565b6126c8818561252b565b9350836020820285016126da85612536565b8060005b8581101561271657848403895281516126f78582612692565b9450612702836126a6565b925060208a019950506001810190506126de565b50829750879550505050505092915050565b600060039050919050565b600081905092915050565b6000819050919050565b60006127548383611f80565b905092915050565b6000602082019050919050565b600061277482612728565b61277e8185612733565b9350836020820285016127908561273e565b8060005b858110156127cc57848403895281516127ad8582612748565b94506127b88361275c565b925060208a01995050600181019050612794565b50829750879550505050505092915050565b6000610140830160008301516127f76000860182611f0b565b506020830151848203602086015261280f82826126b3565b915050604083015184820360408601526128298282611f80565b915050606083015184820360608601526128438282612769565b9150506080830151848203608086015261285d8282612540565b91505060a083015161287260a0860182611fb9565b5060c083015161288560c0860182611fb9565b5060e083015161289860e0860182611fb9565b506101008301516128ad610100860182611fb9565b506101208301516128c2610120860182611fb9565b508091505092915050565b60006128d983836127de565b905092915050565b6000602082019050919050565b60006128f982612500565b612903818561250b565b93508360208202850161291585612516565b8060005b85811015612951578484038952815161293285826128cd565b945061293d836128e1565b925060208a01995050600181019050612919565b50829750879550505050505092915050565b6000606082019050818103600083015261297d81866128ee565b905061298c60208301856121bd565b61299960408301846121cc565b949350505050565b60006101808301600083015184820360008601526129bf8282611f80565b915050602083015184820360208601526129d98282611f80565b915050604083015184820360408601526129f38282611f80565b91505060608301518482036060860152612a0d8282611f80565b9150506080830151612a226080860182611fb9565b5060a0830151612a3560a0860182611fb9565b5060c0830151612a4860c0860182611fb9565b5060e0830151612a5b60e0860182611fb9565b50610100830151612a70610100860182611fb9565b50610120830151612a85610120860182611fb9565b50610140830151612a9a610140860182611fb9565b50610160830151612aaf610160860182611fb9565b508091505092915050565b60006020820190508181036000830152612ad481846129a1565b905092915050565b600067ffffffffffffffff821115612af757612af6612263565b5b602082029050919050565b600080fd5b6000612b1a612b1584612adc565b6122c3565b90508060208402830185811115612b3457612b33612b02565b5b835b81811015612b7b57803567ffffffffffffffff811115612b5957612b58612259565b5b808601612b668982612360565b85526020850194505050602081019050612b36565b5050509392505050565b600082601f830112612b9a57612b99612259565b5b6003612ba7848285612b07565b91505092915050565b600080600060608486031215612bc957612bc8611dae565b5b6000612bd786828701611e01565b935050602084013567ffffffffffffffff811115612bf857612bf7611db3565b5b612c0486828701612360565b925050604084013567ffffffffffffffff811115612c2557612c24611db3565b5b612c3186828701612b85565b9150509250925092565b6000602082019050612c5060008301846121cc565b92915050565b600061020083016000830151612c6f6000860182611f0b565b506020830151612c826020860182611f0b565b506040830151612c956040860182611f0b565b506060830151612ca86060860182611f1a565b5060808301518482036080860152612cc08282611f80565b91505060a083015184820360a0860152612cda8282611f80565b91505060c083015184820360c0860152612cf48282611f80565b91505060e083015184820360e0860152612d0e8282611f80565b915050610100830151848203610100860152612d2a8282612769565b915050610120830151612d41610120860182611fb9565b50610140830151612d56610140860182611fb9565b50610160830151612d6b610160860182611fb9565b50610180830151612d80610180860182611fb9565b506101a0830151612d956101a0860182611fb9565b506101c0830151612daa6101c0860182611fb9565b506101e0830151612dbf6101e0860182611fb9565b508091505092915050565b60006020820190508181036000830152612de48184612c56565b905092915050565b60008060008060808587031215612e0657612e05611dae565b5b6000612e1487828801611e01565b9450506020612e2587828801611e01565b9350506040612e3687828801611e01565b925050606085013567ffffffffffffffff811115612e5757612e56611db3565b5b612e6387828801612360565b91505092959194509250565b6000600a9050919050565b600081905092915050565b6000819050919050565b6000606083016000830151612ea76000860182611f0b565b5060208301518482036020860152612ebf8282611f80565b9150506040830151612ed46040860182611fb9565b508091505092915050565b6000612eeb8383612e8f565b905092915050565b6000602082019050919050565b6000612f0b82612e6f565b612f158185612e7a565b935083602082028501612f2785612e85565b8060005b85811015612f635784840389528151612f448582612edf565b9450612f4f83612ef3565b925060208a01995050600181019050612f2b565b50829750879550505050505092915050565b60006060820190508181036000830152612f8f8186612f00565b9050612f9e60208301856121bd565b612fab60408301846121cc565b949350505050565b600080600080600080600060e0888a031215612fd257612fd1611dae565b5b600088013567ffffffffffffffff811115612ff057612fef611db3565b5b612ffc8a828b01612360565b975050602088013567ffffffffffffffff81111561301d5761301c611db3565b5b6130298a828b01612360565b965050604088013567ffffffffffffffff81111561304a57613049611db3565b5b6130568a828b01612360565b955050606088013567ffffffffffffffff81111561307757613076611db3565b5b6130838a828b01612360565b94505060806130948a828b01611e01565b93505060a088013567ffffffffffffffff8111156130b5576130b4611db3565b5b6130c18a828b01612b85565b92505060c06130d28a828b01611e37565b91505092959891949750929550565b60006020820190506130f660008301846121bd565b92915050565b60008060006060848603121561311557613114611dae565b5b600061312386828701611e01565b935050602061313486828701611e01565b925050604061314586828701611e6f565b9150509250925092565b8082525050565b61315f81611dd8565b82525050565b61316e81611e16565b82525050565b61317d81611e4c565b82525050565b8082525050565b600060c08201905061319f600083018961314f565b6131ac6020830188613156565b6131b96040830187613156565b6131c66060830186613165565b6131d36080830185613174565b6131e060a0830184613183565b979650505050505050565b600067ffffffffffffffff82111561320657613205612263565b5b602082029050919050565b600080fd5b600080fd5b60008151905061322a81611dea565b92915050565b60008151905061323f81611e58565b92915050565b6000613258613253846122de565b6122c3565b9050828152602081018484840111156132745761327361225e565b5b61327f848285611f45565b509392505050565b600082601f83011261329c5761329b612259565b5b81516132ac848260208601613245565b91505092915050565b6000815190506132c481611e20565b92915050565b60006101e082840312156132e1576132e0613211565b5b6132ec6101e06122c3565b905060006132fc8482850161321b565b60008301525060206133108482850161321b565b602083015250604061332484828501613230565b604083015250606082015167ffffffffffffffff81111561334857613347613216565b5b61335484828501613287565b606083015250608082015167ffffffffffffffff81111561337857613377613216565b5b61338484828501613287565b60808301525060a082015167ffffffffffffffff8111156133a8576133a7613216565b5b6133b484828501613287565b60a08301525060c082015167ffffffffffffffff8111156133d8576133d7613216565b5b6133e484828501613287565b60c08301525060e082015167ffffffffffffffff81111561340857613407613216565b5b61341484828501613287565b60e083015250610100613429848285016132b5565b6101008301525061012061343f848285016132b5565b61012083015250610140613455848285016132b5565b6101408301525061016061346b848285016132b5565b61016083015250610180613481848285016132b5565b610180830152506101a0613497848285016132b5565b6101a0830152506101c06134ad848285016132b5565b6101c08301525092915050565b60006134cd6134c8846131eb565b6122c3565b905080602084028301858111156134e7576134e6612b02565b5b835b8181101561352e57805167ffffffffffffffff81111561350c5761350b612259565b5b80860161351989826132ca565b855260208501945050506020810190506134e9565b5050509392505050565b600082601f83011261354d5761354c612259565b5b600a61355a8482856134ba565b91505092915050565b60008060006060848603121561357c5761357b611dae565b5b600084015167ffffffffffffffff81111561359a57613599611db3565b5b6135a686828701613538565b93505060206135b78682870161321b565b92505060406135c886828701613230565b9150509250925092565b60006080820190506135e7600083018761314f565b6135f46020830186613156565b6136016040830185613174565b61360e6060830184613183565b95945050505050565b600082825260208201905092915050565b7f41646d696e436f6e74726163743e5f6f6e6c7941646d696e5f00000000000000600082015250565b600061365e601983613617565b915061366982613628565b602082019050919050565b6000602082019050818103600083015261368d81613651565b9050919050565b8082525050565b600082825260208201905092915050565b60006136b782611f29565b6136c1818561369b565b93506136d1818560208601611f45565b6136da81611f6f565b840191505092915050565b60006040820190506136fa6000830185613694565b818103602083015261370c81846136ac565b90509392505050565b8082525050565b60006040820190506137316000830185613715565b61373e6020830184613156565b9392505050565b6000610120828403121561375c5761375b613211565b5b6137676101206122c3565b9050600082015167ffffffffffffffff81111561378757613786613216565b5b61379384828501613287565b600083015250602082015167ffffffffffffffff8111156137b7576137b6613216565b5b6137c384828501613287565b602083015250604082015167ffffffffffffffff8111156137e7576137e6613216565b5b6137f384828501613287565b604083015250606082015167ffffffffffffffff81111561381757613816613216565b5b61382384828501613287565b6060830152506080613837848285016132b5565b60808301525060a061384b848285016132b5565b60a08301525060c061385f848285016132b5565b60c08301525060e0613873848285016132b5565b60e083015250610100613888848285016132b5565b6101008301525092915050565b6000602082840312156138ab576138aa611dae565b5b600082015167ffffffffffffffff8111156138c9576138c8611db3565b5b6138d584828501613745565b91505092915050565b7f41646d696e436f6e74726163743e7472616e7366657241646d696e0000000000600082015250565b6000613914601b83613617565b915061391f826138de565b602082019050919050565b6000602082019050818103600083015261394381613907565b9050919050565b600067ffffffffffffffff82111561396557613964612263565b5b602082029050919050565b600067ffffffffffffffff82111561398b5761398a612263565b5b602082029050919050565b6000608082840312156139ac576139ab613211565b5b6139b660806122c3565b905060006139c68482850161321b565b600083015250602082015167ffffffffffffffff8111156139ea576139e9613216565b5b6139f684828501613287565b602083015250604082015167ffffffffffffffff811115613a1a57613a19613216565b5b613a2684828501613287565b6040830152506060613a3a848285016132b5565b60608301525092915050565b60006101408284031215613a5d57613a5c613211565b5b613a686101406122c3565b90506000613a788482850161321b565b6000830152506020613a8c8482850161321b565b6020830152506040613aa08482850161321b565b604083015250606082015167ffffffffffffffff811115613ac457613ac3613216565b5b613ad084828501613287565b606083015250608082015167ffffffffffffffff811115613af457613af3613216565b5b613b0084828501613996565b60808301525060a082015167ffffffffffffffff811115613b2457613b23613216565b5b613b3084828501613996565b60a08301525060c0613b44848285016132b5565b60c08301525060e0613b58848285016132b5565b60e083015250610100613b6d848285016132b5565b61010083015250610120613b83848285016132b5565b6101208301525092915050565b6000613ba3613b9e84613970565b6122c3565b90508060208402830185811115613bbd57613bbc612b02565b5b835b81811015613c0457805167ffffffffffffffff811115613be257613be1612259565b5b808601613bef8982613a46565b85526020850194505050602081019050613bbf565b5050509392505050565b600082601f830112613c2357613c22612259565b5b6002613c30848285613b90565b91505092915050565b6000613c4c613c4784612adc565b6122c3565b90508060208402830185811115613c6657613c65612b02565b5b835b81811015613cad57805167ffffffffffffffff811115613c8b57613c8a612259565b5b808601613c988982613287565b85526020850194505050602081019050613c68565b5050509392505050565b600082601f830112613ccc57613ccb612259565b5b6003613cd9848285613c39565b91505092915050565b60006101408284031215613cf957613cf8613211565b5b613d046101406122c3565b90506000613d148482850161321b565b600083015250602082015167ffffffffffffffff811115613d3857613d37613216565b5b613d4484828501613c0e565b602083015250604082015167ffffffffffffffff811115613d6857613d67613216565b5b613d7484828501613287565b604083015250606082015167ffffffffffffffff811115613d9857613d97613216565b5b613da484828501613cb7565b606083015250608082015167ffffffffffffffff811115613dc857613dc7613216565b5b613dd484828501613996565b60808301525060a0613de8848285016132b5565b60a08301525060c0613dfc848285016132b5565b60c08301525060e0613e10848285016132b5565b60e083015250610100613e25848285016132b5565b61010083015250610120613e3b848285016132b5565b6101208301525092915050565b6000613e5b613e568461394a565b6122c3565b90508060208402830185811115613e7557613e74612b02565b5b835b81811015613ebc57805167ffffffffffffffff811115613e9a57613e99612259565b5b808601613ea78982613ce2565b85526020850194505050602081019050613e77565b5050509392505050565b600082601f830112613edb57613eda612259565b5b600a613ee8848285613e48565b91505092915050565b600080600060608486031215613f0a57613f09611dae565b5b600084015167ffffffffffffffff811115613f2857613f27611db3565b5b613f3486828701613ec6565b9350506020613f458682870161321b565b9250506040613f5686828701613230565b9150509250925092565b6000602082019050613f756000830184613715565b92915050565b60006101808284031215613f9257613f91613211565b5b613f9d6101806122c3565b9050600082015167ffffffffffffffff811115613fbd57613fbc613216565b5b613fc984828501613287565b600083015250602082015167ffffffffffffffff811115613fed57613fec613216565b5b613ff984828501613287565b602083015250604082015167ffffffffffffffff81111561401d5761401c613216565b5b61402984828501613287565b604083015250606082015167ffffffffffffffff81111561404d5761404c613216565b5b61405984828501613287565b606083015250608061406d848285016132b5565b60808301525060a0614081848285016132b5565b60a08301525060c0614095848285016132b5565b60c08301525060e06140a9848285016132b5565b60e0830152506101006140be848285016132b5565b610100830152506101206140d4848285016132b5565b610120830152506101406140ea848285016132b5565b61014083015250610160614100848285016132b5565b6101608301525092915050565b60006020828403121561412357614122611dae565b5b600082015167ffffffffffffffff81111561414157614140611db3565b5b61414d84828501613f7b565b91505092915050565b600081905092915050565b600082825260208201905092915050565b600061417d82611f29565b6141878185614161565b9350614197818560208601611f45565b6141a081611f6f565b840191505092915050565b60006141b78383614172565b905092915050565b60006141ca82612728565b6141d48185614156565b9350836020820285016141e68561273e565b8060005b85811015614222578484038952815161420385826141ab565b945061420e8361275c565b925060208a019950506001810190506141ea565b50829750879550505050505092915050565b6000608082019050614249600083018761314f565b6142566020830186613156565b818103604083015261426881856136ac565b9050818103606083015261427c81846141bf565b905095945050505050565b600060608201905061429c600083018661314f565b6142a96020830185613156565b6142b66040830184613174565b949350505050565b6000602082840312156142d4576142d3611dae565b5b60006142e284828501613230565b91505092915050565b7f55736572436f6e74726163743e75706461746541766174617200000000000000600082015250565b6000614321601983613617565b915061432c826142eb565b602082019050919050565b6000602082019050818103600083015261435081614314565b9050919050565b600060408201905061436c6000830185613715565b818103602083015261437e81846136ac565b90509392505050565b7f55736572436f6e74726163743e7570646174655369676e617475726500000000600082015250565b60006143bd601c83613617565b91506143c882614387565b602082019050919050565b600060208201905081810360008301526143ec816143b0565b9050919050565b7f55736572436f6e74726163743e7570646174654e69636b6e616d650000000000600082015250565b6000614429601b83613617565b9150614434826143f3565b602082019050919050565b600060208201905081810360008301526144588161441c565b9050919050565b6000604082019050614474600083018561314f565b6144816020830184613156565b9392505050565b6000610200828403121561449f5761449e613211565b5b6144aa6102006122c3565b905060006144ba8482850161321b565b60008301525060206144ce8482850161321b565b60208301525060406144e28482850161321b565b60408301525060606144f684828501613230565b606083015250608082015167ffffffffffffffff81111561451a57614519613216565b5b61452684828501613287565b60808301525060a082015167ffffffffffffffff81111561454a57614549613216565b5b61455684828501613287565b60a08301525060c082015167ffffffffffffffff81111561457a57614579613216565b5b61458684828501613287565b60c08301525060e082015167ffffffffffffffff8111156145aa576145a9613216565b5b6145b684828501613287565b60e08301525061010082015167ffffffffffffffff8111156145db576145da613216565b5b6145e784828501613cb7565b610100830152506101206145fd848285016132b5565b61012083015250610140614613848285016132b5565b61014083015250610160614629848285016132b5565b6101608301525061018061463f848285016132b5565b610180830152506101a0614655848285016132b5565b6101a0830152506101c061466b848285016132b5565b6101c0830152506101e0614681848285016132b5565b6101e08301525092915050565b6000602082840312156146a4576146a3611dae565b5b600082015167ffffffffffffffff8111156146c2576146c1611db3565b5b6146ce84828501614488565b91505092915050565b600060a0820190506146ec600083018861314f565b6146f96020830187613156565b6147066040830186613156565b6147136060830185613156565b818103608083015261472581846136ac565b90509695505050505050565b60006040820190506147466000830185613694565b6147536020830184613156565b9392505050565b600067ffffffffffffffff82111561477557614774612263565b5b602082029050919050565b60006060828403121561479657614795613211565b5b6147a060606122c3565b905060006147b08482850161321b565b600083015250602082015167ffffffffffffffff8111156147d4576147d3613216565b5b6147e084828501613287565b60208301525060406147f4848285016132b5565b60408301525092915050565b600061481361480e8461475a565b6122c3565b9050806020840283018581111561482d5761482c612b02565b5b835b8181101561487457805167ffffffffffffffff81111561485257614851612259565b5b80860161485f8982614780565b8552602085019450505060208101905061482f565b5050509392505050565b600082601f83011261489357614892612259565b5b600a6148a0848285614800565b91505092915050565b6000806000606084860312156148c2576148c1611dae565b5b600084015167ffffffffffffffff8111156148e0576148df611db3565b5b6148ec8682870161487e565b93505060206148fd8682870161321b565b925050604061490e86828701613230565b9150509250925092565b7f696e697469616c697a6564000000000000000000000000000000000000000000600082015250565b600061494e600b83613617565b915061495982614918565b602082019050919050565b6000602082019050818103600083015261497d81614941565b9050919050565b7f55736572436f6e74726163743e72656769737465720000000000000000000000600082015250565b60006149ba601583613617565b91506149c582614984565b602082019050919050565b600060208201905081810360008301526149e9816149ad565b9050919050565b7f46696c65436f6e746163743e75706c6f616446696c6500000000000000000000600082015250565b6000614a26601683613617565b9150614a31826149f0565b602082019050919050565b60006020820190508181036000830152614a5581614a19565b9050919050565b600061010082019050614a72600083018b61314f565b8181036020830152614a84818a6136ac565b90508181036040830152614a9881896136ac565b90508181036060830152614aac81886136ac565b90508181036080830152614ac081876136ac565b9050614acf60a0830186613156565b81810360c0830152614ae181856141bf565b9050614af060e0830184613165565b9998505050505050505050565b600060208284031215614b1357614b12611dae565b5b6000614b218482850161321b565b91505092915050565b6000608082019050614b3f600083018761314f565b614b4c6020830186613156565b614b596040830185613156565b614b666060830184613174565b95945050505050565b6000602082019050614b84600083018461314f565b92915050565b6000602082019050614b9f6000830184613694565b92915050565b7f4e487b7100000000000000000000000000000000000000000000000000000000600052601260045260246000fd5b6000614bdf82611e16565b9150614bea83611e16565b925082614bfa57614bf9614ba5565b5b828204905092915050565b7f537472696e674c69623e72616e67653e31000000000000000000000000000000600082015250565b6000614c3b601183613617565b9150614c4682614c05565b602082019050919050565b60006020820190508181036000830152614c6a81614c2e565b9050919050565b7f537472696e674c69623e72616e67653e32000000000000000000000000000000600082015250565b6000614ca7601183613617565b9150614cb282614c71565b602082019050919050565b60006020820190508181036000830152614cd681614c9a565b9050919050565b7f55696e744c69623e72616e67653e310000000000000000000000000000000000600082015250565b6000614d13600f83613617565b9150614d1e82614cdd565b602082019050919050565b60006020820190508181036000830152614d4281614d06565b9050919050565b7f55696e744c69623e72616e67653e320000000000000000000000000000000000600082015250565b6000614d7f600f83613617565b9150614d8a82614d49565b602082019050919050565b60006020820190508181036000830152614dae81614d72565b905091905056fea26469706673582212200d21c913311c4122e2fee21ec83afe3f1d081306337f0a78b7a3335537e6b5b564736f6c63430008110033",
  "immutableReferences": {},
  "source": "// SPDX-License-Identifier: GPL-3.0\r\npragma solidity ^0.8.17;\r\n\r\nimport \"./implementations/base/Base.sol\";\r\nimport \"./implementations/User.sol\";\r\nimport \"./implementations/File.sol\";\r\nimport \"./implementations/Reward.sol\";\r\nimport \"./implementations/Message.sol\";\r\n\r\ninterface ImplementationInterface is AdminInterface, UserInterface, FileInterface, RewardInterface, MessageInterface {\r\n    function init() external;\r\n}\r\n\r\ncontract ImplementationContact is UserContract, FileContact, RewardContact, MessageContact {\r\n    function init()\r\n    public {\r\n        require(admin != address(0), \"initialized\");\r\n        admin = msg.sender;\r\n        UserContract_init();\r\n        FileContract_init();\r\n//        RewardContract_init();\r\n        MessageContract_init();\r\n    }\r\n}\r\n\r\ncontract OurShare is AdminContract {\r\n    bytes32 private constant implementation_position = keccak256(\"OurShare\");\r\n\r\n    constructor(){\r\n        admin = msg.sender;\r\n    }\r\n\r\n    function getImplementation() public view returns (address implementation) {\r\n        bytes32 position = implementation_position;\r\n        assembly {\r\n            implementation := sload(position)\r\n        }\r\n    }\r\n\r\n    function setImplementation(address implementation) public _onlyAdmin_ {\r\n        bytes32 position = implementation_position;\r\n        assembly {\r\n            sstore(position, implementation)\r\n        }\r\n    }\r\n\r\n    function _delegate(address implementation) internal {\r\n        assembly {\r\n            calldatacopy(0, 0, calldatasize())\r\n            let result := delegatecall(gas(), implementation, 0, calldatasize(), 0, 0)\r\n            returndatacopy(0, 0, returndatasize())\r\n            switch result\r\n            case 0 {\r\n                revert(0, returndatasize())\r\n            }\r\n            default {\r\n                return (0, returndatasize())\r\n            }\r\n        }\r\n    }\r\n\r\n    fallback() external payable {\r\n        _delegate(getImplementation());\r\n    }\r\n\r\n    receive() external payable {\r\n        _delegate(getImplementation());\r\n    }\r\n}\r\n",
  "sourcePath": "F:\\OurChain\\OurShare\\src\\assets\\eth\\contracts\\OurShare.sol",
  "compiler": {
    "name": "solc",
    "version": "0.8.17+commit.8df45f5f.Emscripten.clang"
  },
  "schemaVersion": "3.4.13",
  "updatedAt": "2023-05-27T07:23:21.124Z",
  "networkType": "ethereum",
  "devdoc": {
    "kind": "dev",
    "methods": {},
    "version": 1
  },
  "userdoc": {
    "kind": "user",
    "methods": {},
    "version": 1
  }
}