{
  "contractName": "ImplementationContact",
  "abi": [
    {
      "anonymous": false,
      "inputs": [
        {
          "indexed": true,
          "internalType": "address",
          "name": "old_admin",
          "type": "address"
        },
        {
          "indexed": true,
          "internalType": "address",
          "name": "new_admin",
          "type": "address"
        }
      ],
      "name": "AdminTransferred",
      "type": "event"
    },
    {
      "inputs": [],
      "name": "RewardContract_init",
      "outputs": [],
      "stateMutability": "nonpayable",
      "type": "function"
    },
    {
      "inputs": [
        {
          "internalType": "string",
          "name": "name",
          "type": "string"
        }
      ],
      "name": "addCategory",
      "outputs": [],
      "stateMutability": "nonpayable",
      "type": "function"
    },
    {
      "inputs": [
        {
          "internalType": "address",
          "name": "file_address",
          "type": "address"
        },
        {
          "internalType": "string",
          "name": "content",
          "type": "string"
        },
        {
          "internalType": "string[3]",
          "name": "images",
          "type": "string[3]"
        }
      ],
      "name": "addFileComment",
      "outputs": [],
      "stateMutability": "nonpayable",
      "type": "function"
    },
    {
      "inputs": [
        {
          "internalType": "address",
          "name": "file_address",
          "type": "address"
        },
        {
          "internalType": "address",
          "name": "target_address",
          "type": "address"
        },
        {
          "internalType": "address",
          "name": "comment_address",
          "type": "address"
        },
        {
          "internalType": "string",
          "name": "content",
          "type": "string"
        }
      ],
      "name": "addFileSubComment",
      "outputs": [],
      "stateMutability": "nonpayable",
      "type": "function"
    },
    {
      "inputs": [],
      "name": "admin",
      "outputs": [
        {
          "internalType": "address",
          "name": "",
          "type": "address"
        }
      ],
      "stateMutability": "view",
      "type": "function",
      "constant": true
    },
    {
      "inputs": [
        {
          "internalType": "address",
          "name": "cursor",
          "type": "address"
        }
      ],
      "name": "getCategorySlice",
      "outputs": [
        {
          "components": [
            {
              "internalType": "address",
              "name": "category_address",
              "type": "address"
            },
            {
              "internalType": "string",
              "name": "name",
              "type": "string"
            },
            {
              "internalType": "uint256",
              "name": "num",
              "type": "uint256"
            }
          ],
          "internalType": "struct Types.Category[10]",
          "name": "category_slice",
          "type": "tuple[10]"
        },
        {
          "internalType": "address",
          "name": "next",
          "type": "address"
        },
        {
          "internalType": "bool",
          "name": "finished",
          "type": "bool"
        }
      ],
      "stateMutability": "view",
      "type": "function",
      "constant": true
    },
    {
      "inputs": [
        {
          "internalType": "address",
          "name": "cursor",
          "type": "address"
        },
        {
          "internalType": "address",
          "name": "category_address",
          "type": "address"
        },
        {
          "internalType": "uint256",
          "name": "order",
          "type": "uint256"
        },
        {
          "internalType": "bool",
          "name": "reverse",
          "type": "bool"
        }
      ],
      "name": "getFileBriefInfos",
      "outputs": [
        {
          "components": [
            {
              "internalType": "address",
              "name": "file_address",
              "type": "address"
            },
            {
              "internalType": "address",
              "name": "category_address",
              "type": "address"
            },
            {
              "internalType": "bool",
              "name": "is_buy",
              "type": "bool"
            },
            {
              "internalType": "string",
              "name": "name",
              "type": "string"
            },
            {
              "internalType": "string",
              "name": "title",
              "type": "string"
            },
            {
              "internalType": "string",
              "name": "owner",
              "type": "string"
            },
            {
              "internalType": "string",
              "name": "description",
              "type": "string"
            },
            {
              "internalType": "string",
              "name": "cover",
              "type": "string"
            },
            {
              "internalType": "uint256",
              "name": "price",
              "type": "uint256"
            },
            {
              "internalType": "uint256",
              "name": "up_num",
              "type": "uint256"
            },
            {
              "internalType": "uint256",
              "name": "down_num",
              "type": "uint256"
            },
            {
              "internalType": "uint256",
              "name": "buyer_num",
              "type": "uint256"
            },
            {
              "internalType": "uint256",
              "name": "comment_num",
              "type": "uint256"
            },
            {
              "internalType": "uint256",
              "name": "up_and_down",
              "type": "uint256"
            },
            {
              "internalType": "uint256",
              "name": "upload_timestamp",
              "type": "uint256"
            }
          ],
          "internalType": "struct Types.FileBriefInfo[10]",
          "name": "file_infos",
          "type": "tuple[10]"
        },
        {
          "internalType": "address",
          "name": "next",
          "type": "address"
        },
        {
          "internalType": "bool",
          "name": "finished",
          "type": "bool"
        }
      ],
      "stateMutability": "view",
      "type": "function",
      "constant": true
    },
    {
      "inputs": [
        {
          "internalType": "address",
          "name": "file_address",
          "type": "address"
        },
        {
          "internalType": "address",
          "name": "comment_address",
          "type": "address"
        },
        {
          "internalType": "address",
          "name": "cursor",
          "type": "address"
        }
      ],
      "name": "getFileChildrenComments",
      "outputs": [
        {
          "components": [
            {
              "internalType": "address",
              "name": "target_address",
              "type": "address"
            },
            {
              "internalType": "address",
              "name": "comment_address",
              "type": "address"
            },
            {
              "internalType": "address",
              "name": "sub_comment_address",
              "type": "address"
            },
            {
              "internalType": "string",
              "name": "content",
              "type": "string"
            },
            {
              "components": [
                {
                  "internalType": "address",
                  "name": "user_address",
                  "type": "address"
                },
                {
                  "internalType": "string",
                  "name": "avatar",
                  "type": "string"
                },
                {
                  "internalType": "string",
                  "name": "nickname",
                  "type": "string"
                },
                {
                  "internalType": "uint256",
                  "name": "experience",
                  "type": "uint256"
                }
              ],
              "internalType": "struct Types.UserBriefInfo",
              "name": "author",
              "type": "tuple"
            },
            {
              "components": [
                {
                  "internalType": "address",
                  "name": "user_address",
                  "type": "address"
                },
                {
                  "internalType": "string",
                  "name": "avatar",
                  "type": "string"
                },
                {
                  "internalType": "string",
                  "name": "nickname",
                  "type": "string"
                },
                {
                  "internalType": "uint256",
                  "name": "experience",
                  "type": "uint256"
                }
              ],
              "internalType": "struct Types.UserBriefInfo",
              "name": "target_author",
              "type": "tuple"
            },
            {
              "internalType": "uint256",
              "name": "up_num",
              "type": "uint256"
            },
            {
              "internalType": "uint256",
              "name": "down_num",
              "type": "uint256"
            },
            {
              "internalType": "uint256",
              "name": "up_and_down",
              "type": "uint256"
            },
            {
              "internalType": "uint256",
              "name": "comment_timestamp",
              "type": "uint256"
            }
          ],
          "internalType": "struct Types.FileChildrenComment[10]",
          "name": "children_comments",
          "type": "tuple[10]"
        },
        {
          "internalType": "address",
          "name": "next",
          "type": "address"
        },
        {
          "internalType": "bool",
          "name": "finished",
          "type": "bool"
        }
      ],
      "stateMutability": "view",
      "type": "function",
      "constant": true
    },
    {
      "inputs": [
        {
          "internalType": "address",
          "name": "file_address",
          "type": "address"
        }
      ],
      "name": "getFileDetailInfo",
      "outputs": [
        {
          "components": [
            {
              "internalType": "address",
              "name": "owner",
              "type": "address"
            },
            {
              "internalType": "address",
              "name": "file_address",
              "type": "address"
            },
            {
              "internalType": "address",
              "name": "category_address",
              "type": "address"
            },
            {
              "internalType": "bool",
              "name": "is_buy",
              "type": "bool"
            },
            {
              "internalType": "string",
              "name": "name",
              "type": "string"
            },
            {
              "internalType": "string",
              "name": "title",
              "type": "string"
            },
            {
              "internalType": "string",
              "name": "description",
              "type": "string"
            },
            {
              "internalType": "string",
              "name": "ipfs_address",
              "type": "string"
            },
            {
              "internalType": "string[3]",
              "name": "images",
              "type": "string[3]"
            },
            {
              "internalType": "uint256",
              "name": "price",
              "type": "uint256"
            },
            {
              "internalType": "uint256",
              "name": "up_num",
              "type": "uint256"
            },
            {
              "internalType": "uint256",
              "name": "down_num",
              "type": "uint256"
            },
            {
              "internalType": "uint256",
              "name": "buyer_num",
              "type": "uint256"
            },
            {
              "internalType": "uint256",
              "name": "comment_num",
              "type": "uint256"
            },
            {
              "internalType": "uint256",
              "name": "up_and_down",
              "type": "uint256"
            },
            {
              "internalType": "uint256",
              "name": "upload_timestamp",
              "type": "uint256"
            }
          ],
          "internalType": "struct Types.FileDetailInfo",
          "name": "detail_info",
          "type": "tuple"
        }
      ],
      "stateMutability": "view",
      "type": "function",
      "constant": true
    },
    {
      "inputs": [
        {
          "internalType": "address",
          "name": "file_address",
          "type": "address"
        },
        {
          "internalType": "address",
          "name": "cursor",
          "type": "address"
        },
        {
          "internalType": "uint256",
          "name": "order",
          "type": "uint256"
        },
        {
          "internalType": "bool",
          "name": "reverse",
          "type": "bool"
        }
      ],
      "name": "getFileRootComments",
      "outputs": [
        {
          "components": [
            {
              "internalType": "address",
              "name": "comment_address",
              "type": "address"
            },
            {
              "components": [
                {
                  "internalType": "address",
                  "name": "target_address",
                  "type": "address"
                },
                {
                  "internalType": "address",
                  "name": "comment_address",
                  "type": "address"
                },
                {
                  "internalType": "address",
                  "name": "sub_comment_address",
                  "type": "address"
                },
                {
                  "internalType": "string",
                  "name": "content",
                  "type": "string"
                },
                {
                  "components": [
                    {
                      "internalType": "address",
                      "name": "user_address",
                      "type": "address"
                    },
                    {
                      "internalType": "string",
                      "name": "avatar",
                      "type": "string"
                    },
                    {
                      "internalType": "string",
                      "name": "nickname",
                      "type": "string"
                    },
                    {
                      "internalType": "uint256",
                      "name": "experience",
                      "type": "uint256"
                    }
                  ],
                  "internalType": "struct Types.UserBriefInfo",
                  "name": "author",
                  "type": "tuple"
                },
                {
                  "components": [
                    {
                      "internalType": "address",
                      "name": "user_address",
                      "type": "address"
                    },
                    {
                      "internalType": "string",
                      "name": "avatar",
                      "type": "string"
                    },
                    {
                      "internalType": "string",
                      "name": "nickname",
                      "type": "string"
                    },
                    {
                      "internalType": "uint256",
                      "name": "experience",
                      "type": "uint256"
                    }
                  ],
                  "internalType": "struct Types.UserBriefInfo",
                  "name": "target_author",
                  "type": "tuple"
                },
                {
                  "internalType": "uint256",
                  "name": "up_num",
                  "type": "uint256"
                },
                {
                  "internalType": "uint256",
                  "name": "down_num",
                  "type": "uint256"
                },
                {
                  "internalType": "uint256",
                  "name": "up_and_down",
                  "type": "uint256"
                },
                {
                  "internalType": "uint256",
                  "name": "comment_timestamp",
                  "type": "uint256"
                }
              ],
              "internalType": "struct Types.FileChildrenComment[2]",
              "name": "children_comments",
              "type": "tuple[2]"
            },
            {
              "internalType": "string",
              "name": "content",
              "type": "string"
            },
            {
              "internalType": "string[3]",
              "name": "images",
              "type": "string[3]"
            },
            {
              "components": [
                {
                  "internalType": "address",
                  "name": "user_address",
                  "type": "address"
                },
                {
                  "internalType": "string",
                  "name": "avatar",
                  "type": "string"
                },
                {
                  "internalType": "string",
                  "name": "nickname",
                  "type": "string"
                },
                {
                  "internalType": "uint256",
                  "name": "experience",
                  "type": "uint256"
                }
              ],
              "internalType": "struct Types.UserBriefInfo",
              "name": "author",
              "type": "tuple"
            },
            {
              "internalType": "uint256",
              "name": "up_num",
              "type": "uint256"
            },
            {
              "internalType": "uint256",
              "name": "down_num",
              "type": "uint256"
            },
            {
              "internalType": "uint256",
              "name": "up_and_down",
              "type": "uint256"
            },
            {
              "internalType": "uint256",
              "name": "comment_num",
              "type": "uint256"
            },
            {
              "internalType": "uint256",
              "name": "comment_timestamp",
              "type": "uint256"
            }
          ],
          "internalType": "struct Types.FileRootComment[10]",
          "name": "root_comments",
          "type": "tuple[10]"
        },
        {
          "internalType": "address",
          "name": "next",
          "type": "address"
        },
        {
          "internalType": "bool",
          "name": "finished",
          "type": "bool"
        }
      ],
      "stateMutability": "view",
      "type": "function",
      "constant": true
    },
    {
      "inputs": [
        {
          "internalType": "address",
          "name": "user_address",
          "type": "address"
        }
      ],
      "name": "getOtherSimpleInfo",
      "outputs": [
        {
          "components": [
            {
              "internalType": "string",
              "name": "major",
              "type": "string"
            },
            {
              "internalType": "string",
              "name": "avatar",
              "type": "string"
            },
            {
              "internalType": "string",
              "name": "nickname",
              "type": "string"
            },
            {
              "internalType": "string",
              "name": "signature",
              "type": "string"
            },
            {
              "internalType": "uint256",
              "name": "heart",
              "type": "uint256"
            },
            {
              "internalType": "uint256",
              "name": "medal_num",
              "type": "uint256"
            },
            {
              "internalType": "uint256",
              "name": "experience",
              "type": "uint256"
            },
            {
              "internalType": "uint256",
              "name": "follower_num",
              "type": "uint256"
            },
            {
              "internalType": "uint256",
              "name": "uploaded_file_num",
              "type": "uint256"
            }
          ],
          "internalType": "struct Types.UserSimpleInfo",
          "name": "simple_info",
          "type": "tuple"
        }
      ],
      "stateMutability": "view",
      "type": "function",
      "constant": true
    },
    {
      "inputs": [
        {
          "internalType": "address",
          "name": "cursor",
          "type": "address"
        },
        {
          "internalType": "bool",
          "name": "reverse",
          "type": "bool"
        }
      ],
      "name": "getSelfFileBriefInfos",
      "outputs": [
        {
          "components": [
            {
              "internalType": "address",
              "name": "file_address",
              "type": "address"
            },
            {
              "internalType": "address",
              "name": "category_address",
              "type": "address"
            },
            {
              "internalType": "bool",
              "name": "is_buy",
              "type": "bool"
            },
            {
              "internalType": "string",
              "name": "name",
              "type": "string"
            },
            {
              "internalType": "string",
              "name": "title",
              "type": "string"
            },
            {
              "internalType": "string",
              "name": "owner",
              "type": "string"
            },
            {
              "internalType": "string",
              "name": "description",
              "type": "string"
            },
            {
              "internalType": "string",
              "name": "cover",
              "type": "string"
            },
            {
              "internalType": "uint256",
              "name": "price",
              "type": "uint256"
            },
            {
              "internalType": "uint256",
              "name": "up_num",
              "type": "uint256"
            },
            {
              "internalType": "uint256",
              "name": "down_num",
              "type": "uint256"
            },
            {
              "internalType": "uint256",
              "name": "buyer_num",
              "type": "uint256"
            },
            {
              "internalType": "uint256",
              "name": "comment_num",
              "type": "uint256"
            },
            {
              "internalType": "uint256",
              "name": "up_and_down",
              "type": "uint256"
            },
            {
              "internalType": "uint256",
              "name": "upload_timestamp",
              "type": "uint256"
            }
          ],
          "internalType": "struct Types.FileBriefInfo[10]",
          "name": "file_infos",
          "type": "tuple[10]"
        },
        {
          "internalType": "address",
          "name": "next",
          "type": "address"
        },
        {
          "internalType": "bool",
          "name": "finished",
          "type": "bool"
        }
      ],
      "stateMutability": "view",
      "type": "function",
      "constant": true
    },
    {
      "inputs": [],
      "name": "getSelfInfo",
      "outputs": [
        {
          "components": [
            {
              "internalType": "string",
              "name": "major",
              "type": "string"
            },
            {
              "internalType": "string",
              "name": "avatar",
              "type": "string"
            },
            {
              "internalType": "string",
              "name": "nickname",
              "type": "string"
            },
            {
              "internalType": "string",
              "name": "signature",
              "type": "string"
            },
            {
              "internalType": "uint256",
              "name": "ID",
              "type": "uint256"
            },
            {
              "internalType": "uint256",
              "name": "coins",
              "type": "uint256"
            },
            {
              "internalType": "uint256",
              "name": "heart",
              "type": "uint256"
            },
            {
              "internalType": "uint256",
              "name": "experience",
              "type": "uint256"
            },
            {
              "internalType": "uint256",
              "name": "follower_num",
              "type": "uint256"
            },
            {
              "internalType": "uint256",
              "name": "following_num",
              "type": "uint256"
            },
            {
              "internalType": "uint256",
              "name": "login_timestamp",
              "type": "uint256"
            },
            {
              "internalType": "uint256",
              "name": "uploaded_file_num",
              "type": "uint256"
            }
          ],
          "internalType": "struct Types.UserSelfInfo",
          "name": "self_info",
          "type": "tuple"
        }
      ],
      "stateMutability": "view",
      "type": "function",
      "constant": true
    },
    {
      "inputs": [
        {
          "internalType": "address",
          "name": "user_address",
          "type": "address"
        }
      ],
      "name": "isRegistered",
      "outputs": [
        {
          "internalType": "bool",
          "name": "is_registered",
          "type": "bool"
        }
      ],
      "stateMutability": "view",
      "type": "function",
      "constant": true
    },
    {
      "inputs": [
        {
          "internalType": "string",
          "name": "nickname",
          "type": "string"
        }
      ],
      "name": "register",
      "outputs": [],
      "stateMutability": "nonpayable",
      "type": "function"
    },
    {
      "inputs": [],
      "name": "renounceAdmin",
      "outputs": [],
      "stateMutability": "nonpayable",
      "type": "function"
    },
    {
      "inputs": [
        {
          "internalType": "address",
          "name": "new_admin",
          "type": "address"
        }
      ],
      "name": "transferAdmin",
      "outputs": [],
      "stateMutability": "nonpayable",
      "type": "function"
    },
    {
      "inputs": [
        {
          "internalType": "address",
          "name": "file_address",
          "type": "address"
        },
        {
          "internalType": "bool",
          "name": "is_up",
          "type": "bool"
        }
      ],
      "name": "upAndDownFile",
      "outputs": [],
      "stateMutability": "nonpayable",
      "type": "function"
    },
    {
      "inputs": [
        {
          "internalType": "address",
          "name": "file_address",
          "type": "address"
        },
        {
          "internalType": "address",
          "name": "comment_address",
          "type": "address"
        },
        {
          "internalType": "bool",
          "name": "is_up",
          "type": "bool"
        }
      ],
      "name": "upAndDownFileComment",
      "outputs": [],
      "stateMutability": "nonpayable",
      "type": "function"
    },
    {
      "inputs": [
        {
          "internalType": "address",
          "name": "file_address",
          "type": "address"
        },
        {
          "internalType": "address",
          "name": "comment_address",
          "type": "address"
        },
        {
          "internalType": "address",
          "name": "sub_comment_address",
          "type": "address"
        },
        {
          "internalType": "bool",
          "name": "is_up",
          "type": "bool"
        }
      ],
      "name": "upAndDownFileSubComment",
      "outputs": [],
      "stateMutability": "nonpayable",
      "type": "function"
    },
    {
      "inputs": [
        {
          "internalType": "string",
          "name": "avatar",
          "type": "string"
        }
      ],
      "name": "updateAvatar",
      "outputs": [],
      "stateMutability": "nonpayable",
      "type": "function"
    },
    {
      "inputs": [
        {
          "internalType": "string",
          "name": "nickname",
          "type": "string"
        }
      ],
      "name": "updateNickname",
      "outputs": [],
      "stateMutability": "nonpayable",
      "type": "function"
    },
    {
      "inputs": [
        {
          "internalType": "string",
          "name": "signature",
          "type": "string"
        }
      ],
      "name": "updateSignature",
      "outputs": [],
      "stateMutability": "nonpayable",
      "type": "function"
    },
    {
      "inputs": [
        {
          "internalType": "string",
          "name": "ipfs_address",
          "type": "string"
        },
        {
          "internalType": "string",
          "name": "name",
          "type": "string"
        },
        {
          "internalType": "string",
          "name": "title",
          "type": "string"
        },
        {
          "internalType": "string",
          "name": "description",
          "type": "string"
        },
        {
          "internalType": "address",
          "name": "category_address",
          "type": "address"
        },
        {
          "internalType": "string[3]",
          "name": "images",
          "type": "string[3]"
        },
        {
          "internalType": "uint256",
          "name": "price",
          "type": "uint256"
        }
      ],
      "name": "uploadFile",
      "outputs": [],
      "stateMutability": "nonpayable",
      "type": "function"
    },
    {
      "inputs": [],
      "name": "init",
      "outputs": [],
      "stateMutability": "nonpayable",
      "type": "function"
    }
  ],
  "bytecode": "0x608060405234801561001057600080fd5b50615317806100206000396000f3fe608060405234801561001057600080fd5b50600436106101735760003560e01c8063bd2e3b17116100de578063e1c7392a11610097578063f2e9c78311610071578063f2e9c7831461043a578063f33e2a8c14610456578063f851a44014610472578063f8c4b6c01461049057610173565b8063e1c7392a146103e2578063f2c298be146103ec578063f2e77e9a1461040857610173565b8063bd2e3b171461030e578063bfc958ea1461032a578063c3c5a54714610346578063c8ef7dd614610376578063cffa6442146103a6578063db12e041146103d857610173565b80637b743928116101305780637b743928146102605780637e8e7733146102925780638bad0c0a146102b05780639d5dfe41146102ba5780639fe958b9146102d6578063a389559f146102f257610173565b806303a367f61461017857806320c16dd51461019457806324c432e2146101c65780632e0dcbf7146101f85780636020c0041461021457806375829def14610244575b600080fd5b610192600480360381019061018d9190611ffc565b6104ac565b005b6101ae60048036038101906101a99190612099565b610524565b6040516101bd939291906123f0565b60405180910390f35b6101e060048036038101906101db919061242e565b6105d0565b6040516101ef939291906123f0565b60405180910390f35b610212600480360381019061020d91906125a3565b610675565b005b61022e600480360381019061022991906125ec565b610772565b60405161023b91906126f3565b60405180910390f35b61025e600480360381019061025991906125ec565b610803565b005b61027a60048036038101906102759190612715565b61090c565b60405161028993929190612970565b60405180910390f35b61029a6109b5565b6040516102a79190612ac7565b60405180910390f35b6102b8610a42565b005b6102d460048036038101906102cf919061242e565b610adc565b005b6102f060048036038101906102eb91906125a3565b610b4e565b005b61030c600480360381019061030791906125a3565b610c79565b005b610328600480360381019061032391906125a3565b610da4565b005b610344600480360381019061033f9190612ae9565b610ecf565b005b610360600480360381019061035b91906125ec565b610f47565b60405161036d9190612b6c565b60405180910390f35b610390600480360381019061038b91906125ec565b610fcd565b60405161039d9190612db1565b60405180910390f35b6103c060048036038101906103bb91906125ec565b61105e565b6040516103cf93929190612ed9565b60405180910390f35b6103e06110fe565b005b6103ea611100565b005b610406600480360381019061040191906125a3565b6111e9565b005b610422600480360381019061041d9190612099565b611315565b6040516104319392919061315e565b60405180910390f35b610454600480360381019061044f9190613270565b6113c1565b005b610470600480360381019061046b919061339e565b611632565b005b61047a6116a7565b60405161048791906133f1565b60405180910390f35b6104aa60048036038101906104a5919061340c565b6116cb565b005b601573__FileLib_______________________________6343b8e9759091868686866040518663ffffffff1660e01b81526004016104ee9594939291906134bc565b60006040518083038186803b15801561050657600080fd5b505af415801561051a573d6000803e3d6000fd5b5050505050505050565b61052c611a9d565b600080601573__FileLib_______________________________6372cfd1be90918989898960016040518763ffffffff1660e01b815260040161057496959493929190613525565b600060405180830381865af4158015610591573d6000803e3d6000fd5b505050506040513d6000823e3d601f19601f820116820180604052508101906105ba91906138fe565b8093508194508295505050509450945094915050565b6105d8611a9d565b600080601573__FileLib_______________________________632b5d580c9091878760016040518563ffffffff1660e01b815260040161061c949392919061396d565b600060405180830381865af4158015610639573d6000803e3d6000fd5b505050506040513d6000823e3d601f19601f8201168201806040525081019061066291906138fe565b8093508194508295505050509250925092565b3373ffffffffffffffffffffffffffffffffffffffff1660008054906101000a900473ffffffffffffffffffffffffffffffffffffffff1673ffffffffffffffffffffffffffffffffffffffff1614610703576040517f08c379a00000000000000000000000000000000000000000000000000000000081526004016106fa90613a0f565b60405180910390fd5b602973__CategoryLib___________________________63a1a3afd09091836040518363ffffffff1660e01b815260040161073f929190613a80565b60006040518083038186803b15801561075757600080fd5b505af415801561076b573d6000803e3d6000fd5b5050505050565b61077a611acb565b600173__UserLib_______________________________6301962a669091846040518363ffffffff1660e01b81526004016107b6929190613ab7565b600060405180830381865af41580156107d3573d6000803e3d6000fd5b505050506040513d6000823e3d601f19601f820116820180604052508101906107fc9190613c30565b9050919050565b3373ffffffffffffffffffffffffffffffffffffffff1660008054906101000a900473ffffffffffffffffffffffffffffffffffffffff1673ffffffffffffffffffffffffffffffffffffffff1614610891576040517f08c379a000000000000000000000000000000000000000000000000000000000815260040161088890613a0f565b60405180910390fd5b600073ffffffffffffffffffffffffffffffffffffffff168173ffffffffffffffffffffffffffffffffffffffff1603610900576040517f08c379a00000000000000000000000000000000000000000000000000000000081526004016108f790613cc5565b60405180910390fd5b61090981611740565b50565b610914611b17565b600080601573__FileLib_______________________________63bfe92747909188888860016040518663ffffffff1660e01b815260040161095a959493929190613ce5565b600060405180830381865af4158015610977573d6000803e3d6000fd5b505050506040513d6000823e3d601f19601f820116820180604052508101906109a09190614001565b80935081945082955050505093509350939050565b6109bd611b45565b600173__UserLib_______________________________636e0358de90916040518263ffffffff1660e01b81526004016109f79190614070565b600060405180830381865af4158015610a14573d6000803e3d6000fd5b505050506040513d6000823e3d601f19601f82011682018060405250810190610a3d919061421d565b905090565b3373ffffffffffffffffffffffffffffffffffffffff1660008054906101000a900473ffffffffffffffffffffffffffffffffffffffff1673ffffffffffffffffffffffffffffffffffffffff1614610ad0576040517f08c379a0000000000000000000000000000000000000000000000000000000008152600401610ac790613a0f565b60405180910390fd5b610ada6000611740565b565b601573__FileLib_______________________________630f1040e1909184846040518463ffffffff1660e01b8152600401610b1a93929190614266565b60006040518083038186803b158015610b3257600080fd5b505af4158015610b46573d6000803e3d6000fd5b505050505050565b600173__UserLib_______________________________63b50d32099091336040518363ffffffff1660e01b8152600401610b8a929190613ab7565b602060405180830381865af4158015610ba7573d6000803e3d6000fd5b505050506040513d601f19601f82011682018060405250810190610bcb919061429d565b610c0a576040517f08c379a0000000000000000000000000000000000000000000000000000000008152600401610c0190614316565b60405180910390fd5b600173__UserLib_______________________________6369b33f769091836040518363ffffffff1660e01b8152600401610c46929190614336565b60006040518083038186803b158015610c5e57600080fd5b505af4158015610c72573d6000803e3d6000fd5b5050505050565b600173__UserLib_______________________________63b50d32099091336040518363ffffffff1660e01b8152600401610cb5929190613ab7565b602060405180830381865af4158015610cd2573d6000803e3d6000fd5b505050506040513d601f19601f82011682018060405250810190610cf6919061429d565b610d35576040517f08c379a0000000000000000000000000000000000000000000000000000000008152600401610d2c906143b2565b60405180910390fd5b600173__UserLib_______________________________6368caaef19091836040518363ffffffff1660e01b8152600401610d71929190614336565b60006040518083038186803b158015610d8957600080fd5b505af4158015610d9d573d6000803e3d6000fd5b5050505050565b600173__UserLib_______________________________63b50d32099091336040518363ffffffff1660e01b8152600401610de0929190613ab7565b602060405180830381865af4158015610dfd573d6000803e3d6000fd5b505050506040513d601f19601f82011682018060405250810190610e21919061429d565b610e60576040517f08c379a0000000000000000000000000000000000000000000000000000000008152600401610e579061441e565b60405180910390fd5b600173__UserLib_______________________________63e0baafdb9091836040518363ffffffff1660e01b8152600401610e9c929190614336565b60006040518083038186803b158015610eb457600080fd5b505af4158015610ec8573d6000803e3d6000fd5b5050505050565b601573__FileLib_______________________________63d994bc3d9091868686866040518663ffffffff1660e01b8152600401610f1195949392919061443e565b60006040518083038186803b158015610f2957600080fd5b505af4158015610f3d573d6000803e3d6000fd5b5050505050505050565b6000600173__UserLib_______________________________63b50d32099091846040518363ffffffff1660e01b8152600401610f85929190613ab7565b602060405180830381865af4158015610fa2573d6000803e3d6000fd5b505050506040513d601f19601f82011682018060405250810190610fc6919061429d565b9050919050565b610fd5611ba6565b601573__FileLib_______________________________63584c2ff59091846040518363ffffffff1660e01b8152600401611011929190614498565b600060405180830381865af415801561102e573d6000803e3d6000fd5b505050506040513d6000823e3d601f19601f820116820180604052508101906110579190614770565b9050919050565b611066611c6d565b600080602973__CategoryLib___________________________634817eb9d9091866040518363ffffffff1660e01b81526004016110a59291906147b9565b600060405180830381865af41580156110c2573d6000803e3d6000fd5b505050506040513d6000823e3d601f19601f820116820180604052508101906110eb9190614931565b8093508194508295505050509193909250565b565b600073ffffffffffffffffffffffffffffffffffffffff1660008054906101000a900473ffffffffffffffffffffffffffffffffffffffff1673ffffffffffffffffffffffffffffffffffffffff160361118f576040517f08c379a0000000000000000000000000000000000000000000000000000000008152600401611186906149ec565b60405180910390fd5b336000806101000a81548173ffffffffffffffffffffffffffffffffffffffff021916908373ffffffffffffffffffffffffffffffffffffffff1602179055506111d7611804565b6111df611870565b6111e7611946565b565b600173__UserLib_______________________________63b50d32099091336040518363ffffffff1660e01b8152600401611225929190613ab7565b602060405180830381865af4158015611242573d6000803e3d6000fd5b505050506040513d601f19601f82011682018060405250810190611266919061429d565b156112a6576040517f08c379a000000000000000000000000000000000000000000000000000000000815260040161129d90614a58565b60405180910390fd5b600173__UserLib_______________________________632ef420dd9091836040518363ffffffff1660e01b81526004016112e2929190614336565b60006040518083038186803b1580156112fa57600080fd5b505af415801561130e573d6000803e3d6000fd5b5050505050565b61131d611c9b565b600080601573__FileLib_______________________________63990f186090918989898960016040518763ffffffff1660e01b815260040161136596959493929190613525565b600060405180830381865af4158015611382573d6000803e3d6000fd5b505050506040513d6000823e3d601f19601f820116820180604052508101906113ab9190614d7c565b8093508194508295505050509450945094915050565b602973__CategoryLib___________________________63853b58329091856040518363ffffffff1660e01b81526004016113fd9291906147b9565b602060405180830381865af415801561141a573d6000803e3d6000fd5b505050506040513d601f19601f8201168201806040525081019061143e919061429d565b61147d576040517f08c379a000000000000000000000000000000000000000000000000000000000815260040161147490614e37565b60405180910390fd5b61149460016040876119489092919063ffffffff16565b6114ab60016014836119fc9092919063ffffffff16565b6114c36001610200866119489092919063ffffffff16565b6000601573__FileLib_______________________________6304be43b890918a8a8a8a8a8a8a6040518963ffffffff1660e01b815260040161150d989796959493929190614f35565b602060405180830381865af415801561152a573d6000803e3d6000fd5b505050506040513d601f19601f8201168201806040525081019061154e9190614fd6565b9050602973__CategoryLib___________________________63c525098d9091866040518363ffffffff1660e01b815260040161158c9291906147b9565b60006040518083038186803b1580156115a457600080fd5b505af41580156115b8573d6000803e3d6000fd5b50505050600173__UserLib_______________________________636275fd579091836040518363ffffffff1660e01b81526004016115f8929190613ab7565b60006040518083038186803b15801561161057600080fd5b505af4158015611624573d6000803e3d6000fd5b505050505050505050505050565b601573__FileLib_______________________________639d15ddf190918585856040518563ffffffff1660e01b81526004016116729493929190615003565b60006040518083038186803b15801561168a57600080fd5b505af415801561169e573d6000803e3d6000fd5b50505050505050565b60008054906101000a900473ffffffffffffffffffffffffffffffffffffffff1681565b601573__FileLib_______________________________639572064f90918585856040518563ffffffff1660e01b815260040161170b9493929190615048565b60006040518083038186803b15801561172357600080fd5b505af4158015611737573d6000803e3d6000fd5b50505050505050565b60008060009054906101000a900473ffffffffffffffffffffffffffffffffffffffff169050816000806101000a81548173ffffffffffffffffffffffffffffffffffffffff021916908373ffffffffffffffffffffffffffffffffffffffff1602179055508173ffffffffffffffffffffffffffffffffffffffff168173ffffffffffffffffffffffffffffffffffffffff167ff8ccb027dfcd135e000e9d45e6cc2d662578a8825d4c45b5e32e0adf67e79ec660405160405180910390a35050565b600173__UserLib_______________________________6374aa063390916040518263ffffffff1660e01b815260040161183e9190614070565b60006040518083038186803b15801561185657600080fd5b505af415801561186a573d6000803e3d6000fd5b50505050565b601573__FileLib_______________________________63d0eb643090916040518263ffffffff1660e01b81526004016118aa919061509b565b60006040518083038186803b1580156118c257600080fd5b505af41580156118d6573d6000803e3d6000fd5b50505050602973__CategoryLib___________________________63d0eefddb90916040518263ffffffff1660e01b815260040161191491906150b6565b60006040518083038186803b15801561192c57600080fd5b505af4158015611940573d6000803e3d6000fd5b50505050565b565b6000600384516119589190615100565b905060008314806119695750828110155b6119a8576040517f08c379a000000000000000000000000000000000000000000000000000000000815260040161199f9061517d565b60405180910390fd5b60008214806119b75750818111155b6119f6576040517f08c379a00000000000000000000000000000000000000000000000000000000081526004016119ed906151e9565b60405180910390fd5b50505050565b6000821480611a0b5750818310155b611a4a576040517f08c379a0000000000000000000000000000000000000000000000000000000008152600401611a4190615255565b60405180910390fd5b6000811480611a595750808311155b611a98576040517f08c379a0000000000000000000000000000000000000000000000000000000008152600401611a8f906152c1565b60405180910390fd5b505050565b604051806101400160405280600a905b611ab5611cc9565b815260200190600190039081611aad5790505090565b6040518061012001604052806060815260200160608152602001606081526020016060815260200160008152602001600081526020016000815260200160008152602001600081525090565b604051806101400160405280600a905b611b2f611d6d565b815260200190600190039081611b275790505090565b6040518061018001604052806060815260200160608152602001606081526020016060815260200160008152602001600081526020016000815260200160008152602001600081526020016000815260200160008152602001600081525090565b604051806102000160405280600073ffffffffffffffffffffffffffffffffffffffff168152602001600073ffffffffffffffffffffffffffffffffffffffff168152602001600073ffffffffffffffffffffffffffffffffffffffff16815260200160001515815260200160608152602001606081526020016060815260200160608152602001611c36611e0e565b8152602001600081526020016000815260200160008152602001600081526020016000815260200160008152602001600081525090565b604051806101400160405280600a905b611c85611e35565b815260200190600190039081611c7d5790505090565b604051806101400160405280600a905b611cb3611e6c565b815260200190600190039081611cab5790505090565b604051806101e00160405280600073ffffffffffffffffffffffffffffffffffffffff168152602001600073ffffffffffffffffffffffffffffffffffffffff1681526020016000151581526020016060815260200160608152602001606081526020016060815260200160608152602001600081526020016000815260200160008152602001600081526020016000815260200160008152602001600081525090565b604051806101400160405280600073ffffffffffffffffffffffffffffffffffffffff168152602001600073ffffffffffffffffffffffffffffffffffffffff168152602001600073ffffffffffffffffffffffffffffffffffffffff16815260200160608152602001611ddf611ee7565b8152602001611dec611ee7565b8152602001600081526020016000815260200160008152602001600081525090565b60405180606001604052806003905b6060815260200190600190039081611e1d5790505090565b6040518060600160405280600073ffffffffffffffffffffffffffffffffffffffff16815260200160608152602001600081525090565b604051806101400160405280600073ffffffffffffffffffffffffffffffffffffffff168152602001611e9d611f25565b815260200160608152602001611eb1611e0e565b8152602001611ebe611ee7565b815260200160008152602001600081526020016000815260200160008152602001600081525090565b6040518060800160405280600073ffffffffffffffffffffffffffffffffffffffff1681526020016060815260200160608152602001600081525090565b60405180604001604052806002905b611f3c611d6d565b815260200190600190039081611f345790505090565b6000604051905090565b600080fd5b600080fd5b600073ffffffffffffffffffffffffffffffffffffffff82169050919050565b6000611f9182611f66565b9050919050565b611fa181611f86565b8114611fac57600080fd5b50565b600081359050611fbe81611f98565b92915050565b60008115159050919050565b611fd981611fc4565b8114611fe457600080fd5b50565b600081359050611ff681611fd0565b92915050565b6000806000806080858703121561201657612015611f5c565b5b600061202487828801611faf565b945050602061203587828801611faf565b935050604061204687828801611faf565b925050606061205787828801611fe7565b91505092959194509250565b6000819050919050565b61207681612063565b811461208157600080fd5b50565b6000813590506120938161206d565b92915050565b600080600080608085870312156120b3576120b2611f5c565b5b60006120c187828801611faf565b94505060206120d287828801611faf565b93505060406120e387828801612084565b92505060606120f487828801611fe7565b91505092959194509250565b6000600a9050919050565b600081905092915050565b6000819050919050565b61212981611f86565b82525050565b61213881611fc4565b82525050565b600081519050919050565b600082825260208201905092915050565b60005b8381101561217857808201518184015260208101905061215d565b60008484015250505050565b6000601f19601f8301169050919050565b60006121a08261213e565b6121aa8185612149565b93506121ba81856020860161215a565b6121c381612184565b840191505092915050565b6121d781612063565b82525050565b60006101e0830160008301516121f66000860182612120565b5060208301516122096020860182612120565b50604083015161221c604086018261212f565b50606083015184820360608601526122348282612195565b9150506080830151848203608086015261224e8282612195565b91505060a083015184820360a08601526122688282612195565b91505060c083015184820360c08601526122828282612195565b91505060e083015184820360e086015261229c8282612195565b9150506101008301516122b36101008601826121ce565b506101208301516122c86101208601826121ce565b506101408301516122dd6101408601826121ce565b506101608301516122f26101608601826121ce565b506101808301516123076101808601826121ce565b506101a083015161231c6101a08601826121ce565b506101c08301516123316101c08601826121ce565b508091505092915050565b600061234883836121dd565b905092915050565b6000602082019050919050565b600061236882612100565b612372818561210b565b93508360208202850161238485612116565b8060005b858110156123c057848403895281516123a1858261233c565b94506123ac83612350565b925060208a01995050600181019050612388565b50829750879550505050505092915050565b6123db81611f86565b82525050565b6123ea81611fc4565b82525050565b6000606082019050818103600083015261240a818661235d565b905061241960208301856123d2565b61242660408301846123e1565b949350505050565b6000806040838503121561244557612444611f5c565b5b600061245385828601611faf565b925050602061246485828601611fe7565b9150509250929050565b600080fd5b600080fd5b7f4e487b7100000000000000000000000000000000000000000000000000000000600052604160045260246000fd5b6124b082612184565b810181811067ffffffffffffffff821117156124cf576124ce612478565b5b80604052505050565b60006124e2611f52565b90506124ee82826124a7565b919050565b600067ffffffffffffffff82111561250e5761250d612478565b5b61251782612184565b9050602081019050919050565b82818337600083830152505050565b6000612546612541846124f3565b6124d8565b90508281526020810184848401111561256257612561612473565b5b61256d848285612524565b509392505050565b600082601f83011261258a5761258961246e565b5b813561259a848260208601612533565b91505092915050565b6000602082840312156125b9576125b8611f5c565b5b600082013567ffffffffffffffff8111156125d7576125d6611f61565b5b6125e384828501612575565b91505092915050565b60006020828403121561260257612601611f5c565b5b600061261084828501611faf565b91505092915050565b60006101208301600083015184820360008601526126378282612195565b915050602083015184820360208601526126518282612195565b9150506040830151848203604086015261266b8282612195565b915050606083015184820360608601526126858282612195565b915050608083015161269a60808601826121ce565b5060a08301516126ad60a08601826121ce565b5060c08301516126c060c08601826121ce565b5060e08301516126d360e08601826121ce565b506101008301516126e86101008601826121ce565b508091505092915050565b6000602082019050818103600083015261270d8184612619565b905092915050565b60008060006060848603121561272e5761272d611f5c565b5b600061273c86828701611faf565b935050602061274d86828701611faf565b925050604061275e86828701611faf565b9150509250925092565b6000600a9050919050565b600081905092915050565b6000819050919050565b60006080830160008301516127a06000860182612120565b50602083015184820360208601526127b88282612195565b915050604083015184820360408601526127d28282612195565b91505060608301516127e760608601826121ce565b508091505092915050565b60006101408301600083015161280b6000860182612120565b50602083015161281e6020860182612120565b5060408301516128316040860182612120565b50606083015184820360608601526128498282612195565b915050608083015184820360808601526128638282612788565b91505060a083015184820360a086015261287d8282612788565b91505060c083015161289260c08601826121ce565b5060e08301516128a560e08601826121ce565b506101008301516128ba6101008601826121ce565b506101208301516128cf6101208601826121ce565b508091505092915050565b60006128e683836127f2565b905092915050565b6000602082019050919050565b600061290682612768565b6129108185612773565b9350836020820285016129228561277e565b8060005b8581101561295e578484038952815161293f85826128da565b945061294a836128ee565b925060208a01995050600181019050612926565b50829750879550505050505092915050565b6000606082019050818103600083015261298a81866128fb565b905061299960208301856123d2565b6129a660408301846123e1565b949350505050565b60006101808301600083015184820360008601526129cc8282612195565b915050602083015184820360208601526129e68282612195565b91505060408301518482036040860152612a008282612195565b91505060608301518482036060860152612a1a8282612195565b9150506080830151612a2f60808601826121ce565b5060a0830151612a4260a08601826121ce565b5060c0830151612a5560c08601826121ce565b5060e0830151612a6860e08601826121ce565b50610100830151612a7d6101008601826121ce565b50610120830151612a926101208601826121ce565b50610140830151612aa76101408601826121ce565b50610160830151612abc6101608601826121ce565b508091505092915050565b60006020820190508181036000830152612ae181846129ae565b905092915050565b60008060008060808587031215612b0357612b02611f5c565b5b6000612b1187828801611faf565b9450506020612b2287828801611faf565b9350506040612b3387828801611faf565b925050606085013567ffffffffffffffff811115612b5457612b53611f61565b5b612b6087828801612575565b91505092959194509250565b6000602082019050612b8160008301846123e1565b92915050565b600060039050919050565b600081905092915050565b6000819050919050565b6000612bb38383612195565b905092915050565b6000602082019050919050565b6000612bd382612b87565b612bdd8185612b92565b935083602082028501612bef85612b9d565b8060005b85811015612c2b5784840389528151612c0c8582612ba7565b9450612c1783612bbb565b925060208a01995050600181019050612bf3565b50829750879550505050505092915050565b600061020083016000830151612c566000860182612120565b506020830151612c696020860182612120565b506040830151612c7c6040860182612120565b506060830151612c8f606086018261212f565b5060808301518482036080860152612ca78282612195565b91505060a083015184820360a0860152612cc18282612195565b91505060c083015184820360c0860152612cdb8282612195565b91505060e083015184820360e0860152612cf58282612195565b915050610100830151848203610100860152612d118282612bc8565b915050610120830151612d286101208601826121ce565b50610140830151612d3d6101408601826121ce565b50610160830151612d526101608601826121ce565b50610180830151612d676101808601826121ce565b506101a0830151612d7c6101a08601826121ce565b506101c0830151612d916101c08601826121ce565b506101e0830151612da66101e08601826121ce565b508091505092915050565b60006020820190508181036000830152612dcb8184612c3d565b905092915050565b6000600a9050919050565b600081905092915050565b6000819050919050565b6000606083016000830151612e0b6000860182612120565b5060208301518482036020860152612e238282612195565b9150506040830151612e3860408601826121ce565b508091505092915050565b6000612e4f8383612df3565b905092915050565b6000602082019050919050565b6000612e6f82612dd3565b612e798185612dde565b935083602082028501612e8b85612de9565b8060005b85811015612ec75784840389528151612ea88582612e43565b9450612eb383612e57565b925060208a01995050600181019050612e8f565b50829750879550505050505092915050565b60006060820190508181036000830152612ef38186612e64565b9050612f0260208301856123d2565b612f0f60408301846123e1565b949350505050565b6000600a9050919050565b600081905092915050565b6000819050919050565b600060029050919050565b600081905092915050565b6000819050919050565b6000602082019050919050565b6000612f6f82612f37565b612f798185612f42565b935083602082028501612f8b85612f4d565b8060005b85811015612fc75784840389528151612fa885826128da565b9450612fb383612f57565b925060208a01995050600181019050612f8f565b50829750879550505050505092915050565b600061014083016000830151612ff26000860182612120565b506020830151848203602086015261300a8282612f64565b915050604083015184820360408601526130248282612195565b9150506060830151848203606086015261303e8282612bc8565b915050608083015184820360808601526130588282612788565b91505060a083015161306d60a08601826121ce565b5060c083015161308060c08601826121ce565b5060e083015161309360e08601826121ce565b506101008301516130a86101008601826121ce565b506101208301516130bd6101208601826121ce565b508091505092915050565b60006130d48383612fd9565b905092915050565b6000602082019050919050565b60006130f482612f17565b6130fe8185612f22565b93508360208202850161311085612f2d565b8060005b8581101561314c578484038952815161312d85826130c8565b9450613138836130dc565b925060208a01995050600181019050613114565b50829750879550505050505092915050565b6000606082019050818103600083015261317881866130e9565b905061318760208301856123d2565b61319460408301846123e1565b949350505050565b600067ffffffffffffffff8211156131b7576131b6612478565b5b602082029050919050565b600080fd5b60006131da6131d58461319c565b6124d8565b905080602084028301858111156131f4576131f36131c2565b5b835b8181101561323b57803567ffffffffffffffff8111156132195761321861246e565b5b8086016132268982612575565b855260208501945050506020810190506131f6565b5050509392505050565b600082601f83011261325a5761325961246e565b5b60036132678482856131c7565b91505092915050565b600080600080600080600060e0888a03121561328f5761328e611f5c565b5b600088013567ffffffffffffffff8111156132ad576132ac611f61565b5b6132b98a828b01612575565b975050602088013567ffffffffffffffff8111156132da576132d9611f61565b5b6132e68a828b01612575565b965050604088013567ffffffffffffffff81111561330757613306611f61565b5b6133138a828b01612575565b955050606088013567ffffffffffffffff81111561333457613333611f61565b5b6133408a828b01612575565b94505060806133518a828b01611faf565b93505060a088013567ffffffffffffffff81111561337257613371611f61565b5b61337e8a828b01613245565b92505060c061338f8a828b01612084565b91505092959891949750929550565b6000806000606084860312156133b7576133b6611f5c565b5b60006133c586828701611faf565b93505060206133d686828701611faf565b92505060406133e786828701611fe7565b9150509250925092565b600060208201905061340660008301846123d2565b92915050565b60008060006060848603121561342557613424611f5c565b5b600061343386828701611faf565b935050602084013567ffffffffffffffff81111561345457613453611f61565b5b61346086828701612575565b925050604084013567ffffffffffffffff81111561348157613480611f61565b5b61348d86828701613245565b9150509250925092565b8082525050565b6134a781611f86565b82525050565b6134b681611fc4565b82525050565b600060a0820190506134d16000830188613497565b6134de602083018761349e565b6134eb604083018661349e565b6134f8606083018561349e565b61350560808301846134ad565b9695505050505050565b61351881612063565b82525050565b8082525050565b600060c08201905061353a6000830189613497565b613547602083018861349e565b613554604083018761349e565b613561606083018661350f565b61356e60808301856134ad565b61357b60a083018461351e565b979650505050505050565b600067ffffffffffffffff8211156135a1576135a0612478565b5b602082029050919050565b600080fd5b600080fd5b6000815190506135c581611f98565b92915050565b6000815190506135da81611fd0565b92915050565b60006135f36135ee846124f3565b6124d8565b90508281526020810184848401111561360f5761360e612473565b5b61361a84828561215a565b509392505050565b600082601f8301126136375761363661246e565b5b81516136478482602086016135e0565b91505092915050565b60008151905061365f8161206d565b92915050565b60006101e0828403121561367c5761367b6135ac565b5b6136876101e06124d8565b90506000613697848285016135b6565b60008301525060206136ab848285016135b6565b60208301525060406136bf848285016135cb565b604083015250606082015167ffffffffffffffff8111156136e3576136e26135b1565b5b6136ef84828501613622565b606083015250608082015167ffffffffffffffff811115613713576137126135b1565b5b61371f84828501613622565b60808301525060a082015167ffffffffffffffff811115613743576137426135b1565b5b61374f84828501613622565b60a08301525060c082015167ffffffffffffffff811115613773576137726135b1565b5b61377f84828501613622565b60c08301525060e082015167ffffffffffffffff8111156137a3576137a26135b1565b5b6137af84828501613622565b60e0830152506101006137c484828501613650565b610100830152506101206137da84828501613650565b610120830152506101406137f084828501613650565b6101408301525061016061380684828501613650565b6101608301525061018061381c84828501613650565b610180830152506101a061383284828501613650565b6101a0830152506101c061384884828501613650565b6101c08301525092915050565b600061386861386384613586565b6124d8565b90508060208402830185811115613882576138816131c2565b5b835b818110156138c957805167ffffffffffffffff8111156138a7576138a661246e565b5b8086016138b48982613665565b85526020850194505050602081019050613884565b5050509392505050565b600082601f8301126138e8576138e761246e565b5b600a6138f5848285613855565b91505092915050565b60008060006060848603121561391757613916611f5c565b5b600084015167ffffffffffffffff81111561393557613934611f61565b5b613941868287016138d3565b9350506020613952868287016135b6565b9250506040613963868287016135cb565b9150509250925092565b60006080820190506139826000830187613497565b61398f602083018661349e565b61399c60408301856134ad565b6139a9606083018461351e565b95945050505050565b600082825260208201905092915050565b7f41646d696e436f6e74726163743e5f6f6e6c7941646d696e5f00000000000000600082015250565b60006139f96019836139b2565b9150613a04826139c3565b602082019050919050565b60006020820190508181036000830152613a28816139ec565b9050919050565b8082525050565b600082825260208201905092915050565b6000613a528261213e565b613a5c8185613a36565b9350613a6c81856020860161215a565b613a7581612184565b840191505092915050565b6000604082019050613a956000830185613a2f565b8181036020830152613aa78184613a47565b90509392505050565b8082525050565b6000604082019050613acc6000830185613ab0565b613ad9602083018461349e565b9392505050565b60006101208284031215613af757613af66135ac565b5b613b026101206124d8565b9050600082015167ffffffffffffffff811115613b2257613b216135b1565b5b613b2e84828501613622565b600083015250602082015167ffffffffffffffff811115613b5257613b516135b1565b5b613b5e84828501613622565b602083015250604082015167ffffffffffffffff811115613b8257613b816135b1565b5b613b8e84828501613622565b604083015250606082015167ffffffffffffffff811115613bb257613bb16135b1565b5b613bbe84828501613622565b6060830152506080613bd284828501613650565b60808301525060a0613be684828501613650565b60a08301525060c0613bfa84828501613650565b60c08301525060e0613c0e84828501613650565b60e083015250610100613c2384828501613650565b6101008301525092915050565b600060208284031215613c4657613c45611f5c565b5b600082015167ffffffffffffffff811115613c6457613c63611f61565b5b613c7084828501613ae0565b91505092915050565b7f41646d696e436f6e74726163743e7472616e7366657241646d696e0000000000600082015250565b6000613caf601b836139b2565b9150613cba82613c79565b602082019050919050565b60006020820190508181036000830152613cde81613ca2565b9050919050565b600060a082019050613cfa6000830188613497565b613d07602083018761349e565b613d14604083018661349e565b613d21606083018561349e565b613d2e608083018461351e565b9695505050505050565b600067ffffffffffffffff821115613d5357613d52612478565b5b602082029050919050565b600060808284031215613d7457613d736135ac565b5b613d7e60806124d8565b90506000613d8e848285016135b6565b600083015250602082015167ffffffffffffffff811115613db257613db16135b1565b5b613dbe84828501613622565b602083015250604082015167ffffffffffffffff811115613de257613de16135b1565b5b613dee84828501613622565b6040830152506060613e0284828501613650565b60608301525092915050565b60006101408284031215613e2557613e246135ac565b5b613e306101406124d8565b90506000613e40848285016135b6565b6000830152506020613e54848285016135b6565b6020830152506040613e68848285016135b6565b604083015250606082015167ffffffffffffffff811115613e8c57613e8b6135b1565b5b613e9884828501613622565b606083015250608082015167ffffffffffffffff811115613ebc57613ebb6135b1565b5b613ec884828501613d5e565b60808301525060a082015167ffffffffffffffff811115613eec57613eeb6135b1565b5b613ef884828501613d5e565b60a08301525060c0613f0c84828501613650565b60c08301525060e0613f2084828501613650565b60e083015250610100613f3584828501613650565b61010083015250610120613f4b84828501613650565b6101208301525092915050565b6000613f6b613f6684613d38565b6124d8565b90508060208402830185811115613f8557613f846131c2565b5b835b81811015613fcc57805167ffffffffffffffff811115613faa57613fa961246e565b5b808601613fb78982613e0e565b85526020850194505050602081019050613f87565b5050509392505050565b600082601f830112613feb57613fea61246e565b5b600a613ff8848285613f58565b91505092915050565b60008060006060848603121561401a57614019611f5c565b5b600084015167ffffffffffffffff81111561403857614037611f61565b5b61404486828701613fd6565b9350506020614055868287016135b6565b9250506040614066868287016135cb565b9150509250925092565b60006020820190506140856000830184613ab0565b92915050565b600061018082840312156140a2576140a16135ac565b5b6140ad6101806124d8565b9050600082015167ffffffffffffffff8111156140cd576140cc6135b1565b5b6140d984828501613622565b600083015250602082015167ffffffffffffffff8111156140fd576140fc6135b1565b5b61410984828501613622565b602083015250604082015167ffffffffffffffff81111561412d5761412c6135b1565b5b61413984828501613622565b604083015250606082015167ffffffffffffffff81111561415d5761415c6135b1565b5b61416984828501613622565b606083015250608061417d84828501613650565b60808301525060a061419184828501613650565b60a08301525060c06141a584828501613650565b60c08301525060e06141b984828501613650565b60e0830152506101006141ce84828501613650565b610100830152506101206141e484828501613650565b610120830152506101406141fa84828501613650565b6101408301525061016061421084828501613650565b6101608301525092915050565b60006020828403121561423357614232611f5c565b5b600082015167ffffffffffffffff81111561425157614250611f61565b5b61425d8482850161408b565b91505092915050565b600060608201905061427b6000830186613497565b614288602083018561349e565b61429560408301846134ad565b949350505050565b6000602082840312156142b3576142b2611f5c565b5b60006142c1848285016135cb565b91505092915050565b7f55736572436f6e74726163743e75706461746541766174617200000000000000600082015250565b60006143006019836139b2565b915061430b826142ca565b602082019050919050565b6000602082019050818103600083015261432f816142f3565b9050919050565b600060408201905061434b6000830185613ab0565b818103602083015261435d8184613a47565b90509392505050565b7f55736572436f6e74726163743e7570646174655369676e617475726500000000600082015250565b600061439c601c836139b2565b91506143a782614366565b602082019050919050565b600060208201905081810360008301526143cb8161438f565b9050919050565b7f55736572436f6e74726163743e7570646174654e69636b6e616d650000000000600082015250565b6000614408601b836139b2565b9150614413826143d2565b602082019050919050565b60006020820190508181036000830152614437816143fb565b9050919050565b600060a0820190506144536000830188613497565b614460602083018761349e565b61446d604083018661349e565b61447a606083018561349e565b818103608083015261448c8184613a47565b90509695505050505050565b60006040820190506144ad6000830185613497565b6144ba602083018461349e565b9392505050565b60006144d46144cf8461319c565b6124d8565b905080602084028301858111156144ee576144ed6131c2565b5b835b8181101561453557805167ffffffffffffffff8111156145135761451261246e565b5b8086016145208982613622565b855260208501945050506020810190506144f0565b5050509392505050565b600082601f8301126145545761455361246e565b5b60036145618482856144c1565b91505092915050565b60006102008284031215614581576145806135ac565b5b61458c6102006124d8565b9050600061459c848285016135b6565b60008301525060206145b0848285016135b6565b60208301525060406145c4848285016135b6565b60408301525060606145d8848285016135cb565b606083015250608082015167ffffffffffffffff8111156145fc576145fb6135b1565b5b61460884828501613622565b60808301525060a082015167ffffffffffffffff81111561462c5761462b6135b1565b5b61463884828501613622565b60a08301525060c082015167ffffffffffffffff81111561465c5761465b6135b1565b5b61466884828501613622565b60c08301525060e082015167ffffffffffffffff81111561468c5761468b6135b1565b5b61469884828501613622565b60e08301525061010082015167ffffffffffffffff8111156146bd576146bc6135b1565b5b6146c98482850161453f565b610100830152506101206146df84828501613650565b610120830152506101406146f584828501613650565b6101408301525061016061470b84828501613650565b6101608301525061018061472184828501613650565b610180830152506101a061473784828501613650565b6101a0830152506101c061474d84828501613650565b6101c0830152506101e061476384828501613650565b6101e08301525092915050565b60006020828403121561478657614785611f5c565b5b600082015167ffffffffffffffff8111156147a4576147a3611f61565b5b6147b08482850161456a565b91505092915050565b60006040820190506147ce6000830185613a2f565b6147db602083018461349e565b9392505050565b600067ffffffffffffffff8211156147fd576147fc612478565b5b602082029050919050565b60006060828403121561481e5761481d6135ac565b5b61482860606124d8565b90506000614838848285016135b6565b600083015250602082015167ffffffffffffffff81111561485c5761485b6135b1565b5b61486884828501613622565b602083015250604061487c84828501613650565b60408301525092915050565b600061489b614896846147e2565b6124d8565b905080602084028301858111156148b5576148b46131c2565b5b835b818110156148fc57805167ffffffffffffffff8111156148da576148d961246e565b5b8086016148e78982614808565b855260208501945050506020810190506148b7565b5050509392505050565b600082601f83011261491b5761491a61246e565b5b600a614928848285614888565b91505092915050565b60008060006060848603121561494a57614949611f5c565b5b600084015167ffffffffffffffff81111561496857614967611f61565b5b61497486828701614906565b9350506020614985868287016135b6565b9250506040614996868287016135cb565b9150509250925092565b7f696e697469616c697a6564000000000000000000000000000000000000000000600082015250565b60006149d6600b836139b2565b91506149e1826149a0565b602082019050919050565b60006020820190508181036000830152614a05816149c9565b9050919050565b7f55736572436f6e74726163743e72656769737465720000000000000000000000600082015250565b6000614a426015836139b2565b9150614a4d82614a0c565b602082019050919050565b60006020820190508181036000830152614a7181614a35565b9050919050565b600067ffffffffffffffff821115614a9357614a92612478565b5b602082029050919050565b600067ffffffffffffffff821115614ab957614ab8612478565b5b602082029050919050565b6000614ad7614ad284614a9e565b6124d8565b90508060208402830185811115614af157614af06131c2565b5b835b81811015614b3857805167ffffffffffffffff811115614b1657614b1561246e565b5b808601614b238982613e0e565b85526020850194505050602081019050614af3565b5050509392505050565b600082601f830112614b5757614b5661246e565b5b6002614b64848285614ac4565b91505092915050565b60006101408284031215614b8457614b836135ac565b5b614b8f6101406124d8565b90506000614b9f848285016135b6565b600083015250602082015167ffffffffffffffff811115614bc357614bc26135b1565b5b614bcf84828501614b42565b602083015250604082015167ffffffffffffffff811115614bf357614bf26135b1565b5b614bff84828501613622565b604083015250606082015167ffffffffffffffff811115614c2357614c226135b1565b5b614c2f8482850161453f565b606083015250608082015167ffffffffffffffff811115614c5357614c526135b1565b5b614c5f84828501613d5e565b60808301525060a0614c7384828501613650565b60a08301525060c0614c8784828501613650565b60c08301525060e0614c9b84828501613650565b60e083015250610100614cb084828501613650565b61010083015250610120614cc684828501613650565b6101208301525092915050565b6000614ce6614ce184614a78565b6124d8565b90508060208402830185811115614d0057614cff6131c2565b5b835b81811015614d4757805167ffffffffffffffff811115614d2557614d2461246e565b5b808601614d328982614b6d565b85526020850194505050602081019050614d02565b5050509392505050565b600082601f830112614d6657614d6561246e565b5b600a614d73848285614cd3565b91505092915050565b600080600060608486031215614d9557614d94611f5c565b5b600084015167ffffffffffffffff811115614db357614db2611f61565b5b614dbf86828701614d51565b9350506020614dd0868287016135b6565b9250506040614de1868287016135cb565b9150509250925092565b7f46696c65436f6e746163743e75706c6f616446696c6500000000000000000000600082015250565b6000614e216016836139b2565b9150614e2c82614deb565b602082019050919050565b60006020820190508181036000830152614e5081614e14565b9050919050565b600081905092915050565b600082825260208201905092915050565b6000614e7e8261213e565b614e888185614e62565b9350614e9881856020860161215a565b614ea181612184565b840191505092915050565b6000614eb88383614e73565b905092915050565b6000614ecb82612b87565b614ed58185614e57565b935083602082028501614ee785612b9d565b8060005b85811015614f235784840389528151614f048582614eac565b9450614f0f83612bbb565b925060208a01995050600181019050614eeb565b50829750879550505050505092915050565b600061010082019050614f4b600083018b613497565b8181036020830152614f5d818a613a47565b90508181036040830152614f718189613a47565b90508181036060830152614f858188613a47565b90508181036080830152614f998187613a47565b9050614fa860a083018661349e565b81810360c0830152614fba8185614ec0565b9050614fc960e083018461350f565b9998505050505050505050565b600060208284031215614fec57614feb611f5c565b5b6000614ffa848285016135b6565b91505092915050565b60006080820190506150186000830187613497565b615025602083018661349e565b615032604083018561349e565b61503f60608301846134ad565b95945050505050565b600060808201905061505d6000830187613497565b61506a602083018661349e565b818103604083015261507c8185613a47565b905081810360608301526150908184614ec0565b905095945050505050565b60006020820190506150b06000830184613497565b92915050565b60006020820190506150cb6000830184613a2f565b92915050565b7f4e487b7100000000000000000000000000000000000000000000000000000000600052601260045260246000fd5b600061510b82612063565b915061511683612063565b925082615126576151256150d1565b5b828204905092915050565b7f537472696e674c69623e72616e67653e31000000000000000000000000000000600082015250565b60006151676011836139b2565b915061517282615131565b602082019050919050565b600060208201905081810360008301526151968161515a565b9050919050565b7f537472696e674c69623e72616e67653e32000000000000000000000000000000600082015250565b60006151d36011836139b2565b91506151de8261519d565b602082019050919050565b60006020820190508181036000830152615202816151c6565b9050919050565b7f55696e744c69623e72616e67653e310000000000000000000000000000000000600082015250565b600061523f600f836139b2565b915061524a82615209565b602082019050919050565b6000602082019050818103600083015261526e81615232565b9050919050565b7f55696e744c69623e72616e67653e320000000000000000000000000000000000600082015250565b60006152ab600f836139b2565b91506152b682615275565b602082019050919050565b600060208201905081810360008301526152da8161529e565b905091905056fea26469706673582212209d0949e48f133a03d7b3bffec6f6261c45f3e621bc93626fd8aa45a3b67277e164736f6c63430008110033",
  "immutableReferences": {},
  "source": "// SPDX-License-Identifier: GPL-3.0\r\npragma solidity ^0.8.17;\r\n\r\nimport \"./implementations/base/Base.sol\";\r\nimport \"./implementations/User.sol\";\r\nimport \"./implementations/File.sol\";\r\nimport \"./implementations/Reward.sol\";\r\nimport \"./implementations/Message.sol\";\r\n\r\ninterface ImplementationInterface is AdminInterface, UserInterface, FileInterface, RewardInterface, MessageInterface {\r\n    function init() external;\r\n}\r\n\r\ncontract ImplementationContact is UserContract, FileContact, RewardContact, MessageContact {\r\n    function init()\r\n    public {\r\n        require(admin != address(0), \"initialized\");\r\n        admin = msg.sender;\r\n        UserContract_init();\r\n        FileContract_init();\r\n//        RewardContract_init();\r\n        MessageContract_init();\r\n    }\r\n}\r\n\r\ncontract OurShare is AdminContract {\r\n    bytes32 private constant implementation_position = keccak256(\"OurShare\");\r\n\r\n    constructor(){\r\n        admin = msg.sender;\r\n    }\r\n\r\n    function getImplementation() public view returns (address implementation) {\r\n        bytes32 position = implementation_position;\r\n        assembly {\r\n            implementation := sload(position)\r\n        }\r\n    }\r\n\r\n    function setImplementation(address implementation) public _onlyAdmin_ {\r\n        bytes32 position = implementation_position;\r\n        assembly {\r\n            sstore(position, implementation)\r\n        }\r\n    }\r\n\r\n    function _delegate(address implementation) internal {\r\n        assembly {\r\n            calldatacopy(0, 0, calldatasize())\r\n            let result := delegatecall(gas(), implementation, 0, calldatasize(), 0, 0)\r\n            returndatacopy(0, 0, returndatasize())\r\n            switch result\r\n            case 0 {\r\n                revert(0, returndatasize())\r\n            }\r\n            default {\r\n                return (0, returndatasize())\r\n            }\r\n        }\r\n    }\r\n\r\n    fallback() external payable {\r\n        _delegate(getImplementation());\r\n    }\r\n\r\n    receive() external payable {\r\n        _delegate(getImplementation());\r\n    }\r\n}\r\n",
  "sourcePath": "F:\\OurChain\\OurShare\\src\\assets\\eth\\contracts\\OurShare.sol",
  "compiler": {
    "name": "solc",
    "version": "0.8.17+commit.8df45f5f.Emscripten.clang"
  },
  "schemaVersion": "3.4.13",
  "updatedAt": "2023-05-27T12:33:08.393Z",
  "networkType": "ethereum",
  "devdoc": {
    "kind": "dev",
    "methods": {},
    "version": 1
  },
  "userdoc": {
    "kind": "user",
    "methods": {},
    "version": 1
  }
}