{
  "contractName": "ImplementationContact",
  "abi": [
    {
      "anonymous": false,
      "inputs": [
        {
          "indexed": true,
          "internalType": "address",
          "name": "old_admin",
          "type": "address"
        },
        {
          "indexed": true,
          "internalType": "address",
          "name": "new_admin",
          "type": "address"
        }
      ],
      "name": "AdminTransferred",
      "type": "event"
    },
    {
      "inputs": [],
      "name": "RewardContact_init",
      "outputs": [],
      "stateMutability": "nonpayable",
      "type": "function"
    },
    {
      "inputs": [
        {
          "internalType": "string",
          "name": "name",
          "type": "string"
        }
      ],
      "name": "addCategory",
      "outputs": [],
      "stateMutability": "nonpayable",
      "type": "function"
    },
    {
      "inputs": [],
      "name": "admin",
      "outputs": [
        {
          "internalType": "address",
          "name": "",
          "type": "address"
        }
      ],
      "stateMutability": "view",
      "type": "function"
    },
    {
      "inputs": [
        {
          "internalType": "address",
          "name": "cursor",
          "type": "address"
        }
      ],
      "name": "getCategorySlice",
      "outputs": [
        {
          "components": [
            {
              "internalType": "address",
              "name": "category_address",
              "type": "address"
            },
            {
              "internalType": "string",
              "name": "name",
              "type": "string"
            },
            {
              "internalType": "uint256",
              "name": "num",
              "type": "uint256"
            }
          ],
          "internalType": "struct StoreContact.Category[10]",
          "name": "category_slice",
          "type": "tuple[10]"
        },
        {
          "internalType": "address",
          "name": "next",
          "type": "address"
        }
      ],
      "stateMutability": "view",
      "type": "function"
    },
    {
      "inputs": [
        {
          "internalType": "address",
          "name": "cursor",
          "type": "address"
        },
        {
          "internalType": "bool",
          "name": "reverse",
          "type": "bool"
        }
      ],
      "name": "getSelfFileInfos",
      "outputs": [
        {
          "components": [
            {
              "internalType": "address",
              "name": "file_address",
              "type": "address"
            },
            {
              "internalType": "address",
              "name": "ipfs_address",
              "type": "address"
            },
            {
              "internalType": "address",
              "name": "owner",
              "type": "address"
            },
            {
              "internalType": "string",
              "name": "title",
              "type": "string"
            },
            {
              "internalType": "string",
              "name": "description",
              "type": "string"
            },
            {
              "internalType": "address",
              "name": "category",
              "type": "address"
            },
            {
              "internalType": "string[3]",
              "name": "images",
              "type": "string[3]"
            },
            {
              "internalType": "uint256",
              "name": "upload_timestamp",
              "type": "uint256"
            },
            {
              "internalType": "uint256",
              "name": "price",
              "type": "uint256"
            },
            {
              "internalType": "uint256",
              "name": "buyer_num",
              "type": "uint256"
            }
          ],
          "internalType": "struct StoreContact.FileInfo[10]",
          "name": "file_infos",
          "type": "tuple[10]"
        },
        {
          "internalType": "address",
          "name": "next",
          "type": "address"
        }
      ],
      "stateMutability": "view",
      "type": "function"
    },
    {
      "inputs": [],
      "name": "getSelfInfo",
      "outputs": [
        {
          "components": [
            {
              "internalType": "uint256",
              "name": "ID",
              "type": "uint256"
            },
            {
              "internalType": "uint256",
              "name": "coins",
              "type": "uint256"
            },
            {
              "internalType": "uint256",
              "name": "heart",
              "type": "uint256"
            },
            {
              "internalType": "uint256",
              "name": "experience",
              "type": "uint256"
            },
            {
              "internalType": "uint256",
              "name": "follower_num",
              "type": "uint256"
            },
            {
              "internalType": "uint256",
              "name": "following_num",
              "type": "uint256"
            },
            {
              "internalType": "uint256",
              "name": "login_timestamp",
              "type": "uint256"
            },
            {
              "internalType": "uint256",
              "name": "uploaded_file_num",
              "type": "uint256"
            },
            {
              "internalType": "string",
              "name": "major",
              "type": "string"
            },
            {
              "internalType": "string",
              "name": "avatar",
              "type": "string"
            },
            {
              "internalType": "string",
              "name": "nickname",
              "type": "string"
            },
            {
              "internalType": "string",
              "name": "signature",
              "type": "string"
            }
          ],
          "internalType": "struct StoreContact.UserSelfInfo",
          "name": "self_info",
          "type": "tuple"
        }
      ],
      "stateMutability": "view",
      "type": "function"
    },
    {
      "inputs": [
        {
          "internalType": "address",
          "name": "user_address",
          "type": "address"
        }
      ],
      "name": "isRegistered",
      "outputs": [
        {
          "internalType": "bool",
          "name": "is_registered",
          "type": "bool"
        }
      ],
      "stateMutability": "view",
      "type": "function"
    },
    {
      "inputs": [
        {
          "internalType": "string",
          "name": "nickname",
          "type": "string"
        }
      ],
      "name": "register",
      "outputs": [],
      "stateMutability": "nonpayable",
      "type": "function"
    },
    {
      "inputs": [],
      "name": "renounceAdmin",
      "outputs": [],
      "stateMutability": "nonpayable",
      "type": "function"
    },
    {
      "inputs": [
        {
          "internalType": "address",
          "name": "new_admin",
          "type": "address"
        }
      ],
      "name": "transferAdmin",
      "outputs": [],
      "stateMutability": "nonpayable",
      "type": "function"
    },
    {
      "inputs": [
        {
          "internalType": "string",
          "name": "avatar",
          "type": "string"
        }
      ],
      "name": "updateAvatar",
      "outputs": [],
      "stateMutability": "nonpayable",
      "type": "function"
    },
    {
      "inputs": [
        {
          "internalType": "string",
          "name": "nickname",
          "type": "string"
        }
      ],
      "name": "updateNickname",
      "outputs": [],
      "stateMutability": "nonpayable",
      "type": "function"
    },
    {
      "inputs": [
        {
          "internalType": "string",
          "name": "signature",
          "type": "string"
        }
      ],
      "name": "updateSignature",
      "outputs": [],
      "stateMutability": "nonpayable",
      "type": "function"
    },
    {
      "inputs": [
        {
          "internalType": "address",
          "name": "ipfs_address",
          "type": "address"
        },
        {
          "internalType": "string",
          "name": "title",
          "type": "string"
        },
        {
          "internalType": "string",
          "name": "description",
          "type": "string"
        },
        {
          "internalType": "address",
          "name": "category",
          "type": "address"
        },
        {
          "internalType": "string[3]",
          "name": "images",
          "type": "string[3]"
        },
        {
          "internalType": "uint256",
          "name": "price",
          "type": "uint256"
        }
      ],
      "name": "uploadFile",
      "outputs": [],
      "stateMutability": "nonpayable",
      "type": "function"
    },
    {
      "inputs": [],
      "name": "init",
      "outputs": [],
      "stateMutability": "nonpayable",
      "type": "function"
    }
  ],
  "bytecode": "0x608060405234801561001057600080fd5b506141a2806100206000396000f3fe608060405234801561001057600080fd5b50600436106100f55760003560e01c8063bd2e3b1711610097578063cffa644211610066578063cffa644214610235578063e1c7392a14610266578063f2c298be14610270578063f851a4401461028c576100f5565b8063bd2e3b17146101ae578063c3c5a547146101ca578063c40eb869146101fa578063c63e3e8b1461022b576100f5565b80637e8e7733116100d35780637e8e77331461014e5780638bad0c0a1461016c5780639fe958b914610176578063a389559f14610192576100f5565b80632e0dcbf7146100fa5780636dc49e121461011657806375829def14610132575b600080fd5b610114600480360381019061010f9190612d5d565b6102aa565b005b610130600480360381019061012b9190612f0e565b61047a565b005b61014c60048036038101906101479190612fef565b610b52565b005b610156610c5b565b60405161016391906131c3565b60405180910390f35b610174610f5a565b005b610190600480360381019061018b9190612d5d565b610ff4565b005b6101ac60048036038101906101a79190612d5d565b611066565b005b6101c860048036038101906101c39190612d5d565b6110d8565b005b6101e460048036038101906101df9190612fef565b61114a565b6040516101f19190613200565b60405180910390f35b610214600480360381019061020f9190613247565b61119c565b6040516102229291906134f9565b60405180910390f35b610233611352565b005b61024f600480360381019061024a9190612fef565b611354565b60405161025d92919061362f565b60405180910390f35b61026e6115b4565b005b61028a60048036038101906102859190612d5d565b611695565b005b610294611eaa565b6040516102a1919061365f565b60405180910390f35b3373ffffffffffffffffffffffffffffffffffffffff1660008054906101000a900473ffffffffffffffffffffffffffffffffffffffff1673ffffffffffffffffffffffffffffffffffffffff1614610338576040517f08c379a000000000000000000000000000000000000000000000000000000000815260040161032f906136d7565b60405180910390fd5b60006103698260405160200161034e9190613733565b60405160208183030381529060405280519060200120611ece565b90506000601560040160008373ffffffffffffffffffffffffffffffffffffffff1673ffffffffffffffffffffffffffffffffffffffff1681526020019081526020016000209050818160000160006101000a81548173ffffffffffffffffffffffffffffffffffffffff021916908373ffffffffffffffffffffffffffffffffffffffff160217905550828160010190816104059190613956565b50601560000173__AddressLinkedList_____________________63dbd4df179091846040518363ffffffff1660e01b8152600401610445929190613a3e565b60006040518083038186803b15801561045d57600080fd5b505af4158015610471573d6000803e3d6000fd5b50505050505050565b61048333611edb565b6104908560016040611f66565b61049e846001610200611f66565b6104ab816001601461201a565b6104b4836120bb565b60006104e5866040516020016104ca9190613733565b60405160208183030381529060405280519060200120611ece565b90506000601a60040160008373ffffffffffffffffffffffffffffffffffffffff1673ffffffffffffffffffffffffffffffffffffffff1681526020019081526020016000209050818160000160006101000a81548173ffffffffffffffffffffffffffffffffffffffff021916908373ffffffffffffffffffffffffffffffffffffffff160217905550878160010160006101000a81548173ffffffffffffffffffffffffffffffffffffffff021916908373ffffffffffffffffffffffffffffffffffffffff160217905550338160020160006101000a81548173ffffffffffffffffffffffffffffffffffffffff021916908373ffffffffffffffffffffffffffffffffffffffff160217905550868160030190816106079190613956565b50858160040190816106199190613956565b50848160050160006101000a81548173ffffffffffffffffffffffffffffffffffffffff021916908373ffffffffffffffffffffffffffffffffffffffff160217905550838160060190600361067092919061296a565b504281600901819055508281600a0181905550600081600c0181905550601a60000173__AddressLinkedList_____________________63dbd4df179091846040518363ffffffff1660e01b81526004016106cc929190613a3e565b60006040518083038186803b1580156106e457600080fd5b505af41580156106f8573d6000803e3d6000fd5b50505050601a60050173__AddressOrderedMap_____________________633fc68a5f909160405180604001604052808673ffffffffffffffffffffffffffffffffffffffff168152602001878152506040518363ffffffff1660e01b8152600401610765929190613abb565b60006040518083038186803b15801561077d57600080fd5b505af4158015610791573d6000803e3d6000fd5b50505050601a600a0173__AddressOrderedMap_____________________633fc68a5f909160405180604001604052808673ffffffffffffffffffffffffffffffffffffffff16815260200160008152506040518363ffffffff1660e01b81526004016107ff929190613abb565b60006040518083038186803b15801561081757600080fd5b505af415801561082b573d6000803e3d6000fd5b505050506000610860836040516020016108459190613b2c565b60405160208183030381529060405280519060200120611ece565b90506000604260000160008373ffffffffffffffffffffffffffffffffffffffff1673ffffffffffffffffffffffffffffffffffffffff1681526020019081526020016000209050338160000160006101000a81548173ffffffffffffffffffffffffffffffffffffffff021916908373ffffffffffffffffffffffffffffffffffffffff160217905550838160010160006101000a81548173ffffffffffffffffffffffffffffffffffffffff021916908373ffffffffffffffffffffffffffffffffffffffff1602179055506000600190506000600160040160003373ffffffffffffffffffffffffffffffffffffffff1673ffffffffffffffffffffffffffffffffffffffff16815260200190815260200160002090505b600115610ad6578060170173__AddressLinkedList_____________________635cb1e4659091846040518363ffffffff1660e01b81526004016109c0929190613a3e565b602060405180830381865af41580156109dd573d6000803e3d6000fd5b505050506040513d601f19601f82011682018060405250810190610a019190613b5c565b9150600273ffffffffffffffffffffffffffffffffffffffff168273ffffffffffffffffffffffffffffffffffffffff160315610ad6578060350173__AddressOrderedMap_____________________633fc68a5f909160405180604001604052808873ffffffffffffffffffffffffffffffffffffffff16815260200160018152506040518363ffffffff1660e01b8152600401610aa1929190613abb565b60006040518083038186803b158015610ab957600080fd5b505af4158015610acd573d6000803e3d6000fd5b5050505061097b565b8060280173__AddressLinkedList_____________________63dbd4df179091886040518363ffffffff1660e01b8152600401610b14929190613a3e565b60006040518083038186803b158015610b2c57600080fd5b505af4158015610b40573d6000803e3d6000fd5b50505050505050505050505050505050565b3373ffffffffffffffffffffffffffffffffffffffff1660008054906101000a900473ffffffffffffffffffffffffffffffffffffffff1673ffffffffffffffffffffffffffffffffffffffff1614610be0576040517f08c379a0000000000000000000000000000000000000000000000000000000008152600401610bd7906136d7565b60405180910390fd5b600073ffffffffffffffffffffffffffffffffffffffff168173ffffffffffffffffffffffffffffffffffffffff1603610c4f576040517f08c379a0000000000000000000000000000000000000000000000000000000008152600401610c4690613bd5565b60405180910390fd5b610c588161217d565b50565b610c636129b6565b6000600160040160003373ffffffffffffffffffffffffffffffffffffffff1673ffffffffffffffffffffffffffffffffffffffff1681526020019081526020016000209050604051806101800160405280826001015481526020018260030154815260200182600401548152602001826005015481526020018260170160030154815260200182601b016003015481526020018260060154815260200182602801600301548152602001826007018054610d1d90613779565b80601f0160208091040260200160405190810160405280929190818152602001828054610d4990613779565b8015610d965780601f10610d6b57610100808354040283529160200191610d96565b820191906000526020600020905b815481529060010190602001808311610d7957829003601f168201915b50505050508152602001826008018054610daf90613779565b80601f0160208091040260200160405190810160405280929190818152602001828054610ddb90613779565b8015610e285780601f10610dfd57610100808354040283529160200191610e28565b820191906000526020600020905b815481529060010190602001808311610e0b57829003601f168201915b50505050508152602001826009018054610e4190613779565b80601f0160208091040260200160405190810160405280929190818152602001828054610e6d90613779565b8015610eba5780601f10610e8f57610100808354040283529160200191610eba565b820191906000526020600020905b815481529060010190602001808311610e9d57829003601f168201915b5050505050815260200182600a018054610ed390613779565b80601f0160208091040260200160405190810160405280929190818152602001828054610eff90613779565b8015610f4c5780601f10610f2157610100808354040283529160200191610f4c565b820191906000526020600020905b815481529060010190602001808311610f2f57829003601f168201915b505050505081525091505090565b3373ffffffffffffffffffffffffffffffffffffffff1660008054906101000a900473ffffffffffffffffffffffffffffffffffffffff1673ffffffffffffffffffffffffffffffffffffffff1614610fe8576040517f08c379a0000000000000000000000000000000000000000000000000000000008152600401610fdf906136d7565b60405180910390fd5b610ff2600061217d565b565b610ffd33611edb565b61100a816001600a611f66565b6000600160040160003373ffffffffffffffffffffffffffffffffffffffff1673ffffffffffffffffffffffffffffffffffffffff1681526020019081526020016000209050818160080190816110619190613956565b505050565b61106f33611edb565b61107c8160016020611f66565b6000600160040160003373ffffffffffffffffffffffffffffffffffffffff1673ffffffffffffffffffffffffffffffffffffffff16815260200190815260200160002090508181600a0190816110d39190613956565b505050565b6110e133611edb565b6110ee816001600a611f66565b6000600160040160003373ffffffffffffffffffffffffffffffffffffffff1673ffffffffffffffffffffffffffffffffffffffff1681526020019081526020016000209050818160090190816111459190613956565b505050565b600080600160040160008473ffffffffffffffffffffffffffffffffffffffff1673ffffffffffffffffffffffffffffffffffffffff1681526020019081526020016000206006015414159050919050565b6111a4612a17565b60006111af33611edb565b6000600160040160003373ffffffffffffffffffffffffffffffffffffffff1673ffffffffffffffffffffffffffffffffffffffff16815260200190815260200160002060280173__AddressLinkedList_____________________637ea94909909187876040518463ffffffff1660e01b815260040161123293929190613c04565b61014060405180830381865af4158015611250573d6000803e3d6000fd5b505050506040513d601f19601f820116820180604052508101906112749190613cec565b905060005b600a811015611349578181600a811061129557611294613d1a565b5b60200201519250600073ffffffffffffffffffffffffffffffffffffffff168373ffffffffffffffffffffffffffffffffffffffff1603156113495761131b601a60040160008573ffffffffffffffffffffffffffffffffffffffff1673ffffffffffffffffffffffffffffffffffffffff168152602001908152602001600020612241565b8482600a811061132e5761132d613d1a565b5b6020020181905250808061134190613d78565b915050611279565b50509250929050565b565b61135c612a45565b600080601560000173__AddressLinkedList_____________________637ea9490990918660006040518463ffffffff1660e01b81526004016113a193929190613c04565b61014060405180830381865af41580156113bf573d6000803e3d6000fd5b505050506040513d601f19601f820116820180604052508101906113e39190613cec565b905060005b600a8110156115ad578181600a811061140457611403613d1a565b5b60200201519250600073ffffffffffffffffffffffffffffffffffffffff168373ffffffffffffffffffffffffffffffffffffffff1603156115ad57601560040160008473ffffffffffffffffffffffffffffffffffffffff1673ffffffffffffffffffffffffffffffffffffffff1681526020019081526020016000206040518060600160405290816000820160009054906101000a900473ffffffffffffffffffffffffffffffffffffffff1673ffffffffffffffffffffffffffffffffffffffff1673ffffffffffffffffffffffffffffffffffffffff1681526020016001820180546114f390613779565b80601f016020809104026020016040519081016040528092919081815260200182805461151f90613779565b801561156c5780601f106115415761010080835404028352916020019161156c565b820191906000526020600020905b81548152906001019060200180831161154f57829003601f168201915b505050505081526020016002820154815250508482600a811061159257611591613d1a565b5b602002018190525080806115a590613d78565b9150506113e8565b5050915091565b600073ffffffffffffffffffffffffffffffffffffffff1660008054906101000a900473ffffffffffffffffffffffffffffffffffffffff1673ffffffffffffffffffffffffffffffffffffffff1603611643576040517f08c379a000000000000000000000000000000000000000000000000000000000815260040161163a90613e0c565b60405180910390fd5b336000806101000a81548173ffffffffffffffffffffffffffffffffffffffff021916908373ffffffffffffffffffffffffffffffffffffffff16021790555061168b612573565b611693612729565b565b61169e336128df565b6116ab816001600a611f66565b6000600160040160003373ffffffffffffffffffffffffffffffffffffffff1673ffffffffffffffffffffffffffffffffffffffff168152602001908152602001600020905060028160020181905550428160060181905550818160090190816117159190613956565b50338160000160006101000a81548173ffffffffffffffffffffffffffffffffffffffff021916908373ffffffffffffffffffffffffffffffffffffffff16021790555080600b0173__AddressLinkedList_____________________637fc06cef90916040518263ffffffff1660e01b81526004016117959190613e2c565b60006040518083038186803b1580156117ad57600080fd5b505af41580156117c1573d6000803e3d6000fd5b5050505080600f0173__AddressLinkedList_____________________637fc06cef90916040518263ffffffff1660e01b81526004016118019190613e2c565b60006040518083038186803b15801561181957600080fd5b505af415801561182d573d6000803e3d6000fd5b505050508060130173__AddressLinkedList_____________________637fc06cef90916040518263ffffffff1660e01b815260040161186d9190613e2c565b60006040518083038186803b15801561188557600080fd5b505af4158015611899573d6000803e3d6000fd5b505050508060170173__AddressLinkedList_____________________637fc06cef90916040518263ffffffff1660e01b81526004016118d99190613e2c565b60006040518083038186803b1580156118f157600080fd5b505af4158015611905573d6000803e3d6000fd5b5050505080601b0173__AddressLinkedList_____________________637fc06cef90916040518263ffffffff1660e01b81526004016119459190613e2c565b60006040518083038186803b15801561195d57600080fd5b505af4158015611971573d6000803e3d6000fd5b5050505080601f0173__AddressOrderedMap_____________________63abc7dfcc90916040518263ffffffff1660e01b81526004016119b19190613e47565b60006040518083038186803b1580156119c957600080fd5b505af41580156119dd573d6000803e3d6000fd5b505050508060240173__AddressLinkedList_____________________637fc06cef90916040518263ffffffff1660e01b8152600401611a1d9190613e2c565b60006040518083038186803b158015611a3557600080fd5b505af4158015611a49573d6000803e3d6000fd5b505050508060280173__AddressLinkedList_____________________637fc06cef90916040518263ffffffff1660e01b8152600401611a899190613e2c565b60006040518083038186803b158015611aa157600080fd5b505af4158015611ab5573d6000803e3d6000fd5b5050505080602c0173__AddressOrderedMap_____________________63abc7dfcc90916040518263ffffffff1660e01b8152600401611af59190613e47565b60006040518083038186803b158015611b0d57600080fd5b505af4158015611b21573d6000803e3d6000fd5b505050508060310173__AddressLinkedList_____________________637fc06cef90916040518263ffffffff1660e01b8152600401611b619190613e2c565b60006040518083038186803b158015611b7957600080fd5b505af4158015611b8d573d6000803e3d6000fd5b505050508060350173__AddressOrderedMap_____________________63abc7dfcc90916040518263ffffffff1660e01b8152600401611bcd9190613e47565b60006040518083038186803b158015611be557600080fd5b505af4158015611bf9573d6000803e3d6000fd5b5050505080603a0173__AddressOrderedMap_____________________63abc7dfcc90916040518263ffffffff1660e01b8152600401611c399190613e47565b60006040518083038186803b158015611c5157600080fd5b505af4158015611c65573d6000803e3d6000fd5b50505050600160000173__AddressLinkedList_____________________63dbd4df179091336040518363ffffffff1660e01b8152600401611ca8929190613a3e565b60006040518083038186803b158015611cc057600080fd5b505af4158015611cd4573d6000803e3d6000fd5b50505050600160050173__AddressOrderedMap_____________________633fc68a5f909160405180604001604052803373ffffffffffffffffffffffffffffffffffffffff16815260200160008152506040518363ffffffff1660e01b8152600401611d42929190613abb565b60006040518083038186803b158015611d5a57600080fd5b505af4158015611d6e573d6000803e3d6000fd5b505050506001600a0173__AddressOrderedMap_____________________633fc68a5f909160405180604001604052803373ffffffffffffffffffffffffffffffffffffffff16815260200160008152506040518363ffffffff1660e01b8152600401611ddc929190613abb565b60006040518083038186803b158015611df457600080fd5b505af4158015611e08573d6000803e3d6000fd5b505050506001600f0173__AddressOrderedMap_____________________633fc68a5f909160405180604001604052803373ffffffffffffffffffffffffffffffffffffffff16815260200160008152506040518363ffffffff1660e01b8152600401611e76929190613abb565b60006040518083038186803b158015611e8e57600080fd5b505af4158015611ea2573d6000803e3d6000fd5b505050505050565b60008054906101000a900473ffffffffffffffffffffffffffffffffffffffff1681565b60008160001c9050919050565b6000600160040160008373ffffffffffffffffffffffffffffffffffffffff1673ffffffffffffffffffffffffffffffffffffffff1681526020019081526020016000206006015403611f63576040517f08c379a0000000000000000000000000000000000000000000000000000000008152600401611f5a90613ed4565b60405180910390fd5b50565b600060038451611f769190613f23565b90506000831480611f875750828110155b611fc6576040517f08c379a0000000000000000000000000000000000000000000000000000000008152600401611fbd90613fa0565b60405180910390fd5b6000821480611fd55750818111155b612014576040517f08c379a000000000000000000000000000000000000000000000000000000000815260040161200b9061400c565b60405180910390fd5b50505050565b60008214806120295750818310155b612068576040517f08c379a000000000000000000000000000000000000000000000000000000000815260040161205f90613fa0565b60405180910390fd5b60008114806120775750808311155b6120b6576040517f08c379a00000000000000000000000000000000000000000000000000000000081526004016120ad9061400c565b60405180910390fd5b505050565b601560000173__AddressLinkedList_____________________63c40b47ad9091836040518363ffffffff1660e01b81526004016120fa929190613a3e565b602060405180830381865af4158015612117573d6000803e3d6000fd5b505050506040513d601f19601f8201168201806040525081019061213b9190614041565b61217a576040517f08c379a0000000000000000000000000000000000000000000000000000000008152600401612171906140ba565b60405180910390fd5b50565b60008060009054906101000a900473ffffffffffffffffffffffffffffffffffffffff169050816000806101000a81548173ffffffffffffffffffffffffffffffffffffffff021916908373ffffffffffffffffffffffffffffffffffffffff1602179055508173ffffffffffffffffffffffffffffffffffffffff168173ffffffffffffffffffffffffffffffffffffffff167ff8ccb027dfcd135e000e9d45e6cc2d662578a8825d4c45b5e32e0adf67e79ec660405160405180910390a35050565b612249612a73565b8160000160009054906101000a900473ffffffffffffffffffffffffffffffffffffffff16816000019073ffffffffffffffffffffffffffffffffffffffff16908173ffffffffffffffffffffffffffffffffffffffff16815250508160010160009054906101000a900473ffffffffffffffffffffffffffffffffffffffff16816020019073ffffffffffffffffffffffffffffffffffffffff16908173ffffffffffffffffffffffffffffffffffffffff16815250508160020160009054906101000a900473ffffffffffffffffffffffffffffffffffffffff16816040019073ffffffffffffffffffffffffffffffffffffffff16908173ffffffffffffffffffffffffffffffffffffffff168152505081600301805461236c90613779565b80601f016020809104026020016040519081016040528092919081815260200182805461239890613779565b80156123e55780601f106123ba576101008083540402835291602001916123e5565b820191906000526020600020905b8154815290600101906020018083116123c857829003601f168201915b5050505050816060018190525081600401805461240190613779565b80601f016020809104026020016040519081016040528092919081815260200182805461242d90613779565b801561247a5780601f1061244f5761010080835404028352916020019161247a565b820191906000526020600020905b81548152906001019060200180831161245d57829003601f168201915b5050505050816080018190525081600601600380602002604051908101604052809291906000905b828210156125455783820180546124b890613779565b80601f01602080910402602001604051908101604052809291908181526020018280546124e490613779565b80156125315780601f1061250657610100808354040283529160200191612531565b820191906000526020600020905b81548152906001019060200180831161251457829003601f168201915b5050505050815260200190600101906124a2565b505050508160c0018190525081600901548160e001818152505081600a015481610100018181525050919050565b600160000173__AddressLinkedList_____________________637fc06cef90916040518263ffffffff1660e01b81526004016125b09190613e2c565b60006040518083038186803b1580156125c857600080fd5b505af41580156125dc573d6000803e3d6000fd5b50505050600160050173__AddressOrderedMap_____________________63abc7dfcc90916040518263ffffffff1660e01b815260040161261d9190613e47565b60006040518083038186803b15801561263557600080fd5b505af4158015612649573d6000803e3d6000fd5b505050506001600a0173__AddressOrderedMap_____________________63abc7dfcc90916040518263ffffffff1660e01b815260040161268a9190613e47565b60006040518083038186803b1580156126a257600080fd5b505af41580156126b6573d6000803e3d6000fd5b505050506001600f0173__AddressOrderedMap_____________________63abc7dfcc90916040518263ffffffff1660e01b81526004016126f79190613e47565b60006040518083038186803b15801561270f57600080fd5b505af4158015612723573d6000803e3d6000fd5b50505050565b601560000173__AddressLinkedList_____________________637fc06cef90916040518263ffffffff1660e01b81526004016127669190613e2c565b60006040518083038186803b15801561277e57600080fd5b505af4158015612792573d6000803e3d6000fd5b50505050601a60000173__AddressLinkedList_____________________637fc06cef90916040518263ffffffff1660e01b81526004016127d39190613e2c565b60006040518083038186803b1580156127eb57600080fd5b505af41580156127ff573d6000803e3d6000fd5b50505050601a60050173__AddressOrderedMap_____________________63abc7dfcc90916040518263ffffffff1660e01b81526004016128409190613e47565b60006040518083038186803b15801561285857600080fd5b505af415801561286c573d6000803e3d6000fd5b50505050601a600a0173__AddressOrderedMap_____________________63abc7dfcc90916040518263ffffffff1660e01b81526004016128ad9190613e47565b60006040518083038186803b1580156128c557600080fd5b505af41580156128d9573d6000803e3d6000fd5b50505050565b6000600160040160008373ffffffffffffffffffffffffffffffffffffffff1673ffffffffffffffffffffffffffffffffffffffff1681526020019081526020016000206006015414612967576040517f08c379a000000000000000000000000000000000000000000000000000000000815260040161295e9061414c565b60405180910390fd5b50565b82600381019282156129a5579160200282015b828111156129a45782518290816129949190613956565b509160200191906001019061297d565b5b5090506129b29190612b24565b5090565b6040518061018001604052806000815260200160008152602001600081526020016000815260200160008152602001600081526020016000815260200160008152602001606081526020016060815260200160608152602001606081525090565b604051806101400160405280600a905b612a2f612a73565b815260200190600190039081612a275790505090565b604051806101400160405280600a905b612a5d612b48565b815260200190600190039081612a555790505090565b604051806101400160405280600073ffffffffffffffffffffffffffffffffffffffff168152602001600073ffffffffffffffffffffffffffffffffffffffff168152602001600073ffffffffffffffffffffffffffffffffffffffff1681526020016060815260200160608152602001600073ffffffffffffffffffffffffffffffffffffffff168152602001612b09612b7f565b81526020016000815260200160008152602001600081525090565b5b80821115612b445760008181612b3b9190612ba6565b50600101612b25565b5090565b6040518060600160405280600073ffffffffffffffffffffffffffffffffffffffff16815260200160608152602001600081525090565b60405180606001604052806003905b6060815260200190600190039081612b8e5790505090565b508054612bb290613779565b6000825580601f10612bc45750612be3565b601f016020900490600052602060002090810190612be29190612be6565b5b50565b5b80821115612bff576000816000905550600101612be7565b5090565b6000604051905090565b600080fd5b600080fd5b600080fd5b600080fd5b6000601f19601f8301169050919050565b7f4e487b7100000000000000000000000000000000000000000000000000000000600052604160045260246000fd5b612c6a82612c21565b810181811067ffffffffffffffff82111715612c8957612c88612c32565b5b80604052505050565b6000612c9c612c03565b9050612ca88282612c61565b919050565b600067ffffffffffffffff821115612cc857612cc7612c32565b5b612cd182612c21565b9050602081019050919050565b82818337600083830152505050565b6000612d00612cfb84612cad565b612c92565b905082815260208101848484011115612d1c57612d1b612c1c565b5b612d27848285612cde565b509392505050565b600082601f830112612d4457612d43612c17565b5b8135612d54848260208601612ced565b91505092915050565b600060208284031215612d7357612d72612c0d565b5b600082013567ffffffffffffffff811115612d9157612d90612c12565b5b612d9d84828501612d2f565b91505092915050565b600073ffffffffffffffffffffffffffffffffffffffff82169050919050565b6000612dd182612da6565b9050919050565b612de181612dc6565b8114612dec57600080fd5b50565b600081359050612dfe81612dd8565b92915050565b600067ffffffffffffffff821115612e1f57612e1e612c32565b5b602082029050919050565b600080fd5b6000612e42612e3d84612e04565b612c92565b90508060208402830185811115612e5c57612e5b612e2a565b5b835b81811015612ea357803567ffffffffffffffff811115612e8157612e80612c17565b5b808601612e8e8982612d2f565b85526020850194505050602081019050612e5e565b5050509392505050565b600082601f830112612ec257612ec1612c17565b5b6003612ecf848285612e2f565b91505092915050565b6000819050919050565b612eeb81612ed8565b8114612ef657600080fd5b50565b600081359050612f0881612ee2565b92915050565b60008060008060008060c08789031215612f2b57612f2a612c0d565b5b6000612f3989828a01612def565b965050602087013567ffffffffffffffff811115612f5a57612f59612c12565b5b612f6689828a01612d2f565b955050604087013567ffffffffffffffff811115612f8757612f86612c12565b5b612f9389828a01612d2f565b9450506060612fa489828a01612def565b935050608087013567ffffffffffffffff811115612fc557612fc4612c12565b5b612fd189828a01612ead565b92505060a0612fe289828a01612ef9565b9150509295509295509295565b60006020828403121561300557613004612c0d565b5b600061301384828501612def565b91505092915050565b61302581612ed8565b82525050565b600081519050919050565b600082825260208201905092915050565b60005b8381101561306557808201518184015260208101905061304a565b60008484015250505050565b600061307c8261302b565b6130868185613036565b9350613096818560208601613047565b61309f81612c21565b840191505092915050565b6000610180830160008301516130c3600086018261301c565b5060208301516130d6602086018261301c565b5060408301516130e9604086018261301c565b5060608301516130fc606086018261301c565b50608083015161310f608086018261301c565b5060a083015161312260a086018261301c565b5060c083015161313560c086018261301c565b5060e083015161314860e086018261301c565b506101008301518482036101008601526131628282613071565b91505061012083015184820361012086015261317e8282613071565b91505061014083015184820361014086015261319a8282613071565b9150506101608301518482036101608601526131b68282613071565b9150508091505092915050565b600060208201905081810360008301526131dd81846130aa565b905092915050565b60008115159050919050565b6131fa816131e5565b82525050565b600060208201905061321560008301846131f1565b92915050565b613224816131e5565b811461322f57600080fd5b50565b6000813590506132418161321b565b92915050565b6000806040838503121561325e5761325d612c0d565b5b600061326c85828601612def565b925050602061327d85828601613232565b9150509250929050565b6000600a9050919050565b600081905092915050565b6000819050919050565b6132b081612dc6565b82525050565b600060039050919050565b600081905092915050565b6000819050919050565b60006132e28383613071565b905092915050565b6000602082019050919050565b6000613302826132b6565b61330c81856132c1565b93508360208202850161331e856132cc565b8060005b8581101561335a578484038952815161333b85826132d6565b9450613346836132ea565b925060208a01995050600181019050613322565b50829750879550505050505092915050565b60006101408301600083015161338560008601826132a7565b50602083015161339860208601826132a7565b5060408301516133ab60408601826132a7565b50606083015184820360608601526133c38282613071565b915050608083015184820360808601526133dd8282613071565b91505060a08301516133f260a08601826132a7565b5060c083015184820360c086015261340a82826132f7565b91505060e083015161341f60e086018261301c565b5061010083015161343461010086018261301c565b5061012083015161344961012086018261301c565b508091505092915050565b6000613460838361336c565b905092915050565b6000602082019050919050565b600061348082613287565b61348a8185613292565b93508360208202850161349c8561329d565b8060005b858110156134d857848403895281516134b98582613454565b94506134c483613468565b925060208a019950506001810190506134a0565b50829750879550505050505092915050565b6134f381612dc6565b82525050565b600060408201905081810360008301526135138185613475565b905061352260208301846134ea565b9392505050565b6000600a9050919050565b600081905092915050565b6000819050919050565b600060608301600083015161356160008601826132a7565b50602083015184820360208601526135798282613071565b915050604083015161358e604086018261301c565b508091505092915050565b60006135a58383613549565b905092915050565b6000602082019050919050565b60006135c582613529565b6135cf8185613534565b9350836020820285016135e18561353f565b8060005b8581101561361d57848403895281516135fe8582613599565b9450613609836135ad565b925060208a019950506001810190506135e5565b50829750879550505050505092915050565b6000604082019050818103600083015261364981856135ba565b905061365860208301846134ea565b9392505050565b600060208201905061367460008301846134ea565b92915050565b600082825260208201905092915050565b7f41646d696e436f6e74726163743e5f6f6e6c7941646d696e5f00000000000000600082015250565b60006136c160198361367a565b91506136cc8261368b565b602082019050919050565b600060208201905081810360008301526136f0816136b4565b9050919050565b600081905092915050565b600061370d8261302b565b61371781856136f7565b9350613727818560208601613047565b80840191505092915050565b600061373f8284613702565b915081905092915050565b7f4e487b7100000000000000000000000000000000000000000000000000000000600052602260045260246000fd5b6000600282049050600182168061379157607f821691505b6020821081036137a4576137a361374a565b5b50919050565b60008190508160005260206000209050919050565b60006020601f8301049050919050565b600082821b905092915050565b60006008830261380c7fffffffffffffffffffffffffffffffffffffffffffffffffffffffffffffffff826137cf565b61381686836137cf565b95508019841693508086168417925050509392505050565b6000819050919050565b600061385361384e61384984612ed8565b61382e565b612ed8565b9050919050565b6000819050919050565b61386d83613838565b6138816138798261385a565b8484546137dc565b825550505050565b600090565b613896613889565b6138a1818484613864565b505050565b5b818110156138c5576138ba60008261388e565b6001810190506138a7565b5050565b601f82111561390a576138db816137aa565b6138e4846137bf565b810160208510156138f3578190505b6139076138ff856137bf565b8301826138a6565b50505b505050565b600082821c905092915050565b600061392d6000198460080261390f565b1980831691505092915050565b6000613946838361391c565b9150826002028217905092915050565b61395f8261302b565b67ffffffffffffffff81111561397857613977612c32565b5b6139828254613779565b61398d8282856138c9565b600060209050601f8311600181146139c057600084156139ae578287015190505b6139b8858261393a565b865550613a20565b601f1984166139ce866137aa565b60005b828110156139f6578489015182556001820191506020850194506020810190506139d1565b86831015613a135784890151613a0f601f89168261391c565b8355505b6001600288020188555050505b505050505050565b8082525050565b613a3881612dc6565b82525050565b6000604082019050613a536000830185613a28565b613a606020830184613a2f565b9392505050565b8082525050565b613a7781612dc6565b82525050565b613a8681612ed8565b82525050565b604082016000820151613aa26000850182613a6e565b506020820151613ab56020850182613a7d565b50505050565b6000606082019050613ad06000830185613a67565b613add6020830184613a8c565b9392505050565b60008160601b9050919050565b6000613afc82613ae4565b9050919050565b6000613b0e82613af1565b9050919050565b613b26613b2182612dc6565b613b03565b82525050565b6000613b388284613b15565b60148201915081905092915050565b600081519050613b5681612dd8565b92915050565b600060208284031215613b7257613b71612c0d565b5b6000613b8084828501613b47565b91505092915050565b7f41646d696e436f6e74726163743e7472616e7366657241646d696e0000000000600082015250565b6000613bbf601b8361367a565b9150613bca82613b89565b602082019050919050565b60006020820190508181036000830152613bee81613bb2565b9050919050565b613bfe816131e5565b82525050565b6000606082019050613c196000830186613a28565b613c266020830185613a2f565b613c336040830184613bf5565b949350505050565b600067ffffffffffffffff821115613c5657613c55612c32565b5b602082029050919050565b6000613c74613c6f84613c3b565b612c92565b90508060208402830185811115613c8e57613c8d612e2a565b5b835b81811015613cb75780613ca38882613b47565b845260208401935050602081019050613c90565b5050509392505050565b600082601f830112613cd657613cd5612c17565b5b600a613ce3848285613c61565b91505092915050565b60006101408284031215613d0357613d02612c0d565b5b6000613d1184828501613cc1565b91505092915050565b7f4e487b7100000000000000000000000000000000000000000000000000000000600052603260045260246000fd5b7f4e487b7100000000000000000000000000000000000000000000000000000000600052601160045260246000fd5b6000613d8382612ed8565b91507fffffffffffffffffffffffffffffffffffffffffffffffffffffffffffffffff8203613db557613db4613d49565b5b600182019050919050565b7f696e697469616c697a6564000000000000000000000000000000000000000000600082015250565b6000613df6600b8361367a565b9150613e0182613dc0565b602082019050919050565b60006020820190508181036000830152613e2581613de9565b9050919050565b6000602082019050613e416000830184613a28565b92915050565b6000602082019050613e5c6000830184613a67565b92915050565b7f45303a20557365722e736f6c3e55736572436f6e74726163743e5f726567697360008201527f74657265645f0000000000000000000000000000000000000000000000000000602082015250565b6000613ebe60268361367a565b9150613ec982613e62565b604082019050919050565b60006020820190508181036000830152613eed81613eb1565b9050919050565b7f4e487b7100000000000000000000000000000000000000000000000000000000600052601260045260246000fd5b6000613f2e82612ed8565b9150613f3983612ed8565b925082613f4957613f48613ef4565b5b828204905092915050565b7f42617365436f6e746163743e5f72616e67655f3e310000000000000000000000600082015250565b6000613f8a60158361367a565b9150613f9582613f54565b602082019050919050565b60006020820190508181036000830152613fb981613f7d565b9050919050565b7f42617365436f6e746163743e5f72616e67655f3e320000000000000000000000600082015250565b6000613ff660158361367a565b915061400182613fc0565b602082019050919050565b6000602082019050818103600083015261402581613fe9565b9050919050565b60008151905061403b8161321b565b92915050565b60006020828403121561405757614056612c0d565b5b60006140658482850161402c565b91505092915050565b7f42617365436f6e746163743e5f76616c696443617465676f72795f0000000000600082015250565b60006140a4601b8361367a565b91506140af8261406e565b602082019050919050565b600060208201905081810360008301526140d381614097565b9050919050565b7f45313a20557365722e736f6c3e55736572436f6e74726163743e5f6e6f74526560008201527f67697374657265645f0000000000000000000000000000000000000000000000602082015250565b600061413660298361367a565b9150614141826140da565b604082019050919050565b6000602082019050818103600083015261416581614129565b905091905056fea26469706673582212200a7d36b7d9858d3587dd549d8366a1810e9bbe1790b9356ad5dd5ded6844d49164736f6c63430008110033",
  "immutableReferences": {},
  "source": "// SPDX-License-Identifier: GPL-3.0\r\npragma solidity ^0.8.17;\r\n\r\nimport \"./implementations/base/Base.sol\";\r\nimport \"./implementations/File.sol\";\r\nimport \"./implementations/Reward.sol\";\r\nimport \"./implementations/User.sol\";\r\n\r\ninterface ImplementationInterface is AdminInterface, UserInterface, FileInterface, RewardInterface {\r\n    function init() external;\r\n}\r\n\r\ncontract ImplementationContact is UserContract, FileContact, RewardContact {\r\n    function init()\r\n    public {\r\n        require(admin != address(0), \"initialized\");\r\n        admin = msg.sender;\r\n        UserContract_init();\r\n        FileContact_init();\r\n    }\r\n}\r\n\r\ncontract OurShare is AdminContract {\r\n    bytes32 private constant implementation_position = keccak256(\"OurShare\");\r\n\r\n    constructor(){\r\n        admin = msg.sender;\r\n    }\r\n\r\n    function getImplementation() public view returns (address implementation) {\r\n        bytes32 position = implementation_position;\r\n        assembly {\r\n            implementation := sload(position)\r\n        }\r\n    }\r\n\r\n    function setImplementation(address implementation) public _onlyAdmin_ {\r\n        bytes32 position = implementation_position;\r\n        assembly {\r\n            sstore(position, implementation)\r\n        }\r\n    }\r\n\r\n    function _delegate(address implementation) internal {\r\n        assembly {\r\n            calldatacopy(0, 0, calldatasize())\r\n            let result := delegatecall(gas(), implementation, 0, calldatasize(), 0, 0)\r\n            returndatacopy(0, 0, returndatasize())\r\n            switch result\r\n            case 0 {\r\n                revert(0, returndatasize())\r\n            }\r\n            default {\r\n                return (0, returndatasize())\r\n            }\r\n        }\r\n    }\r\n\r\n    fallback() external payable {\r\n        _delegate(getImplementation());\r\n    }\r\n\r\n    receive() external payable {\r\n        _delegate(getImplementation());\r\n    }\r\n}\r\n",
  "sourcePath": "F:\\OurChain\\OurShare\\src\\assets\\eth\\contracts\\OurShare.sol",
  "compiler": {
    "name": "solc",
    "version": "0.8.17+commit.8df45f5f.Emscripten.clang"
  },
  "schemaVersion": "3.4.13",
  "updatedAt": "2023-05-19T05:44:55.491Z",
  "devdoc": {
    "kind": "dev",
    "methods": {},
    "version": 1
  },
  "userdoc": {
    "kind": "user",
    "methods": {},
    "version": 1
  }
}