{
  "contractName": "ImplementationContact",
  "abi": [
    {
      "anonymous": false,
      "inputs": [
        {
          "indexed": true,
          "internalType": "address",
          "name": "old_admin",
          "type": "address"
        },
        {
          "indexed": true,
          "internalType": "address",
          "name": "new_admin",
          "type": "address"
        }
      ],
      "name": "AdminTransferred",
      "type": "event"
    },
    {
      "inputs": [],
      "name": "RewardContract_init",
      "outputs": [],
      "stateMutability": "nonpayable",
      "type": "function"
    },
    {
      "inputs": [
        {
          "internalType": "string",
          "name": "name",
          "type": "string"
        }
      ],
      "name": "addCategory",
      "outputs": [],
      "stateMutability": "nonpayable",
      "type": "function"
    },
    {
      "inputs": [
        {
          "internalType": "address",
          "name": "file_address",
          "type": "address"
        },
        {
          "internalType": "string",
          "name": "content",
          "type": "string"
        },
        {
          "internalType": "string[3]",
          "name": "images",
          "type": "string[3]"
        }
      ],
      "name": "addComment",
      "outputs": [],
      "stateMutability": "nonpayable",
      "type": "function"
    },
    {
      "inputs": [
        {
          "internalType": "address",
          "name": "file_address",
          "type": "address"
        },
        {
          "internalType": "address",
          "name": "target_address",
          "type": "address"
        },
        {
          "internalType": "address",
          "name": "comment_address",
          "type": "address"
        },
        {
          "internalType": "string",
          "name": "content",
          "type": "string"
        }
      ],
      "name": "addSubComment",
      "outputs": [],
      "stateMutability": "nonpayable",
      "type": "function"
    },
    {
      "inputs": [],
      "name": "admin",
      "outputs": [
        {
          "internalType": "address",
          "name": "",
          "type": "address"
        }
      ],
      "stateMutability": "view",
      "type": "function",
      "constant": true
    },
    {
      "inputs": [
        {
          "internalType": "address",
          "name": "cursor",
          "type": "address"
        }
      ],
      "name": "getCategorySlice",
      "outputs": [
        {
          "components": [
            {
              "internalType": "address",
              "name": "category_address",
              "type": "address"
            },
            {
              "internalType": "string",
              "name": "name",
              "type": "string"
            },
            {
              "internalType": "uint256",
              "name": "num",
              "type": "uint256"
            }
          ],
          "internalType": "struct Types.Category[10]",
          "name": "category_slice",
          "type": "tuple[10]"
        },
        {
          "internalType": "address",
          "name": "next",
          "type": "address"
        },
        {
          "internalType": "bool",
          "name": "finished",
          "type": "bool"
        }
      ],
      "stateMutability": "view",
      "type": "function",
      "constant": true
    },
    {
      "inputs": [
        {
          "internalType": "address",
          "name": "cursor",
          "type": "address"
        },
        {
          "internalType": "address",
          "name": "category_address",
          "type": "address"
        },
        {
          "internalType": "uint256",
          "name": "order",
          "type": "uint256"
        },
        {
          "internalType": "bool",
          "name": "reverse",
          "type": "bool"
        }
      ],
      "name": "getFileBriefInfos",
      "outputs": [
        {
          "components": [
            {
              "internalType": "address",
              "name": "file_address",
              "type": "address"
            },
            {
              "internalType": "address",
              "name": "category_address",
              "type": "address"
            },
            {
              "internalType": "bool",
              "name": "is_buy",
              "type": "bool"
            },
            {
              "internalType": "string",
              "name": "name",
              "type": "string"
            },
            {
              "internalType": "string",
              "name": "title",
              "type": "string"
            },
            {
              "internalType": "string",
              "name": "owner",
              "type": "string"
            },
            {
              "internalType": "string",
              "name": "description",
              "type": "string"
            },
            {
              "internalType": "string",
              "name": "cover",
              "type": "string"
            },
            {
              "internalType": "uint256",
              "name": "price",
              "type": "uint256"
            },
            {
              "internalType": "uint256",
              "name": "up_num",
              "type": "uint256"
            },
            {
              "internalType": "uint256",
              "name": "down_num",
              "type": "uint256"
            },
            {
              "internalType": "uint256",
              "name": "buyer_num",
              "type": "uint256"
            },
            {
              "internalType": "uint256",
              "name": "comment_num",
              "type": "uint256"
            },
            {
              "internalType": "uint256",
              "name": "up_and_down",
              "type": "uint256"
            },
            {
              "internalType": "uint256",
              "name": "upload_timestamp",
              "type": "uint256"
            }
          ],
          "internalType": "struct Types.FileBriefInfo[10]",
          "name": "file_infos",
          "type": "tuple[10]"
        },
        {
          "internalType": "address",
          "name": "next",
          "type": "address"
        },
        {
          "internalType": "bool",
          "name": "finished",
          "type": "bool"
        }
      ],
      "stateMutability": "view",
      "type": "function",
      "constant": true
    },
    {
      "inputs": [
        {
          "internalType": "address",
          "name": "file_address",
          "type": "address"
        }
      ],
      "name": "getFileDetailInfo",
      "outputs": [
        {
          "components": [
            {
              "internalType": "address",
              "name": "owner",
              "type": "address"
            },
            {
              "internalType": "address",
              "name": "file_address",
              "type": "address"
            },
            {
              "internalType": "address",
              "name": "category_address",
              "type": "address"
            },
            {
              "internalType": "bool",
              "name": "is_buy",
              "type": "bool"
            },
            {
              "internalType": "string",
              "name": "name",
              "type": "string"
            },
            {
              "internalType": "string",
              "name": "title",
              "type": "string"
            },
            {
              "internalType": "string",
              "name": "description",
              "type": "string"
            },
            {
              "internalType": "string",
              "name": "ipfs_address",
              "type": "string"
            },
            {
              "internalType": "string[3]",
              "name": "images",
              "type": "string[3]"
            },
            {
              "internalType": "uint256",
              "name": "price",
              "type": "uint256"
            },
            {
              "internalType": "uint256",
              "name": "up_num",
              "type": "uint256"
            },
            {
              "internalType": "uint256",
              "name": "down_num",
              "type": "uint256"
            },
            {
              "internalType": "uint256",
              "name": "buyer_num",
              "type": "uint256"
            },
            {
              "internalType": "uint256",
              "name": "comment_num",
              "type": "uint256"
            },
            {
              "internalType": "uint256",
              "name": "up_and_down",
              "type": "uint256"
            },
            {
              "internalType": "uint256",
              "name": "upload_timestamp",
              "type": "uint256"
            }
          ],
          "internalType": "struct Types.FileDetailInfo",
          "name": "detail_info",
          "type": "tuple"
        }
      ],
      "stateMutability": "view",
      "type": "function",
      "constant": true
    },
    {
      "inputs": [
        {
          "internalType": "address",
          "name": "user_address",
          "type": "address"
        }
      ],
      "name": "getOtherSimpleInfo",
      "outputs": [
        {
          "components": [
            {
              "internalType": "string",
              "name": "major",
              "type": "string"
            },
            {
              "internalType": "string",
              "name": "avatar",
              "type": "string"
            },
            {
              "internalType": "string",
              "name": "nickname",
              "type": "string"
            },
            {
              "internalType": "string",
              "name": "signature",
              "type": "string"
            },
            {
              "internalType": "uint256",
              "name": "heart",
              "type": "uint256"
            },
            {
              "internalType": "uint256",
              "name": "medal_num",
              "type": "uint256"
            },
            {
              "internalType": "uint256",
              "name": "experience",
              "type": "uint256"
            },
            {
              "internalType": "uint256",
              "name": "follower_num",
              "type": "uint256"
            },
            {
              "internalType": "uint256",
              "name": "uploaded_file_num",
              "type": "uint256"
            }
          ],
          "internalType": "struct Types.UserSimpleInfo",
          "name": "simple_info",
          "type": "tuple"
        }
      ],
      "stateMutability": "view",
      "type": "function",
      "constant": true
    },
    {
      "inputs": [
        {
          "internalType": "address",
          "name": "file_address",
          "type": "address"
        },
        {
          "internalType": "address",
          "name": "cursor",
          "type": "address"
        },
        {
          "internalType": "uint256",
          "name": "order",
          "type": "uint256"
        },
        {
          "internalType": "bool",
          "name": "reverse",
          "type": "bool"
        }
      ],
      "name": "getRootComments",
      "outputs": [
        {
          "components": [
            {
              "internalType": "address",
              "name": "comment_address",
              "type": "address"
            },
            {
              "components": [
                {
                  "internalType": "address",
                  "name": "target_address",
                  "type": "address"
                },
                {
                  "internalType": "address",
                  "name": "comment_address",
                  "type": "address"
                },
                {
                  "internalType": "address",
                  "name": "sub_comment_address",
                  "type": "address"
                },
                {
                  "internalType": "string",
                  "name": "content",
                  "type": "string"
                },
                {
                  "components": [
                    {
                      "internalType": "address",
                      "name": "user_address",
                      "type": "address"
                    },
                    {
                      "internalType": "string",
                      "name": "avatar",
                      "type": "string"
                    },
                    {
                      "internalType": "string",
                      "name": "nickname",
                      "type": "string"
                    },
                    {
                      "internalType": "uint256",
                      "name": "experience",
                      "type": "uint256"
                    }
                  ],
                  "internalType": "struct Types.UserBriefInfo",
                  "name": "author",
                  "type": "tuple"
                },
                {
                  "internalType": "uint256",
                  "name": "up_num",
                  "type": "uint256"
                },
                {
                  "internalType": "uint256",
                  "name": "down_num",
                  "type": "uint256"
                },
                {
                  "internalType": "uint256",
                  "name": "up_and_down",
                  "type": "uint256"
                },
                {
                  "internalType": "uint256",
                  "name": "comment_timestamp",
                  "type": "uint256"
                }
              ],
              "internalType": "struct Types.FileChildrenComment[2]",
              "name": "children_comments",
              "type": "tuple[2]"
            },
            {
              "internalType": "string",
              "name": "content",
              "type": "string"
            },
            {
              "internalType": "string[3]",
              "name": "images",
              "type": "string[3]"
            },
            {
              "components": [
                {
                  "internalType": "address",
                  "name": "user_address",
                  "type": "address"
                },
                {
                  "internalType": "string",
                  "name": "avatar",
                  "type": "string"
                },
                {
                  "internalType": "string",
                  "name": "nickname",
                  "type": "string"
                },
                {
                  "internalType": "uint256",
                  "name": "experience",
                  "type": "uint256"
                }
              ],
              "internalType": "struct Types.UserBriefInfo",
              "name": "author",
              "type": "tuple"
            },
            {
              "internalType": "uint256",
              "name": "up_num",
              "type": "uint256"
            },
            {
              "internalType": "uint256",
              "name": "down_num",
              "type": "uint256"
            },
            {
              "internalType": "uint256",
              "name": "up_and_down",
              "type": "uint256"
            },
            {
              "internalType": "uint256",
              "name": "comment_num",
              "type": "uint256"
            },
            {
              "internalType": "uint256",
              "name": "comment_timestamp",
              "type": "uint256"
            }
          ],
          "internalType": "struct Types.FileRootComment[10]",
          "name": "root_comments",
          "type": "tuple[10]"
        },
        {
          "internalType": "address",
          "name": "next",
          "type": "address"
        },
        {
          "internalType": "bool",
          "name": "finished",
          "type": "bool"
        }
      ],
      "stateMutability": "view",
      "type": "function",
      "constant": true
    },
    {
      "inputs": [
        {
          "internalType": "address",
          "name": "cursor",
          "type": "address"
        },
        {
          "internalType": "bool",
          "name": "reverse",
          "type": "bool"
        }
      ],
      "name": "getSelfFileBriefInfos",
      "outputs": [
        {
          "components": [
            {
              "internalType": "address",
              "name": "file_address",
              "type": "address"
            },
            {
              "internalType": "address",
              "name": "category_address",
              "type": "address"
            },
            {
              "internalType": "bool",
              "name": "is_buy",
              "type": "bool"
            },
            {
              "internalType": "string",
              "name": "name",
              "type": "string"
            },
            {
              "internalType": "string",
              "name": "title",
              "type": "string"
            },
            {
              "internalType": "string",
              "name": "owner",
              "type": "string"
            },
            {
              "internalType": "string",
              "name": "description",
              "type": "string"
            },
            {
              "internalType": "string",
              "name": "cover",
              "type": "string"
            },
            {
              "internalType": "uint256",
              "name": "price",
              "type": "uint256"
            },
            {
              "internalType": "uint256",
              "name": "up_num",
              "type": "uint256"
            },
            {
              "internalType": "uint256",
              "name": "down_num",
              "type": "uint256"
            },
            {
              "internalType": "uint256",
              "name": "buyer_num",
              "type": "uint256"
            },
            {
              "internalType": "uint256",
              "name": "comment_num",
              "type": "uint256"
            },
            {
              "internalType": "uint256",
              "name": "up_and_down",
              "type": "uint256"
            },
            {
              "internalType": "uint256",
              "name": "upload_timestamp",
              "type": "uint256"
            }
          ],
          "internalType": "struct Types.FileBriefInfo[10]",
          "name": "file_infos",
          "type": "tuple[10]"
        },
        {
          "internalType": "address",
          "name": "next",
          "type": "address"
        },
        {
          "internalType": "bool",
          "name": "finished",
          "type": "bool"
        }
      ],
      "stateMutability": "view",
      "type": "function",
      "constant": true
    },
    {
      "inputs": [],
      "name": "getSelfInfo",
      "outputs": [
        {
          "components": [
            {
              "internalType": "string",
              "name": "major",
              "type": "string"
            },
            {
              "internalType": "string",
              "name": "avatar",
              "type": "string"
            },
            {
              "internalType": "string",
              "name": "nickname",
              "type": "string"
            },
            {
              "internalType": "string",
              "name": "signature",
              "type": "string"
            },
            {
              "internalType": "uint256",
              "name": "ID",
              "type": "uint256"
            },
            {
              "internalType": "uint256",
              "name": "coins",
              "type": "uint256"
            },
            {
              "internalType": "uint256",
              "name": "heart",
              "type": "uint256"
            },
            {
              "internalType": "uint256",
              "name": "experience",
              "type": "uint256"
            },
            {
              "internalType": "uint256",
              "name": "follower_num",
              "type": "uint256"
            },
            {
              "internalType": "uint256",
              "name": "following_num",
              "type": "uint256"
            },
            {
              "internalType": "uint256",
              "name": "login_timestamp",
              "type": "uint256"
            },
            {
              "internalType": "uint256",
              "name": "uploaded_file_num",
              "type": "uint256"
            }
          ],
          "internalType": "struct Types.UserSelfInfo",
          "name": "self_info",
          "type": "tuple"
        }
      ],
      "stateMutability": "view",
      "type": "function",
      "constant": true
    },
    {
      "inputs": [
        {
          "internalType": "address",
          "name": "user_address",
          "type": "address"
        }
      ],
      "name": "isRegistered",
      "outputs": [
        {
          "internalType": "bool",
          "name": "is_registered",
          "type": "bool"
        }
      ],
      "stateMutability": "view",
      "type": "function",
      "constant": true
    },
    {
      "inputs": [
        {
          "internalType": "string",
          "name": "nickname",
          "type": "string"
        }
      ],
      "name": "register",
      "outputs": [],
      "stateMutability": "nonpayable",
      "type": "function"
    },
    {
      "inputs": [],
      "name": "renounceAdmin",
      "outputs": [],
      "stateMutability": "nonpayable",
      "type": "function"
    },
    {
      "inputs": [
        {
          "internalType": "address",
          "name": "new_admin",
          "type": "address"
        }
      ],
      "name": "transferAdmin",
      "outputs": [],
      "stateMutability": "nonpayable",
      "type": "function"
    },
    {
      "inputs": [
        {
          "internalType": "address",
          "name": "file_address",
          "type": "address"
        },
        {
          "internalType": "bool",
          "name": "is_up",
          "type": "bool"
        }
      ],
      "name": "upAndDown",
      "outputs": [],
      "stateMutability": "nonpayable",
      "type": "function"
    },
    {
      "inputs": [
        {
          "internalType": "string",
          "name": "avatar",
          "type": "string"
        }
      ],
      "name": "updateAvatar",
      "outputs": [],
      "stateMutability": "nonpayable",
      "type": "function"
    },
    {
      "inputs": [
        {
          "internalType": "string",
          "name": "nickname",
          "type": "string"
        }
      ],
      "name": "updateNickname",
      "outputs": [],
      "stateMutability": "nonpayable",
      "type": "function"
    },
    {
      "inputs": [
        {
          "internalType": "string",
          "name": "signature",
          "type": "string"
        }
      ],
      "name": "updateSignature",
      "outputs": [],
      "stateMutability": "nonpayable",
      "type": "function"
    },
    {
      "inputs": [
        {
          "internalType": "string",
          "name": "ipfs_address",
          "type": "string"
        },
        {
          "internalType": "string",
          "name": "name",
          "type": "string"
        },
        {
          "internalType": "string",
          "name": "title",
          "type": "string"
        },
        {
          "internalType": "string",
          "name": "description",
          "type": "string"
        },
        {
          "internalType": "address",
          "name": "category_address",
          "type": "address"
        },
        {
          "internalType": "string[3]",
          "name": "images",
          "type": "string[3]"
        },
        {
          "internalType": "uint256",
          "name": "price",
          "type": "uint256"
        }
      ],
      "name": "uploadFile",
      "outputs": [],
      "stateMutability": "nonpayable",
      "type": "function"
    },
    {
      "inputs": [],
      "name": "init",
      "outputs": [],
      "stateMutability": "nonpayable",
      "type": "function"
    }
  ],
  "bytecode": "0x608060405234801561001057600080fd5b50614c47806100206000396000f3fe608060405234801561001057600080fd5b50600436106101425760003560e01c8063a389559f116100b8578063cffa64421161007c578063cffa644214610375578063db12e041146103a7578063e1c7392a146103b1578063f2c298be146103bb578063f2e9c783146103d7578063f851a440146103f357610142565b8063a389559f146102c1578063bd2e3b17146102dd578063c3c5a547146102f9578063c8ef7dd614610329578063cfbd1e721461035957610142565b806379ed53601161010a57806379ed5360146102135780637e8e7733146102455780638bad0c0a14610263578063978803b61461026d5780639b1ffc2b146102895780639fe958b9146102a557610142565b806320c16dd51461014757806324c432e2146101795780632e0dcbf7146101ab5780636020c004146101c757806375829def146101f7575b600080fd5b610161600480360381019061015c9190611dc6565b610411565b6040516101709392919061211d565b60405180910390f35b610193600480360381019061018e919061215b565b6104bd565b6040516101a29392919061211d565b60405180910390f35b6101c560048036038101906101c091906122d0565b610562565b005b6101e160048036038101906101dc9190612319565b61065f565b6040516101ee9190612420565b60405180910390f35b610211600480360381019061020c9190612319565b6106f0565b005b61022d60048036038101906102289190611dc6565b6107f9565b60405161023c93929190612889565b60405180910390f35b61024d6108a5565b60405161025a91906129e0565b60405180910390f35b61026b610932565b005b6102876004803603810190610282919061215b565b6109cc565b005b6102a3600480360381019061029e9190612ad6565b610a3e565b005b6102bf60048036038101906102ba91906122d0565b610ab3565b005b6102db60048036038101906102d691906122d0565b610bde565b005b6102f760048036038101906102f291906122d0565b610d09565b005b610313600480360381019061030e9190612319565b610e34565b6040516103209190612b61565b60405180910390f35b610343600480360381019061033e9190612319565b610eba565b6040516103509190612cf0565b60405180910390f35b610373600480360381019061036e9190612d12565b610f4b565b005b61038f600480360381019061038a9190612319565b610fc3565b60405161039e93929190612e9b565b60405180910390f35b6103af611063565b005b6103b9611065565b005b6103d560048036038101906103d091906122d0565b61114e565b005b6103f160048036038101906103ec9190612ed9565b61127a565b005b6103fb6114eb565b6040516104089190613007565b60405180910390f35b61041961186c565b600080601573__FileLib_______________________________6372cfd1be90918989898960016040518763ffffffff1660e01b81526004016104619695949392919061305d565b600060405180830381865af415801561047e573d6000803e3d6000fd5b505050506040513d6000823e3d601f19601f820116820180604052508101906104a79190613436565b8093508194508295505050509450945094915050565b6104c561186c565b600080601573__FileLib_______________________________632b5d580c9091878760016040518563ffffffff1660e01b815260040161050994939291906134a5565b600060405180830381865af4158015610526573d6000803e3d6000fd5b505050506040513d6000823e3d601f19601f8201168201806040525081019061054f9190613436565b8093508194508295505050509250925092565b3373ffffffffffffffffffffffffffffffffffffffff1660008054906101000a900473ffffffffffffffffffffffffffffffffffffffff1673ffffffffffffffffffffffffffffffffffffffff16146105f0576040517f08c379a00000000000000000000000000000000000000000000000000000000081526004016105e790613547565b60405180910390fd5b602473__CategoryLib___________________________63a1a3afd09091836040518363ffffffff1660e01b815260040161062c9291906135b8565b60006040518083038186803b15801561064457600080fd5b505af4158015610658573d6000803e3d6000fd5b5050505050565b61066761189a565b600173__UserLib_______________________________6301962a669091846040518363ffffffff1660e01b81526004016106a39291906135ef565b600060405180830381865af41580156106c0573d6000803e3d6000fd5b505050506040513d6000823e3d601f19601f820116820180604052508101906106e99190613768565b9050919050565b3373ffffffffffffffffffffffffffffffffffffffff1660008054906101000a900473ffffffffffffffffffffffffffffffffffffffff1673ffffffffffffffffffffffffffffffffffffffff161461077e576040517f08c379a000000000000000000000000000000000000000000000000000000000815260040161077590613547565b60405180910390fd5b600073ffffffffffffffffffffffffffffffffffffffff168173ffffffffffffffffffffffffffffffffffffffff16036107ed576040517f08c379a00000000000000000000000000000000000000000000000000000000081526004016107e4906137fd565b60405180910390fd5b6107f68161150f565b50565b6108016118e6565b600080601573__FileLib_______________________________63990f186090918989898960016040518763ffffffff1660e01b81526004016108499695949392919061305d565b600060405180830381865af4158015610866573d6000803e3d6000fd5b505050506040513d6000823e3d601f19601f8201168201806040525081019061088f9190613d92565b8093508194508295505050509450945094915050565b6108ad611914565b600173__UserLib_______________________________636e0358de90916040518263ffffffff1660e01b81526004016108e79190613e01565b600060405180830381865af4158015610904573d6000803e3d6000fd5b505050506040513d6000823e3d601f19601f8201168201806040525081019061092d9190613fae565b905090565b3373ffffffffffffffffffffffffffffffffffffffff1660008054906101000a900473ffffffffffffffffffffffffffffffffffffffff1673ffffffffffffffffffffffffffffffffffffffff16146109c0576040517f08c379a00000000000000000000000000000000000000000000000000000000081526004016109b790613547565b60405180910390fd5b6109ca600061150f565b565b601573__FileLib_______________________________630f1040e1909184846040518463ffffffff1660e01b8152600401610a0a93929190613ff7565b60006040518083038186803b158015610a2257600080fd5b505af4158015610a36573d6000803e3d6000fd5b505050505050565b601573__FileLib_______________________________639572064f90918585856040518563ffffffff1660e01b8152600401610a7e949392919061410c565b60006040518083038186803b158015610a9657600080fd5b505af4158015610aaa573d6000803e3d6000fd5b50505050505050565b600173__UserLib_______________________________63b50d32099091336040518363ffffffff1660e01b8152600401610aef9291906135ef565b602060405180830381865af4158015610b0c573d6000803e3d6000fd5b505050506040513d601f19601f82011682018060405250810190610b30919061415f565b610b6f576040517f08c379a0000000000000000000000000000000000000000000000000000000008152600401610b66906141d8565b60405180910390fd5b600173__UserLib_______________________________6369b33f769091836040518363ffffffff1660e01b8152600401610bab9291906141f8565b60006040518083038186803b158015610bc357600080fd5b505af4158015610bd7573d6000803e3d6000fd5b5050505050565b600173__UserLib_______________________________63b50d32099091336040518363ffffffff1660e01b8152600401610c1a9291906135ef565b602060405180830381865af4158015610c37573d6000803e3d6000fd5b505050506040513d601f19601f82011682018060405250810190610c5b919061415f565b610c9a576040517f08c379a0000000000000000000000000000000000000000000000000000000008152600401610c9190614274565b60405180910390fd5b600173__UserLib_______________________________6368caaef19091836040518363ffffffff1660e01b8152600401610cd69291906141f8565b60006040518083038186803b158015610cee57600080fd5b505af4158015610d02573d6000803e3d6000fd5b5050505050565b600173__UserLib_______________________________63b50d32099091336040518363ffffffff1660e01b8152600401610d459291906135ef565b602060405180830381865af4158015610d62573d6000803e3d6000fd5b505050506040513d601f19601f82011682018060405250810190610d86919061415f565b610dc5576040517f08c379a0000000000000000000000000000000000000000000000000000000008152600401610dbc906142e0565b60405180910390fd5b600173__UserLib_______________________________63e0baafdb9091836040518363ffffffff1660e01b8152600401610e019291906141f8565b60006040518083038186803b158015610e1957600080fd5b505af4158015610e2d573d6000803e3d6000fd5b5050505050565b6000600173__UserLib_______________________________63b50d32099091846040518363ffffffff1660e01b8152600401610e729291906135ef565b602060405180830381865af4158015610e8f573d6000803e3d6000fd5b505050506040513d601f19601f82011682018060405250810190610eb3919061415f565b9050919050565b610ec2611975565b601573__FileLib_______________________________63584c2ff59091846040518363ffffffff1660e01b8152600401610efe929190614300565b600060405180830381865af4158015610f1b573d6000803e3d6000fd5b505050506040513d6000823e3d601f19601f82011682018060405250810190610f44919061452f565b9050919050565b601573__FileLib_______________________________63d994bc3d9091868686866040518663ffffffff1660e01b8152600401610f8d959493929190614578565b60006040518083038186803b158015610fa557600080fd5b505af4158015610fb9573d6000803e3d6000fd5b5050505050505050565b610fcb611a3c565b600080602473__CategoryLib___________________________634817eb9d9091866040518363ffffffff1660e01b815260040161100a9291906145d2565b600060405180830381865af4158015611027573d6000803e3d6000fd5b505050506040513d6000823e3d601f19601f82011682018060405250810190611050919061474a565b8093508194508295505050509193909250565b565b600073ffffffffffffffffffffffffffffffffffffffff1660008054906101000a900473ffffffffffffffffffffffffffffffffffffffff1673ffffffffffffffffffffffffffffffffffffffff16036110f4576040517f08c379a00000000000000000000000000000000000000000000000000000000081526004016110eb90614805565b60405180910390fd5b336000806101000a81548173ffffffffffffffffffffffffffffffffffffffff021916908373ffffffffffffffffffffffffffffffffffffffff16021790555061113c6115d3565b61114461163f565b61114c611715565b565b600173__UserLib_______________________________63b50d32099091336040518363ffffffff1660e01b815260040161118a9291906135ef565b602060405180830381865af41580156111a7573d6000803e3d6000fd5b505050506040513d601f19601f820116820180604052508101906111cb919061415f565b1561120b576040517f08c379a000000000000000000000000000000000000000000000000000000000815260040161120290614871565b60405180910390fd5b600173__UserLib_______________________________632ef420dd9091836040518363ffffffff1660e01b81526004016112479291906141f8565b60006040518083038186803b15801561125f57600080fd5b505af4158015611273573d6000803e3d6000fd5b5050505050565b602473__CategoryLib___________________________63853b58329091856040518363ffffffff1660e01b81526004016112b69291906145d2565b602060405180830381865af41580156112d3573d6000803e3d6000fd5b505050506040513d601f19601f820116820180604052508101906112f7919061415f565b611336576040517f08c379a000000000000000000000000000000000000000000000000000000000815260040161132d906148dd565b60405180910390fd5b61134d60016040876117179092919063ffffffff16565b61136460016014836117cb9092919063ffffffff16565b61137c6001610200866117179092919063ffffffff16565b6000601573__FileLib_______________________________6304be43b890918a8a8a8a8a8a8a6040518963ffffffff1660e01b81526004016113c69897969594939291906148fd565b602060405180830381865af41580156113e3573d6000803e3d6000fd5b505050506040513d601f19601f82011682018060405250810190611407919061499e565b9050602473__CategoryLib___________________________63c525098d9091866040518363ffffffff1660e01b81526004016114459291906145d2565b60006040518083038186803b15801561145d57600080fd5b505af4158015611471573d6000803e3d6000fd5b50505050600173__UserLib_______________________________636275fd579091836040518363ffffffff1660e01b81526004016114b19291906135ef565b60006040518083038186803b1580156114c957600080fd5b505af41580156114dd573d6000803e3d6000fd5b505050505050505050505050565b60008054906101000a900473ffffffffffffffffffffffffffffffffffffffff1681565b60008060009054906101000a900473ffffffffffffffffffffffffffffffffffffffff169050816000806101000a81548173ffffffffffffffffffffffffffffffffffffffff021916908373ffffffffffffffffffffffffffffffffffffffff1602179055508173ffffffffffffffffffffffffffffffffffffffff168173ffffffffffffffffffffffffffffffffffffffff167ff8ccb027dfcd135e000e9d45e6cc2d662578a8825d4c45b5e32e0adf67e79ec660405160405180910390a35050565b600173__UserLib_______________________________6374aa063390916040518263ffffffff1660e01b815260040161160d9190613e01565b60006040518083038186803b15801561162557600080fd5b505af4158015611639573d6000803e3d6000fd5b50505050565b601573__FileLib_______________________________63d0eb643090916040518263ffffffff1660e01b815260040161167991906149cb565b60006040518083038186803b15801561169157600080fd5b505af41580156116a5573d6000803e3d6000fd5b50505050602473__CategoryLib___________________________63d0eefddb90916040518263ffffffff1660e01b81526004016116e391906149e6565b60006040518083038186803b1580156116fb57600080fd5b505af415801561170f573d6000803e3d6000fd5b50505050565b565b6000600384516117279190614a30565b905060008314806117385750828110155b611777576040517f08c379a000000000000000000000000000000000000000000000000000000000815260040161176e90614aad565b60405180910390fd5b60008214806117865750818111155b6117c5576040517f08c379a00000000000000000000000000000000000000000000000000000000081526004016117bc90614b19565b60405180910390fd5b50505050565b60008214806117da5750818310155b611819576040517f08c379a000000000000000000000000000000000000000000000000000000000815260040161181090614b85565b60405180910390fd5b60008114806118285750808311155b611867576040517f08c379a000000000000000000000000000000000000000000000000000000000815260040161185e90614bf1565b60405180910390fd5b505050565b604051806101400160405280600a905b611884611a6a565b81526020019060019003908161187c5790505090565b6040518061012001604052806060815260200160608152602001606081526020016060815260200160008152602001600081526020016000815260200160008152602001600081525090565b604051806101400160405280600a905b6118fe611b0e565b8152602001906001900390816118f65790505090565b6040518061018001604052806060815260200160608152602001606081526020016060815260200160008152602001600081526020016000815260200160008152602001600081526020016000815260200160008152602001600081525090565b604051806102000160405280600073ffffffffffffffffffffffffffffffffffffffff168152602001600073ffffffffffffffffffffffffffffffffffffffff168152602001600073ffffffffffffffffffffffffffffffffffffffff16815260200160001515815260200160608152602001606081526020016060815260200160608152602001611a05611b89565b8152602001600081526020016000815260200160008152602001600081526020016000815260200160008152602001600081525090565b604051806101400160405280600a905b611a54611bb0565b815260200190600190039081611a4c5790505090565b604051806101e00160405280600073ffffffffffffffffffffffffffffffffffffffff168152602001600073ffffffffffffffffffffffffffffffffffffffff1681526020016000151581526020016060815260200160608152602001606081526020016060815260200160608152602001600081526020016000815260200160008152602001600081526020016000815260200160008152602001600081525090565b604051806101400160405280600073ffffffffffffffffffffffffffffffffffffffff168152602001611b3f611be7565b815260200160608152602001611b53611b89565b8152602001611b60611c14565b815260200160008152602001600081526020016000815260200160008152602001600081525090565b60405180606001604052806003905b6060815260200190600190039081611b985790505090565b6040518060600160405280600073ffffffffffffffffffffffffffffffffffffffff16815260200160608152602001600081525090565b60405180604001604052806002905b611bfe611c52565b815260200190600190039081611bf65790505090565b6040518060800160405280600073ffffffffffffffffffffffffffffffffffffffff1681526020016060815260200160608152602001600081525090565b604051806101200160405280600073ffffffffffffffffffffffffffffffffffffffff168152602001600073ffffffffffffffffffffffffffffffffffffffff168152602001600073ffffffffffffffffffffffffffffffffffffffff16815260200160608152602001611cc4611c14565b8152602001600081526020016000815260200160008152602001600081525090565b6000604051905090565b600080fd5b600080fd5b600073ffffffffffffffffffffffffffffffffffffffff82169050919050565b6000611d2582611cfa565b9050919050565b611d3581611d1a565b8114611d4057600080fd5b50565b600081359050611d5281611d2c565b92915050565b6000819050919050565b611d6b81611d58565b8114611d7657600080fd5b50565b600081359050611d8881611d62565b92915050565b60008115159050919050565b611da381611d8e565b8114611dae57600080fd5b50565b600081359050611dc081611d9a565b92915050565b60008060008060808587031215611de057611ddf611cf0565b5b6000611dee87828801611d43565b9450506020611dff87828801611d43565b9350506040611e1087828801611d79565b9250506060611e2187828801611db1565b91505092959194509250565b6000600a9050919050565b600081905092915050565b6000819050919050565b611e5681611d1a565b82525050565b611e6581611d8e565b82525050565b600081519050919050565b600082825260208201905092915050565b60005b83811015611ea5578082015181840152602081019050611e8a565b60008484015250505050565b6000601f19601f8301169050919050565b6000611ecd82611e6b565b611ed78185611e76565b9350611ee7818560208601611e87565b611ef081611eb1565b840191505092915050565b611f0481611d58565b82525050565b60006101e083016000830151611f236000860182611e4d565b506020830151611f366020860182611e4d565b506040830151611f496040860182611e5c565b5060608301518482036060860152611f618282611ec2565b91505060808301518482036080860152611f7b8282611ec2565b91505060a083015184820360a0860152611f958282611ec2565b91505060c083015184820360c0860152611faf8282611ec2565b91505060e083015184820360e0860152611fc98282611ec2565b915050610100830151611fe0610100860182611efb565b50610120830151611ff5610120860182611efb565b5061014083015161200a610140860182611efb565b5061016083015161201f610160860182611efb565b50610180830151612034610180860182611efb565b506101a08301516120496101a0860182611efb565b506101c083015161205e6101c0860182611efb565b508091505092915050565b60006120758383611f0a565b905092915050565b6000602082019050919050565b600061209582611e2d565b61209f8185611e38565b9350836020820285016120b185611e43565b8060005b858110156120ed57848403895281516120ce8582612069565b94506120d98361207d565b925060208a019950506001810190506120b5565b50829750879550505050505092915050565b61210881611d1a565b82525050565b61211781611d8e565b82525050565b60006060820190508181036000830152612137818661208a565b905061214660208301856120ff565b612153604083018461210e565b949350505050565b6000806040838503121561217257612171611cf0565b5b600061218085828601611d43565b925050602061219185828601611db1565b9150509250929050565b600080fd5b600080fd5b7f4e487b7100000000000000000000000000000000000000000000000000000000600052604160045260246000fd5b6121dd82611eb1565b810181811067ffffffffffffffff821117156121fc576121fb6121a5565b5b80604052505050565b600061220f611ce6565b905061221b82826121d4565b919050565b600067ffffffffffffffff82111561223b5761223a6121a5565b5b61224482611eb1565b9050602081019050919050565b82818337600083830152505050565b600061227361226e84612220565b612205565b90508281526020810184848401111561228f5761228e6121a0565b5b61229a848285612251565b509392505050565b600082601f8301126122b7576122b661219b565b5b81356122c7848260208601612260565b91505092915050565b6000602082840312156122e6576122e5611cf0565b5b600082013567ffffffffffffffff81111561230457612303611cf5565b5b612310848285016122a2565b91505092915050565b60006020828403121561232f5761232e611cf0565b5b600061233d84828501611d43565b91505092915050565b60006101208301600083015184820360008601526123648282611ec2565b9150506020830151848203602086015261237e8282611ec2565b915050604083015184820360408601526123988282611ec2565b915050606083015184820360608601526123b28282611ec2565b91505060808301516123c76080860182611efb565b5060a08301516123da60a0860182611efb565b5060c08301516123ed60c0860182611efb565b5060e083015161240060e0860182611efb565b50610100830151612415610100860182611efb565b508091505092915050565b6000602082019050818103600083015261243a8184612346565b905092915050565b6000600a9050919050565b600081905092915050565b6000819050919050565b600060029050919050565b600081905092915050565b6000819050919050565b600060808301600083015161249a6000860182611e4d565b50602083015184820360208601526124b28282611ec2565b915050604083015184820360408601526124cc8282611ec2565b91505060608301516124e16060860182611efb565b508091505092915050565b6000610120830160008301516125056000860182611e4d565b5060208301516125186020860182611e4d565b50604083015161252b6040860182611e4d565b50606083015184820360608601526125438282611ec2565b9150506080830151848203608086015261255d8282612482565b91505060a083015161257260a0860182611efb565b5060c083015161258560c0860182611efb565b5060e083015161259860e0860182611efb565b506101008301516125ad610100860182611efb565b508091505092915050565b60006125c483836124ec565b905092915050565b6000602082019050919050565b60006125e482612462565b6125ee818561246d565b93508360208202850161260085612478565b8060005b8581101561263c578484038952815161261d85826125b8565b9450612628836125cc565b925060208a01995050600181019050612604565b50829750879550505050505092915050565b600060039050919050565b600081905092915050565b6000819050919050565b600061267a8383611ec2565b905092915050565b6000602082019050919050565b600061269a8261264e565b6126a48185612659565b9350836020820285016126b685612664565b8060005b858110156126f257848403895281516126d3858261266e565b94506126de83612682565b925060208a019950506001810190506126ba565b50829750879550505050505092915050565b60006101408301600083015161271d6000860182611e4d565b506020830151848203602086015261273582826125d9565b9150506040830151848203604086015261274f8282611ec2565b91505060608301518482036060860152612769828261268f565b915050608083015184820360808601526127838282612482565b91505060a083015161279860a0860182611efb565b5060c08301516127ab60c0860182611efb565b5060e08301516127be60e0860182611efb565b506101008301516127d3610100860182611efb565b506101208301516127e8610120860182611efb565b508091505092915050565b60006127ff8383612704565b905092915050565b6000602082019050919050565b600061281f82612442565b612829818561244d565b93508360208202850161283b85612458565b8060005b85811015612877578484038952815161285885826127f3565b945061286383612807565b925060208a0199505060018101905061283f565b50829750879550505050505092915050565b600060608201905081810360008301526128a38186612814565b90506128b260208301856120ff565b6128bf604083018461210e565b949350505050565b60006101808301600083015184820360008601526128e58282611ec2565b915050602083015184820360208601526128ff8282611ec2565b915050604083015184820360408601526129198282611ec2565b915050606083015184820360608601526129338282611ec2565b91505060808301516129486080860182611efb565b5060a083015161295b60a0860182611efb565b5060c083015161296e60c0860182611efb565b5060e083015161298160e0860182611efb565b50610100830151612996610100860182611efb565b506101208301516129ab610120860182611efb565b506101408301516129c0610140860182611efb565b506101608301516129d5610160860182611efb565b508091505092915050565b600060208201905081810360008301526129fa81846128c7565b905092915050565b600067ffffffffffffffff821115612a1d57612a1c6121a5565b5b602082029050919050565b600080fd5b6000612a40612a3b84612a02565b612205565b90508060208402830185811115612a5a57612a59612a28565b5b835b81811015612aa157803567ffffffffffffffff811115612a7f57612a7e61219b565b5b808601612a8c89826122a2565b85526020850194505050602081019050612a5c565b5050509392505050565b600082601f830112612ac057612abf61219b565b5b6003612acd848285612a2d565b91505092915050565b600080600060608486031215612aef57612aee611cf0565b5b6000612afd86828701611d43565b935050602084013567ffffffffffffffff811115612b1e57612b1d611cf5565b5b612b2a868287016122a2565b925050604084013567ffffffffffffffff811115612b4b57612b4a611cf5565b5b612b5786828701612aab565b9150509250925092565b6000602082019050612b76600083018461210e565b92915050565b600061020083016000830151612b956000860182611e4d565b506020830151612ba86020860182611e4d565b506040830151612bbb6040860182611e4d565b506060830151612bce6060860182611e5c565b5060808301518482036080860152612be68282611ec2565b91505060a083015184820360a0860152612c008282611ec2565b91505060c083015184820360c0860152612c1a8282611ec2565b91505060e083015184820360e0860152612c348282611ec2565b915050610100830151848203610100860152612c50828261268f565b915050610120830151612c67610120860182611efb565b50610140830151612c7c610140860182611efb565b50610160830151612c91610160860182611efb565b50610180830151612ca6610180860182611efb565b506101a0830151612cbb6101a0860182611efb565b506101c0830151612cd06101c0860182611efb565b506101e0830151612ce56101e0860182611efb565b508091505092915050565b60006020820190508181036000830152612d0a8184612b7c565b905092915050565b60008060008060808587031215612d2c57612d2b611cf0565b5b6000612d3a87828801611d43565b9450506020612d4b87828801611d43565b9350506040612d5c87828801611d43565b925050606085013567ffffffffffffffff811115612d7d57612d7c611cf5565b5b612d89878288016122a2565b91505092959194509250565b6000600a9050919050565b600081905092915050565b6000819050919050565b6000606083016000830151612dcd6000860182611e4d565b5060208301518482036020860152612de58282611ec2565b9150506040830151612dfa6040860182611efb565b508091505092915050565b6000612e118383612db5565b905092915050565b6000602082019050919050565b6000612e3182612d95565b612e3b8185612da0565b935083602082028501612e4d85612dab565b8060005b85811015612e895784840389528151612e6a8582612e05565b9450612e7583612e19565b925060208a01995050600181019050612e51565b50829750879550505050505092915050565b60006060820190508181036000830152612eb58186612e26565b9050612ec460208301856120ff565b612ed1604083018461210e565b949350505050565b600080600080600080600060e0888a031215612ef857612ef7611cf0565b5b600088013567ffffffffffffffff811115612f1657612f15611cf5565b5b612f228a828b016122a2565b975050602088013567ffffffffffffffff811115612f4357612f42611cf5565b5b612f4f8a828b016122a2565b965050604088013567ffffffffffffffff811115612f7057612f6f611cf5565b5b612f7c8a828b016122a2565b955050606088013567ffffffffffffffff811115612f9d57612f9c611cf5565b5b612fa98a828b016122a2565b9450506080612fba8a828b01611d43565b93505060a088013567ffffffffffffffff811115612fdb57612fda611cf5565b5b612fe78a828b01612aab565b92505060c0612ff88a828b01611d79565b91505092959891949750929550565b600060208201905061301c60008301846120ff565b92915050565b8082525050565b61303281611d1a565b82525050565b61304181611d58565b82525050565b61305081611d8e565b82525050565b8082525050565b600060c0820190506130726000830189613022565b61307f6020830188613029565b61308c6040830187613029565b6130996060830186613038565b6130a66080830185613047565b6130b360a0830184613056565b979650505050505050565b600067ffffffffffffffff8211156130d9576130d86121a5565b5b602082029050919050565b600080fd5b600080fd5b6000815190506130fd81611d2c565b92915050565b60008151905061311281611d9a565b92915050565b600061312b61312684612220565b612205565b905082815260208101848484011115613147576131466121a0565b5b613152848285611e87565b509392505050565b600082601f83011261316f5761316e61219b565b5b815161317f848260208601613118565b91505092915050565b60008151905061319781611d62565b92915050565b60006101e082840312156131b4576131b36130e4565b5b6131bf6101e0612205565b905060006131cf848285016130ee565b60008301525060206131e3848285016130ee565b60208301525060406131f784828501613103565b604083015250606082015167ffffffffffffffff81111561321b5761321a6130e9565b5b6132278482850161315a565b606083015250608082015167ffffffffffffffff81111561324b5761324a6130e9565b5b6132578482850161315a565b60808301525060a082015167ffffffffffffffff81111561327b5761327a6130e9565b5b6132878482850161315a565b60a08301525060c082015167ffffffffffffffff8111156132ab576132aa6130e9565b5b6132b78482850161315a565b60c08301525060e082015167ffffffffffffffff8111156132db576132da6130e9565b5b6132e78482850161315a565b60e0830152506101006132fc84828501613188565b6101008301525061012061331284828501613188565b6101208301525061014061332884828501613188565b6101408301525061016061333e84828501613188565b6101608301525061018061335484828501613188565b610180830152506101a061336a84828501613188565b6101a0830152506101c061338084828501613188565b6101c08301525092915050565b60006133a061339b846130be565b612205565b905080602084028301858111156133ba576133b9612a28565b5b835b8181101561340157805167ffffffffffffffff8111156133df576133de61219b565b5b8086016133ec898261319d565b855260208501945050506020810190506133bc565b5050509392505050565b600082601f8301126134205761341f61219b565b5b600a61342d84828561338d565b91505092915050565b60008060006060848603121561344f5761344e611cf0565b5b600084015167ffffffffffffffff81111561346d5761346c611cf5565b5b6134798682870161340b565b935050602061348a868287016130ee565b925050604061349b86828701613103565b9150509250925092565b60006080820190506134ba6000830187613022565b6134c76020830186613029565b6134d46040830185613047565b6134e16060830184613056565b95945050505050565b600082825260208201905092915050565b7f41646d696e436f6e74726163743e5f6f6e6c7941646d696e5f00000000000000600082015250565b60006135316019836134ea565b915061353c826134fb565b602082019050919050565b6000602082019050818103600083015261356081613524565b9050919050565b8082525050565b600082825260208201905092915050565b600061358a82611e6b565b613594818561356e565b93506135a4818560208601611e87565b6135ad81611eb1565b840191505092915050565b60006040820190506135cd6000830185613567565b81810360208301526135df818461357f565b90509392505050565b8082525050565b600060408201905061360460008301856135e8565b6136116020830184613029565b9392505050565b6000610120828403121561362f5761362e6130e4565b5b61363a610120612205565b9050600082015167ffffffffffffffff81111561365a576136596130e9565b5b6136668482850161315a565b600083015250602082015167ffffffffffffffff81111561368a576136896130e9565b5b6136968482850161315a565b602083015250604082015167ffffffffffffffff8111156136ba576136b96130e9565b5b6136c68482850161315a565b604083015250606082015167ffffffffffffffff8111156136ea576136e96130e9565b5b6136f68482850161315a565b606083015250608061370a84828501613188565b60808301525060a061371e84828501613188565b60a08301525060c061373284828501613188565b60c08301525060e061374684828501613188565b60e08301525061010061375b84828501613188565b6101008301525092915050565b60006020828403121561377e5761377d611cf0565b5b600082015167ffffffffffffffff81111561379c5761379b611cf5565b5b6137a884828501613618565b91505092915050565b7f41646d696e436f6e74726163743e7472616e7366657241646d696e0000000000600082015250565b60006137e7601b836134ea565b91506137f2826137b1565b602082019050919050565b60006020820190508181036000830152613816816137da565b9050919050565b600067ffffffffffffffff821115613838576138376121a5565b5b602082029050919050565b600067ffffffffffffffff82111561385e5761385d6121a5565b5b602082029050919050565b60006080828403121561387f5761387e6130e4565b5b6138896080612205565b90506000613899848285016130ee565b600083015250602082015167ffffffffffffffff8111156138bd576138bc6130e9565b5b6138c98482850161315a565b602083015250604082015167ffffffffffffffff8111156138ed576138ec6130e9565b5b6138f98482850161315a565b604083015250606061390d84828501613188565b60608301525092915050565b600061012082840312156139305761392f6130e4565b5b61393b610120612205565b9050600061394b848285016130ee565b600083015250602061395f848285016130ee565b6020830152506040613973848285016130ee565b604083015250606082015167ffffffffffffffff811115613997576139966130e9565b5b6139a38482850161315a565b606083015250608082015167ffffffffffffffff8111156139c7576139c66130e9565b5b6139d384828501613869565b60808301525060a06139e784828501613188565b60a08301525060c06139fb84828501613188565b60c08301525060e0613a0f84828501613188565b60e083015250610100613a2484828501613188565b6101008301525092915050565b6000613a44613a3f84613843565b612205565b90508060208402830185811115613a5e57613a5d612a28565b5b835b81811015613aa557805167ffffffffffffffff811115613a8357613a8261219b565b5b808601613a908982613919565b85526020850194505050602081019050613a60565b5050509392505050565b600082601f830112613ac457613ac361219b565b5b6002613ad1848285613a31565b91505092915050565b6000613aed613ae884612a02565b612205565b90508060208402830185811115613b0757613b06612a28565b5b835b81811015613b4e57805167ffffffffffffffff811115613b2c57613b2b61219b565b5b808601613b39898261315a565b85526020850194505050602081019050613b09565b5050509392505050565b600082601f830112613b6d57613b6c61219b565b5b6003613b7a848285613ada565b91505092915050565b60006101408284031215613b9a57613b996130e4565b5b613ba5610140612205565b90506000613bb5848285016130ee565b600083015250602082015167ffffffffffffffff811115613bd957613bd86130e9565b5b613be584828501613aaf565b602083015250604082015167ffffffffffffffff811115613c0957613c086130e9565b5b613c158482850161315a565b604083015250606082015167ffffffffffffffff811115613c3957613c386130e9565b5b613c4584828501613b58565b606083015250608082015167ffffffffffffffff811115613c6957613c686130e9565b5b613c7584828501613869565b60808301525060a0613c8984828501613188565b60a08301525060c0613c9d84828501613188565b60c08301525060e0613cb184828501613188565b60e083015250610100613cc684828501613188565b61010083015250610120613cdc84828501613188565b6101208301525092915050565b6000613cfc613cf78461381d565b612205565b90508060208402830185811115613d1657613d15612a28565b5b835b81811015613d5d57805167ffffffffffffffff811115613d3b57613d3a61219b565b5b808601613d488982613b83565b85526020850194505050602081019050613d18565b5050509392505050565b600082601f830112613d7c57613d7b61219b565b5b600a613d89848285613ce9565b91505092915050565b600080600060608486031215613dab57613daa611cf0565b5b600084015167ffffffffffffffff811115613dc957613dc8611cf5565b5b613dd586828701613d67565b9350506020613de6868287016130ee565b9250506040613df786828701613103565b9150509250925092565b6000602082019050613e1660008301846135e8565b92915050565b60006101808284031215613e3357613e326130e4565b5b613e3e610180612205565b9050600082015167ffffffffffffffff811115613e5e57613e5d6130e9565b5b613e6a8482850161315a565b600083015250602082015167ffffffffffffffff811115613e8e57613e8d6130e9565b5b613e9a8482850161315a565b602083015250604082015167ffffffffffffffff811115613ebe57613ebd6130e9565b5b613eca8482850161315a565b604083015250606082015167ffffffffffffffff811115613eee57613eed6130e9565b5b613efa8482850161315a565b6060830152506080613f0e84828501613188565b60808301525060a0613f2284828501613188565b60a08301525060c0613f3684828501613188565b60c08301525060e0613f4a84828501613188565b60e083015250610100613f5f84828501613188565b61010083015250610120613f7584828501613188565b61012083015250610140613f8b84828501613188565b61014083015250610160613fa184828501613188565b6101608301525092915050565b600060208284031215613fc457613fc3611cf0565b5b600082015167ffffffffffffffff811115613fe257613fe1611cf5565b5b613fee84828501613e1c565b91505092915050565b600060608201905061400c6000830186613022565b6140196020830185613029565b6140266040830184613047565b949350505050565b600081905092915050565b600082825260208201905092915050565b600061405582611e6b565b61405f8185614039565b935061406f818560208601611e87565b61407881611eb1565b840191505092915050565b600061408f838361404a565b905092915050565b60006140a28261264e565b6140ac818561402e565b9350836020820285016140be85612664565b8060005b858110156140fa57848403895281516140db8582614083565b94506140e683612682565b925060208a019950506001810190506140c2565b50829750879550505050505092915050565b60006080820190506141216000830187613022565b61412e6020830186613029565b8181036040830152614140818561357f565b905081810360608301526141548184614097565b905095945050505050565b60006020828403121561417557614174611cf0565b5b600061418384828501613103565b91505092915050565b7f55736572436f6e74726163743e75706461746541766174617200000000000000600082015250565b60006141c26019836134ea565b91506141cd8261418c565b602082019050919050565b600060208201905081810360008301526141f1816141b5565b9050919050565b600060408201905061420d60008301856135e8565b818103602083015261421f818461357f565b90509392505050565b7f55736572436f6e74726163743e7570646174655369676e617475726500000000600082015250565b600061425e601c836134ea565b915061426982614228565b602082019050919050565b6000602082019050818103600083015261428d81614251565b9050919050565b7f55736572436f6e74726163743e7570646174654e69636b6e616d650000000000600082015250565b60006142ca601b836134ea565b91506142d582614294565b602082019050919050565b600060208201905081810360008301526142f9816142bd565b9050919050565b60006040820190506143156000830185613022565b6143226020830184613029565b9392505050565b600061020082840312156143405761433f6130e4565b5b61434b610200612205565b9050600061435b848285016130ee565b600083015250602061436f848285016130ee565b6020830152506040614383848285016130ee565b604083015250606061439784828501613103565b606083015250608082015167ffffffffffffffff8111156143bb576143ba6130e9565b5b6143c78482850161315a565b60808301525060a082015167ffffffffffffffff8111156143eb576143ea6130e9565b5b6143f78482850161315a565b60a08301525060c082015167ffffffffffffffff81111561441b5761441a6130e9565b5b6144278482850161315a565b60c08301525060e082015167ffffffffffffffff81111561444b5761444a6130e9565b5b6144578482850161315a565b60e08301525061010082015167ffffffffffffffff81111561447c5761447b6130e9565b5b61448884828501613b58565b6101008301525061012061449e84828501613188565b610120830152506101406144b484828501613188565b610140830152506101606144ca84828501613188565b610160830152506101806144e084828501613188565b610180830152506101a06144f684828501613188565b6101a0830152506101c061450c84828501613188565b6101c0830152506101e061452284828501613188565b6101e08301525092915050565b60006020828403121561454557614544611cf0565b5b600082015167ffffffffffffffff81111561456357614562611cf5565b5b61456f84828501614329565b91505092915050565b600060a08201905061458d6000830188613022565b61459a6020830187613029565b6145a76040830186613029565b6145b46060830185613029565b81810360808301526145c6818461357f565b90509695505050505050565b60006040820190506145e76000830185613567565b6145f46020830184613029565b9392505050565b600067ffffffffffffffff821115614616576146156121a5565b5b602082029050919050565b600060608284031215614637576146366130e4565b5b6146416060612205565b90506000614651848285016130ee565b600083015250602082015167ffffffffffffffff811115614675576146746130e9565b5b6146818482850161315a565b602083015250604061469584828501613188565b60408301525092915050565b60006146b46146af846145fb565b612205565b905080602084028301858111156146ce576146cd612a28565b5b835b8181101561471557805167ffffffffffffffff8111156146f3576146f261219b565b5b8086016147008982614621565b855260208501945050506020810190506146d0565b5050509392505050565b600082601f8301126147345761473361219b565b5b600a6147418482856146a1565b91505092915050565b60008060006060848603121561476357614762611cf0565b5b600084015167ffffffffffffffff81111561478157614780611cf5565b5b61478d8682870161471f565b935050602061479e868287016130ee565b92505060406147af86828701613103565b9150509250925092565b7f696e697469616c697a6564000000000000000000000000000000000000000000600082015250565b60006147ef600b836134ea565b91506147fa826147b9565b602082019050919050565b6000602082019050818103600083015261481e816147e2565b9050919050565b7f55736572436f6e74726163743e72656769737465720000000000000000000000600082015250565b600061485b6015836134ea565b915061486682614825565b602082019050919050565b6000602082019050818103600083015261488a8161484e565b9050919050565b7f46696c65436f6e746163743e75706c6f616446696c6500000000000000000000600082015250565b60006148c76016836134ea565b91506148d282614891565b602082019050919050565b600060208201905081810360008301526148f6816148ba565b9050919050565b600061010082019050614913600083018b613022565b8181036020830152614925818a61357f565b90508181036040830152614939818961357f565b9050818103606083015261494d818861357f565b90508181036080830152614961818761357f565b905061497060a0830186613029565b81810360c08301526149828185614097565b905061499160e0830184613038565b9998505050505050505050565b6000602082840312156149b4576149b3611cf0565b5b60006149c2848285016130ee565b91505092915050565b60006020820190506149e06000830184613022565b92915050565b60006020820190506149fb6000830184613567565b92915050565b7f4e487b7100000000000000000000000000000000000000000000000000000000600052601260045260246000fd5b6000614a3b82611d58565b9150614a4683611d58565b925082614a5657614a55614a01565b5b828204905092915050565b7f537472696e674c69623e72616e67653e31000000000000000000000000000000600082015250565b6000614a976011836134ea565b9150614aa282614a61565b602082019050919050565b60006020820190508181036000830152614ac681614a8a565b9050919050565b7f537472696e674c69623e72616e67653e32000000000000000000000000000000600082015250565b6000614b036011836134ea565b9150614b0e82614acd565b602082019050919050565b60006020820190508181036000830152614b3281614af6565b9050919050565b7f55696e744c69623e72616e67653e310000000000000000000000000000000000600082015250565b6000614b6f600f836134ea565b9150614b7a82614b39565b602082019050919050565b60006020820190508181036000830152614b9e81614b62565b9050919050565b7f55696e744c69623e72616e67653e320000000000000000000000000000000000600082015250565b6000614bdb600f836134ea565b9150614be682614ba5565b602082019050919050565b60006020820190508181036000830152614c0a81614bce565b905091905056fea26469706673582212208c8e38dfaff4d06864b4019b2ede55e2b3c9fa6084d545f7d9d6aaf8ab44e06964736f6c63430008110033",
  "immutableReferences": {},
  "source": "// SPDX-License-Identifier: GPL-3.0\r\npragma solidity ^0.8.17;\r\n\r\nimport \"./implementations/base/Base.sol\";\r\nimport \"./implementations/User.sol\";\r\nimport \"./implementations/File.sol\";\r\nimport \"./implementations/Reward.sol\";\r\nimport \"./implementations/Message.sol\";\r\n\r\ninterface ImplementationInterface is AdminInterface, UserInterface, FileInterface, RewardInterface, MessageInterface {\r\n    function init() external;\r\n}\r\n\r\ncontract ImplementationContact is UserContract, FileContact, RewardContact, MessageContact {\r\n    function init()\r\n    public {\r\n        require(admin != address(0), \"initialized\");\r\n        admin = msg.sender;\r\n        UserContract_init();\r\n        FileContract_init();\r\n//        RewardContract_init();\r\n        MessageContract_init();\r\n    }\r\n}\r\n\r\ncontract OurShare is AdminContract {\r\n    bytes32 private constant implementation_position = keccak256(\"OurShare\");\r\n\r\n    constructor(){\r\n        admin = msg.sender;\r\n    }\r\n\r\n    function getImplementation() public view returns (address implementation) {\r\n        bytes32 position = implementation_position;\r\n        assembly {\r\n            implementation := sload(position)\r\n        }\r\n    }\r\n\r\n    function setImplementation(address implementation) public _onlyAdmin_ {\r\n        bytes32 position = implementation_position;\r\n        assembly {\r\n            sstore(position, implementation)\r\n        }\r\n    }\r\n\r\n    function _delegate(address implementation) internal {\r\n        assembly {\r\n            calldatacopy(0, 0, calldatasize())\r\n            let result := delegatecall(gas(), implementation, 0, calldatasize(), 0, 0)\r\n            returndatacopy(0, 0, returndatasize())\r\n            switch result\r\n            case 0 {\r\n                revert(0, returndatasize())\r\n            }\r\n            default {\r\n                return (0, returndatasize())\r\n            }\r\n        }\r\n    }\r\n\r\n    fallback() external payable {\r\n        _delegate(getImplementation());\r\n    }\r\n\r\n    receive() external payable {\r\n        _delegate(getImplementation());\r\n    }\r\n}\r\n",
  "sourcePath": "F:\\OurChain\\OurShare\\src\\assets\\eth\\contracts\\OurShare.sol",
  "compiler": {
    "name": "solc",
    "version": "0.8.17+commit.8df45f5f.Emscripten.clang"
  },
  "schemaVersion": "3.4.13",
  "updatedAt": "2023-05-26T14:01:36.138Z",
  "networkType": "ethereum",
  "devdoc": {
    "kind": "dev",
    "methods": {},
    "version": 1
  },
  "userdoc": {
    "kind": "user",
    "methods": {},
    "version": 1
  }
}