{
  "contractName": "ImplementationContact",
  "abi": [
    {
      "anonymous": false,
      "inputs": [
        {
          "indexed": true,
          "internalType": "address",
          "name": "old_admin",
          "type": "address"
        },
        {
          "indexed": true,
          "internalType": "address",
          "name": "new_admin",
          "type": "address"
        }
      ],
      "name": "AdminTransferred",
      "type": "event"
    },
    {
      "inputs": [],
      "name": "RewardContract_init",
      "outputs": [],
      "stateMutability": "nonpayable",
      "type": "function"
    },
    {
      "inputs": [
        {
          "internalType": "string",
          "name": "name",
          "type": "string"
        }
      ],
      "name": "addCategory",
      "outputs": [],
      "stateMutability": "nonpayable",
      "type": "function"
    },
    {
      "inputs": [
        {
          "internalType": "address",
          "name": "file_address",
          "type": "address"
        },
        {
          "internalType": "string",
          "name": "content",
          "type": "string"
        },
        {
          "internalType": "string[3]",
          "name": "images",
          "type": "string[3]"
        }
      ],
      "name": "addComment",
      "outputs": [],
      "stateMutability": "nonpayable",
      "type": "function"
    },
    {
      "inputs": [
        {
          "internalType": "address",
          "name": "file_address",
          "type": "address"
        },
        {
          "internalType": "address",
          "name": "target_address",
          "type": "address"
        },
        {
          "internalType": "address",
          "name": "comment_address",
          "type": "address"
        },
        {
          "internalType": "string",
          "name": "content",
          "type": "string"
        }
      ],
      "name": "addSubComment",
      "outputs": [],
      "stateMutability": "nonpayable",
      "type": "function"
    },
    {
      "inputs": [],
      "name": "admin",
      "outputs": [
        {
          "internalType": "address",
          "name": "",
          "type": "address"
        }
      ],
      "stateMutability": "view",
      "type": "function"
    },
    {
      "inputs": [
        {
          "internalType": "address",
          "name": "cursor",
          "type": "address"
        }
      ],
      "name": "getCategorySlice",
      "outputs": [
        {
          "components": [
            {
              "internalType": "address",
              "name": "category_address",
              "type": "address"
            },
            {
              "internalType": "string",
              "name": "name",
              "type": "string"
            },
            {
              "internalType": "uint256",
              "name": "num",
              "type": "uint256"
            }
          ],
          "internalType": "struct StoreContact.Category[10]",
          "name": "category_slice",
          "type": "tuple[10]"
        },
        {
          "internalType": "address",
          "name": "next",
          "type": "address"
        }
      ],
      "stateMutability": "view",
      "type": "function"
    },
    {
      "inputs": [
        {
          "internalType": "address",
          "name": "cursor",
          "type": "address"
        },
        {
          "internalType": "address",
          "name": "category",
          "type": "address"
        },
        {
          "internalType": "uint256",
          "name": "order",
          "type": "uint256"
        },
        {
          "internalType": "bool",
          "name": "reverse",
          "type": "bool"
        }
      ],
      "name": "getFileBriefInfos",
      "outputs": [
        {
          "components": [
            {
              "internalType": "address",
              "name": "category",
              "type": "address"
            },
            {
              "internalType": "address",
              "name": "file_address",
              "type": "address"
            },
            {
              "internalType": "bool",
              "name": "is_buy",
              "type": "bool"
            },
            {
              "internalType": "string",
              "name": "name",
              "type": "string"
            },
            {
              "internalType": "string",
              "name": "title",
              "type": "string"
            },
            {
              "internalType": "string",
              "name": "owner",
              "type": "string"
            },
            {
              "internalType": "string",
              "name": "description",
              "type": "string"
            },
            {
              "internalType": "string",
              "name": "cover",
              "type": "string"
            },
            {
              "internalType": "uint256",
              "name": "price",
              "type": "uint256"
            },
            {
              "internalType": "uint256",
              "name": "up_num",
              "type": "uint256"
            },
            {
              "internalType": "uint256",
              "name": "down_num",
              "type": "uint256"
            },
            {
              "internalType": "uint256",
              "name": "buyer_num",
              "type": "uint256"
            },
            {
              "internalType": "uint256",
              "name": "comment_num",
              "type": "uint256"
            },
            {
              "internalType": "uint256",
              "name": "up_and_down",
              "type": "uint256"
            },
            {
              "internalType": "uint256",
              "name": "upload_timestamp",
              "type": "uint256"
            }
          ],
          "internalType": "struct StoreContact.FileBriefInfo[10]",
          "name": "file_infos",
          "type": "tuple[10]"
        },
        {
          "internalType": "address",
          "name": "next",
          "type": "address"
        },
        {
          "internalType": "bool",
          "name": "finished",
          "type": "bool"
        }
      ],
      "stateMutability": "view",
      "type": "function"
    },
    {
      "inputs": [
        {
          "internalType": "address",
          "name": "file_address",
          "type": "address"
        }
      ],
      "name": "getFileDetailInfo",
      "outputs": [
        {
          "components": [
            {
              "internalType": "address",
              "name": "owner",
              "type": "address"
            },
            {
              "internalType": "address",
              "name": "category",
              "type": "address"
            },
            {
              "internalType": "address",
              "name": "file_address",
              "type": "address"
            },
            {
              "internalType": "bool",
              "name": "is_buy",
              "type": "bool"
            },
            {
              "internalType": "string",
              "name": "name",
              "type": "string"
            },
            {
              "internalType": "string",
              "name": "title",
              "type": "string"
            },
            {
              "internalType": "string",
              "name": "description",
              "type": "string"
            },
            {
              "internalType": "string",
              "name": "ipfs_address",
              "type": "string"
            },
            {
              "internalType": "string[3]",
              "name": "images",
              "type": "string[3]"
            },
            {
              "internalType": "uint256",
              "name": "price",
              "type": "uint256"
            },
            {
              "internalType": "uint256",
              "name": "up_num",
              "type": "uint256"
            },
            {
              "internalType": "uint256",
              "name": "down_num",
              "type": "uint256"
            },
            {
              "internalType": "uint256",
              "name": "buyer_num",
              "type": "uint256"
            },
            {
              "internalType": "uint256",
              "name": "comment_num",
              "type": "uint256"
            },
            {
              "internalType": "uint256",
              "name": "up_and_down",
              "type": "uint256"
            },
            {
              "internalType": "uint256",
              "name": "upload_timestamp",
              "type": "uint256"
            }
          ],
          "internalType": "struct StoreContact.FileDetailInfo",
          "name": "detail_info",
          "type": "tuple"
        }
      ],
      "stateMutability": "view",
      "type": "function"
    },
    {
      "inputs": [
        {
          "internalType": "address",
          "name": "user_address",
          "type": "address"
        }
      ],
      "name": "getOtherSimpleInfo",
      "outputs": [
        {
          "components": [
            {
              "internalType": "string",
              "name": "major",
              "type": "string"
            },
            {
              "internalType": "string",
              "name": "avatar",
              "type": "string"
            },
            {
              "internalType": "string",
              "name": "nickname",
              "type": "string"
            },
            {
              "internalType": "string",
              "name": "signature",
              "type": "string"
            },
            {
              "internalType": "uint256",
              "name": "heart",
              "type": "uint256"
            },
            {
              "internalType": "uint256",
              "name": "medal_num",
              "type": "uint256"
            },
            {
              "internalType": "uint256",
              "name": "experience",
              "type": "uint256"
            },
            {
              "internalType": "uint256",
              "name": "follower_num",
              "type": "uint256"
            },
            {
              "internalType": "uint256",
              "name": "uploaded_file_num",
              "type": "uint256"
            }
          ],
          "internalType": "struct StoreContact.UserSimpleInfo",
          "name": "simple_info",
          "type": "tuple"
        }
      ],
      "stateMutability": "view",
      "type": "function"
    },
    {
      "inputs": [
        {
          "internalType": "address",
          "name": "cursor",
          "type": "address"
        },
        {
          "internalType": "bool",
          "name": "reverse",
          "type": "bool"
        }
      ],
      "name": "getSelfFileBriefInfos",
      "outputs": [
        {
          "components": [
            {
              "internalType": "address",
              "name": "category",
              "type": "address"
            },
            {
              "internalType": "address",
              "name": "file_address",
              "type": "address"
            },
            {
              "internalType": "bool",
              "name": "is_buy",
              "type": "bool"
            },
            {
              "internalType": "string",
              "name": "name",
              "type": "string"
            },
            {
              "internalType": "string",
              "name": "title",
              "type": "string"
            },
            {
              "internalType": "string",
              "name": "owner",
              "type": "string"
            },
            {
              "internalType": "string",
              "name": "description",
              "type": "string"
            },
            {
              "internalType": "string",
              "name": "cover",
              "type": "string"
            },
            {
              "internalType": "uint256",
              "name": "price",
              "type": "uint256"
            },
            {
              "internalType": "uint256",
              "name": "up_num",
              "type": "uint256"
            },
            {
              "internalType": "uint256",
              "name": "down_num",
              "type": "uint256"
            },
            {
              "internalType": "uint256",
              "name": "buyer_num",
              "type": "uint256"
            },
            {
              "internalType": "uint256",
              "name": "comment_num",
              "type": "uint256"
            },
            {
              "internalType": "uint256",
              "name": "up_and_down",
              "type": "uint256"
            },
            {
              "internalType": "uint256",
              "name": "upload_timestamp",
              "type": "uint256"
            }
          ],
          "internalType": "struct StoreContact.FileBriefInfo[10]",
          "name": "file_infos",
          "type": "tuple[10]"
        },
        {
          "internalType": "address",
          "name": "next",
          "type": "address"
        },
        {
          "internalType": "bool",
          "name": "finished",
          "type": "bool"
        }
      ],
      "stateMutability": "view",
      "type": "function"
    },
    {
      "inputs": [],
      "name": "getSelfInfo",
      "outputs": [
        {
          "components": [
            {
              "internalType": "string",
              "name": "major",
              "type": "string"
            },
            {
              "internalType": "string",
              "name": "avatar",
              "type": "string"
            },
            {
              "internalType": "string",
              "name": "nickname",
              "type": "string"
            },
            {
              "internalType": "string",
              "name": "signature",
              "type": "string"
            },
            {
              "internalType": "uint256",
              "name": "ID",
              "type": "uint256"
            },
            {
              "internalType": "uint256",
              "name": "coins",
              "type": "uint256"
            },
            {
              "internalType": "uint256",
              "name": "heart",
              "type": "uint256"
            },
            {
              "internalType": "uint256",
              "name": "experience",
              "type": "uint256"
            },
            {
              "internalType": "uint256",
              "name": "follower_num",
              "type": "uint256"
            },
            {
              "internalType": "uint256",
              "name": "following_num",
              "type": "uint256"
            },
            {
              "internalType": "uint256",
              "name": "login_timestamp",
              "type": "uint256"
            },
            {
              "internalType": "uint256",
              "name": "uploaded_file_num",
              "type": "uint256"
            }
          ],
          "internalType": "struct StoreContact.UserSelfInfo",
          "name": "self_info",
          "type": "tuple"
        }
      ],
      "stateMutability": "view",
      "type": "function"
    },
    {
      "inputs": [
        {
          "internalType": "address",
          "name": "user_address",
          "type": "address"
        }
      ],
      "name": "isRegistered",
      "outputs": [
        {
          "internalType": "bool",
          "name": "is_registered",
          "type": "bool"
        }
      ],
      "stateMutability": "view",
      "type": "function"
    },
    {
      "inputs": [
        {
          "internalType": "string",
          "name": "nickname",
          "type": "string"
        }
      ],
      "name": "register",
      "outputs": [],
      "stateMutability": "nonpayable",
      "type": "function"
    },
    {
      "inputs": [],
      "name": "renounceAdmin",
      "outputs": [],
      "stateMutability": "nonpayable",
      "type": "function"
    },
    {
      "inputs": [
        {
          "internalType": "address",
          "name": "new_admin",
          "type": "address"
        }
      ],
      "name": "transferAdmin",
      "outputs": [],
      "stateMutability": "nonpayable",
      "type": "function"
    },
    {
      "inputs": [
        {
          "internalType": "string",
          "name": "avatar",
          "type": "string"
        }
      ],
      "name": "updateAvatar",
      "outputs": [],
      "stateMutability": "nonpayable",
      "type": "function"
    },
    {
      "inputs": [
        {
          "internalType": "string",
          "name": "nickname",
          "type": "string"
        }
      ],
      "name": "updateNickname",
      "outputs": [],
      "stateMutability": "nonpayable",
      "type": "function"
    },
    {
      "inputs": [
        {
          "internalType": "string",
          "name": "signature",
          "type": "string"
        }
      ],
      "name": "updateSignature",
      "outputs": [],
      "stateMutability": "nonpayable",
      "type": "function"
    },
    {
      "inputs": [
        {
          "internalType": "string",
          "name": "ipfs_address",
          "type": "string"
        },
        {
          "internalType": "string",
          "name": "name",
          "type": "string"
        },
        {
          "internalType": "string",
          "name": "title",
          "type": "string"
        },
        {
          "internalType": "string",
          "name": "description",
          "type": "string"
        },
        {
          "internalType": "address",
          "name": "category",
          "type": "address"
        },
        {
          "internalType": "string[3]",
          "name": "images",
          "type": "string[3]"
        },
        {
          "internalType": "uint256",
          "name": "price",
          "type": "uint256"
        }
      ],
      "name": "uploadFile",
      "outputs": [],
      "stateMutability": "nonpayable",
      "type": "function"
    },
    {
      "inputs": [],
      "name": "init",
      "outputs": [],
      "stateMutability": "nonpayable",
      "type": "function"
    }
  ],
  "bytecode": "0x608060405234801561001057600080fd5b506164a680620000216000396000f3fe608060405234801561001057600080fd5b506004361061012c5760003560e01c8063bd2e3b17116100ad578063db12e04111610071578063db12e04114610342578063e1c7392a1461034c578063f2c298be14610356578063f2e9c78314610372578063f851a4401461038e5761012c565b8063bd2e3b1714610279578063c3c5a54714610295578063c8ef7dd6146102c5578063cfbd1e72146102f5578063cffa6442146103115761012c565b80637e8e7733116100f45780637e8e7733146101fd5780638bad0c0a1461021b5780639b1ffc2b146102255780639fe958b914610241578063a389559f1461025d5761012c565b806320c16dd51461013157806324c432e2146101635780632e0dcbf7146101955780636020c004146101b157806375829def146101e1575b600080fd5b61014b600480360381019061014691906147ce565b6103ac565b60405161015a93929190614b25565b60405180910390f35b61017d60048036038101906101789190614b63565b61088f565b60405161018c93929190614b25565b60405180910390f35b6101af60048036038101906101aa9190614cd8565b610a4e565b005b6101cb60048036038101906101c69190614d21565b610c1e565b6040516101d89190614e28565b60405180910390f35b6101fb60048036038101906101f69190614d21565b610f1f565b005b610205611028565b6040516102129190614f63565b60405180910390f35b610223611327565b005b61023f600480360381019061023a9190615059565b6113c1565b005b61025b60048036038101906102569190614cd8565b6116f2565b005b61027760048036038101906102729190614cd8565b61176e565b005b610293600480360381019061028e9190614cd8565b6117ea565b005b6102af60048036038101906102aa9190614d21565b611866565b6040516102bc91906150e4565b60405180910390f35b6102df60048036038101906102da9190614d21565b6118b8565b6040516102ec9190615329565b60405180910390f35b61030f600480360381019061030a919061534b565b611e4e565b005b61032b60048036038101906103269190614d21565b61212c565b6040516103399291906154d4565b60405180910390f35b61034a61238c565b005b61035461238e565b005b610370600480360381019061036b9190614cd8565b612477565b005b61038c60048036038101906103879190615504565b612c95565b005b610396613418565b6040516103a39190615632565b60405180910390f35b6103b461434f565b6000806103bf61437d565b60005b600a8110156108835785156105b557600173ffffffffffffffffffffffffffffffffffffffff168973ffffffffffffffffffffffffffffffffffffffff160361040e5760019250610883565b6001870361049d57601a60050173__AddressOrderedMap_____________________63f8e3ec5690918b6040518363ffffffff1660e01b8152600401610455929190615663565b602060405180830381865af4158015610472573d6000803e3d6000fd5b505050506040513d601f19601f8201168201806040525081019061049691906156a1565b98506105b0565b6002870361052c57601a600a0173__AddressOrderedMap_____________________63f8e3ec5690918b6040518363ffffffff1660e01b81526004016104e4929190615663565b602060405180830381865af4158015610501573d6000803e3d6000fd5b505050506040513d601f19601f8201168201806040525081019061052591906156a1565b98506105af565b601a60010173__AddressLinkedList_____________________635008f58590918b6040518363ffffffff1660e01b815260040161056b9291906156d5565b602060405180830381865af4158015610588573d6000803e3d6000fd5b505050506040513d601f19601f820116820180604052508101906105ac91906156a1565b98505b5b610795565b600273ffffffffffffffffffffffffffffffffffffffff168973ffffffffffffffffffffffffffffffffffffffff16036105f25760019250610883565b6001870361068157601a60050173__AddressOrderedMap_____________________63da35ee4b90918b6040518363ffffffff1660e01b8152600401610639929190615663565b602060405180830381865af4158015610656573d6000803e3d6000fd5b505050506040513d601f19601f8201168201806040525081019061067a91906156a1565b9850610794565b6002870361071057601a600a0173__AddressOrderedMap_____________________63da35ee4b90918b6040518363ffffffff1660e01b81526004016106c8929190615663565b602060405180830381865af41580156106e5573d6000803e3d6000fd5b505050506040513d601f19601f8201168201806040525081019061070991906156a1565b9850610793565b601a60010173__AddressLinkedList_____________________635cb1e46590918b6040518363ffffffff1660e01b815260040161074f9291906156d5565b602060405180830381865af415801561076c573d6000803e3d6000fd5b505050506040513d601f19601f8201168201806040525081019061079091906156a1565b98505b5b5b6107df601a60000160008b73ffffffffffffffffffffffffffffffffffffffff1673ffffffffffffffffffffffffffffffffffffffff16815260200190815260200160002061343c565b91508773ffffffffffffffffffffffffffffffffffffffff16826000015173ffffffffffffffffffffffffffffffffffffffff16148061084b5750600073ffffffffffffffffffffffffffffffffffffffff168873ffffffffffffffffffffffffffffffffffffffff16145b1561087b57818582600a8110610864576108636156fe565b5b602002018190525080806108779061575c565b9150505b8893506103c2565b50509450945094915050565b61089761434f565b6000806108a333613967565b6000600160000160003373ffffffffffffffffffffffffffffffffffffffff1673ffffffffffffffffffffffffffffffffffffffff16815260200190815260200160002060280173__AddressLinkedList_____________________637ea94909909188886040518463ffffffff1660e01b8152600401610926939291906157b3565b61014060405180830381865af4158015610944573d6000803e3d6000fd5b505050506040513d601f19601f82011682018060405250810190610968919061589b565b905060005b600a811015610a45578181600a8110610989576109886156fe565b5b60200201519350600073ffffffffffffffffffffffffffffffffffffffff168473ffffffffffffffffffffffffffffffffffffffff16036109cd5760019250610a45565b610a17601a60000160008673ffffffffffffffffffffffffffffffffffffffff1673ffffffffffffffffffffffffffffffffffffffff16815260200190815260200160002061343c565b8582600a8110610a2a57610a296156fe565b5b60200201819052508080610a3d9061575c565b91505061096d565b50509250925092565b3373ffffffffffffffffffffffffffffffffffffffff1660008054906101000a900473ffffffffffffffffffffffffffffffffffffffff1673ffffffffffffffffffffffffffffffffffffffff1614610adc576040517f08c379a0000000000000000000000000000000000000000000000000000000008152600401610ad390615926565b60405180910390fd5b6000610b0d82604051602001610af29190615982565b604051602081830303815290604052805190602001206139f2565b90506000601560000160008373ffffffffffffffffffffffffffffffffffffffff1673ffffffffffffffffffffffffffffffffffffffff1681526020019081526020016000209050818160000160006101000a81548173ffffffffffffffffffffffffffffffffffffffff021916908373ffffffffffffffffffffffffffffffffffffffff16021790555082816001019081610ba99190615ba5565b50601560010173__AddressLinkedList_____________________63dbd4df179091846040518363ffffffff1660e01b8152600401610be99291906156d5565b60006040518083038186803b158015610c0157600080fd5b505af4158015610c15573d6000803e3d6000fd5b50505050505050565b610c26614421565b610c2f82613967565b6000600160000160003373ffffffffffffffffffffffffffffffffffffffff1673ffffffffffffffffffffffffffffffffffffffff1681526020019081526020016000209050806001018054610c84906159c8565b80601f0160208091040260200160405190810160405280929190818152602001828054610cb0906159c8565b8015610cfd5780601f10610cd257610100808354040283529160200191610cfd565b820191906000526020600020905b815481529060010190602001808311610ce057829003601f168201915b50505050508260000181905250806002018054610d19906159c8565b80601f0160208091040260200160405190810160405280929190818152602001828054610d45906159c8565b8015610d925780601f10610d6757610100808354040283529160200191610d92565b820191906000526020600020905b815481529060010190602001808311610d7557829003601f168201915b50505050508260200181905250806003018054610dae906159c8565b80601f0160208091040260200160405190810160405280929190818152602001828054610dda906159c8565b8015610e275780601f10610dfc57610100808354040283529160200191610e27565b820191906000526020600020905b815481529060010190602001808311610e0a57829003601f168201915b50505050508260400181905250806004018054610e43906159c8565b80601f0160208091040260200160405190810160405280929190818152602001828054610e6f906159c8565b8015610ebc5780601f10610e9157610100808354040283529160200191610ebc565b820191906000526020600020905b815481529060010190602001808311610e9f57829003601f168201915b50505050508260600181905250806008015482608001818152505080600b016003015482608001818152505080600901548260c001818152505080601701600301548260e001818152505080602801600301548261010001818152505050919050565b3373ffffffffffffffffffffffffffffffffffffffff1660008054906101000a900473ffffffffffffffffffffffffffffffffffffffff1673ffffffffffffffffffffffffffffffffffffffff1614610fad576040517f08c379a0000000000000000000000000000000000000000000000000000000008152600401610fa490615926565b60405180910390fd5b600073ffffffffffffffffffffffffffffffffffffffff168173ffffffffffffffffffffffffffffffffffffffff160361101c576040517f08c379a000000000000000000000000000000000000000000000000000000000815260040161101390615cc3565b60405180910390fd5b611025816139ff565b50565b61103061446d565b6000600160000160003373ffffffffffffffffffffffffffffffffffffffff1673ffffffffffffffffffffffffffffffffffffffff1681526020019081526020016000209050604051806101800160405280826001018054611091906159c8565b80601f01602080910402602001604051908101604052809291908181526020018280546110bd906159c8565b801561110a5780601f106110df5761010080835404028352916020019161110a565b820191906000526020600020905b8154815290600101906020018083116110ed57829003601f168201915b50505050508152602001826002018054611123906159c8565b80601f016020809104026020016040519081016040528092919081815260200182805461114f906159c8565b801561119c5780601f106111715761010080835404028352916020019161119c565b820191906000526020600020905b81548152906001019060200180831161117f57829003601f168201915b505050505081526020018260030180546111b5906159c8565b80601f01602080910402602001604051908101604052809291908181526020018280546111e1906159c8565b801561122e5780601f106112035761010080835404028352916020019161122e565b820191906000526020600020905b81548152906001019060200180831161121157829003601f168201915b50505050508152602001826004018054611247906159c8565b80601f0160208091040260200160405190810160405280929190818152602001828054611273906159c8565b80156112c05780601f10611295576101008083540402835291602001916112c0565b820191906000526020600020905b8154815290600101906020018083116112a357829003601f168201915b50505050508152602001826005015481526020018260070154815260200182600801548152602001826009015481526020018260170160030154815260200182601b0160030154815260200182600a01548152602001826028016003015481525091505090565b3373ffffffffffffffffffffffffffffffffffffffff1660008054906101000a900473ffffffffffffffffffffffffffffffffffffffff1673ffffffffffffffffffffffffffffffffffffffff16146113b5576040517f08c379a00000000000000000000000000000000000000000000000000000000081526004016113ac90615926565b60405180910390fd5b6113bf60006139ff565b565b6113ca83613ac3565b6113e16000608084613b859092919063ffffffff16565b6000601a60000160008573ffffffffffffffffffffffffffffffffffffffff1673ffffffffffffffffffffffffffffffffffffffff1681526020019081526020016000209050600061145e858533426040516020016114439493929190615d4c565b604051602081830303815290604052805190602001206139f2565b905060008260120160008373ffffffffffffffffffffffffffffffffffffffff1673ffffffffffffffffffffffffffffffffffffffff1681526020019081526020016000209050338160000160006101000a81548173ffffffffffffffffffffffffffffffffffffffff021916908373ffffffffffffffffffffffffffffffffffffffff160217905550818160010160006101000a81548173ffffffffffffffffffffffffffffffffffffffff021916908373ffffffffffffffffffffffffffffffffffffffff1602179055508481600201908161153c9190615ba5565b5083816003019060036115509291906144ce565b5042816008018190555080600b0173__AddressLinkedList_____________________637fc06cef90916040518263ffffffff1660e01b81526004016115969190615d96565b60006040518083038186803b1580156115ae57600080fd5b505af41580156115c2573d6000803e3d6000fd5b5050505082600e0160008154809291906115db9061575c565b91905055508260130173__AddressLinkedList_____________________63dbd4df179091846040518363ffffffff1660e01b815260040161161e9291906156d5565b60006040518083038186803b15801561163657600080fd5b505af415801561164a573d6000803e3d6000fd5b505050508260170173__AddressOrderedMap_____________________633fc68a5f909160405180604001604052808673ffffffffffffffffffffffffffffffffffffffff16815260200187600e01548152506040518363ffffffff1660e01b81526004016116ba929190615dfe565b60006040518083038186803b1580156116d257600080fd5b505af41580156116e6573d6000803e3d6000fd5b50505050505050505050565b6116fb33613967565b6117126001600a83613b859092919063ffffffff16565b6000600160000160003373ffffffffffffffffffffffffffffffffffffffff1673ffffffffffffffffffffffffffffffffffffffff1681526020019081526020016000209050818160020190816117699190615ba5565b505050565b61177733613967565b61178e6001602083613b859092919063ffffffff16565b6000600160000160003373ffffffffffffffffffffffffffffffffffffffff1673ffffffffffffffffffffffffffffffffffffffff1681526020019081526020016000209050818160040190816117e59190615ba5565b505050565b6117f333613967565b61180a6001600a83613b859092919063ffffffff16565b6000600160000160003373ffffffffffffffffffffffffffffffffffffffff1673ffffffffffffffffffffffffffffffffffffffff1681526020019081526020016000209050818160030190816118619190615ba5565b505050565b600080600160000160008473ffffffffffffffffffffffffffffffffffffffff1673ffffffffffffffffffffffffffffffffffffffff168152602001908152602001600020600a015414159050919050565b6118c061451a565b6000601a60000160008473ffffffffffffffffffffffffffffffffffffffff1673ffffffffffffffffffffffffffffffffffffffff16815260200190815260200160002090508060000160009054906101000a900473ffffffffffffffffffffffffffffffffffffffff16826000019073ffffffffffffffffffffffffffffffffffffffff16908173ffffffffffffffffffffffffffffffffffffffff16815250508060010160009054906101000a900473ffffffffffffffffffffffffffffffffffffffff16826020019073ffffffffffffffffffffffffffffffffffffffff16908173ffffffffffffffffffffffffffffffffffffffff16815250508060020160009054906101000a900473ffffffffffffffffffffffffffffffffffffffff16826040019073ffffffffffffffffffffffffffffffffffffffff16908173ffffffffffffffffffffffffffffffffffffffff16815250508060100160003373ffffffffffffffffffffffffffffffffffffffff1673ffffffffffffffffffffffffffffffffffffffff16815260200190815260200160002060009054906101000a900460ff16826060019015159081151581525050806003018054611a87906159c8565b80601f0160208091040260200160405190810160405280929190818152602001828054611ab3906159c8565b8015611b005780601f10611ad557610100808354040283529160200191611b00565b820191906000526020600020905b815481529060010190602001808311611ae357829003601f168201915b50505050508260800181905250806004018054611b1c906159c8565b80601f0160208091040260200160405190810160405280929190818152602001828054611b48906159c8565b8015611b955780601f10611b6a57610100808354040283529160200191611b95565b820191906000526020600020905b815481529060010190602001808311611b7857829003601f168201915b50505050508260a00181905250806005018054611bb1906159c8565b80601f0160208091040260200160405190810160405280929190818152602001828054611bdd906159c8565b8015611c2a5780601f10611bff57610100808354040283529160200191611c2a565b820191906000526020600020905b815481529060010190602001808311611c0d57829003601f168201915b50505050508260c0018190525080600701600380602002604051908101604052809291906000905b82821015611cf5578382018054611c68906159c8565b80601f0160208091040260200160405190810160405280929190818152602001828054611c94906159c8565b8015611ce15780601f10611cb657610100808354040283529160200191611ce1565b820191906000526020600020905b815481529060010190602001808311611cc457829003601f168201915b505050505081526020019060010190611c52565b50505050826101000181905250816060015115611da257806006018054611d1b906159c8565b80601f0160208091040260200160405190810160405280929190818152602001828054611d47906159c8565b8015611d945780601f10611d6957610100808354040283529160200191611d94565b820191906000526020600020905b815481529060010190602001808311611d7757829003601f168201915b50505050508260e001819052505b80600a01548261012001818152505080600b01548261014001818152505080600c01548261016001818152505080600d01548261018001818152505080600e0154826101a00181815250508060110160003373ffffffffffffffffffffffffffffffffffffffff1673ffffffffffffffffffffffffffffffffffffffff16815260200190815260200160002054826101c001818152505080600f0154826101e001818152505050919050565b611e656000608083613b859092919063ffffffff16565b611e6e84613ac3565b6000601a60000160008673ffffffffffffffffffffffffffffffffffffffff1673ffffffffffffffffffffffffffffffffffffffff1681526020019081526020016000209050611ebe8184613c39565b60008160120160008573ffffffffffffffffffffffffffffffffffffffff1673ffffffffffffffffffffffffffffffffffffffff1681526020019081526020016000209050611f0d8186613cfb565b6000611f468786863342604051602001611f2b959493929190615e27565b604051602081830303815290604052805190602001206139f2565b9050600082600a0160008373ffffffffffffffffffffffffffffffffffffffff1673ffffffffffffffffffffffffffffffffffffffff1681526020019081526020016000209050338160000160006101000a81548173ffffffffffffffffffffffffffffffffffffffff021916908373ffffffffffffffffffffffffffffffffffffffff160217905550868160010160006101000a81548173ffffffffffffffffffffffffffffffffffffffff021916908373ffffffffffffffffffffffffffffffffffffffff160217905550858160020160006101000a81548173ffffffffffffffffffffffffffffffffffffffff021916908373ffffffffffffffffffffffffffffffffffffffff160217905550818160030160006101000a81548173ffffffffffffffffffffffffffffffffffffffff021916908373ffffffffffffffffffffffffffffffffffffffff160217905550848160040190816120aa9190615ba5565b5042816007018190555082600b0173__AddressLinkedList_____________________63dbd4df179091846040518363ffffffff1660e01b81526004016120f29291906156d5565b60006040518083038186803b15801561210a57600080fd5b505af415801561211e573d6000803e3d6000fd5b505050505050505050505050565b6121346145e1565b600080601560010173__AddressLinkedList_____________________637ea9490990918660006040518463ffffffff1660e01b8152600401612179939291906157b3565b61014060405180830381865af4158015612197573d6000803e3d6000fd5b505050506040513d601f19601f820116820180604052508101906121bb919061589b565b905060005b600a811015612385578181600a81106121dc576121db6156fe565b5b60200201519250600073ffffffffffffffffffffffffffffffffffffffff168373ffffffffffffffffffffffffffffffffffffffff16031561238557601560000160008473ffffffffffffffffffffffffffffffffffffffff1673ffffffffffffffffffffffffffffffffffffffff1681526020019081526020016000206040518060600160405290816000820160009054906101000a900473ffffffffffffffffffffffffffffffffffffffff1673ffffffffffffffffffffffffffffffffffffffff1673ffffffffffffffffffffffffffffffffffffffff1681526020016001820180546122cb906159c8565b80601f01602080910402602001604051908101604052809291908181526020018280546122f7906159c8565b80156123445780601f1061231957610100808354040283529160200191612344565b820191906000526020600020905b81548152906001019060200180831161232757829003601f168201915b505050505081526020016002820154815250508482600a811061236a576123696156fe565b5b6020020181905250808061237d9061575c565b9150506121c0565b5050915091565b565b600073ffffffffffffffffffffffffffffffffffffffff1660008054906101000a900473ffffffffffffffffffffffffffffffffffffffff1673ffffffffffffffffffffffffffffffffffffffff160361241d576040517f08c379a000000000000000000000000000000000000000000000000000000000815260040161241490615ece565b60405180910390fd5b336000806101000a81548173ffffffffffffffffffffffffffffffffffffffff021916908373ffffffffffffffffffffffffffffffffffffffff160217905550612465613df4565b61246d613fa9565b61247561415f565b565b61248033614161565b6124976001600a83613b859092919063ffffffff16565b6000600160000160003373ffffffffffffffffffffffffffffffffffffffff1673ffffffffffffffffffffffffffffffffffffffff1681526020019081526020016000209050600281600601819055504281600a0181905550818160030190816125019190615ba5565b50338160000160006101000a81548173ffffffffffffffffffffffffffffffffffffffff021916908373ffffffffffffffffffffffffffffffffffffffff16021790555080600b0173__AddressLinkedList_____________________637fc06cef90916040518263ffffffff1660e01b81526004016125819190615d96565b60006040518083038186803b15801561259957600080fd5b505af41580156125ad573d6000803e3d6000fd5b5050505080600f0173__AddressLinkedList_____________________637fc06cef90916040518263ffffffff1660e01b81526004016125ed9190615d96565b60006040518083038186803b15801561260557600080fd5b505af4158015612619573d6000803e3d6000fd5b505050508060130173__AddressLinkedList_____________________637fc06cef90916040518263ffffffff1660e01b81526004016126599190615d96565b60006040518083038186803b15801561267157600080fd5b505af4158015612685573d6000803e3d6000fd5b505050508060170173__AddressLinkedList_____________________637fc06cef90916040518263ffffffff1660e01b81526004016126c59190615d96565b60006040518083038186803b1580156126dd57600080fd5b505af41580156126f1573d6000803e3d6000fd5b5050505080601b0173__AddressLinkedList_____________________637fc06cef90916040518263ffffffff1660e01b81526004016127319190615d96565b60006040518083038186803b15801561274957600080fd5b505af415801561275d573d6000803e3d6000fd5b5050505080601f0173__AddressOrderedMap_____________________63abc7dfcc90916040518263ffffffff1660e01b815260040161279d9190615eee565b60006040518083038186803b1580156127b557600080fd5b505af41580156127c9573d6000803e3d6000fd5b505050508060240173__AddressLinkedList_____________________637fc06cef90916040518263ffffffff1660e01b81526004016128099190615d96565b60006040518083038186803b15801561282157600080fd5b505af4158015612835573d6000803e3d6000fd5b505050508060280173__AddressLinkedList_____________________637fc06cef90916040518263ffffffff1660e01b81526004016128759190615d96565b60006040518083038186803b15801561288d57600080fd5b505af41580156128a1573d6000803e3d6000fd5b5050505080602c0173__AddressOrderedMap_____________________63abc7dfcc90916040518263ffffffff1660e01b81526004016128e19190615eee565b60006040518083038186803b1580156128f957600080fd5b505af415801561290d573d6000803e3d6000fd5b505050508060310173__AddressLinkedList_____________________637fc06cef90916040518263ffffffff1660e01b815260040161294d9190615d96565b60006040518083038186803b15801561296557600080fd5b505af4158015612979573d6000803e3d6000fd5b505050508060350173__AddressOrderedMap_____________________63abc7dfcc90916040518263ffffffff1660e01b81526004016129b99190615eee565b60006040518083038186803b1580156129d157600080fd5b505af41580156129e5573d6000803e3d6000fd5b5050505080603a0173__AddressOrderedMap_____________________63abc7dfcc90916040518263ffffffff1660e01b8152600401612a259190615eee565b60006040518083038186803b158015612a3d57600080fd5b505af4158015612a51573d6000803e3d6000fd5b505050506001800173__AddressLinkedList_____________________63dbd4df179091336040518363ffffffff1660e01b8152600401612a939291906156d5565b60006040518083038186803b158015612aab57600080fd5b505af4158015612abf573d6000803e3d6000fd5b50505050600160050173__AddressOrderedMap_____________________633fc68a5f909160405180604001604052803373ffffffffffffffffffffffffffffffffffffffff16815260200160008152506040518363ffffffff1660e01b8152600401612b2d929190615dfe565b60006040518083038186803b158015612b4557600080fd5b505af4158015612b59573d6000803e3d6000fd5b505050506001600f0173__AddressOrderedMap_____________________633fc68a5f909160405180604001604052803373ffffffffffffffffffffffffffffffffffffffff16815260200160008152506040518363ffffffff1660e01b8152600401612bc7929190615dfe565b60006040518083038186803b158015612bdf57600080fd5b505af4158015612bf3573d6000803e3d6000fd5b505050506001600a0173__AddressOrderedMap_____________________633fc68a5f909160405180604001604052803373ffffffffffffffffffffffffffffffffffffffff16815260200160008152506040518363ffffffff1660e01b8152600401612c61929190615dfe565b60006040518083038186803b158015612c7957600080fd5b505af4158015612c8d573d6000803e3d6000fd5b505050505050565b612c9e33613967565b612ca7836141ec565b612cbe6001604087613b859092919063ffffffff16565b612cd6600161020086613b859092919063ffffffff16565b612ced60016014836142ae9092919063ffffffff16565b6000612d1e86604051602001612d039190615982565b604051602081830303815290604052805190602001206139f2565b90506000601a60000160008373ffffffffffffffffffffffffffffffffffffffff1673ffffffffffffffffffffffffffffffffffffffff1681526020019081526020016000209050338160000160006101000a81548173ffffffffffffffffffffffffffffffffffffffff021916908373ffffffffffffffffffffffffffffffffffffffff160217905550848160010160006101000a81548173ffffffffffffffffffffffffffffffffffffffff021916908373ffffffffffffffffffffffffffffffffffffffff160217905550818160020160006101000a81548173ffffffffffffffffffffffffffffffffffffffff021916908373ffffffffffffffffffffffffffffffffffffffff16021790555087816003019081612e409190615ba5565b5086816004019081612e529190615ba5565b5085816005019081612e649190615ba5565b5088816006019081612e769190615ba5565b508381600701906003612e8a9291906144ce565b508281600a01819055504281600f018190555060018160100160003373ffffffffffffffffffffffffffffffffffffffff1673ffffffffffffffffffffffffffffffffffffffff16815260200190815260200160002060006101000a81548160ff021916908315150217905550601a60010173__AddressLinkedList_____________________63dbd4df179091846040518363ffffffff1660e01b8152600401612f369291906156d5565b60006040518083038186803b158015612f4e57600080fd5b505af4158015612f62573d6000803e3d6000fd5b50505050601a60050173__AddressOrderedMap_____________________633fc68a5f909160405180604001604052808673ffffffffffffffffffffffffffffffffffffffff168152602001878152506040518363ffffffff1660e01b8152600401612fcf929190615dfe565b60006040518083038186803b158015612fe757600080fd5b505af4158015612ffb573d6000803e3d6000fd5b50505050601a600a0173__AddressOrderedMap_____________________633fc68a5f909160405180604001604052808673ffffffffffffffffffffffffffffffffffffffff16815260200160008152506040518363ffffffff1660e01b8152600401613069929190615dfe565b60006040518083038186803b15801561308157600080fd5b505af4158015613095573d6000803e3d6000fd5b50505050601560000160008673ffffffffffffffffffffffffffffffffffffffff1673ffffffffffffffffffffffffffffffffffffffff16815260200190815260200160002060020160008154809291906130ef9061575c565b919050555060006131258360405160200161310a9190615f09565b604051602081830303815290604052805190602001206139f2565b90506000604260020160008373ffffffffffffffffffffffffffffffffffffffff1673ffffffffffffffffffffffffffffffffffffffff1681526020019081526020016000209050338160000160006101000a81548173ffffffffffffffffffffffffffffffffffffffff021916908373ffffffffffffffffffffffffffffffffffffffff160217905550838160010160006101000a81548173ffffffffffffffffffffffffffffffffffffffff021916908373ffffffffffffffffffffffffffffffffffffffff1602179055506000600190506000600160000160003373ffffffffffffffffffffffffffffffffffffffff1673ffffffffffffffffffffffffffffffffffffffff16815260200190815260200160002090505b60011561339b578060170173__AddressLinkedList_____________________635cb1e4659091846040518363ffffffff1660e01b81526004016132859291906156d5565b602060405180830381865af41580156132a2573d6000803e3d6000fd5b505050506040513d601f19601f820116820180604052508101906132c691906156a1565b9150600273ffffffffffffffffffffffffffffffffffffffff168273ffffffffffffffffffffffffffffffffffffffff16031561339b578060350173__AddressOrderedMap_____________________633fc68a5f909160405180604001604052808873ffffffffffffffffffffffffffffffffffffffff16815260200160018152506040518363ffffffff1660e01b8152600401613366929190615dfe565b60006040518083038186803b15801561337e57600080fd5b505af4158015613392573d6000803e3d6000fd5b50505050613240565b8060280173__AddressLinkedList_____________________63dbd4df179091886040518363ffffffff1660e01b81526004016133d99291906156d5565b60006040518083038186803b1580156133f157600080fd5b505af4158015613405573d6000803e3d6000fd5b5050505050505050505050505050505050565b60008054906101000a900473ffffffffffffffffffffffffffffffffffffffff1681565b61344461437d565b8160010160009054906101000a900473ffffffffffffffffffffffffffffffffffffffff16816000019073ffffffffffffffffffffffffffffffffffffffff16908173ffffffffffffffffffffffffffffffffffffffff16815250508160020160009054906101000a900473ffffffffffffffffffffffffffffffffffffffff16816020019073ffffffffffffffffffffffffffffffffffffffff16908173ffffffffffffffffffffffffffffffffffffffff16815250508160100160003373ffffffffffffffffffffffffffffffffffffffff1673ffffffffffffffffffffffffffffffffffffffff16815260200190815260200160002060009054906101000a900460ff16816040019015159081151581525050816003018054613569906159c8565b80601f0160208091040260200160405190810160405280929190818152602001828054613595906159c8565b80156135e25780601f106135b7576101008083540402835291602001916135e2565b820191906000526020600020905b8154815290600101906020018083116135c557829003601f168201915b505050505081606001819052508160040180546135fe906159c8565b80601f016020809104026020016040519081016040528092919081815260200182805461362a906159c8565b80156136775780601f1061364c57610100808354040283529160200191613677565b820191906000526020600020905b81548152906001019060200180831161365a57829003601f168201915b50505050508160800181905250600160000160008360000160009054906101000a900473ffffffffffffffffffffffffffffffffffffffff1673ffffffffffffffffffffffffffffffffffffffff1673ffffffffffffffffffffffffffffffffffffffff16815260200190815260200160002060030180546136f8906159c8565b80601f0160208091040260200160405190810160405280929190818152602001828054613724906159c8565b80156137715780601f1061374657610100808354040283529160200191613771565b820191906000526020600020905b81548152906001019060200180831161375457829003601f168201915b50505050508160a0018190525081600501805461378d906159c8565b80601f01602080910402602001604051908101604052809291908181526020018280546137b9906159c8565b80156138065780601f106137db57610100808354040283529160200191613806565b820191906000526020600020905b8154815290600101906020018083116137e957829003601f168201915b50505050508160c001819052508160070160006003811061382a576138296156fe565b5b018054613836906159c8565b80601f0160208091040260200160405190810160405280929190818152602001828054613862906159c8565b80156138af5780601f10613884576101008083540402835291602001916138af565b820191906000526020600020905b81548152906001019060200180831161389257829003601f168201915b50505050508160e0018190525081600a01548161010001818152505081600b01548161012001818152505081600c01548161014001818152505081600d01548161016001818152505081600e0154816101800181815250508160110160003373ffffffffffffffffffffffffffffffffffffffff1673ffffffffffffffffffffffffffffffffffffffff16815260200190815260200160002054816101a001818152505081600f0154816101c0018181525050919050565b6000600160000160008373ffffffffffffffffffffffffffffffffffffffff1673ffffffffffffffffffffffffffffffffffffffff168152602001908152602001600020600a0154036139ef576040517f08c379a00000000000000000000000000000000000000000000000000000000081526004016139e690615f96565b60405180910390fd5b50565b60008160001c9050919050565b60008060009054906101000a900473ffffffffffffffffffffffffffffffffffffffff169050816000806101000a81548173ffffffffffffffffffffffffffffffffffffffff021916908373ffffffffffffffffffffffffffffffffffffffff1602179055508173ffffffffffffffffffffffffffffffffffffffff168173ffffffffffffffffffffffffffffffffffffffff167ff8ccb027dfcd135e000e9d45e6cc2d662578a8825d4c45b5e32e0adf67e79ec660405160405180910390a35050565b601a60010173__AddressLinkedList_____________________63c40b47ad9091836040518363ffffffff1660e01b8152600401613b029291906156d5565b602060405180830381865af4158015613b1f573d6000803e3d6000fd5b505050506040513d601f19601f82011682018060405250810190613b439190615fcb565b613b82576040517f08c379a0000000000000000000000000000000000000000000000000000000008152600401613b7990616044565b60405180910390fd5b50565b600060038451613b959190616093565b90506000831480613ba65750828110155b613be5576040517f08c379a0000000000000000000000000000000000000000000000000000000008152600401613bdc90616110565b60405180910390fd5b6000821480613bf45750818111155b613c33576040517f08c379a0000000000000000000000000000000000000000000000000000000008152600401613c2a9061617c565b60405180910390fd5b50505050565b8160130173__AddressLinkedList_____________________63c40b47ad9091836040518363ffffffff1660e01b8152600401613c779291906156d5565b602060405180830381865af4158015613c94573d6000803e3d6000fd5b505050506040513d601f19601f82011682018060405250810190613cb89190615fcb565b613cf7576040517f08c379a0000000000000000000000000000000000000000000000000000000008152600401613cee906161e8565b60405180910390fd5b5050565b600073ffffffffffffffffffffffffffffffffffffffff168173ffffffffffffffffffffffffffffffffffffffff161480613db1575081600b0173__AddressLinkedList_____________________63c40b47ad9091836040518363ffffffff1660e01b8152600401613d6f9291906156d5565b602060405180830381865af4158015613d8c573d6000803e3d6000fd5b505050506040513d601f19601f82011682018060405250810190613db09190615fcb565b5b613df0576040517f08c379a0000000000000000000000000000000000000000000000000000000008152600401613de79061627a565b60405180910390fd5b5050565b6001800173__AddressLinkedList_____________________637fc06cef90916040518263ffffffff1660e01b8152600401613e309190615d96565b60006040518083038186803b158015613e4857600080fd5b505af4158015613e5c573d6000803e3d6000fd5b50505050600160050173__AddressOrderedMap_____________________63abc7dfcc90916040518263ffffffff1660e01b8152600401613e9d9190615eee565b60006040518083038186803b158015613eb557600080fd5b505af4158015613ec9573d6000803e3d6000fd5b505050506001600f0173__AddressOrderedMap_____________________63abc7dfcc90916040518263ffffffff1660e01b8152600401613f0a9190615eee565b60006040518083038186803b158015613f2257600080fd5b505af4158015613f36573d6000803e3d6000fd5b505050506001600a0173__AddressOrderedMap_____________________63abc7dfcc90916040518263ffffffff1660e01b8152600401613f779190615eee565b60006040518083038186803b158015613f8f57600080fd5b505af4158015613fa3573d6000803e3d6000fd5b50505050565b601560010173__AddressLinkedList_____________________637fc06cef90916040518263ffffffff1660e01b8152600401613fe69190615d96565b60006040518083038186803b158015613ffe57600080fd5b505af4158015614012573d6000803e3d6000fd5b50505050601a60010173__AddressLinkedList_____________________637fc06cef90916040518263ffffffff1660e01b81526004016140539190615d96565b60006040518083038186803b15801561406b57600080fd5b505af415801561407f573d6000803e3d6000fd5b50505050601a60050173__AddressOrderedMap_____________________63abc7dfcc90916040518263ffffffff1660e01b81526004016140c09190615eee565b60006040518083038186803b1580156140d857600080fd5b505af41580156140ec573d6000803e3d6000fd5b50505050601a600a0173__AddressOrderedMap_____________________63abc7dfcc90916040518263ffffffff1660e01b815260040161412d9190615eee565b60006040518083038186803b15801561414557600080fd5b505af4158015614159573d6000803e3d6000fd5b50505050565b565b6000600160000160008373ffffffffffffffffffffffffffffffffffffffff1673ffffffffffffffffffffffffffffffffffffffff168152602001908152602001600020600a0154146141e9576040517f08c379a00000000000000000000000000000000000000000000000000000000081526004016141e09061630c565b60405180910390fd5b50565b601560010173__AddressLinkedList_____________________63c40b47ad9091836040518363ffffffff1660e01b815260040161422b9291906156d5565b602060405180830381865af4158015614248573d6000803e3d6000fd5b505050506040513d601f19601f8201168201806040525081019061426c9190615fcb565b6142ab576040517f08c379a00000000000000000000000000000000000000000000000000000000081526004016142a290616378565b60405180910390fd5b50565b60008214806142bd5750818310155b6142fc576040517f08c379a00000000000000000000000000000000000000000000000000000000081526004016142f3906163e4565b60405180910390fd5b600081148061430b5750808311155b61434a576040517f08c379a000000000000000000000000000000000000000000000000000000000815260040161434190616450565b60405180910390fd5b505050565b604051806101400160405280600a905b61436761437d565b81526020019060019003908161435f5790505090565b604051806101e00160405280600073ffffffffffffffffffffffffffffffffffffffff168152602001600073ffffffffffffffffffffffffffffffffffffffff1681526020016000151581526020016060815260200160608152602001606081526020016060815260200160608152602001600081526020016000815260200160008152602001600081526020016000815260200160008152602001600081525090565b6040518061012001604052806060815260200160608152602001606081526020016060815260200160008152602001600081526020016000815260200160008152602001600081525090565b6040518061018001604052806060815260200160608152602001606081526020016060815260200160008152602001600081526020016000815260200160008152602001600081526020016000815260200160008152602001600081525090565b8260038101928215614509579160200282015b828111156145085782518290816144f89190615ba5565b50916020019190600101906144e1565b5b509050614516919061460f565b5090565b604051806102000160405280600073ffffffffffffffffffffffffffffffffffffffff168152602001600073ffffffffffffffffffffffffffffffffffffffff168152602001600073ffffffffffffffffffffffffffffffffffffffff168152602001600015158152602001606081526020016060815260200160608152602001606081526020016145aa614633565b8152602001600081526020016000815260200160008152602001600081526020016000815260200160008152602001600081525090565b604051806101400160405280600a905b6145f961465a565b8152602001906001900390816145f15790505090565b5b8082111561462f57600081816146269190614691565b50600101614610565b5090565b60405180606001604052806003905b60608152602001906001900390816146425790505090565b6040518060600160405280600073ffffffffffffffffffffffffffffffffffffffff16815260200160608152602001600081525090565b50805461469d906159c8565b6000825580601f106146af57506146ce565b601f0160209004906000526020600020908101906146cd91906146d1565b5b50565b5b808211156146ea5760008160009055506001016146d2565b5090565b6000604051905090565b600080fd5b600080fd5b600073ffffffffffffffffffffffffffffffffffffffff82169050919050565b600061472d82614702565b9050919050565b61473d81614722565b811461474857600080fd5b50565b60008135905061475a81614734565b92915050565b6000819050919050565b61477381614760565b811461477e57600080fd5b50565b6000813590506147908161476a565b92915050565b60008115159050919050565b6147ab81614796565b81146147b657600080fd5b50565b6000813590506147c8816147a2565b92915050565b600080600080608085870312156147e8576147e76146f8565b5b60006147f68782880161474b565b94505060206148078782880161474b565b935050604061481887828801614781565b9250506060614829878288016147b9565b91505092959194509250565b6000600a9050919050565b600081905092915050565b6000819050919050565b61485e81614722565b82525050565b61486d81614796565b82525050565b600081519050919050565b600082825260208201905092915050565b60005b838110156148ad578082015181840152602081019050614892565b60008484015250505050565b6000601f19601f8301169050919050565b60006148d582614873565b6148df818561487e565b93506148ef81856020860161488f565b6148f8816148b9565b840191505092915050565b61490c81614760565b82525050565b60006101e08301600083015161492b6000860182614855565b50602083015161493e6020860182614855565b5060408301516149516040860182614864565b506060830151848203606086015261496982826148ca565b9150506080830151848203608086015261498382826148ca565b91505060a083015184820360a086015261499d82826148ca565b91505060c083015184820360c08601526149b782826148ca565b91505060e083015184820360e08601526149d182826148ca565b9150506101008301516149e8610100860182614903565b506101208301516149fd610120860182614903565b50610140830151614a12610140860182614903565b50610160830151614a27610160860182614903565b50610180830151614a3c610180860182614903565b506101a0830151614a516101a0860182614903565b506101c0830151614a666101c0860182614903565b508091505092915050565b6000614a7d8383614912565b905092915050565b6000602082019050919050565b6000614a9d82614835565b614aa78185614840565b935083602082028501614ab98561484b565b8060005b85811015614af55784840389528151614ad68582614a71565b9450614ae183614a85565b925060208a01995050600181019050614abd565b50829750879550505050505092915050565b614b1081614722565b82525050565b614b1f81614796565b82525050565b60006060820190508181036000830152614b3f8186614a92565b9050614b4e6020830185614b07565b614b5b6040830184614b16565b949350505050565b60008060408385031215614b7a57614b796146f8565b5b6000614b888582860161474b565b9250506020614b99858286016147b9565b9150509250929050565b600080fd5b600080fd5b7f4e487b7100000000000000000000000000000000000000000000000000000000600052604160045260246000fd5b614be5826148b9565b810181811067ffffffffffffffff82111715614c0457614c03614bad565b5b80604052505050565b6000614c176146ee565b9050614c238282614bdc565b919050565b600067ffffffffffffffff821115614c4357614c42614bad565b5b614c4c826148b9565b9050602081019050919050565b82818337600083830152505050565b6000614c7b614c7684614c28565b614c0d565b905082815260208101848484011115614c9757614c96614ba8565b5b614ca2848285614c59565b509392505050565b600082601f830112614cbf57614cbe614ba3565b5b8135614ccf848260208601614c68565b91505092915050565b600060208284031215614cee57614ced6146f8565b5b600082013567ffffffffffffffff811115614d0c57614d0b6146fd565b5b614d1884828501614caa565b91505092915050565b600060208284031215614d3757614d366146f8565b5b6000614d458482850161474b565b91505092915050565b6000610120830160008301518482036000860152614d6c82826148ca565b91505060208301518482036020860152614d8682826148ca565b91505060408301518482036040860152614da082826148ca565b91505060608301518482036060860152614dba82826148ca565b9150506080830151614dcf6080860182614903565b5060a0830151614de260a0860182614903565b5060c0830151614df560c0860182614903565b5060e0830151614e0860e0860182614903565b50610100830151614e1d610100860182614903565b508091505092915050565b60006020820190508181036000830152614e428184614d4e565b905092915050565b6000610180830160008301518482036000860152614e6882826148ca565b91505060208301518482036020860152614e8282826148ca565b91505060408301518482036040860152614e9c82826148ca565b91505060608301518482036060860152614eb682826148ca565b9150506080830151614ecb6080860182614903565b5060a0830151614ede60a0860182614903565b5060c0830151614ef160c0860182614903565b5060e0830151614f0460e0860182614903565b50610100830151614f19610100860182614903565b50610120830151614f2e610120860182614903565b50610140830151614f43610140860182614903565b50610160830151614f58610160860182614903565b508091505092915050565b60006020820190508181036000830152614f7d8184614e4a565b905092915050565b600067ffffffffffffffff821115614fa057614f9f614bad565b5b602082029050919050565b600080fd5b6000614fc3614fbe84614f85565b614c0d565b90508060208402830185811115614fdd57614fdc614fab565b5b835b8181101561502457803567ffffffffffffffff81111561500257615001614ba3565b5b80860161500f8982614caa565b85526020850194505050602081019050614fdf565b5050509392505050565b600082601f83011261504357615042614ba3565b5b6003615050848285614fb0565b91505092915050565b600080600060608486031215615072576150716146f8565b5b60006150808682870161474b565b935050602084013567ffffffffffffffff8111156150a1576150a06146fd565b5b6150ad86828701614caa565b925050604084013567ffffffffffffffff8111156150ce576150cd6146fd565b5b6150da8682870161502e565b9150509250925092565b60006020820190506150f96000830184614b16565b92915050565b600060039050919050565b600081905092915050565b6000819050919050565b600061512b83836148ca565b905092915050565b6000602082019050919050565b600061514b826150ff565b615155818561510a565b93508360208202850161516785615115565b8060005b858110156151a35784840389528151615184858261511f565b945061518f83615133565b925060208a0199505060018101905061516b565b50829750879550505050505092915050565b6000610200830160008301516151ce6000860182614855565b5060208301516151e16020860182614855565b5060408301516151f46040860182614855565b5060608301516152076060860182614864565b506080830151848203608086015261521f82826148ca565b91505060a083015184820360a086015261523982826148ca565b91505060c083015184820360c086015261525382826148ca565b91505060e083015184820360e086015261526d82826148ca565b9150506101008301518482036101008601526152898282615140565b9150506101208301516152a0610120860182614903565b506101408301516152b5610140860182614903565b506101608301516152ca610160860182614903565b506101808301516152df610180860182614903565b506101a08301516152f46101a0860182614903565b506101c08301516153096101c0860182614903565b506101e083015161531e6101e0860182614903565b508091505092915050565b6000602082019050818103600083015261534381846151b5565b905092915050565b60008060008060808587031215615365576153646146f8565b5b60006153738782880161474b565b94505060206153848782880161474b565b93505060406153958782880161474b565b925050606085013567ffffffffffffffff8111156153b6576153b56146fd565b5b6153c287828801614caa565b91505092959194509250565b6000600a9050919050565b600081905092915050565b6000819050919050565b60006060830160008301516154066000860182614855565b506020830151848203602086015261541e82826148ca565b91505060408301516154336040860182614903565b508091505092915050565b600061544a83836153ee565b905092915050565b6000602082019050919050565b600061546a826153ce565b61547481856153d9565b935083602082028501615486856153e4565b8060005b858110156154c257848403895281516154a3858261543e565b94506154ae83615452565b925060208a0199505060018101905061548a565b50829750879550505050505092915050565b600060408201905081810360008301526154ee818561545f565b90506154fd6020830184614b07565b9392505050565b600080600080600080600060e0888a031215615523576155226146f8565b5b600088013567ffffffffffffffff811115615541576155406146fd565b5b61554d8a828b01614caa565b975050602088013567ffffffffffffffff81111561556e5761556d6146fd565b5b61557a8a828b01614caa565b965050604088013567ffffffffffffffff81111561559b5761559a6146fd565b5b6155a78a828b01614caa565b955050606088013567ffffffffffffffff8111156155c8576155c76146fd565b5b6155d48a828b01614caa565b94505060806155e58a828b0161474b565b93505060a088013567ffffffffffffffff811115615606576156056146fd565b5b6156128a828b0161502e565b92505060c06156238a828b01614781565b91505092959891949750929550565b60006020820190506156476000830184614b07565b92915050565b8082525050565b61565d81614722565b82525050565b6000604082019050615678600083018561564d565b6156856020830184615654565b9392505050565b60008151905061569b81614734565b92915050565b6000602082840312156156b7576156b66146f8565b5b60006156c58482850161568c565b91505092915050565b8082525050565b60006040820190506156ea60008301856156ce565b6156f76020830184615654565b9392505050565b7f4e487b7100000000000000000000000000000000000000000000000000000000600052603260045260246000fd5b7f4e487b7100000000000000000000000000000000000000000000000000000000600052601160045260246000fd5b600061576782614760565b91507fffffffffffffffffffffffffffffffffffffffffffffffffffffffffffffffff82036157995761579861572d565b5b600182019050919050565b6157ad81614796565b82525050565b60006060820190506157c860008301866156ce565b6157d56020830185615654565b6157e260408301846157a4565b949350505050565b600067ffffffffffffffff82111561580557615804614bad565b5b602082029050919050565b600061582361581e846157ea565b614c0d565b9050806020840283018581111561583d5761583c614fab565b5b835b818110156158665780615852888261568c565b84526020840193505060208101905061583f565b5050509392505050565b600082601f83011261588557615884614ba3565b5b600a615892848285615810565b91505092915050565b600061014082840312156158b2576158b16146f8565b5b60006158c084828501615870565b91505092915050565b600082825260208201905092915050565b7f41646d696e436f6e74726163743e5f6f6e6c7941646d696e5f00000000000000600082015250565b60006159106019836158c9565b915061591b826158da565b602082019050919050565b6000602082019050818103600083015261593f81615903565b9050919050565b600081905092915050565b600061595c82614873565b6159668185615946565b935061597681856020860161488f565b80840191505092915050565b600061598e8284615951565b915081905092915050565b7f4e487b7100000000000000000000000000000000000000000000000000000000600052602260045260246000fd5b600060028204905060018216806159e057607f821691505b6020821081036159f3576159f2615999565b5b50919050565b60008190508160005260206000209050919050565b60006020601f8301049050919050565b600082821b905092915050565b600060088302615a5b7fffffffffffffffffffffffffffffffffffffffffffffffffffffffffffffffff82615a1e565b615a658683615a1e565b95508019841693508086168417925050509392505050565b6000819050919050565b6000615aa2615a9d615a9884614760565b615a7d565b614760565b9050919050565b6000819050919050565b615abc83615a87565b615ad0615ac882615aa9565b848454615a2b565b825550505050565b600090565b615ae5615ad8565b615af0818484615ab3565b505050565b5b81811015615b1457615b09600082615add565b600181019050615af6565b5050565b601f821115615b5957615b2a816159f9565b615b3384615a0e565b81016020851015615b42578190505b615b56615b4e85615a0e565b830182615af5565b50505b505050565b600082821c905092915050565b6000615b7c60001984600802615b5e565b1980831691505092915050565b6000615b958383615b6b565b9150826002028217905092915050565b615bae82614873565b67ffffffffffffffff811115615bc757615bc6614bad565b5b615bd182546159c8565b615bdc828285615b18565b600060209050601f831160018114615c0f5760008415615bfd578287015190505b615c078582615b89565b865550615c6f565b601f198416615c1d866159f9565b60005b82811015615c4557848901518255600182019150602085019450602081019050615c20565b86831015615c625784890151615c5e601f891682615b6b565b8355505b6001600288020188555050505b505050505050565b7f41646d696e436f6e74726163743e7472616e7366657241646d696e0000000000600082015250565b6000615cad601b836158c9565b9150615cb882615c77565b602082019050919050565b60006020820190508181036000830152615cdc81615ca0565b9050919050565b60008160601b9050919050565b6000615cfb82615ce3565b9050919050565b6000615d0d82615cf0565b9050919050565b615d25615d2082614722565b615d02565b82525050565b6000819050919050565b615d46615d4182614760565b615d2b565b82525050565b6000615d588287615d14565b601482019150615d688286615951565b9150615d748285615d14565b601482019150615d848284615d35565b60208201915081905095945050505050565b6000602082019050615dab60008301846156ce565b92915050565b615dba81614722565b82525050565b615dc981614760565b82525050565b604082016000820151615de56000850182615db1565b506020820151615df86020850182615dc0565b50505050565b6000606082019050615e13600083018561564d565b615e206020830184615dcf565b9392505050565b6000615e338288615d14565b601482019150615e438287615d14565b601482019150615e538286615951565b9150615e5f8285615d14565b601482019150615e6f8284615d35565b6020820191508190509695505050505050565b7f696e697469616c697a6564000000000000000000000000000000000000000000600082015250565b6000615eb8600b836158c9565b9150615ec382615e82565b602082019050919050565b60006020820190508181036000830152615ee781615eab565b9050919050565b6000602082019050615f03600083018461564d565b92915050565b6000615f158284615d14565b60148201915081905092915050565b7f45303a20557365722e736f6c3e55736572436f6e74726163743e5f726567697360008201527f74657265645f0000000000000000000000000000000000000000000000000000602082015250565b6000615f806026836158c9565b9150615f8b82615f24565b604082019050919050565b60006020820190508181036000830152615faf81615f73565b9050919050565b600081519050615fc5816147a2565b92915050565b600060208284031215615fe157615fe06146f8565b5b6000615fef84828501615fb6565b91505092915050565b7f46696c65436f6e746163743e5f76616c696446696c655f000000000000000000600082015250565b600061602e6017836158c9565b915061603982615ff8565b602082019050919050565b6000602082019050818103600083015261605d81616021565b9050919050565b7f4e487b7100000000000000000000000000000000000000000000000000000000600052601260045260246000fd5b600061609e82614760565b91506160a983614760565b9250826160b9576160b8616064565b5b828204905092915050565b7f537472696e674c69623e72616e67653e31000000000000000000000000000000600082015250565b60006160fa6011836158c9565b9150616105826160c4565b602082019050919050565b60006020820190508181036000830152616129816160ed565b9050919050565b7f537472696e674c69623e72616e67653e32000000000000000000000000000000600082015250565b60006161666011836158c9565b915061617182616130565b602082019050919050565b6000602082019050818103600083015261619581616159565b9050919050565b7f46696c65436f6e746163743e5f76616c696446696c65436f6d6d656e745f0000600082015250565b60006161d2601e836158c9565b91506161dd8261619c565b602082019050919050565b60006020820190508181036000830152616201816161c5565b9050919050565b7f46696c65436f6e746163743e5f76616c696446696c65546172676574436f6d6d60008201527f656e745f00000000000000000000000000000000000000000000000000000000602082015250565b60006162646024836158c9565b915061626f82616208565b604082019050919050565b6000602082019050818103600083015261629381616257565b9050919050565b7f45313a20557365722e736f6c3e55736572436f6e74726163743e5f6e6f74526560008201527f67697374657265645f0000000000000000000000000000000000000000000000602082015250565b60006162f66029836158c9565b91506163018261629a565b604082019050919050565b60006020820190508181036000830152616325816162e9565b9050919050565b7f42617365436f6e746163743e5f76616c696443617465676f72795f0000000000600082015250565b6000616362601b836158c9565b915061636d8261632c565b602082019050919050565b6000602082019050818103600083015261639181616355565b9050919050565b7f55696e744c69623e72616e67653e310000000000000000000000000000000000600082015250565b60006163ce600f836158c9565b91506163d982616398565b602082019050919050565b600060208201905081810360008301526163fd816163c1565b9050919050565b7f55696e744c69623e72616e67653e320000000000000000000000000000000000600082015250565b600061643a600f836158c9565b915061644582616404565b602082019050919050565b600060208201905081810360008301526164698161642d565b905091905056fea264697066735822122018fe19fd436a024033cdceb792d3b6f41d02591321a2df93cc34b3febb0298a164736f6c63430008110033",
  "immutableReferences": {},
  "source": "// SPDX-License-Identifier: GPL-3.0\r\npragma solidity ^0.8.17;\r\n\r\nimport \"./implementations/base/Base.sol\";\r\nimport \"./implementations/User.sol\";\r\nimport \"./implementations/File.sol\";\r\nimport \"./implementations/Reward.sol\";\r\nimport \"./implementations/Message.sol\";\r\n\r\ninterface ImplementationInterface is AdminInterface, UserInterface, FileInterface, RewardInterface, MessageInterface {\r\n    function init() external;\r\n}\r\n\r\ncontract ImplementationContact is UserContract, FileContact, RewardContact, MessageContact {\r\n    function init()\r\n    public {\r\n        require(admin != address(0), \"initialized\");\r\n        admin = msg.sender;\r\n        UserContract_init();\r\n        FileContract_init();\r\n//        RewardContract_init();\r\n        MessageContract_init();\r\n    }\r\n}\r\n\r\ncontract OurShare is AdminContract {\r\n    bytes32 private constant implementation_position = keccak256(\"OurShare\");\r\n\r\n    constructor(){\r\n        admin = msg.sender;\r\n    }\r\n\r\n    function getImplementation() public view returns (address implementation) {\r\n        bytes32 position = implementation_position;\r\n        assembly {\r\n            implementation := sload(position)\r\n        }\r\n    }\r\n\r\n    function setImplementation(address implementation) public _onlyAdmin_ {\r\n        bytes32 position = implementation_position;\r\n        assembly {\r\n            sstore(position, implementation)\r\n        }\r\n    }\r\n\r\n    function _delegate(address implementation) internal {\r\n        assembly {\r\n            calldatacopy(0, 0, calldatasize())\r\n            let result := delegatecall(gas(), implementation, 0, calldatasize(), 0, 0)\r\n            returndatacopy(0, 0, returndatasize())\r\n            switch result\r\n            case 0 {\r\n                revert(0, returndatasize())\r\n            }\r\n            default {\r\n                return (0, returndatasize())\r\n            }\r\n        }\r\n    }\r\n\r\n    fallback() external payable {\r\n        _delegate(getImplementation());\r\n    }\r\n\r\n    receive() external payable {\r\n        _delegate(getImplementation());\r\n    }\r\n}\r\n",
  "sourcePath": "F:\\OurChain\\OurShare\\src\\assets\\eth\\contracts\\OurShare.sol",
  "compiler": {
    "name": "solc",
    "version": "0.8.17+commit.8df45f5f.Emscripten.clang"
  },
  "schemaVersion": "3.4.13",
  "updatedAt": "2023-05-25T12:30:05.225Z",
  "devdoc": {
    "kind": "dev",
    "methods": {},
    "version": 1
  },
  "userdoc": {
    "kind": "user",
    "methods": {},
    "version": 1
  }
}