{
  "contractName": "ImplementationContact",
  "abi": [
    {
      "anonymous": false,
      "inputs": [
        {
          "indexed": true,
          "internalType": "address",
          "name": "old_admin",
          "type": "address"
        },
        {
          "indexed": true,
          "internalType": "address",
          "name": "new_admin",
          "type": "address"
        }
      ],
      "name": "AdminTransferred",
      "type": "event"
    },
    {
      "inputs": [],
      "name": "RewardContact_init",
      "outputs": [],
      "stateMutability": "nonpayable",
      "type": "function"
    },
    {
      "inputs": [
        {
          "internalType": "string",
          "name": "name",
          "type": "string"
        }
      ],
      "name": "addCategory",
      "outputs": [],
      "stateMutability": "nonpayable",
      "type": "function"
    },
    {
      "inputs": [],
      "name": "admin",
      "outputs": [
        {
          "internalType": "address",
          "name": "",
          "type": "address"
        }
      ],
      "stateMutability": "view",
      "type": "function",
      "constant": true
    },
    {
      "inputs": [
        {
          "internalType": "address",
          "name": "cursor",
          "type": "address"
        }
      ],
      "name": "getCategorySlice",
      "outputs": [
        {
          "components": [
            {
              "internalType": "address",
              "name": "category_address",
              "type": "address"
            },
            {
              "internalType": "string",
              "name": "name",
              "type": "string"
            },
            {
              "internalType": "uint256",
              "name": "num",
              "type": "uint256"
            }
          ],
          "internalType": "struct StoreContact.Category[10]",
          "name": "category_slice",
          "type": "tuple[10]"
        },
        {
          "internalType": "address",
          "name": "next",
          "type": "address"
        }
      ],
      "stateMutability": "view",
      "type": "function",
      "constant": true
    },
    {
      "inputs": [
        {
          "internalType": "address",
          "name": "cursor",
          "type": "address"
        },
        {
          "internalType": "address",
          "name": "category",
          "type": "address"
        },
        {
          "internalType": "uint256",
          "name": "order",
          "type": "uint256"
        },
        {
          "internalType": "bool",
          "name": "reverse",
          "type": "bool"
        }
      ],
      "name": "getFileBriefInfos",
      "outputs": [
        {
          "components": [
            {
              "internalType": "address",
              "name": "category",
              "type": "address"
            },
            {
              "internalType": "address",
              "name": "file_address",
              "type": "address"
            },
            {
              "internalType": "bool",
              "name": "is_buy",
              "type": "bool"
            },
            {
              "internalType": "string",
              "name": "name",
              "type": "string"
            },
            {
              "internalType": "string",
              "name": "title",
              "type": "string"
            },
            {
              "internalType": "string",
              "name": "owner",
              "type": "string"
            },
            {
              "internalType": "string",
              "name": "description",
              "type": "string"
            },
            {
              "internalType": "string",
              "name": "cover",
              "type": "string"
            },
            {
              "internalType": "uint256",
              "name": "price",
              "type": "uint256"
            },
            {
              "internalType": "uint256",
              "name": "up_num",
              "type": "uint256"
            },
            {
              "internalType": "uint256",
              "name": "down_num",
              "type": "uint256"
            },
            {
              "internalType": "uint256",
              "name": "buyer_num",
              "type": "uint256"
            },
            {
              "internalType": "uint256",
              "name": "comment_num",
              "type": "uint256"
            },
            {
              "internalType": "uint256",
              "name": "up_and_down",
              "type": "uint256"
            },
            {
              "internalType": "uint256",
              "name": "upload_timestamp",
              "type": "uint256"
            }
          ],
          "internalType": "struct StoreContact.FileBriefInfo[10]",
          "name": "file_infos",
          "type": "tuple[10]"
        },
        {
          "internalType": "address",
          "name": "next",
          "type": "address"
        },
        {
          "internalType": "bool",
          "name": "finished",
          "type": "bool"
        }
      ],
      "stateMutability": "view",
      "type": "function",
      "constant": true
    },
    {
      "inputs": [
        {
          "internalType": "address",
          "name": "file_address",
          "type": "address"
        }
      ],
      "name": "getFileDetailInfo",
      "outputs": [
        {
          "components": [
            {
              "internalType": "address",
              "name": "owner",
              "type": "address"
            },
            {
              "internalType": "address",
              "name": "category",
              "type": "address"
            },
            {
              "internalType": "address",
              "name": "file_address",
              "type": "address"
            },
            {
              "internalType": "bool",
              "name": "is_buy",
              "type": "bool"
            },
            {
              "internalType": "string",
              "name": "name",
              "type": "string"
            },
            {
              "internalType": "string",
              "name": "title",
              "type": "string"
            },
            {
              "internalType": "string",
              "name": "description",
              "type": "string"
            },
            {
              "internalType": "string",
              "name": "ipfs_address",
              "type": "string"
            },
            {
              "internalType": "string[3]",
              "name": "images",
              "type": "string[3]"
            },
            {
              "internalType": "uint256",
              "name": "price",
              "type": "uint256"
            },
            {
              "internalType": "uint256",
              "name": "up_num",
              "type": "uint256"
            },
            {
              "internalType": "uint256",
              "name": "down_num",
              "type": "uint256"
            },
            {
              "internalType": "uint256",
              "name": "buyer_num",
              "type": "uint256"
            },
            {
              "internalType": "uint256",
              "name": "comment_num",
              "type": "uint256"
            },
            {
              "internalType": "uint256",
              "name": "up_and_down",
              "type": "uint256"
            },
            {
              "internalType": "uint256",
              "name": "upload_timestamp",
              "type": "uint256"
            }
          ],
          "internalType": "struct StoreContact.FileDetailInfo",
          "name": "detail_info",
          "type": "tuple"
        }
      ],
      "stateMutability": "view",
      "type": "function",
      "constant": true
    },
    {
      "inputs": [
        {
          "internalType": "address",
          "name": "user_address",
          "type": "address"
        }
      ],
      "name": "getOtherSimpleInfo",
      "outputs": [
        {
          "components": [
            {
              "internalType": "string",
              "name": "major",
              "type": "string"
            },
            {
              "internalType": "string",
              "name": "avatar",
              "type": "string"
            },
            {
              "internalType": "string",
              "name": "nickname",
              "type": "string"
            },
            {
              "internalType": "string",
              "name": "signature",
              "type": "string"
            },
            {
              "internalType": "uint256",
              "name": "heart",
              "type": "uint256"
            },
            {
              "internalType": "uint256",
              "name": "experience",
              "type": "uint256"
            },
            {
              "internalType": "uint256",
              "name": "follower_num",
              "type": "uint256"
            },
            {
              "internalType": "uint256",
              "name": "uploaded_file_num",
              "type": "uint256"
            }
          ],
          "internalType": "struct StoreContact.UserSimpleInfo",
          "name": "simple_info",
          "type": "tuple"
        }
      ],
      "stateMutability": "view",
      "type": "function",
      "constant": true
    },
    {
      "inputs": [
        {
          "internalType": "address",
          "name": "cursor",
          "type": "address"
        },
        {
          "internalType": "bool",
          "name": "reverse",
          "type": "bool"
        }
      ],
      "name": "getSelfFileBriefInfos",
      "outputs": [
        {
          "components": [
            {
              "internalType": "address",
              "name": "category",
              "type": "address"
            },
            {
              "internalType": "address",
              "name": "file_address",
              "type": "address"
            },
            {
              "internalType": "bool",
              "name": "is_buy",
              "type": "bool"
            },
            {
              "internalType": "string",
              "name": "name",
              "type": "string"
            },
            {
              "internalType": "string",
              "name": "title",
              "type": "string"
            },
            {
              "internalType": "string",
              "name": "owner",
              "type": "string"
            },
            {
              "internalType": "string",
              "name": "description",
              "type": "string"
            },
            {
              "internalType": "string",
              "name": "cover",
              "type": "string"
            },
            {
              "internalType": "uint256",
              "name": "price",
              "type": "uint256"
            },
            {
              "internalType": "uint256",
              "name": "up_num",
              "type": "uint256"
            },
            {
              "internalType": "uint256",
              "name": "down_num",
              "type": "uint256"
            },
            {
              "internalType": "uint256",
              "name": "buyer_num",
              "type": "uint256"
            },
            {
              "internalType": "uint256",
              "name": "comment_num",
              "type": "uint256"
            },
            {
              "internalType": "uint256",
              "name": "up_and_down",
              "type": "uint256"
            },
            {
              "internalType": "uint256",
              "name": "upload_timestamp",
              "type": "uint256"
            }
          ],
          "internalType": "struct StoreContact.FileBriefInfo[10]",
          "name": "file_infos",
          "type": "tuple[10]"
        },
        {
          "internalType": "address",
          "name": "next",
          "type": "address"
        }
      ],
      "stateMutability": "view",
      "type": "function",
      "constant": true
    },
    {
      "inputs": [],
      "name": "getSelfInfo",
      "outputs": [
        {
          "components": [
            {
              "internalType": "string",
              "name": "major",
              "type": "string"
            },
            {
              "internalType": "string",
              "name": "avatar",
              "type": "string"
            },
            {
              "internalType": "string",
              "name": "nickname",
              "type": "string"
            },
            {
              "internalType": "string",
              "name": "signature",
              "type": "string"
            },
            {
              "internalType": "uint256",
              "name": "ID",
              "type": "uint256"
            },
            {
              "internalType": "uint256",
              "name": "coins",
              "type": "uint256"
            },
            {
              "internalType": "uint256",
              "name": "heart",
              "type": "uint256"
            },
            {
              "internalType": "uint256",
              "name": "experience",
              "type": "uint256"
            },
            {
              "internalType": "uint256",
              "name": "follower_num",
              "type": "uint256"
            },
            {
              "internalType": "uint256",
              "name": "following_num",
              "type": "uint256"
            },
            {
              "internalType": "uint256",
              "name": "login_timestamp",
              "type": "uint256"
            },
            {
              "internalType": "uint256",
              "name": "uploaded_file_num",
              "type": "uint256"
            }
          ],
          "internalType": "struct StoreContact.UserSelfInfo",
          "name": "self_info",
          "type": "tuple"
        }
      ],
      "stateMutability": "view",
      "type": "function",
      "constant": true
    },
    {
      "inputs": [
        {
          "internalType": "address",
          "name": "user_address",
          "type": "address"
        }
      ],
      "name": "isRegistered",
      "outputs": [
        {
          "internalType": "bool",
          "name": "is_registered",
          "type": "bool"
        }
      ],
      "stateMutability": "view",
      "type": "function",
      "constant": true
    },
    {
      "inputs": [
        {
          "internalType": "string",
          "name": "nickname",
          "type": "string"
        }
      ],
      "name": "register",
      "outputs": [],
      "stateMutability": "nonpayable",
      "type": "function"
    },
    {
      "inputs": [],
      "name": "renounceAdmin",
      "outputs": [],
      "stateMutability": "nonpayable",
      "type": "function"
    },
    {
      "inputs": [
        {
          "internalType": "address",
          "name": "new_admin",
          "type": "address"
        }
      ],
      "name": "transferAdmin",
      "outputs": [],
      "stateMutability": "nonpayable",
      "type": "function"
    },
    {
      "inputs": [
        {
          "internalType": "string",
          "name": "avatar",
          "type": "string"
        }
      ],
      "name": "updateAvatar",
      "outputs": [],
      "stateMutability": "nonpayable",
      "type": "function"
    },
    {
      "inputs": [
        {
          "internalType": "string",
          "name": "nickname",
          "type": "string"
        }
      ],
      "name": "updateNickname",
      "outputs": [],
      "stateMutability": "nonpayable",
      "type": "function"
    },
    {
      "inputs": [
        {
          "internalType": "string",
          "name": "signature",
          "type": "string"
        }
      ],
      "name": "updateSignature",
      "outputs": [],
      "stateMutability": "nonpayable",
      "type": "function"
    },
    {
      "inputs": [
        {
          "internalType": "string",
          "name": "ipfs_address",
          "type": "string"
        },
        {
          "internalType": "string",
          "name": "name",
          "type": "string"
        },
        {
          "internalType": "string",
          "name": "title",
          "type": "string"
        },
        {
          "internalType": "string",
          "name": "description",
          "type": "string"
        },
        {
          "internalType": "address",
          "name": "category",
          "type": "address"
        },
        {
          "internalType": "string[3]",
          "name": "images",
          "type": "string[3]"
        },
        {
          "internalType": "uint256",
          "name": "price",
          "type": "uint256"
        }
      ],
      "name": "uploadFile",
      "outputs": [],
      "stateMutability": "nonpayable",
      "type": "function"
    },
    {
      "inputs": [],
      "name": "init",
      "outputs": [],
      "stateMutability": "nonpayable",
      "type": "function"
    }
  ],
  "bytecode": "0x608060405234801561001057600080fd5b506157d080620000216000396000f3fe608060405234801561001057600080fd5b50600436106101165760003560e01c8063bd2e3b17116100a2578063cffa644211610071578063cffa6442146102cc578063e1c7392a146102fd578063f2c298be14610307578063f2e9c78314610323578063f851a4401461033f57610116565b8063bd2e3b1714610246578063c3c5a54714610262578063c63e3e8b14610292578063c8ef7dd61461029c57610116565b806375829def116100e957806375829def146101ca5780637e8e7733146101e65780638bad0c0a146102045780639fe958b91461020e578063a389559f1461022a57610116565b806320c16dd51461011b57806324c432e21461014d5780632e0dcbf71461017e5780636020c0041461019a575b600080fd5b61013560048036038101906101309190613ef3565b61035d565b6040516101449392919061424a565b60405180910390f35b61016760048036038101906101629190614288565b610840565b6040516101759291906142c8565b60405180910390f35b6101986004803603810190610193919061442d565b6109f6565b005b6101b460048036038101906101af9190614476565b610bc6565b6040516101c19190614568565b60405180910390f35b6101e460048036038101906101df9190614476565b610eb5565b005b6101ee610fbe565b6040516101fb91906146a3565b60405180910390f35b61020c6112bd565b005b6102286004803603810190610223919061442d565b611357565b005b610244600480360381019061023f919061442d565b6113c9565b005b610260600480360381019061025b919061442d565b61143b565b005b61027c60048036038101906102779190614476565b6114ad565b60405161028991906146c5565b60405180910390f35b61029a6114ff565b005b6102b660048036038101906102b19190614476565b611501565b6040516102c3919061490a565b60405180910390f35b6102e660048036038101906102e19190614476565b611a9a565b6040516102f4929190614a32565b60405180910390f35b610305611cfa565b005b610321600480360381019061031c919061442d565b611ddb565b005b61033d60048036038101906103389190614b36565b6125ef565b005b610347612dc0565b6040516103549190614c64565b60405180910390f35b610365613a7b565b600080610370613aa9565b60005b600a81101561083457851561056657600173ffffffffffffffffffffffffffffffffffffffff168973ffffffffffffffffffffffffffffffffffffffff16036103bf5760019250610834565b6001870361044e57601a60050173__AddressOrderedMap_____________________63f8e3ec5690918b6040518363ffffffff1660e01b8152600401610406929190614c95565b602060405180830381865af4158015610423573d6000803e3d6000fd5b505050506040513d601f19601f820116820180604052508101906104479190614cd3565b9850610561565b600287036104dd57601a600a0173__AddressOrderedMap_____________________63f8e3ec5690918b6040518363ffffffff1660e01b8152600401610495929190614c95565b602060405180830381865af41580156104b2573d6000803e3d6000fd5b505050506040513d601f19601f820116820180604052508101906104d69190614cd3565b9850610560565b601a60010173__AddressLinkedList_____________________635008f58590918b6040518363ffffffff1660e01b815260040161051c929190614d07565b602060405180830381865af4158015610539573d6000803e3d6000fd5b505050506040513d601f19601f8201168201806040525081019061055d9190614cd3565b98505b5b610746565b600273ffffffffffffffffffffffffffffffffffffffff168973ffffffffffffffffffffffffffffffffffffffff16036105a35760019250610834565b6001870361063257601a60050173__AddressOrderedMap_____________________63da35ee4b90918b6040518363ffffffff1660e01b81526004016105ea929190614c95565b602060405180830381865af4158015610607573d6000803e3d6000fd5b505050506040513d601f19601f8201168201806040525081019061062b9190614cd3565b9850610745565b600287036106c157601a600a0173__AddressOrderedMap_____________________63da35ee4b90918b6040518363ffffffff1660e01b8152600401610679929190614c95565b602060405180830381865af4158015610696573d6000803e3d6000fd5b505050506040513d601f19601f820116820180604052508101906106ba9190614cd3565b9850610744565b601a60010173__AddressLinkedList_____________________635cb1e46590918b6040518363ffffffff1660e01b8152600401610700929190614d07565b602060405180830381865af415801561071d573d6000803e3d6000fd5b505050506040513d601f19601f820116820180604052508101906107419190614cd3565b98505b5b5b610790601a60000160008b73ffffffffffffffffffffffffffffffffffffffff1673ffffffffffffffffffffffffffffffffffffffff168152602001908152602001600020612de4565b91508773ffffffffffffffffffffffffffffffffffffffff16826000015173ffffffffffffffffffffffffffffffffffffffff1614806107fc5750600073ffffffffffffffffffffffffffffffffffffffff168873ffffffffffffffffffffffffffffffffffffffff16145b1561082c57818582600a811061081557610814614d30565b5b6020020181905250808061082890614d8e565b9150505b889350610373565b50509450945094915050565b610848613a7b565b600061085333613312565b6000600160000160003373ffffffffffffffffffffffffffffffffffffffff1673ffffffffffffffffffffffffffffffffffffffff16815260200190815260200160002060280173__AddressLinkedList_____________________637ea94909909187876040518463ffffffff1660e01b81526004016108d693929190614de5565b61014060405180830381865af41580156108f4573d6000803e3d6000fd5b505050506040513d601f19601f820116820180604052508101906109189190614ecd565b905060005b600a8110156109ed578181600a811061093957610938614d30565b5b60200201519250600073ffffffffffffffffffffffffffffffffffffffff168373ffffffffffffffffffffffffffffffffffffffff1603156109ed576109bf601a60000160008573ffffffffffffffffffffffffffffffffffffffff1673ffffffffffffffffffffffffffffffffffffffff168152602001908152602001600020612de4565b8482600a81106109d2576109d1614d30565b5b602002018190525080806109e590614d8e565b91505061091d565b50509250929050565b3373ffffffffffffffffffffffffffffffffffffffff1660008054906101000a900473ffffffffffffffffffffffffffffffffffffffff1673ffffffffffffffffffffffffffffffffffffffff1614610a84576040517f08c379a0000000000000000000000000000000000000000000000000000000008152600401610a7b90614f58565b60405180910390fd5b6000610ab582604051602001610a9a9190614fb4565b6040516020818303038152906040528051906020012061339d565b90506000601560000160008373ffffffffffffffffffffffffffffffffffffffff1673ffffffffffffffffffffffffffffffffffffffff1681526020019081526020016000209050818160000160006101000a81548173ffffffffffffffffffffffffffffffffffffffff021916908373ffffffffffffffffffffffffffffffffffffffff16021790555082816001019081610b5191906151d7565b50601560010173__AddressLinkedList_____________________63dbd4df179091846040518363ffffffff1660e01b8152600401610b91929190614d07565b60006040518083038186803b158015610ba957600080fd5b505af4158015610bbd573d6000803e3d6000fd5b50505050505050565b610bce613b4d565b610bd782613312565b6000600160000160003373ffffffffffffffffffffffffffffffffffffffff1673ffffffffffffffffffffffffffffffffffffffff1681526020019081526020016000209050806001018054610c2c90614ffa565b80601f0160208091040260200160405190810160405280929190818152602001828054610c5890614ffa565b8015610ca55780601f10610c7a57610100808354040283529160200191610ca5565b820191906000526020600020905b815481529060010190602001808311610c8857829003601f168201915b50505050508260000181905250806002018054610cc190614ffa565b80601f0160208091040260200160405190810160405280929190818152602001828054610ced90614ffa565b8015610d3a5780601f10610d0f57610100808354040283529160200191610d3a565b820191906000526020600020905b815481529060010190602001808311610d1d57829003601f168201915b50505050508260200181905250806003018054610d5690614ffa565b80601f0160208091040260200160405190810160405280929190818152602001828054610d8290614ffa565b8015610dcf5780601f10610da457610100808354040283529160200191610dcf565b820191906000526020600020905b815481529060010190602001808311610db257829003601f168201915b50505050508260400181905250806004018054610deb90614ffa565b80601f0160208091040260200160405190810160405280929190818152602001828054610e1790614ffa565b8015610e645780601f10610e3957610100808354040283529160200191610e64565b820191906000526020600020905b815481529060010190602001808311610e4757829003601f168201915b50505050508260600181905250806008015482608001818152505080600901548260a001818152505080601701600301548260c001818152505080602801600301548260e001818152505050919050565b3373ffffffffffffffffffffffffffffffffffffffff1660008054906101000a900473ffffffffffffffffffffffffffffffffffffffff1673ffffffffffffffffffffffffffffffffffffffff1614610f43576040517f08c379a0000000000000000000000000000000000000000000000000000000008152600401610f3a90614f58565b60405180910390fd5b600073ffffffffffffffffffffffffffffffffffffffff168173ffffffffffffffffffffffffffffffffffffffff1603610fb2576040517f08c379a0000000000000000000000000000000000000000000000000000000008152600401610fa9906152f5565b60405180910390fd5b610fbb816133aa565b50565b610fc6613b92565b6000600160000160003373ffffffffffffffffffffffffffffffffffffffff1673ffffffffffffffffffffffffffffffffffffffff168152602001908152602001600020905060405180610180016040528082600101805461102790614ffa565b80601f016020809104026020016040519081016040528092919081815260200182805461105390614ffa565b80156110a05780601f10611075576101008083540402835291602001916110a0565b820191906000526020600020905b81548152906001019060200180831161108357829003601f168201915b505050505081526020018260020180546110b990614ffa565b80601f01602080910402602001604051908101604052809291908181526020018280546110e590614ffa565b80156111325780601f1061110757610100808354040283529160200191611132565b820191906000526020600020905b81548152906001019060200180831161111557829003601f168201915b5050505050815260200182600301805461114b90614ffa565b80601f016020809104026020016040519081016040528092919081815260200182805461117790614ffa565b80156111c45780601f10611199576101008083540402835291602001916111c4565b820191906000526020600020905b8154815290600101906020018083116111a757829003601f168201915b505050505081526020018260040180546111dd90614ffa565b80601f016020809104026020016040519081016040528092919081815260200182805461120990614ffa565b80156112565780601f1061122b57610100808354040283529160200191611256565b820191906000526020600020905b81548152906001019060200180831161123957829003601f168201915b50505050508152602001826005015481526020018260070154815260200182600801548152602001826009015481526020018260170160030154815260200182601b0160030154815260200182600a01548152602001826028016003015481525091505090565b3373ffffffffffffffffffffffffffffffffffffffff1660008054906101000a900473ffffffffffffffffffffffffffffffffffffffff1673ffffffffffffffffffffffffffffffffffffffff161461134b576040517f08c379a000000000000000000000000000000000000000000000000000000000815260040161134290614f58565b60405180910390fd5b61135560006133aa565b565b61136033613312565b61136d816001600a61346e565b6000600160000160003373ffffffffffffffffffffffffffffffffffffffff1673ffffffffffffffffffffffffffffffffffffffff1681526020019081526020016000209050818160020190816113c491906151d7565b505050565b6113d233613312565b6113df816001602061346e565b6000600160000160003373ffffffffffffffffffffffffffffffffffffffff1673ffffffffffffffffffffffffffffffffffffffff16815260200190815260200160002090508181600401908161143691906151d7565b505050565b61144433613312565b611451816001600a61346e565b6000600160000160003373ffffffffffffffffffffffffffffffffffffffff1673ffffffffffffffffffffffffffffffffffffffff1681526020019081526020016000209050818160030190816114a891906151d7565b505050565b600080600160000160008473ffffffffffffffffffffffffffffffffffffffff1673ffffffffffffffffffffffffffffffffffffffff168152602001908152602001600020600a015414159050919050565b565b611509613bf3565b6000601a60000160008473ffffffffffffffffffffffffffffffffffffffff1673ffffffffffffffffffffffffffffffffffffffff16815260200190815260200160002090508060000160009054906101000a900473ffffffffffffffffffffffffffffffffffffffff16826000019073ffffffffffffffffffffffffffffffffffffffff16908173ffffffffffffffffffffffffffffffffffffffff16815250508060010160009054906101000a900473ffffffffffffffffffffffffffffffffffffffff16826020019073ffffffffffffffffffffffffffffffffffffffff16908173ffffffffffffffffffffffffffffffffffffffff16815250508060020160009054906101000a900473ffffffffffffffffffffffffffffffffffffffff16826040019073ffffffffffffffffffffffffffffffffffffffff16908173ffffffffffffffffffffffffffffffffffffffff168152505080600f0160003373ffffffffffffffffffffffffffffffffffffffff1673ffffffffffffffffffffffffffffffffffffffff16815260200190815260200160002060009054906101000a900460ff168260600190151590811515815250508060030180546116d090614ffa565b80601f01602080910402602001604051908101604052809291908181526020018280546116fc90614ffa565b80156117495780601f1061171e57610100808354040283529160200191611749565b820191906000526020600020905b81548152906001019060200180831161172c57829003601f168201915b5050505050826080018190525080600401805461176590614ffa565b80601f016020809104026020016040519081016040528092919081815260200182805461179190614ffa565b80156117de5780601f106117b3576101008083540402835291602001916117de565b820191906000526020600020905b8154815290600101906020018083116117c157829003601f168201915b50505050508260a001819052508060050180546117fa90614ffa565b80601f016020809104026020016040519081016040528092919081815260200182805461182690614ffa565b80156118735780601f1061184857610100808354040283529160200191611873565b820191906000526020600020905b81548152906001019060200180831161185657829003601f168201915b50505050508260c0018190525080600701600380602002604051908101604052809291906000905b8282101561193e5783820180546118b190614ffa565b80601f01602080910402602001604051908101604052809291908181526020018280546118dd90614ffa565b801561192a5780601f106118ff5761010080835404028352916020019161192a565b820191906000526020600020905b81548152906001019060200180831161190d57829003601f168201915b50505050508152602001906001019061189b565b505050508261010001819052508160600151156119eb5780600601805461196490614ffa565b80601f016020809104026020016040519081016040528092919081815260200182805461199090614ffa565b80156119dd5780601f106119b2576101008083540402835291602001916119dd565b820191906000526020600020905b8154815290600101906020018083116119c057829003601f168201915b50505050508260e001819052505b80600a01548261012001818152505080600b01548261014001818152505080600c01548261016001818152505080600d0154826101800181815250508060120160030154826101a00181815250508060100160003373ffffffffffffffffffffffffffffffffffffffff1673ffffffffffffffffffffffffffffffffffffffff16815260200190815260200160002054826101c001818152505080600e0154826101e001818152505050919050565b611aa2613cba565b600080601560010173__AddressLinkedList_____________________637ea9490990918660006040518463ffffffff1660e01b8152600401611ae793929190614de5565b61014060405180830381865af4158015611b05573d6000803e3d6000fd5b505050506040513d601f19601f82011682018060405250810190611b299190614ecd565b905060005b600a811015611cf3578181600a8110611b4a57611b49614d30565b5b60200201519250600073ffffffffffffffffffffffffffffffffffffffff168373ffffffffffffffffffffffffffffffffffffffff160315611cf357601560000160008473ffffffffffffffffffffffffffffffffffffffff1673ffffffffffffffffffffffffffffffffffffffff1681526020019081526020016000206040518060600160405290816000820160009054906101000a900473ffffffffffffffffffffffffffffffffffffffff1673ffffffffffffffffffffffffffffffffffffffff1673ffffffffffffffffffffffffffffffffffffffff168152602001600182018054611c3990614ffa565b80601f0160208091040260200160405190810160405280929190818152602001828054611c6590614ffa565b8015611cb25780601f10611c8757610100808354040283529160200191611cb2565b820191906000526020600020905b815481529060010190602001808311611c9557829003601f168201915b505050505081526020016002820154815250508482600a8110611cd857611cd7614d30565b5b60200201819052508080611ceb90614d8e565b915050611b2e565b5050915091565b600073ffffffffffffffffffffffffffffffffffffffff1660008054906101000a900473ffffffffffffffffffffffffffffffffffffffff1673ffffffffffffffffffffffffffffffffffffffff1603611d89576040517f08c379a0000000000000000000000000000000000000000000000000000000008152600401611d8090615361565b60405180910390fd5b336000806101000a81548173ffffffffffffffffffffffffffffffffffffffff021916908373ffffffffffffffffffffffffffffffffffffffff160217905550611dd1613522565b611dd96136d7565b565b611de43361388d565b611df1816001600a61346e565b6000600160000160003373ffffffffffffffffffffffffffffffffffffffff1673ffffffffffffffffffffffffffffffffffffffff1681526020019081526020016000209050600281600601819055504281600a018190555081816003019081611e5b91906151d7565b50338160000160006101000a81548173ffffffffffffffffffffffffffffffffffffffff021916908373ffffffffffffffffffffffffffffffffffffffff16021790555080600b0173__AddressLinkedList_____________________637fc06cef90916040518263ffffffff1660e01b8152600401611edb9190615381565b60006040518083038186803b158015611ef357600080fd5b505af4158015611f07573d6000803e3d6000fd5b5050505080600f0173__AddressLinkedList_____________________637fc06cef90916040518263ffffffff1660e01b8152600401611f479190615381565b60006040518083038186803b158015611f5f57600080fd5b505af4158015611f73573d6000803e3d6000fd5b505050508060130173__AddressLinkedList_____________________637fc06cef90916040518263ffffffff1660e01b8152600401611fb39190615381565b60006040518083038186803b158015611fcb57600080fd5b505af4158015611fdf573d6000803e3d6000fd5b505050508060170173__AddressLinkedList_____________________637fc06cef90916040518263ffffffff1660e01b815260040161201f9190615381565b60006040518083038186803b15801561203757600080fd5b505af415801561204b573d6000803e3d6000fd5b5050505080601b0173__AddressLinkedList_____________________637fc06cef90916040518263ffffffff1660e01b815260040161208b9190615381565b60006040518083038186803b1580156120a357600080fd5b505af41580156120b7573d6000803e3d6000fd5b5050505080601f0173__AddressOrderedMap_____________________63abc7dfcc90916040518263ffffffff1660e01b81526004016120f7919061539c565b60006040518083038186803b15801561210f57600080fd5b505af4158015612123573d6000803e3d6000fd5b505050508060240173__AddressLinkedList_____________________637fc06cef90916040518263ffffffff1660e01b81526004016121639190615381565b60006040518083038186803b15801561217b57600080fd5b505af415801561218f573d6000803e3d6000fd5b505050508060280173__AddressLinkedList_____________________637fc06cef90916040518263ffffffff1660e01b81526004016121cf9190615381565b60006040518083038186803b1580156121e757600080fd5b505af41580156121fb573d6000803e3d6000fd5b5050505080602c0173__AddressOrderedMap_____________________63abc7dfcc90916040518263ffffffff1660e01b815260040161223b919061539c565b60006040518083038186803b15801561225357600080fd5b505af4158015612267573d6000803e3d6000fd5b505050508060310173__AddressLinkedList_____________________637fc06cef90916040518263ffffffff1660e01b81526004016122a79190615381565b60006040518083038186803b1580156122bf57600080fd5b505af41580156122d3573d6000803e3d6000fd5b505050508060350173__AddressOrderedMap_____________________63abc7dfcc90916040518263ffffffff1660e01b8152600401612313919061539c565b60006040518083038186803b15801561232b57600080fd5b505af415801561233f573d6000803e3d6000fd5b5050505080603a0173__AddressOrderedMap_____________________63abc7dfcc90916040518263ffffffff1660e01b815260040161237f919061539c565b60006040518083038186803b15801561239757600080fd5b505af41580156123ab573d6000803e3d6000fd5b505050506001800173__AddressLinkedList_____________________63dbd4df179091336040518363ffffffff1660e01b81526004016123ed929190614d07565b60006040518083038186803b15801561240557600080fd5b505af4158015612419573d6000803e3d6000fd5b50505050600160050173__AddressOrderedMap_____________________633fc68a5f909160405180604001604052803373ffffffffffffffffffffffffffffffffffffffff16815260200160008152506040518363ffffffff1660e01b8152600401612487929190615404565b60006040518083038186803b15801561249f57600080fd5b505af41580156124b3573d6000803e3d6000fd5b505050506001600f0173__AddressOrderedMap_____________________633fc68a5f909160405180604001604052803373ffffffffffffffffffffffffffffffffffffffff16815260200160008152506040518363ffffffff1660e01b8152600401612521929190615404565b60006040518083038186803b15801561253957600080fd5b505af415801561254d573d6000803e3d6000fd5b505050506001600a0173__AddressOrderedMap_____________________633fc68a5f909160405180604001604052803373ffffffffffffffffffffffffffffffffffffffff16815260200160008152506040518363ffffffff1660e01b81526004016125bb929190615404565b60006040518083038186803b1580156125d357600080fd5b505af41580156125e7573d6000803e3d6000fd5b505050505050565b6125f833613312565b612605856001604061346e565b61261384600161020061346e565b6126208160016014613918565b612629836139b9565b600061265a8660405160200161263f9190614fb4565b6040516020818303038152906040528051906020012061339d565b90506000601a60000160008373ffffffffffffffffffffffffffffffffffffffff1673ffffffffffffffffffffffffffffffffffffffff1681526020019081526020016000209050338160000160006101000a81548173ffffffffffffffffffffffffffffffffffffffff021916908373ffffffffffffffffffffffffffffffffffffffff160217905550848160010160006101000a81548173ffffffffffffffffffffffffffffffffffffffff021916908373ffffffffffffffffffffffffffffffffffffffff160217905550818160020160006101000a81548173ffffffffffffffffffffffffffffffffffffffff021916908373ffffffffffffffffffffffffffffffffffffffff1602179055508781600301908161277c91906151d7565b508681600401908161278e91906151d7565b50858160050190816127a091906151d7565b50888160060190816127b291906151d7565b5083816007019060036127c6929190613ce8565b508281600a01819055504281600e0181905550600181600f0160003373ffffffffffffffffffffffffffffffffffffffff1673ffffffffffffffffffffffffffffffffffffffff16815260200190815260200160002060006101000a81548160ff0219169083151502179055508060120173__AddressLinkedList_____________________637fc06cef90916040518263ffffffff1660e01b815260040161286f9190615381565b60006040518083038186803b15801561288757600080fd5b505af415801561289b573d6000803e3d6000fd5b50505050601a60010173__AddressLinkedList_____________________63dbd4df179091846040518363ffffffff1660e01b81526004016128de929190614d07565b60006040518083038186803b1580156128f657600080fd5b505af415801561290a573d6000803e3d6000fd5b50505050601a60050173__AddressOrderedMap_____________________633fc68a5f909160405180604001604052808673ffffffffffffffffffffffffffffffffffffffff168152602001878152506040518363ffffffff1660e01b8152600401612977929190615404565b60006040518083038186803b15801561298f57600080fd5b505af41580156129a3573d6000803e3d6000fd5b50505050601a600a0173__AddressOrderedMap_____________________633fc68a5f909160405180604001604052808673ffffffffffffffffffffffffffffffffffffffff16815260200160008152506040518363ffffffff1660e01b8152600401612a11929190615404565b60006040518083038186803b158015612a2957600080fd5b505af4158015612a3d573d6000803e3d6000fd5b50505050601560000160008673ffffffffffffffffffffffffffffffffffffffff1673ffffffffffffffffffffffffffffffffffffffff1681526020019081526020016000206002016000815480929190612a9790614d8e565b91905055506000612acd83604051602001612ab29190615475565b6040516020818303038152906040528051906020012061339d565b90506000604260020160008373ffffffffffffffffffffffffffffffffffffffff1673ffffffffffffffffffffffffffffffffffffffff1681526020019081526020016000209050338160000160006101000a81548173ffffffffffffffffffffffffffffffffffffffff021916908373ffffffffffffffffffffffffffffffffffffffff160217905550838160010160006101000a81548173ffffffffffffffffffffffffffffffffffffffff021916908373ffffffffffffffffffffffffffffffffffffffff1602179055506000600190506000600160000160003373ffffffffffffffffffffffffffffffffffffffff1673ffffffffffffffffffffffffffffffffffffffff16815260200190815260200160002090505b600115612d43578060170173__AddressLinkedList_____________________635cb1e4659091846040518363ffffffff1660e01b8152600401612c2d929190614d07565b602060405180830381865af4158015612c4a573d6000803e3d6000fd5b505050506040513d601f19601f82011682018060405250810190612c6e9190614cd3565b9150600273ffffffffffffffffffffffffffffffffffffffff168273ffffffffffffffffffffffffffffffffffffffff160315612d43578060350173__AddressOrderedMap_____________________633fc68a5f909160405180604001604052808873ffffffffffffffffffffffffffffffffffffffff16815260200160018152506040518363ffffffff1660e01b8152600401612d0e929190615404565b60006040518083038186803b158015612d2657600080fd5b505af4158015612d3a573d6000803e3d6000fd5b50505050612be8565b8060280173__AddressLinkedList_____________________63dbd4df179091886040518363ffffffff1660e01b8152600401612d81929190614d07565b60006040518083038186803b158015612d9957600080fd5b505af4158015612dad573d6000803e3d6000fd5b5050505050505050505050505050505050565b60008054906101000a900473ffffffffffffffffffffffffffffffffffffffff1681565b612dec613aa9565b8160010160009054906101000a900473ffffffffffffffffffffffffffffffffffffffff16816000019073ffffffffffffffffffffffffffffffffffffffff16908173ffffffffffffffffffffffffffffffffffffffff16815250508160020160009054906101000a900473ffffffffffffffffffffffffffffffffffffffff16816020019073ffffffffffffffffffffffffffffffffffffffff16908173ffffffffffffffffffffffffffffffffffffffff168152505081600f0160003373ffffffffffffffffffffffffffffffffffffffff1673ffffffffffffffffffffffffffffffffffffffff16815260200190815260200160002060009054906101000a900460ff16816040019015159081151581525050816003018054612f1190614ffa565b80601f0160208091040260200160405190810160405280929190818152602001828054612f3d90614ffa565b8015612f8a5780601f10612f5f57610100808354040283529160200191612f8a565b820191906000526020600020905b815481529060010190602001808311612f6d57829003601f168201915b50505050508160600181905250816004018054612fa690614ffa565b80601f0160208091040260200160405190810160405280929190818152602001828054612fd290614ffa565b801561301f5780601f10612ff45761010080835404028352916020019161301f565b820191906000526020600020905b81548152906001019060200180831161300257829003601f168201915b50505050508160800181905250600160000160008360000160009054906101000a900473ffffffffffffffffffffffffffffffffffffffff1673ffffffffffffffffffffffffffffffffffffffff1673ffffffffffffffffffffffffffffffffffffffff16815260200190815260200160002060030180546130a090614ffa565b80601f01602080910402602001604051908101604052809291908181526020018280546130cc90614ffa565b80156131195780601f106130ee57610100808354040283529160200191613119565b820191906000526020600020905b8154815290600101906020018083116130fc57829003601f168201915b50505050508160a0018190525081600501805461313590614ffa565b80601f016020809104026020016040519081016040528092919081815260200182805461316190614ffa565b80156131ae5780601f10613183576101008083540402835291602001916131ae565b820191906000526020600020905b81548152906001019060200180831161319157829003601f168201915b50505050508160c00181905250816007016000600381106131d2576131d1614d30565b5b0180546131de90614ffa565b80601f016020809104026020016040519081016040528092919081815260200182805461320a90614ffa565b80156132575780601f1061322c57610100808354040283529160200191613257565b820191906000526020600020905b81548152906001019060200180831161323a57829003601f168201915b50505050508160e0018190525081600a01548161010001818152505081600b01548161012001818152505081600c01548161014001818152505081600d0154816101600181815250508160120160030154816101800181815250508160100160003373ffffffffffffffffffffffffffffffffffffffff1673ffffffffffffffffffffffffffffffffffffffff16815260200190815260200160002054816101a001818152505081600e0154816101c0018181525050919050565b6000600160000160008373ffffffffffffffffffffffffffffffffffffffff1673ffffffffffffffffffffffffffffffffffffffff168152602001908152602001600020600a01540361339a576040517f08c379a000000000000000000000000000000000000000000000000000000000815260040161339190615502565b60405180910390fd5b50565b60008160001c9050919050565b60008060009054906101000a900473ffffffffffffffffffffffffffffffffffffffff169050816000806101000a81548173ffffffffffffffffffffffffffffffffffffffff021916908373ffffffffffffffffffffffffffffffffffffffff1602179055508173ffffffffffffffffffffffffffffffffffffffff168173ffffffffffffffffffffffffffffffffffffffff167ff8ccb027dfcd135e000e9d45e6cc2d662578a8825d4c45b5e32e0adf67e79ec660405160405180910390a35050565b60006003845161347e9190615551565b9050600083148061348f5750828110155b6134ce576040517f08c379a00000000000000000000000000000000000000000000000000000000081526004016134c5906155ce565b60405180910390fd5b60008214806134dd5750818111155b61351c576040517f08c379a00000000000000000000000000000000000000000000000000000000081526004016135139061563a565b60405180910390fd5b50505050565b6001800173__AddressLinkedList_____________________637fc06cef90916040518263ffffffff1660e01b815260040161355e9190615381565b60006040518083038186803b15801561357657600080fd5b505af415801561358a573d6000803e3d6000fd5b50505050600160050173__AddressOrderedMap_____________________63abc7dfcc90916040518263ffffffff1660e01b81526004016135cb919061539c565b60006040518083038186803b1580156135e357600080fd5b505af41580156135f7573d6000803e3d6000fd5b505050506001600f0173__AddressOrderedMap_____________________63abc7dfcc90916040518263ffffffff1660e01b8152600401613638919061539c565b60006040518083038186803b15801561365057600080fd5b505af4158015613664573d6000803e3d6000fd5b505050506001600a0173__AddressOrderedMap_____________________63abc7dfcc90916040518263ffffffff1660e01b81526004016136a5919061539c565b60006040518083038186803b1580156136bd57600080fd5b505af41580156136d1573d6000803e3d6000fd5b50505050565b601560010173__AddressLinkedList_____________________637fc06cef90916040518263ffffffff1660e01b81526004016137149190615381565b60006040518083038186803b15801561372c57600080fd5b505af4158015613740573d6000803e3d6000fd5b50505050601a60010173__AddressLinkedList_____________________637fc06cef90916040518263ffffffff1660e01b81526004016137819190615381565b60006040518083038186803b15801561379957600080fd5b505af41580156137ad573d6000803e3d6000fd5b50505050601a60050173__AddressOrderedMap_____________________63abc7dfcc90916040518263ffffffff1660e01b81526004016137ee919061539c565b60006040518083038186803b15801561380657600080fd5b505af415801561381a573d6000803e3d6000fd5b50505050601a600a0173__AddressOrderedMap_____________________63abc7dfcc90916040518263ffffffff1660e01b815260040161385b919061539c565b60006040518083038186803b15801561387357600080fd5b505af4158015613887573d6000803e3d6000fd5b50505050565b6000600160000160008373ffffffffffffffffffffffffffffffffffffffff1673ffffffffffffffffffffffffffffffffffffffff168152602001908152602001600020600a015414613915576040517f08c379a000000000000000000000000000000000000000000000000000000000815260040161390c906156cc565b60405180910390fd5b50565b60008214806139275750818310155b613966576040517f08c379a000000000000000000000000000000000000000000000000000000000815260040161395d906155ce565b60405180910390fd5b60008114806139755750808311155b6139b4576040517f08c379a00000000000000000000000000000000000000000000000000000000081526004016139ab9061563a565b60405180910390fd5b505050565b601560010173__AddressLinkedList_____________________63c40b47ad9091836040518363ffffffff1660e01b81526004016139f8929190614d07565b602060405180830381865af4158015613a15573d6000803e3d6000fd5b505050506040513d601f19601f82011682018060405250810190613a399190615701565b613a78576040517f08c379a0000000000000000000000000000000000000000000000000000000008152600401613a6f9061577a565b60405180910390fd5b50565b604051806101400160405280600a905b613a93613aa9565b815260200190600190039081613a8b5790505090565b604051806101e00160405280600073ffffffffffffffffffffffffffffffffffffffff168152602001600073ffffffffffffffffffffffffffffffffffffffff1681526020016000151581526020016060815260200160608152602001606081526020016060815260200160608152602001600081526020016000815260200160008152602001600081526020016000815260200160008152602001600081525090565b60405180610100016040528060608152602001606081526020016060815260200160608152602001600081526020016000815260200160008152602001600081525090565b6040518061018001604052806060815260200160608152602001606081526020016060815260200160008152602001600081526020016000815260200160008152602001600081526020016000815260200160008152602001600081525090565b604051806102000160405280600073ffffffffffffffffffffffffffffffffffffffff168152602001600073ffffffffffffffffffffffffffffffffffffffff168152602001600073ffffffffffffffffffffffffffffffffffffffff16815260200160001515815260200160608152602001606081526020016060815260200160608152602001613c83613d34565b8152602001600081526020016000815260200160008152602001600081526020016000815260200160008152602001600081525090565b604051806101400160405280600a905b613cd2613d5b565b815260200190600190039081613cca5790505090565b8260038101928215613d23579160200282015b82811115613d22578251829081613d1291906151d7565b5091602001919060010190613cfb565b5b509050613d309190613d92565b5090565b60405180606001604052806003905b6060815260200190600190039081613d435790505090565b6040518060600160405280600073ffffffffffffffffffffffffffffffffffffffff16815260200160608152602001600081525090565b5b80821115613db25760008181613da99190613db6565b50600101613d93565b5090565b508054613dc290614ffa565b6000825580601f10613dd45750613df3565b601f016020900490600052602060002090810190613df29190613df6565b5b50565b5b80821115613e0f576000816000905550600101613df7565b5090565b6000604051905090565b600080fd5b600080fd5b600073ffffffffffffffffffffffffffffffffffffffff82169050919050565b6000613e5282613e27565b9050919050565b613e6281613e47565b8114613e6d57600080fd5b50565b600081359050613e7f81613e59565b92915050565b6000819050919050565b613e9881613e85565b8114613ea357600080fd5b50565b600081359050613eb581613e8f565b92915050565b60008115159050919050565b613ed081613ebb565b8114613edb57600080fd5b50565b600081359050613eed81613ec7565b92915050565b60008060008060808587031215613f0d57613f0c613e1d565b5b6000613f1b87828801613e70565b9450506020613f2c87828801613e70565b9350506040613f3d87828801613ea6565b9250506060613f4e87828801613ede565b91505092959194509250565b6000600a9050919050565b600081905092915050565b6000819050919050565b613f8381613e47565b82525050565b613f9281613ebb565b82525050565b600081519050919050565b600082825260208201905092915050565b60005b83811015613fd2578082015181840152602081019050613fb7565b60008484015250505050565b6000601f19601f8301169050919050565b6000613ffa82613f98565b6140048185613fa3565b9350614014818560208601613fb4565b61401d81613fde565b840191505092915050565b61403181613e85565b82525050565b60006101e0830160008301516140506000860182613f7a565b5060208301516140636020860182613f7a565b5060408301516140766040860182613f89565b506060830151848203606086015261408e8282613fef565b915050608083015184820360808601526140a88282613fef565b91505060a083015184820360a08601526140c28282613fef565b91505060c083015184820360c08601526140dc8282613fef565b91505060e083015184820360e08601526140f68282613fef565b91505061010083015161410d610100860182614028565b50610120830151614122610120860182614028565b50610140830151614137610140860182614028565b5061016083015161414c610160860182614028565b50610180830151614161610180860182614028565b506101a08301516141766101a0860182614028565b506101c083015161418b6101c0860182614028565b508091505092915050565b60006141a28383614037565b905092915050565b6000602082019050919050565b60006141c282613f5a565b6141cc8185613f65565b9350836020820285016141de85613f70565b8060005b8581101561421a57848403895281516141fb8582614196565b9450614206836141aa565b925060208a019950506001810190506141e2565b50829750879550505050505092915050565b61423581613e47565b82525050565b61424481613ebb565b82525050565b6000606082019050818103600083015261426481866141b7565b9050614273602083018561422c565b614280604083018461423b565b949350505050565b6000806040838503121561429f5761429e613e1d565b5b60006142ad85828601613e70565b92505060206142be85828601613ede565b9150509250929050565b600060408201905081810360008301526142e281856141b7565b90506142f1602083018461422c565b9392505050565b600080fd5b600080fd5b7f4e487b7100000000000000000000000000000000000000000000000000000000600052604160045260246000fd5b61433a82613fde565b810181811067ffffffffffffffff8211171561435957614358614302565b5b80604052505050565b600061436c613e13565b90506143788282614331565b919050565b600067ffffffffffffffff82111561439857614397614302565b5b6143a182613fde565b9050602081019050919050565b82818337600083830152505050565b60006143d06143cb8461437d565b614362565b9050828152602081018484840111156143ec576143eb6142fd565b5b6143f78482856143ae565b509392505050565b600082601f830112614414576144136142f8565b5b81356144248482602086016143bd565b91505092915050565b60006020828403121561444357614442613e1d565b5b600082013567ffffffffffffffff81111561446157614460613e22565b5b61446d848285016143ff565b91505092915050565b60006020828403121561448c5761448b613e1d565b5b600061449a84828501613e70565b91505092915050565b60006101008301600083015184820360008601526144c18282613fef565b915050602083015184820360208601526144db8282613fef565b915050604083015184820360408601526144f58282613fef565b9150506060830151848203606086015261450f8282613fef565b91505060808301516145246080860182614028565b5060a083015161453760a0860182614028565b5060c083015161454a60c0860182614028565b5060e083015161455d60e0860182614028565b508091505092915050565b6000602082019050818103600083015261458281846144a3565b905092915050565b60006101808301600083015184820360008601526145a88282613fef565b915050602083015184820360208601526145c28282613fef565b915050604083015184820360408601526145dc8282613fef565b915050606083015184820360608601526145f68282613fef565b915050608083015161460b6080860182614028565b5060a083015161461e60a0860182614028565b5060c083015161463160c0860182614028565b5060e083015161464460e0860182614028565b50610100830151614659610100860182614028565b5061012083015161466e610120860182614028565b50610140830151614683610140860182614028565b50610160830151614698610160860182614028565b508091505092915050565b600060208201905081810360008301526146bd818461458a565b905092915050565b60006020820190506146da600083018461423b565b92915050565b600060039050919050565b600081905092915050565b6000819050919050565b600061470c8383613fef565b905092915050565b6000602082019050919050565b600061472c826146e0565b61473681856146eb565b935083602082028501614748856146f6565b8060005b8581101561478457848403895281516147658582614700565b945061477083614714565b925060208a0199505060018101905061474c565b50829750879550505050505092915050565b6000610200830160008301516147af6000860182613f7a565b5060208301516147c26020860182613f7a565b5060408301516147d56040860182613f7a565b5060608301516147e86060860182613f89565b50608083015184820360808601526148008282613fef565b91505060a083015184820360a086015261481a8282613fef565b91505060c083015184820360c08601526148348282613fef565b91505060e083015184820360e086015261484e8282613fef565b91505061010083015184820361010086015261486a8282614721565b915050610120830151614881610120860182614028565b50610140830151614896610140860182614028565b506101608301516148ab610160860182614028565b506101808301516148c0610180860182614028565b506101a08301516148d56101a0860182614028565b506101c08301516148ea6101c0860182614028565b506101e08301516148ff6101e0860182614028565b508091505092915050565b600060208201905081810360008301526149248184614796565b905092915050565b6000600a9050919050565b600081905092915050565b6000819050919050565b60006060830160008301516149646000860182613f7a565b506020830151848203602086015261497c8282613fef565b91505060408301516149916040860182614028565b508091505092915050565b60006149a8838361494c565b905092915050565b6000602082019050919050565b60006149c88261492c565b6149d28185614937565b9350836020820285016149e485614942565b8060005b85811015614a205784840389528151614a01858261499c565b9450614a0c836149b0565b925060208a019950506001810190506149e8565b50829750879550505050505092915050565b60006040820190508181036000830152614a4c81856149bd565b9050614a5b602083018461422c565b9392505050565b600067ffffffffffffffff821115614a7d57614a7c614302565b5b602082029050919050565b600080fd5b6000614aa0614a9b84614a62565b614362565b90508060208402830185811115614aba57614ab9614a88565b5b835b81811015614b0157803567ffffffffffffffff811115614adf57614ade6142f8565b5b808601614aec89826143ff565b85526020850194505050602081019050614abc565b5050509392505050565b600082601f830112614b2057614b1f6142f8565b5b6003614b2d848285614a8d565b91505092915050565b600080600080600080600060e0888a031215614b5557614b54613e1d565b5b600088013567ffffffffffffffff811115614b7357614b72613e22565b5b614b7f8a828b016143ff565b975050602088013567ffffffffffffffff811115614ba057614b9f613e22565b5b614bac8a828b016143ff565b965050604088013567ffffffffffffffff811115614bcd57614bcc613e22565b5b614bd98a828b016143ff565b955050606088013567ffffffffffffffff811115614bfa57614bf9613e22565b5b614c068a828b016143ff565b9450506080614c178a828b01613e70565b93505060a088013567ffffffffffffffff811115614c3857614c37613e22565b5b614c448a828b01614b0b565b92505060c0614c558a828b01613ea6565b91505092959891949750929550565b6000602082019050614c79600083018461422c565b92915050565b8082525050565b614c8f81613e47565b82525050565b6000604082019050614caa6000830185614c7f565b614cb76020830184614c86565b9392505050565b600081519050614ccd81613e59565b92915050565b600060208284031215614ce957614ce8613e1d565b5b6000614cf784828501614cbe565b91505092915050565b8082525050565b6000604082019050614d1c6000830185614d00565b614d296020830184614c86565b9392505050565b7f4e487b7100000000000000000000000000000000000000000000000000000000600052603260045260246000fd5b7f4e487b7100000000000000000000000000000000000000000000000000000000600052601160045260246000fd5b6000614d9982613e85565b91507fffffffffffffffffffffffffffffffffffffffffffffffffffffffffffffffff8203614dcb57614dca614d5f565b5b600182019050919050565b614ddf81613ebb565b82525050565b6000606082019050614dfa6000830186614d00565b614e076020830185614c86565b614e146040830184614dd6565b949350505050565b600067ffffffffffffffff821115614e3757614e36614302565b5b602082029050919050565b6000614e55614e5084614e1c565b614362565b90508060208402830185811115614e6f57614e6e614a88565b5b835b81811015614e985780614e848882614cbe565b845260208401935050602081019050614e71565b5050509392505050565b600082601f830112614eb757614eb66142f8565b5b600a614ec4848285614e42565b91505092915050565b60006101408284031215614ee457614ee3613e1d565b5b6000614ef284828501614ea2565b91505092915050565b600082825260208201905092915050565b7f41646d696e436f6e74726163743e5f6f6e6c7941646d696e5f00000000000000600082015250565b6000614f42601983614efb565b9150614f4d82614f0c565b602082019050919050565b60006020820190508181036000830152614f7181614f35565b9050919050565b600081905092915050565b6000614f8e82613f98565b614f988185614f78565b9350614fa8818560208601613fb4565b80840191505092915050565b6000614fc08284614f83565b915081905092915050565b7f4e487b7100000000000000000000000000000000000000000000000000000000600052602260045260246000fd5b6000600282049050600182168061501257607f821691505b60208210810361502557615024614fcb565b5b50919050565b60008190508160005260206000209050919050565b60006020601f8301049050919050565b600082821b905092915050565b60006008830261508d7fffffffffffffffffffffffffffffffffffffffffffffffffffffffffffffffff82615050565b6150978683615050565b95508019841693508086168417925050509392505050565b6000819050919050565b60006150d46150cf6150ca84613e85565b6150af565b613e85565b9050919050565b6000819050919050565b6150ee836150b9565b6151026150fa826150db565b84845461505d565b825550505050565b600090565b61511761510a565b6151228184846150e5565b505050565b5b818110156151465761513b60008261510f565b600181019050615128565b5050565b601f82111561518b5761515c8161502b565b61516584615040565b81016020851015615174578190505b61518861518085615040565b830182615127565b50505b505050565b600082821c905092915050565b60006151ae60001984600802615190565b1980831691505092915050565b60006151c7838361519d565b9150826002028217905092915050565b6151e082613f98565b67ffffffffffffffff8111156151f9576151f8614302565b5b6152038254614ffa565b61520e82828561514a565b600060209050601f831160018114615241576000841561522f578287015190505b61523985826151bb565b8655506152a1565b601f19841661524f8661502b565b60005b8281101561527757848901518255600182019150602085019450602081019050615252565b868310156152945784890151615290601f89168261519d565b8355505b6001600288020188555050505b505050505050565b7f41646d696e436f6e74726163743e7472616e7366657241646d696e0000000000600082015250565b60006152df601b83614efb565b91506152ea826152a9565b602082019050919050565b6000602082019050818103600083015261530e816152d2565b9050919050565b7f696e697469616c697a6564000000000000000000000000000000000000000000600082015250565b600061534b600b83614efb565b915061535682615315565b602082019050919050565b6000602082019050818103600083015261537a8161533e565b9050919050565b60006020820190506153966000830184614d00565b92915050565b60006020820190506153b16000830184614c7f565b92915050565b6153c081613e47565b82525050565b6153cf81613e85565b82525050565b6040820160008201516153eb60008501826153b7565b5060208201516153fe60208501826153c6565b50505050565b60006060820190506154196000830185614c7f565b61542660208301846153d5565b9392505050565b60008160601b9050919050565b60006154458261542d565b9050919050565b60006154578261543a565b9050919050565b61546f61546a82613e47565b61544c565b82525050565b6000615481828461545e565b60148201915081905092915050565b7f45303a20557365722e736f6c3e55736572436f6e74726163743e5f726567697360008201527f74657265645f0000000000000000000000000000000000000000000000000000602082015250565b60006154ec602683614efb565b91506154f782615490565b604082019050919050565b6000602082019050818103600083015261551b816154df565b9050919050565b7f4e487b7100000000000000000000000000000000000000000000000000000000600052601260045260246000fd5b600061555c82613e85565b915061556783613e85565b92508261557757615576615522565b5b828204905092915050565b7f42617365436f6e746163743e5f72616e67655f3e310000000000000000000000600082015250565b60006155b8601583614efb565b91506155c382615582565b602082019050919050565b600060208201905081810360008301526155e7816155ab565b9050919050565b7f42617365436f6e746163743e5f72616e67655f3e320000000000000000000000600082015250565b6000615624601583614efb565b915061562f826155ee565b602082019050919050565b6000602082019050818103600083015261565381615617565b9050919050565b7f45313a20557365722e736f6c3e55736572436f6e74726163743e5f6e6f74526560008201527f67697374657265645f0000000000000000000000000000000000000000000000602082015250565b60006156b6602983614efb565b91506156c18261565a565b604082019050919050565b600060208201905081810360008301526156e5816156a9565b9050919050565b6000815190506156fb81613ec7565b92915050565b60006020828403121561571757615716613e1d565b5b6000615725848285016156ec565b91505092915050565b7f42617365436f6e746163743e5f76616c696443617465676f72795f0000000000600082015250565b6000615764601b83614efb565b915061576f8261572e565b602082019050919050565b6000602082019050818103600083015261579381615757565b905091905056fea26469706673582212209527ce3a090911093df24c09108b1b07f26abc928efe0f155bb55e92d6f2bd9d64736f6c63430008110033",
  "immutableReferences": {},
  "source": "// SPDX-License-Identifier: GPL-3.0\r\npragma solidity ^0.8.17;\r\n\r\nimport \"./implementations/base/Base.sol\";\r\nimport \"./implementations/File.sol\";\r\nimport \"./implementations/Reward.sol\";\r\nimport \"./implementations/User.sol\";\r\n\r\ninterface ImplementationInterface is AdminInterface, UserInterface, FileInterface, RewardInterface {\r\n    function init() external;\r\n}\r\n\r\ncontract ImplementationContact is UserContract, FileContact, RewardContact {\r\n    function init()\r\n    public {\r\n        require(admin != address(0), \"initialized\");\r\n        admin = msg.sender;\r\n        UserContract_init();\r\n        FileContact_init();\r\n    }\r\n}\r\n\r\ncontract OurShare is AdminContract {\r\n    bytes32 private constant implementation_position = keccak256(\"OurShare\");\r\n\r\n    constructor(){\r\n        admin = msg.sender;\r\n    }\r\n\r\n    function getImplementation() public view returns (address implementation) {\r\n        bytes32 position = implementation_position;\r\n        assembly {\r\n            implementation := sload(position)\r\n        }\r\n    }\r\n\r\n    function setImplementation(address implementation) public _onlyAdmin_ {\r\n        bytes32 position = implementation_position;\r\n        assembly {\r\n            sstore(position, implementation)\r\n        }\r\n    }\r\n\r\n    function _delegate(address implementation) internal {\r\n        assembly {\r\n            calldatacopy(0, 0, calldatasize())\r\n            let result := delegatecall(gas(), implementation, 0, calldatasize(), 0, 0)\r\n            returndatacopy(0, 0, returndatasize())\r\n            switch result\r\n            case 0 {\r\n                revert(0, returndatasize())\r\n            }\r\n            default {\r\n                return (0, returndatasize())\r\n            }\r\n        }\r\n    }\r\n\r\n    fallback() external payable {\r\n        _delegate(getImplementation());\r\n    }\r\n\r\n    receive() external payable {\r\n        _delegate(getImplementation());\r\n    }\r\n}\r\n",
  "sourcePath": "F:\\OurChain\\OurShare\\src\\assets\\eth\\contracts\\OurShare.sol",
  "compiler": {
    "name": "solc",
    "version": "0.8.17+commit.8df45f5f.Emscripten.clang"
  },
  "schemaVersion": "3.4.13",
  "updatedAt": "2023-05-25T02:32:13.151Z",
  "networkType": "ethereum",
  "devdoc": {
    "kind": "dev",
    "methods": {},
    "version": 1
  },
  "userdoc": {
    "kind": "user",
    "methods": {},
    "version": 1
  }
}