{
  "contractName": "OurShare",
  "abi": [
    {
      "inputs": [],
      "stateMutability": "nonpayable",
      "type": "constructor"
    },
    {
      "anonymous": false,
      "inputs": [
        {
          "indexed": true,
          "internalType": "address",
          "name": "old_admin",
          "type": "address"
        },
        {
          "indexed": true,
          "internalType": "address",
          "name": "new_admin",
          "type": "address"
        }
      ],
      "name": "AdminTransferred",
      "type": "event"
    },
    {
      "stateMutability": "payable",
      "type": "fallback",
      "payable": true
    },
    {
      "inputs": [],
      "name": "admin",
      "outputs": [
        {
          "internalType": "address",
          "name": "",
          "type": "address"
        }
      ],
      "stateMutability": "view",
      "type": "function",
      "constant": true
    },
    {
      "inputs": [],
      "name": "renounceAdmin",
      "outputs": [],
      "stateMutability": "nonpayable",
      "type": "function"
    },
    {
      "inputs": [
        {
          "internalType": "address",
          "name": "new_admin",
          "type": "address"
        }
      ],
      "name": "transferAdmin",
      "outputs": [],
      "stateMutability": "nonpayable",
      "type": "function"
    },
    {
      "stateMutability": "payable",
      "type": "receive",
      "payable": true
    },
    {
      "inputs": [],
      "name": "getImplementation",
      "outputs": [
        {
          "internalType": "address",
          "name": "implementation",
          "type": "address"
        }
      ],
      "stateMutability": "view",
      "type": "function",
      "constant": true
    },
    {
      "inputs": [
        {
          "internalType": "address",
          "name": "implementation",
          "type": "address"
        }
      ],
      "name": "setImplementation",
      "outputs": [],
      "stateMutability": "nonpayable",
      "type": "function"
    }
  ],
  "bytecode": "0x608060405234801561001057600080fd5b50336000806101000a81548173ffffffffffffffffffffffffffffffffffffffff021916908373ffffffffffffffffffffffffffffffffffffffff1602179055506106a8806100606000396000f3fe60806040526004361061004e5760003560e01c806375829def146100775780638bad0c0a146100a0578063aaf10f42146100b7578063d784d426146100e2578063f851a4401461010b57610065565b366100655761006361005e610136565b610164565b005b610075610070610136565b610164565b005b34801561008357600080fd5b5061009e60048036038101906100999190610532565b61018a565b005b3480156100ac57600080fd5b506100b5610293565b005b3480156100c357600080fd5b506100cc610136565b6040516100d9919061056e565b60405180910390f35b3480156100ee57600080fd5b5061010960048036038101906101049190610532565b61032d565b005b34801561011757600080fd5b506101206103e7565b60405161012d919061056e565b60405180910390f35b6000807f83b120dcec6431b431aa375a0c3da636d7b0d85fae5f77576b0a2964d76e3c139050805491505090565b3660008037600080366000845af43d6000803e8060008114610185573d6000f35b3d6000fd5b3373ffffffffffffffffffffffffffffffffffffffff1660008054906101000a900473ffffffffffffffffffffffffffffffffffffffff1673ffffffffffffffffffffffffffffffffffffffff1614610218576040517f08c379a000000000000000000000000000000000000000000000000000000000815260040161020f906105e6565b60405180910390fd5b600073ffffffffffffffffffffffffffffffffffffffff168173ffffffffffffffffffffffffffffffffffffffff1603610287576040517f08c379a000000000000000000000000000000000000000000000000000000000815260040161027e90610652565b60405180910390fd5b6102908161040b565b50565b3373ffffffffffffffffffffffffffffffffffffffff1660008054906101000a900473ffffffffffffffffffffffffffffffffffffffff1673ffffffffffffffffffffffffffffffffffffffff1614610321576040517f08c379a0000000000000000000000000000000000000000000000000000000008152600401610318906105e6565b60405180910390fd5b61032b600061040b565b565b3373ffffffffffffffffffffffffffffffffffffffff1660008054906101000a900473ffffffffffffffffffffffffffffffffffffffff1673ffffffffffffffffffffffffffffffffffffffff16146103bb576040517f08c379a00000000000000000000000000000000000000000000000000000000081526004016103b2906105e6565b60405180910390fd5b60007f83b120dcec6431b431aa375a0c3da636d7b0d85fae5f77576b0a2964d76e3c1390508181555050565b60008054906101000a900473ffffffffffffffffffffffffffffffffffffffff1681565b60008060009054906101000a900473ffffffffffffffffffffffffffffffffffffffff169050816000806101000a81548173ffffffffffffffffffffffffffffffffffffffff021916908373ffffffffffffffffffffffffffffffffffffffff1602179055508173ffffffffffffffffffffffffffffffffffffffff168173ffffffffffffffffffffffffffffffffffffffff167ff8ccb027dfcd135e000e9d45e6cc2d662578a8825d4c45b5e32e0adf67e79ec660405160405180910390a35050565b600080fd5b600073ffffffffffffffffffffffffffffffffffffffff82169050919050565b60006104ff826104d4565b9050919050565b61050f816104f4565b811461051a57600080fd5b50565b60008135905061052c81610506565b92915050565b600060208284031215610548576105476104cf565b5b60006105568482850161051d565b91505092915050565b610568816104f4565b82525050565b6000602082019050610583600083018461055f565b92915050565b600082825260208201905092915050565b7f41646d696e436f6e74726163743e5f6f6e6c7941646d696e5f00000000000000600082015250565b60006105d0601983610589565b91506105db8261059a565b602082019050919050565b600060208201905081810360008301526105ff816105c3565b9050919050565b7f41646d696e436f6e74726163743e7472616e7366657241646d696e0000000000600082015250565b600061063c601b83610589565b915061064782610606565b602082019050919050565b6000602082019050818103600083015261066b8161062f565b905091905056fea2646970667358221220426624538fd396f8abada90d3c0eb74755c5dda358d674116ae27429c88f403364736f6c63430008110033",
  "immutableReferences": {},
  "source": "// SPDX-License-Identifier: GPL-3.0\r\npragma solidity ^0.8.17;\r\n\r\nimport \"./implementations/base/Base.sol\";\r\nimport \"./implementations/User.sol\";\r\nimport \"./implementations/File.sol\";\r\nimport \"./implementations/Reward.sol\";\r\nimport \"./implementations/Message.sol\";\r\n\r\ninterface ImplementationInterface is AdminInterface, UserInterface, FileInterface, RewardInterface, MessageInterface {\r\n    function init() external;\r\n}\r\n\r\ncontract ImplementationContact is UserContract, FileContact, RewardContact, MessageContact {\r\n    function init()\r\n    public {\r\n        require(admin != address(0), \"initialized\");\r\n        admin = msg.sender;\r\n        UserContract_init();\r\n        FileContract_init();\r\n//        RewardContract_init();\r\n        MessageContract_init();\r\n    }\r\n}\r\n\r\ncontract OurShare is AdminContract {\r\n    bytes32 private constant implementation_position = keccak256(\"OurShare\");\r\n\r\n    constructor(){\r\n        admin = msg.sender;\r\n    }\r\n\r\n    function getImplementation() public view returns (address implementation) {\r\n        bytes32 position = implementation_position;\r\n        assembly {\r\n            implementation := sload(position)\r\n        }\r\n    }\r\n\r\n    function setImplementation(address implementation) public _onlyAdmin_ {\r\n        bytes32 position = implementation_position;\r\n        assembly {\r\n            sstore(position, implementation)\r\n        }\r\n    }\r\n\r\n    function _delegate(address implementation) internal {\r\n        assembly {\r\n            calldatacopy(0, 0, calldatasize())\r\n            let result := delegatecall(gas(), implementation, 0, calldatasize(), 0, 0)\r\n            returndatacopy(0, 0, returndatasize())\r\n            switch result\r\n            case 0 {\r\n                revert(0, returndatasize())\r\n            }\r\n            default {\r\n                return (0, returndatasize())\r\n            }\r\n        }\r\n    }\r\n\r\n    fallback() external payable {\r\n        _delegate(getImplementation());\r\n    }\r\n\r\n    receive() external payable {\r\n        _delegate(getImplementation());\r\n    }\r\n}\r\n",
  "sourcePath": "F:\\OurChain\\OurShare\\src\\assets\\eth\\contracts\\OurShare.sol",
  "compiler": {
    "name": "solc",
    "version": "0.8.17+commit.8df45f5f.Emscripten.clang"
  },
  "schemaVersion": "3.4.13",
  "updatedAt": "2023-05-25T05:46:20.023Z",
  "networkType": "ethereum",
  "devdoc": {
    "kind": "dev",
    "methods": {},
    "version": 1
  },
  "userdoc": {
    "kind": "user",
    "methods": {},
    "version": 1
  }
}