{
  "contractName": "User",
  "abi": [
    {
      "inputs": [],
      "name": "supply",
      "outputs": [
        {
          "internalType": "uint256",
          "name": "",
          "type": "uint256"
        }
      ],
      "stateMutability": "view",
      "type": "function",
      "constant": true
    },
    {
      "inputs": [
        {
          "internalType": "string",
          "name": "nickname",
          "type": "string"
        }
      ],
      "name": "register",
      "outputs": [
        {
          "components": [
            {
              "internalType": "string",
              "name": "avatar",
              "type": "string"
            },
            {
              "internalType": "string",
              "name": "nickname",
              "type": "string"
            },
            {
              "internalType": "string",
              "name": "signature",
              "type": "string"
            },
            {
              "internalType": "address[]",
              "name": "following",
              "type": "address[]"
            },
            {
              "internalType": "address[]",
              "name": "follower",
              "type": "address[]"
            },
            {
              "internalType": "uint256",
              "name": "ID",
              "type": "uint256"
            },
            {
              "internalType": "string",
              "name": "major",
              "type": "string"
            }
          ],
          "internalType": "struct User.UserInfo",
          "name": "user_info",
          "type": "tuple"
        }
      ],
      "stateMutability": "nonpayable",
      "type": "function"
    },
    {
      "inputs": [
        {
          "internalType": "address",
          "name": "user",
          "type": "address"
        }
      ],
      "name": "isRegistered",
      "outputs": [
        {
          "internalType": "bool",
          "name": "is_registered",
          "type": "bool"
        }
      ],
      "stateMutability": "view",
      "type": "function",
      "constant": true
    }
  ],
  "bytecode": "0x6080604052600a60005534801561001557600080fd5b50610c3b806100256000396000f3fe608060405234801561001057600080fd5b50600436106100415760003560e01c8063047fc9aa14610046578063c3c5a54714610064578063f2c298be14610094575b600080fd5b61004e6100c4565b60405161005b91906103fe565b60405180910390f35b61007e6004803603810190610079919061048b565b6100ca565b60405161008b91906104d3565b60405180910390f35b6100ae60048036038101906100a99190610634565b610120565b6040516100bb9190610888565b60405180910390f35b60005481565b6000600260008373ffffffffffffffffffffffffffffffffffffffff1673ffffffffffffffffffffffffffffffffffffffff16815260200190815260200160002060009054906101000a900460ff169050919050565b610128610301565b600260003373ffffffffffffffffffffffffffffffffffffffff1673ffffffffffffffffffffffffffffffffffffffff16815260200190815260200160002060009054906101000a900460ff16156101b5576040517f08c379a00000000000000000000000000000000000000000000000000000000081526004016101ac90610907565b60405180910390fd5b6060806040518060e001604052806040518060200160405280600081525081526020018581526020016040518060200160405280600081525081526020018381526020018281526020016000815260200160405180602001604052806000815250815250925082600160003373ffffffffffffffffffffffffffffffffffffffff1673ffffffffffffffffffffffffffffffffffffffff16815260200190815260200160002060008201518160000190816102709190610b33565b5060208201518160010190816102869190610b33565b50604082015181600201908161029c9190610b33565b5060608201518160030190805190602001906102b992919061033e565b5060808201518160040190805190602001906102d692919061033e565b5060a0820151816005015560c08201518160060190816102f69190610b33565b509050505050919050565b6040518060e00160405280606081526020016060815260200160608152602001606081526020016060815260200160008152602001606081525090565b8280548282559060005260206000209081019282156103b7579160200282015b828111156103b65782518260006101000a81548173ffffffffffffffffffffffffffffffffffffffff021916908373ffffffffffffffffffffffffffffffffffffffff1602179055509160200191906001019061035e565b5b5090506103c491906103c8565b5090565b5b808211156103e15760008160009055506001016103c9565b5090565b6000819050919050565b6103f8816103e5565b82525050565b600060208201905061041360008301846103ef565b92915050565b6000604051905090565b600080fd5b600080fd5b600073ffffffffffffffffffffffffffffffffffffffff82169050919050565b60006104588261042d565b9050919050565b6104688161044d565b811461047357600080fd5b50565b6000813590506104858161045f565b92915050565b6000602082840312156104a1576104a0610423565b5b60006104af84828501610476565b91505092915050565b60008115159050919050565b6104cd816104b8565b82525050565b60006020820190506104e860008301846104c4565b92915050565b600080fd5b600080fd5b6000601f19601f8301169050919050565b7f4e487b7100000000000000000000000000000000000000000000000000000000600052604160045260246000fd5b610541826104f8565b810181811067ffffffffffffffff821117156105605761055f610509565b5b80604052505050565b6000610573610419565b905061057f8282610538565b919050565b600067ffffffffffffffff82111561059f5761059e610509565b5b6105a8826104f8565b9050602081019050919050565b82818337600083830152505050565b60006105d76105d284610584565b610569565b9050828152602081018484840111156105f3576105f26104f3565b5b6105fe8482856105b5565b509392505050565b600082601f83011261061b5761061a6104ee565b5b813561062b8482602086016105c4565b91505092915050565b60006020828403121561064a57610649610423565b5b600082013567ffffffffffffffff81111561066857610667610428565b5b61067484828501610606565b91505092915050565b600081519050919050565b600082825260208201905092915050565b60005b838110156106b757808201518184015260208101905061069c565b60008484015250505050565b60006106ce8261067d565b6106d88185610688565b93506106e8818560208601610699565b6106f1816104f8565b840191505092915050565b600081519050919050565b600082825260208201905092915050565b6000819050602082019050919050565b6107318161044d565b82525050565b60006107438383610728565b60208301905092915050565b6000602082019050919050565b6000610767826106fc565b6107718185610707565b935061077c83610718565b8060005b838110156107ad5781516107948882610737565b975061079f8361074f565b925050600181019050610780565b5085935050505092915050565b6107c3816103e5565b82525050565b600060e08301600083015184820360008601526107e682826106c3565b9150506020830151848203602086015261080082826106c3565b9150506040830151848203604086015261081a82826106c3565b91505060608301518482036060860152610834828261075c565b9150506080830151848203608086015261084e828261075c565b91505060a083015161086360a08601826107ba565b5060c083015184820360c086015261087b82826106c3565b9150508091505092915050565b600060208201905081810360008301526108a281846107c9565b905092915050565b600082825260208201905092915050565b7f4531000000000000000000000000000000000000000000000000000000000000600082015250565b60006108f16002836108aa565b91506108fc826108bb565b602082019050919050565b60006020820190508181036000830152610920816108e4565b9050919050565b7f4e487b7100000000000000000000000000000000000000000000000000000000600052602260045260246000fd5b6000600282049050600182168061096e57607f821691505b60208210810361098157610980610927565b5b50919050565b60008190508160005260206000209050919050565b60006020601f8301049050919050565b600082821b905092915050565b6000600883026109e97fffffffffffffffffffffffffffffffffffffffffffffffffffffffffffffffff826109ac565b6109f386836109ac565b95508019841693508086168417925050509392505050565b6000819050919050565b6000610a30610a2b610a26846103e5565b610a0b565b6103e5565b9050919050565b6000819050919050565b610a4a83610a15565b610a5e610a5682610a37565b8484546109b9565b825550505050565b600090565b610a73610a66565b610a7e818484610a41565b505050565b5b81811015610aa257610a97600082610a6b565b600181019050610a84565b5050565b601f821115610ae757610ab881610987565b610ac18461099c565b81016020851015610ad0578190505b610ae4610adc8561099c565b830182610a83565b50505b505050565b600082821c905092915050565b6000610b0a60001984600802610aec565b1980831691505092915050565b6000610b238383610af9565b9150826002028217905092915050565b610b3c8261067d565b67ffffffffffffffff811115610b5557610b54610509565b5b610b5f8254610956565b610b6a828285610aa6565b600060209050601f831160018114610b9d5760008415610b8b578287015190505b610b958582610b17565b865550610bfd565b601f198416610bab86610987565b60005b82811015610bd357848901518255600182019150602085019450602081019050610bae565b86831015610bf05784890151610bec601f891682610af9565b8355505b6001600288020188555050505b50505050505056fea264697066735822122026f545f69b1fa95cc69ba0382dbfbd19e01f6654156b43128ed2017fb2d6ed2964736f6c63430008130033",
  "immutableReferences": {},
  "source": "// SPDX-License-Identifier: UNLICENSED\r\npragma solidity ^0.8.0;\r\n\r\ncontract User {\r\n    uint public supply = 10;\r\n\r\n    struct UserInfo {\r\n        string avatar; // \r\n        string nickname; // \r\n        string signature; //\r\n        address[] following; //\r\n        address[] follower; //\r\n        uint ID; // ID\r\n        string major; // \r\n    }\r\n\r\n    mapping(address => UserInfo) users;\r\n    mapping(address => bool) _user;\r\n\r\n    modifier registered() {\r\n        require(_user[msg.sender], \"E0\");\r\n        _;\r\n    }\r\n\r\n    modifier notRegistered() {\r\n        require(!_user[msg.sender], \"E1\");\r\n        _;\r\n    }\r\n\r\n\r\n    function register(string memory nickname)\r\n    notRegistered public returns (UserInfo memory user_info) {\r\n        address[] memory following;\r\n        address[] memory follower;\r\n\r\n        user_info = UserInfo({\r\n            avatar: \"\",\r\n            nickname: nickname,\r\n            signature: \"\",\r\n            following: following,\r\n            follower: follower,\r\n            ID: 0,\r\n            major: \"\"\r\n        });\r\n\r\n        users[msg.sender] = user_info;\r\n    }\r\n\r\n    function isRegistered(address user)\r\n    public view returns (bool is_registered){\r\n        is_registered = _user[user];\r\n    }\r\n}\r\n",
  "sourcePath": "F:\\Sites\\Share\\frontend\\src\\assets\\eth\\contracts\\User.sol",
  "compiler": {
    "name": "solc",
    "version": "0.8.19+commit.7dd6d404.Emscripten.clang"
  },
  "schemaVersion": "3.4.13",
  "updatedAt": "2023-04-10T05:44:26.800Z",
  "networkType": "ethereum",
  "devdoc": {
    "kind": "dev",
    "methods": {},
    "version": 1
  },
  "userdoc": {
    "kind": "user",
    "methods": {},
    "version": 1
  }
}