{
  "contractName": "User",
  "abi": [
    {
      "inputs": [],
      "name": "supply",
      "outputs": [
        {
          "internalType": "uint256",
          "name": "",
          "type": "uint256"
        }
      ],
      "stateMutability": "view",
      "type": "function",
      "constant": true
    },
    {
      "inputs": [],
      "name": "symbol",
      "outputs": [
        {
          "internalType": "string",
          "name": "",
          "type": "string"
        }
      ],
      "stateMutability": "pure",
      "type": "function",
      "constant": true
    }
  ],
  "bytecode": "0x6080604052600a60005534801561001557600080fd5b506101d6806100256000396000f3fe608060405234801561001057600080fd5b50600436106100365760003560e01c8063047fc9aa1461003b57806395d89b4114610059575b600080fd5b610043610077565b60405161005091906100d3565b60405180910390f35b61006161007d565b60405161006e919061017e565b60405180910390f35b60005481565b60606040518060400160405280600581526020017f48454c4c4f000000000000000000000000000000000000000000000000000000815250905090565b6000819050919050565b6100cd816100ba565b82525050565b60006020820190506100e860008301846100c4565b92915050565b600081519050919050565b600082825260208201905092915050565b60005b8381101561012857808201518184015260208101905061010d565b60008484015250505050565b6000601f19601f8301169050919050565b6000610150826100ee565b61015a81856100f9565b935061016a81856020860161010a565b61017381610134565b840191505092915050565b600060208201905081810360008301526101988184610145565b90509291505056fea26469706673582212203accea005f172362c109c757c5ab8fa8aae23d2ea03c682eed600fae7cb0d48264736f6c63430008130033",
  "immutableReferences": {},
  "source": "// SPDX-License-Identifier: UNLICENSED\r\npragma solidity ^0.8.0;\r\n\r\ncontract User {\r\n    uint public supply=10;\r\n    function symbol()\r\n    public pure returns (string memory){\r\n        return \"HELLO\";\r\n    }\r\n}\r\n",
  "sourcePath": "F:\\Sites\\Share\\frontend\\src\\assets\\eth\\contracts\\User.sol",
  "compiler": {
    "name": "solc",
    "version": "0.8.19+commit.7dd6d404.Emscripten.clang"
  },
  "schemaVersion": "3.4.13",
  "updatedAt": "2023-04-06T10:55:49.830Z",
  "networkType": "ethereum",
  "devdoc": {
    "kind": "dev",
    "methods": {},
    "version": 1
  },
  "userdoc": {
    "kind": "user",
    "methods": {},
    "version": 1
  }
}